:020000040800F2
:10000000A80D0020315800083335040833350408A2
:1000100045510408333504083335040833350408E2
:100020003335040833350408333504083335040800
:100030003335040833350408912E04083335040899
:1000400033350408333504083335040833350408E0
:1000500033350408333504083335040833350408D0
:10006000333504083335040833350408DD0201084C
:10007000E7710408333504083335040833350408C0
:1000800033350408333504083335040833350408A0
:100090003335040899630008333504083335040800
:1000A00033350408A55F0008855F00083335040870
:1000B000333504088DE9020861F20208212505089C
:1000C0001D250508D5E90208372505082525050859
:1000D00031F2020829250508A1F2020809F30208F5
:1000E0003335040833350408333504083335040840
:1000F000274604083335040833350408333504082B
:10010000333504083335040833350408333504081F
:10011000333504083335040833350408333504080F
:1001200033350408333504083335040833350408FF
:1001300033350408333504083335040833350408EF
:10014000333504083335040833350408914A05086B
:10015000A1D30208333504080B250508112505082D
:1001600033350408333504083335040833350408BF
:10018000F0B5114A114C124E00F00105E3695F070A
:1001900013D40DB9334213D103EA00078F4207D1BC
:1001A0000B4A1A40002A0CBF00206FF00100F0BD7E
:1001B000013AEBD16FF00200F9E74FF0FF30F6E7BC
:1001C0006FF00100F3E700BF809698000000035035
:1001D000020001000B4B70B5D96911F480310DD1CB
:1001E00001244FF48072084E084DF46020462C64C0
:1001F0001A61FFF7C5FF3464EC6070BD6FF0010059
:10020000FBE700BF00000350001003500020035024
:100210004FF4803238B50E4B0E4C9A66E56941F6C4
:10022000713315400122E3630B4B0021DA60022396
:10023000606121202361FFF7A3FF10B92120FFF7A0
:100240009FFF0122054BDA600DB10023E36338BD47
:100250000090005000000350001003500020035095
:1002600070B5134C6061E3695B071ED40E4656F807
:10027000043B8D18A361AE420BD104230021212041
:100280002361FFF77DFF58B9BDE870402120FFF7DB
:1002900077BF08210846FFF773FF10B104232361DD
:1002A00070BD56F8043BA361E5E74FF0FF30F7E778
:1002B000000003502DE9F84315464FF48032184BE7
:1002C00089469A6603F51C33DF690646174041F6F6
:1002D0007132DA63012203F58053DFF84C80DA6073
:1002E00055B9284601220F4BDA601FB10022A3F551
:1002F0000053DA63BDE8F88306F5005404EA080405
:10030000A41BAC4228BF2C46494622463046FFF784
:10031000A7FF0028E6D12644A1442D1BE0E700BF3B
:10032000009000500020035000E0FFFF000000009C
:1003300000000000000000000000000000000000BD
:10034000013800D0FCE770472DE9F04F93B0CDE9BC
:100350000A32DDE91C530E9353EC102BCDE9080152
:10036000104619468DED060B1E9E11F0AFF980B1B7
:10037000DDE906014FF0FF32C54B11F0CFF940B96E
:10038000DDE906014FF0FF326FF4801311F0A8F998
:1003900070B1DDE908019DED060B0E9B1E96CDE9BF
:1003A0001C53DDE90A3213B0BDE8F04F00F088B904
:1003B0000022DDE90601002311F092F9002800F087
:1003C0003381DDE906A303F1004BCBF30A5016F4A9
:1003D0008063A0F2FF3008BF06250F9310F0A4FE43
:1003E0009BA3D3E9002310F009FF9BA3D3E90023CB
:1003F00010F04EFDCBF31304894644F07F51804644
:100400000022A44B504641F4401110F03FFD94A34C
:10041000D3E9002310F0F2FE02460B46404649465F
:1004200010F036FD11F084F9044610F07DFE8EA325
:10043000D3E900238046894610F0E0FE0022964B67
:1004400010F026FD11F074F989A3D3E900230746C3
:100450004946404610F0D2FE80463846894610F0A4
:1004600063FE85A3D3E9002310F0C8FE02460B46C5
:100470004046494610F00AFD02460B46CDE90C23E2
:1004800010F0BCFEDDE90C23804689461046194673
:1004900010F0FEFC0022CDE91001804B4046494699
:1004A00010F0D6FF00227E4B10F0F2FC02460B4605
:1004B0004046494610F0CCFF00227A4B10F0E8FC91
:1004C00002460B464046494610F0C2FFDDE90C23C8
:1004D0008046894600204FF0804110F0D7FC02464C
:1004E0000B464046494610F0D3FC02460B46DDE978
:1004F000100110F0ADFF07F2FF3700226A4B10F039
:10050000C7FC00223B0510F079FE52465B46804650
:10051000894611F003F9002840F08980CDE90C8963
:1005200004F16303C72B34BF0427052731051BD50E
:1005300053A3D3E900235046594611F0E5F80028AB
:100540007FD051A3D3E900235046594611F0C8F893
:10055000002876D00027A542C6BF2C1B04F1FF352A
:1005600000253C4646F480660E9B9F422CBF4FF010
:100570000008A3EB070816F0020903D0002F18BFEC
:100580004FF000083CB1DDE90C235046594610F00D
:100590005FFF82468B46DDE906010022002311F051
:1005A0009FF810B10BF100439B46DDE9080126F4EA
:1005B0000063CDE90183DDE90A324BEC10AB009515
:1005C00000F07EF802465FB3DDE9091316F0200F54
:1005D00000F10105089E0CBF65204520B047DDE90C
:1005E00008010523002205930A23002CCDE90232DD
:1005F00007F1FF374FEAD473B8BF64422A4601932C
:1006000004970A9B009444F0EFFE0246B9F1000FF4
:1006100006D00B9BC41A0B9B1A190E9BA34245D8FC
:10062000104613B0BDE8F08FDDE906ABCDE6002241
:10063000404649461A4B10F00BFF013CCDE90C0136
:100640006EE7002D90D00F9B002B8DD0013D8BE7E6
:10065000FB799F501344D33FB3C8608B288AC63FB1
:1006600061436F63A787D23F71A379094F930A4013
:100670001655B5BBB16B0240EF39FAFE422EE63F8C
:100680002D431CEBE2361A3F0000000080842E410F
:10069000FFFFEF7F0000F83F0000E03F00002C402C
:1006A00000002440000018400000F03F2020DDE959
:1006B0000913089DA8470134ADE700BF0000000002
:1006C0002DE9F04F5BEC10AB97B0CDE90501DDE90A
:1006D0002057CDE90723504652465B465946229E95
:1006E00010F0F4FF70B90323CDE902760193B04B0B
:1006F0000093DDE90501DDE9072344F095FD17B01E
:10070000BDE8F08F4FF0FF326FF48013504659462A
:1007100010F0E6FF28B10423CDE902760193A54B42
:10072000E6E74FF0FF3250465946A34B10F0F6FF74
:1007300068B1A24A06F00403002B08BF0322A04BB5
:100740001CBF13460422CDE902760192D0E7504641
:1007500093A3D3E90023594610F0E0FF38B992A3E0
:10076000D3E900235046594610F0BAFF68B1DDE9DD
:100770000723DDE905014BEC10ABCDE9217620958F
:1007800017B0BDE8F04FFFF7DFBD00220023504651
:10079000594610F0A5FF002800F09A805B465246AB
:1007A0000020002110F072FB012382468B46099342
:1007B00016F4806400F08E80092D40F28E800024B3
:1007C00030210EABA5F109020134202C03F8011BE6
:1007D000A5EB040901D09442F6D15946504610F0D9
:1007E000A7FF784B054603EBC90393ED007B8DED26
:1007F0000A7B10F099FC02460B465046594610F011
:1008000045FBDDE90A2310F0F9FC02460B46CDE971
:100810000C2310F0B5FF804610F076FC02460B4624
:10082000DDE90C0110F032FB02460B46CDE90C234A
:100830000022654B10F072FF002851D008F101082A
:10084000404610F061FC02460B46DDE90A0110F05B
:1008500051FF10B14FF000080135B9F1000F50D130
:10086000284610F061FC02460B465046594610F0EF
:100870000DFB0022544B8046894610F031FF30B109
:10088000002240464946504B10F048FF10B1E8079F
:1008900000D501350A210EAB1A19202C0AD095FB80
:1008A000F1F001FB1055303502F8015B01340546CB
:1008B0000028F2D106F00302012A57D1002F55D0AB
:1008C000099A12B916F00C0F00D0013F302245E012
:1008D00009906DE74FF006097FE7A94600247CE701
:1008E0000022DDE90C01384B10F0FAFE0028B4D1EB
:1008F000B8F1000F02D018F0010FAED008F10108D6
:10090000ABE70A210EAB2344202C0ED0B8FBF1F04C
:1009100001FB1082B8F1090F02F1300209F1FF3931
:1009200004F1010403F8012B11D83021A1440EAACF
:10093000202CAFD0A14504F101030AD11C4609F1D6
:1009400058030DEB03092E2309F8203CA2E780464B
:10095000DAE7A1541C46EBE71A550134A74205D942
:10096000202CF9D1CDE902760194C1E6202CF9D0F2
:10097000099A3AB12D2104F158026A4402F8201C68
:100980000134EFE7710704D504F158022B216A44C2
:10099000F4E73207E6D504F1580220216A44EDE776
:1009A0000000000065CDCD410000000065CDCDC147
:1009B000687E05086C7E0508FFFFEF7F5F7E0508F7
:1009C000647E0508787E05080000E03F0000000016
:1009D0002DE9F04F2DED028B002597B01D7003938C
:1009E000229B074607911D60002800F03C81437858
:1009F000047844EA0324837844EA0344C37844EA4D
:100A0000036463783F2B00F22E81AA4214BF0623B1
:100A100008238DF8243009230C958DF8263042796F
:100A2000037908469FEDA48B43EA02234A790434F4
:100A3000023292008DF825200AAA0092043B9BB254
:100A40002146007909AA8DED0A8B39F011FD0A9B28
:100A50000646049360B1049B23B10C991846C91A49
:100A600044F0A3FA304617B0BDEC028BBDE8F08F1E
:100A70000B98039DC01A40102870C0B200EB4000D4
:100A80008F49800051F079FD8346002800F01081E5
:100A90002B788DED0E8B1096002B00F0FA803346EC
:100AA00002960299E279591A8A42B246B04600F299
:100AB000AC8004D202991144994218BF0F91002AC8
:100AC00040F0AD807A783B7894F802E043EA022364
:100AD000BA7894F803C043EA0243FA7808EB480175
:100AE00043EA026300220BEB810514925A781878CE
:100AF00085F802E085F803C002F00F03E2798DED7E
:100B0000128B6A7194F906202A710BF821000EAA43
:100B10006B70204612AB09A937F09CFC8146002877
:100B20003BD01298149910B1091A44F03EFA039B75
:100B30001B78F3B100252C462E4604EB44040BEB46
:100B40008404627A207A40EA0220A27A40EA0240D3
:100B5000E27A50EA026000F0968044F024FA039BA7
:100B600001351B7826726672A672E672ECB29C4260
:100B7000E3D3584644F017FA0023029A1099891AD1
:100B8000039A1370029B13B1184644F00EFA049BAB
:100B90004E46002B7FF461AF64E7DDE91232D21AD2
:100BA000104647490693059251F0E7FCC0F3072C25
:100BB00085F809C0C0F3074C85F80AC04FEA106CED
:100BC000069B287285F80BC0002865D0059A002A7C
:100BD00035D185F8069085F80790002B40D1049B0D
:100BE0000AF1010A33F81820E3795FFA8AF83344EE
:100BF000DEB2039B14441B7843453BD90F9B0299FB
:100C0000E279591A8A427FF654AF511A0EA837F08A
:100C1000C3FB0E9BE2790293002A3FF453AF07987F
:100C20004378017841EA0321837841EA0341C3789C
:100C3000029841EA0361314446F0ABFB42E71946B2
:100C40000692059346F0A5FB069A1499059BAA7196
:100C5000C2F30722EA71C91A184644F0A6F9BEE7A2
:100C60001499C91AF8E70B26304617B0BDEC028B71
:100C7000BDE8F08F229B1099C3F800B0029BC91AFF
:100C8000002B81D183E70135ECB29C42FFF455AFD4
:100C90006FE7229B1860DEE63BB114991846C91A2B
:100CA00044F083F94FF0020941E74FF002093EE7B3
:100CB0000226D0E6AFF30080000000000000000034
:100CC000381506080348044B834202D0034B03B196
:100CD0001847704704A2002004A200200000000072
:100CE000064B0749C91A891048BF0131491003D082
:100CF000044B0BB101481847704700BF04A2002005
:100D000004A200200000000010B5064C237843B96F
:100D1000FFF7D8FF044B13B10448AFF30080012361
:100D2000237010BD4E870020000000003020060810
:100D300008B5054B1BB105490548AFF30080BDE878
:100D40000840FFF7CDBF00BF00000000C81300201F
:100D500030200608A3F5803A704700BF174B002BE0
:100D600008BF134B9D46FFF7F5FF00218B460F464A
:100D70001348144A121A46F026FB0E4B002B00D0E3
:100D800098470D4B002B00D098470020002104000D
:100D90000D000D48002802D00C48AFF3008011F080
:100DA000B1F82000290046F020FA10F0E9FE00BF5B
:100DB000000008000000000000000000A80D002056
:100DC000A80D002020990020000000000000000075
:100DD00013B5094C237863B9022304200093074A12
:100DE0004FF4805306490DF0BFF90028A4BF01233A
:100DF000237002B010BD00BF509700204F87002025
:100E0000E84D050830B5154B87B01B7805461446EC
:100E1000019103B342F020F84FF41B630D22CDF88B
:100E20000D00CDF81110042002A902938DF80C508A
:100E30000DF06EF904220DEB020110460DF068F979
:100E4000019B21461A0202F4E062C3F30723042047
:100E50001A430DF05DF907B030BD00BF4F97002079
:100E600030B5144B05461B7885B003F0FF04F3B191
:100E7000FF2928BFFF210C4641F0EEFF04F10902D3
:100E800013029BB243EA122343F0807343F0B00392
:100E90000D22CDE900300291042069468DF80C4006
:100EA0000DF036F92246294604200DF031F920468E
:100EB00005B030BD4F9700200122014B1A707047DA
:100EC0004F9700201FB541F0C7FF084B0391CDE9B4
:100ED00001300C22042001A90DF01AF904200DF0B4
:100EE00075F90028FAD105B05DF804FBB0080002DE
:100EF00037B5044619F0FAFB054600284AD1A36825
:100F000043F40033A36047F07EFAA368244A43F415
:100F1000A013A360A261257744F074F9A368A080B0
:100F20001B030CD4B0F5FA7F09D953F068FC0121FA
:100F30000546084652F004FC284653F05BFC204668
:100F400019F0FCFB38BBE06838B31BF053FC17F01A
:100F500069FC18F07BFA4AF08BFB48F036FE40F251
:100F60000443ADF80430FF2301A88DF8063012F0D9
:100F7000A9FF00220320114649F0D7FD03210420D8
:100F80001AF0A4FD0A2012F001FC19F08FFB204694
:100F900041F079FF002003B030BD0248D5E700BF23
:100FA000050403007E9E002008B50449044824F08F
:100FB000FDFABDE8084024F02BBB00BFF84D050842
:100FC000BC4E05084FF08052014B5A60704700BF7D
:100FD00000ED00E0F8B50E460546D0B1C9B10E4BA4
:100FE0000E4F1968386806F0C5F9044678B906232B
:100FF00032460B49386806F08BFA044638B90123AB
:101000002A460849386806F083FA00B12C70204659
:10101000F8BD2124FBE700BF0C9B00202C9B002087
:101020002C0004003C00040007B5084B1878FF288A
:1010300002D023F0F3FD30B14FF6047301A8ADF8F0
:10104000043046F062F803B05DF804FB8F9E002088
:1010500010B50D4C0D4804F0C3FC23780BB123F000
:1010600037FEFF220A4B01211A700022094B227021
:101070009A70152219705970DA701A7100F050FBCD
:10108000BDE8104000F02CB951970020E01300207B
:101090008F9E00205297002038B500F077F9044663
:1010A00000F0CEF9C0B10E4D2B789BB90D4B1B78DB
:1010B000FF2B11D1022C11D80B4C2279E178A078AA
:1010C00023F0DCFD38B90121207823F0EDFD10B9C3
:1010D00001232B70002038BD0220FCE71D20FAE719
:1010E000519700208F9E002052970020F0B50546B2
:1010F00085B00E4600F04AF95DB3194F3B78FF2BDF
:1011000029D1022829D8002342F21071154A164825
:10111000009304F083FC0446A0B901460DF10F03CF
:1011200000936A792B79286843EA022363F30F015D
:101130000E4B32461B7823F0C7FC044628B10A4800
:1011400004F04EFC204605B0F0BD9DF80F303B701A
:10115000F8E72224F6E70224F4E71D24F2E700BFB3
:101160008F9E002029100008E013002052970020D5
:10117000036837B523F47F43504A23F007039342B3
:10118000044621D009D8A2F5A022934217D002F537
:101190008022934273D003B030BD494A93424AD073
:1011A00002F57F029342F6D1464B1B78002BF2D01A
:1011B000454B1B78FF2BEED100F11E0369E003B015
:1011C000BDE83040FFF744BF3F4B017B1A789142A6
:1011D000E1D1C27A012ADED1FF223A4D3B481A7092
:1011E00004F0FEFB2B784BB123F072FD08B34FF6F1
:1011F000047301A8ADF8043045F087FF607A227AC5
:10120000012342EA00226168207B00F077F830B1C8
:101210004FF6047301A8ADF8043045F076FF0023C3
:101220008DF80430237B8DF8053001A845F06DFF63
:10123000B1E72870E2E7244D80792B78834205D10D
:10124000224804F0CDFBFF232B70A4E700F0BCF88C
:101250000028A0D0A07900F0E1F800289BD0A07968
:1012600000F076F830B14FF6047301A8ADF8043001
:1012700045F04BFF02238DF80430A379D3E7114BDF
:101280001B78002B87D0104B1B78FF2B83D100F1EC
:10129000160394F90D20E17A601D41F000FE00284C
:1012A0003FF479AF11283FF476AF2D3801287FF64F
:1012B00072AF4FF60473ADF80430B6E7A000060035
:1012C000A0000601519700208F9E0020E01300200F
:1012D000024B187880F00100704700BF5197002042
:1012E000FF22044B1A701A721A740022024B1A70F1
:1012F000704700BF579700206F97002013B56C46CA
:1013000084E80600104A1178FF2917D0117AFF29C6
:1013100016D0117CFF2915D1022102F83100009866
:1013200002EBC102C2F8020000205370A388D380F0
:10133000064A13780133137002B010BD0021ECE7A8
:101340000121EAE71A20F7E7579700206F9700205E
:101350000C4B1A7882420FD01A7A82420ED01A7C35
:1013600082420DD10222FF2103F83210064A0020EA
:101370001378013B137070470022F4E70122F2E773
:101380002D207047579700206F970020014B187849
:10139000704700BF6F9700200A4B1A7882420AD02C
:1013A0001A7A824209D01A7C824208D1022203EBC7
:1013B000C200023070470022F9E70122F7E700205F
:1013C000704700BF57970020064B1A78824207D01B
:1013D0001A7A824204D01B7C1B1A5842584170472B
:1013E000012070475797002070B5044680B1002651
:1013F000094D15F8023CFF2B05D006222146284650
:1014000045F0B7FF30B10136032E05F10805F0D1E4
:10141000002070BD0120FCE7599700200146002202
:10142000064B1878884202D15878012805D001323D
:10143000032A03F10803F4D10020704757970020D6
:10144000024B1888003818BF01207047181400207C
:101450002DE9F04F8E4D90462E7893B03207894695
:101460009A464FF00004009035D4F30647D4F707AE
:101470004CD44FF0000B9AF800305F46013B0D93BF
:1014800006F0040308932B7ACDE901BB00936B6847
:1014900009936B7803F001030B9395F86430049380
:1014A00095F865300693069A049B13440C9395F8BF
:1014B0005C30039395F85D300593059A039B1344C4
:1014C0000A9306F002030F9306F02003079306F039
:1014D000400310937BE04FF00804002705F1090B4F
:1014E000062200990BEB070045F043FF0028BCD013
:1014F00006373C2FF4D1002013B0BDE8F08F95F8EB
:10150000453044F010044B45F5D1B0E795F9023071
:1015100044F001044345ACDBEDE70AEB07035D78DB
:1015200093F802900F9B002B36D0A9F10803012BF2
:1015300032D8089A234644F002041ABB009BAB42FF
:1015400030D2F81C009A0999504445F012FF002847
:1015500008BF4FF0010B079B002B00F08580B9F10D
:10156000210F40F081800A9B44F020049D42C2DD9F
:10157000039B059AD91903314648514445F0F9FEB9
:1015800010B3B8E743F00604009BAB42E3D2009AE5
:101590006B1E9342DFD1D4E7109B1BB1A9F102036C
:1015A000012B2ED93006D6D5A9F10603012BD2D8AE
:1015B0004FF00008BA1C44F080046B1E0E92984550
:1015C0003DDB079B002B4FD101353D44EFB20D9B16
:1015D0009F42A2DB16F0060F02D0BBF1000F8AD0AB
:1015E000710602D5019B002B85D0320602D5029BE5
:1015F000002B80D0264BA4B21888031B58425841B8
:101600007AE74FF000086B1E0E9344F04004BB1CB9
:101610000E9A90459FDA03EB0801013102221E4821
:101620005144119345F0A5FE0028019B08BF0123FA
:1016300008F1020801935FFA88F8119BE8E711931B
:101640000E9B102203EB080101311448514445F070
:1016500090FE0028029B08BF012308F110080293A6
:101660005FFA88F8119BAAE70B9B002BACD0B9F16D
:10167000FF0FA9D10C9B44F480749D427FF73BAFD0
:10168000049B069AD91903310548514476E700BFF7
:1016900018140020701400205E1400206014002034
:1016A00078140020F8B506460D461746FFF710FEE1
:1016B000B8B1C6B1284643F03CFB0D4C6060A0B108
:1016C0002A46314645F08AFE2378257243F002030C
:1016D00023700FB90020F8BD237843F00403237072
:1016E000F8E70220F7E72120F5E71920F3E700BF2C
:1016F0001814002010B50446FFF7EAFD50B15CB1A4
:1017000000202288054BA3F846201A7842F04002B8
:101710001A7010BD0220FCE72120FAE718140020FF
:1017200010B5FFF7D5FDF0B1104C606818B143F06B
:1017300002FC00236360A06D18B143F0FCFB0023A2
:10174000A365206E18B143F0F6FB0023236600204A
:10175000FE23A070207284F84530A4F85C00A4F841
:101760006400208010BD0220FCE700BF1814002098
:1017700000234FF0FF320449C818CA5006333C2BEF
:101780008280F9D1FFF7CCBF21140020034A04491D
:10179000002808BF1146042023F000BC744F050840
:1017A0006C4F050838B5134B044693F8C0208242AD
:1017B000A3F5805015D003F5805393F80432A3426B
:1017C00015D00D4D0D49286842F06BFF41F0E1FE48
:1017D00041F0E0FE22460A49286842F062FF0020FC
:1017E00038BD002341F2441202FB0300F8E7012355
:1017F000F8E700BF802400200C3700207C4F05084C
:10180000814F05082DE9F04FFF288FB00D46CDE937
:101810000A32099000F01A84002900F019840A9B0A
:10182000002B00F01584199B002B00F01184189BED
:10183000002B00F00D84AC4EAC49306842F031FF13
:1018400041F0A7FE41F0A6FE099AA949306842F08E
:1018500028FFA84B93F8C020A3F58054FF2A24D07A
:1018600003F5805393F80432FF2B00F09880A249CF
:10187000306842F016FF41F08CFE41F08BFE9F492C
:10188000306842F00EFF9C49306842F00AFF41F098
:1018900080FE41F07FFE099A9949306842F001FFCD
:1018A0001C2420460FB0BDE8F08F002341F2441203
:1018B0000793079B00215343E7183846089345F0E8
:1018C00082FD0021384641F04DFB41F2A8034FF064
:1018D000FF32FA5041F2BA0317224FF0000BFA52CE
:1018E00007F58052B2F8A430594603F0F00343F4F0
:1018F0008673A2F8A430089B40F24A7203F658009F
:101900002044C7F854B845F05EFD41F2BC0307F827
:1019100003B0099B07F586563370089B492203F5EF
:1019200082501A302946204445F058FD41F26603A2
:1019300017F803A041F2680341F2C4096A4D17F891
:1019400003806A49286842F0ACFE41F022FE41F073
:1019500021FECDF80080534632786A49286842F06B
:10196000A0FE089B5A4603EB090121445B463078F0
:1019700023F02EF90446A0B15F49286842F091FE99
:1019800041F007FE41F006FE5F493278286842F0D8
:1019900088FE2D212246384601F026FB81E70123EF
:1019A00084E717F809309BB9307823F0C3F904466F
:1019B00070B15149286842F074FE41F0EAFD41F0EF
:1019C000E9FD52493278286842F06BFE2E21E1E7AA
:1019D0000B9B28681B884E4CA7F8B93F13F0FF03F8
:1019E00046D1424942F05DFE41F0D3FD41F0D2FDC7
:1019F00041F24413079A474903FB024303F5865318
:101A00001A78286842F04DFE41F24414079BDFF833
:101A100000910A9A04FB039441F2D003E25041F290
:101A2000D403189A94F8B91FE25041F2D803199AD6
:101A3000E250089B03F5845641F25D0319364E448B
:101A40003246E05C38F05EF9834600286ED02A49C1
:101A5000286842F026FE41F09CFD41F09BFD2E4996
:101A60005B46099A286842F01CFE2124302191E748
:101A7000012B10D11D4942F014FE41F08AFD41F0C6
:101A800089FD41F24413079A244903FB024303F5FD
:101A900086531A78B5E7022B10D1144942F001FEA3
:101AA00041F077FD41F076FD41F24413079A1C495D
:101AB00003FB024303F586531A78A2E7194942F063
:101AC000F0FD41F066FD41F065FD41F24413079AD7
:101AD000154903FB024404F5865294F8B93F127885
:101AE000286842F0DEFD8FE70C370020C34F050861
:101AF000C84F0508802400207C4F0508FD4F0508CD
:101B00001850050848500508A4500508D450050889
:101B100080140020035105087C520508585105081F
:101B2000B6510508065205080B5205080A21304631
:101B300001F02AFD0646C54904F58654286842F09E
:101B4000B0FD41F026FD41F025FD33462278C04925
:101B5000286842F0A6FD2078FFF724FE00F5805BA0
:101B60009BF85D300446022BBA4E4DD19BF867308E
:101B7000072B00F25381DFE813F008001800510131
:101B80005101EA0051015101FD000123AF4980F8E4
:101B9000D33F286842F085FD41F0FBFC41F0FAFCA0
:101BA0009BF8C020AC4928682CE0BAF1010F3068DE
:101BB0001AD8AA4904F5805842F073FD41F0E9FCB7
:101BC00041F0E8FC98F8C020A549306842F069FD72
:101BD00001222921204601F007FA002388F8673006
:101BE000012384F8D33F0FE0022384F8D33F9749C1
:101BF00042F057FD41F0CDFC41F0CCFC9BF8C020F9
:101C00009849306842F04DFD04F5805898F86730E7
:101C100088F8683098F85D30012B20D198F86BB0C7
:101C20003068BBF1020F00F02D81BBF1FE0F00F018
:101C30004E81BBF1010F40F05A81884942F031FDDD
:101C400041F0A7FC41F0A6FC98F8C0208649306816
:101C500042F027FD88F86CB0002384F8D33F41F2AE
:101C60004416079B06FB039606F5845ABAF809301A
:101C7000002B35D10DF1360304930DAB039341F2E4
:101C80009703F35C41F25A02029341F26803F35C5A
:101C900041F25E01019396F8B93F41F25D00009375
:101CA00041F29803B25CF35C715C305C01F02AF99C
:101CB00006F586580446002800F04881654E0F2C32
:101CC000306840F02681654942F0EBFC41F061FC50
:101CD00041F060FC98F800206449306842F0E1FC73
:101CE00041F24416079B06FB039606F584531A46F9
:101CF0001032B2F8032006F583510292B3F8112096
:101D000006F586580192B3F80D2018310092083379
:101D1000B1F80920B3F80330B1F8071098F80000C3
:101D200022F0FEFE0446002800F032815049286867
:101D300042F0B7FC41F02DFC41F02CFC4D4923460C
:101D400098F80020286842F0ACFC312122E6B8F176
:101D5000010F30687FF62DAF02233C4984F8D33F52
:101D600042F09FFC41F015FC41F014FC9BF8C020B0
:101D7000414946E7B8F1010F11D9BAF1010F20D955
:101D80000423324980F8D33F286842F08AFC41F0AE
:101D900000FC41F0FFFB9BF8C020384903E701221B
:101DA000292101F021F9B8F1010F11D1BAF1020F87
:101DB00030680DD104F5805B84F8D3AF8BF8678071
:101DC00015E70122292101F00FF9B8F1020F10D017
:101DD0002249286804F5805842F063FC41F0D9FBA1
:101DE00041F0D8FB98F8C0201D49286842F059FC02
:101DF000F3E6BAF1010F3068EAD1042384F8D38FF7
:101E000004F58058114988F8673042F04AFC41F0E7
:101E1000C0FB41F0BFFB98F8C020A9E70F4904F5CB
:101E20008058286842F03DFC41F0B3FB41F0B2FB22
:101E300098F8C0201249286842F033FC012384F846
:101E4000D33F002388F86730DEE600BFC34F0508A4
:101E5000B35205080C370020E95205080652050860
:101E60001C5305085D53050851540508CB5505085A
:101E70007C4F05081557050890530508C3530508FE
:101E8000F6530508BAF1010F0AD9724942F009FC6C
:101E900041F07FFB41F07EFB98F8C0206E49D6E60A
:101EA0006C490A9342F0FDFB41F073FB41F072FB79
:101EB00098F8C0206949306842F0F3FB0A9B2A2158
:101EC0001A46204688F86C3001F08EF8C4E6644962
:101ED00042F0E7FB41F05DFB41F05CFB98F86630B7
:101EE00098F8C0205F49306842F0DBFBB2E6594900
:101EF0000A9342F0D6FB41F04CFB41F04BFB98F8C3
:101F0000C0205949306842F0CCFB0A9B88F86B30FE
:101F1000A2E60A2C0AD14F4942F0C3FB41F039FB3B
:101F200041F038FB98F800205049D6E6504942F07D
:101F3000B8FB41F02EFB41F02DFB4E49234698F8AB
:101F40000020306842F0ADFB322123E5BDF834308B
:101F500006F58356A6F81F30A6F82130BDF83630B6
:101F60003F492868AAF80330AAF8053042F099FBE7
:101F700041F00FFB41F00EFBBAF805303E490093EB
:101F8000B6F8213098F80020286842F08AFBA7E6CE
:101F900041F25B03FF22F15C099822F0E9FD04465F
:101FA00080B13349286842F07CFB41F0F2FA41F0FD
:101FB000F1FA3249234698F80020286842F071FB74
:101FC0003321E7E441F2CC0A0899089B089A01F50D
:101FD0008651534402F6B97208314B444A4449448D
:101FE00098F8000001F0F0F98146A8B1204928686E
:101FF00042F057FB41F0CDFA41F0CCFA4B4698F84D
:1020000000201F49286842F04CFB4A462F213846E1
:1020100000F0EAFF012444E41149286842F041FB42
:1020200041F0B7FA41F0B6FA98F80020154928684F
:1020300042F037FB1A9B1BB116F80A301A9A13703C
:1020400000223846114602F005F82AE4252428E447
:10205000222426E40652050898540508DF54050892
:10206000C34F05082A5505086F550508275605086A
:102070007C4F05086D560508C45605085F570508CE
:10208000A2570508DD5705082DE9F047002541F264
:1020900044182F461D4CA4F65809A4F6580A41F2DC
:1020A00044120021504645F08EF9FF2384F8683829
:1020B00084F8D1384FF0FF330126C4F85038172385
:1020C00008FB059284F8CE7884F84D68A4F862384D
:1020D00002F5805292F8A430002123F00F0343F060
:1020E0000C0382F8A430204640F24A7244F8047C83
:1020F00045F069F984F864783146504640F032FF83
:1021000044440DB1BDE8F0873546C6E7D81C002031
:102110002DE9F041064688461746FFF743FB434C3E
:10212000054698B94249206842F0BBFA41F031FABD
:1021300041F030FA32463F49206842F0B2FA22229A
:1021400027212846BDE8F04100F04EBF05F5805636
:1021500096F8A4302068DB0712D518F0010F0FD1D4
:10216000334942F09EFA41F014FA41F013FA96F81E
:10217000C0203149206842F094FA3A460B21E0E74A
:1021800087B12B4942F08DFA41F003FA41F002FA8F
:1021900096F8C02029493B46206842F082FA3A4628
:1021A0000C21CEE7264942F07CFA41F0F2F941F0E9
:1021B000F1F9434696F8C0202249206842F071FAAE
:1021C00096F8A41096F8C00040F06AFF074688B160
:1021D0001749206842F065FA41F0DBF941F0DAF97D
:1021E00096F8C02018493B46206842F05AFA3A4611
:1021F0000D21A6E7032196F8C00040F095FF0746A1
:1022000088B10B49206842F04CFA41F0C2F941F024
:10221000C1F996F8C0200D493B46206842F041FACA
:102220003A460E218DE7BDE8F08100BF0C37002053
:102230007C4F05080B5805083A580508A0580508B2
:10224000C34F0508E15805082059050860590508DD
:102250002DE9F04186B007460E461546FFF7A2FA73
:102260000446A8B9494D4A49286842F01AFA41F093
:1022700090F941F08FF93A464649286842F011FA40
:1022800022220E21204606B0BDE8F04100F0ACBE8F
:10229000A5B1DFF8F8803E49D8F8000042F001FA15
:1022A00041F077F941F076F9009533463A463A49DC
:1022B000D8F8000042F0F5F92A46E2E7022E57D09E
:1022C000032E22D0012E2FD100F5805696F8B8307B
:1022D000052B29D10C23032196F8C00086F8B830CD
:1022E00040F022FF0546F8B1284F2949386842F0EE
:1022F000D8F941F04EF941F04DF92B4696F8C0203F
:102300002649386842F0CDF9D6E700F5805696F8B0
:10231000B8300C2B0BD0012103AA8DF80C1001F062
:1023200099FE052386F8B83006B0BDE8F08100F6C6
:10233000580240F24A7196F8C00040F071FE05461E
:102340000028EED0114F1249386842F0AAF941F046
:1023500020F941F01FF996F8C0202B461049386843
:1023600042F09FF92A460F21204600F03DFED8E7B3
:102370000723012100F5805484F8B83084F8BC505C
:1023800003AA8DF80C1001F065FECDE70C37002094
:102390007C4F05089B590508D85905086059050860
:1023A000195A05082DE9F04F87B00646DDE918BA3D
:1023B00089461D46DDF85480FFF7F4F9044680B9DC
:1023C000504D5149286842F06CF941F0E2F841F073
:1023D000E1F832464D49286842F063F92222112182
:1023E00020E000F5805696F8A5300BB300F65802B1
:1023F00040F24A7196F8C00040F012FE0746B8B1AC
:10240000404D4149286842F04CF941F0C2F841F092
:10241000C1F896F8C0203E493B46286842F041F991
:102420003A460F21204607B0BDE8F04F00F0DCBD72
:10243000B5B1344F3449386842F033F941F0A9F866
:1024400041F0A8F82B4696F8C0203249386842F08F
:1024500028F95BEA0A0A51D0062D4FD02A46BEE77A
:10246000B9F1000F4AD0274F2B49C4F85488386877
:1024700042F017F941F08DF841F08CF894F8593892
:1024800094F8581896F8C02003F00F03CDF8008098
:1024900041EA03233868214942F003F994F85928A6
:1024A00094F8583802F00F0204F6580943EA022360
:1024B000D4F854182A46ADF81430484696F8283116
:1024C000CDE903988DF8175040F061FD08218DF893
:1024D000160003AA204601F0BDFD044670B10A496A
:1024E000386842F0DEF841F054F841F053F82346E2
:1024F00096F8C0200A49386842F0D3F807B0BDE822
:10250000F08F00BF0C3700207C4F05085F5A05088C
:10251000195A0508A35A0508C34F0508E55A0508C6
:10252000295B05082DE9F0410368B04A23F47F4395
:1025300023F007039342044692B000F021832ED883
:1025400002F17F42934200F03B830FD802F17F42B9
:10255000934200F0018202F53002934200F0CC82F7
:10256000002080F0010012B0BDE8F081A04A934243
:1025700048D002F540329342F2D10079FFF712F9C8
:10258000002840F0A1829B4D9B49286842F089F8C1
:1025900040F0FFFF40F0FEFF2279984942E0984A60
:1025A000934200F0458413D802F17E42934200F03A
:1025B000CE8302F52D029342D2D10079FFF7F2F8D3
:1025C0000028CDD0637900F5805080F85B30C7E7F4
:1025D0008C4A934200F0CD8102F1FC729342BFD14C
:1025E000844D8549286842F05CF840F0D2FF40F005
:1025F000D1FFA3798449009363792279286842F056
:1026000050F8ADE70079FFF7CDF8074670B9794D7E
:102610007949286842F045F840F0BBFF40F0BAFF26
:1026200022797A49286842F03CF899E7B4F8052005
:1026300000F5805593B2A5F8C220B5F881209A42E2
:1026400003D3B5F87F209A4277D96A4E7049306833
:1026500042F027F840F09DFF40F09CFFB4F80510D1
:10266000B5F87F3095F8C0200191B5F88110009140
:102670003068684942F015F895F8C630A3BB5D4E46
:102680006349306842F00DF840F083FF40F082FF6C
:1026900095F8C0206049306842F003F8B5F893C05F
:1026A000B5F88B30B5F88120B5F87F1095F8C000EB
:1026B000CDF808C0B5F891C0CDF804C0B5F88DC00C
:1026C000CDF800C022F02CFA002869D050493068BB
:1026D00041F0E7FF40F05DFF40F05CFF95F8C0205F
:1026E0004E49306841F0DDFF012385F8C630E37ABA
:1026F000002B59D095F8B830002B40F0388195F870
:10270000C0001CF023FA3B4E0446002850D0052898
:102710004ED03949306841F0C4FF40F03AFF40F0F4
:1027200039FF95F8C0203E49306841F0BAFF224693
:102730000521384600F058FC12E7B5F88B20B4F8B4
:1027400007309A4214D02B4E3149306841F0A9FF2E
:1027500040F01FFF40F01EFFB4F80710B5F88B30B3
:1027600095F8C02000912F49306841F09AFF83E727
:10277000B5F88D20B4F809309A42B5D01D4E2449E1
:10278000306841F08EFF40F004FF40F003FFB4F8E2
:102790000910B5F88D3095F8C02000912249E3E783
:1027A00095F8C630002BA2D1012385F8C630D7E6B4
:1027B000012795F8C04085F8B8702046FEF7F2FF73
:1027C0000546A8BB0C49306841F06BFF40F0E1FEC4
:1027D00040F0E0FE22461549306841F062FF2222B7
:1027E0002721284600F000FCC1E000BFA0005902EC
:1027F000A00006020C3700207C4F05085F6005082A
:10280000A0005905A000090651630508705B050882
:1028100006520508D45B0508E75C0508315D05082C
:10282000925D0508535C0508975C0508CB5D0508BB
:1028300000F5805494F97220394694F86C3094F87D
:10284000C0000092002222F0E3FA074680B1BC49A2
:10285000306841F026FF40F09CFE40F09BFE94F86B
:10286000C020B849306841F01CFF3A462821B8E73B
:1028700094F8C00022F0BCFA074688B1B04930682D
:1028800041F00FFF40F085FE40F084FE94F8C02038
:10289000AD493B46306841F004FF3A462C21A0E7A1
:1028A00094F86DC094F85D3094F8702094F86E1030
:1028B00094F8C000CDF834C094F864C0CDF830C0AE
:1028C00094F865C0CDF82CC094F86AC0CDF828C043
:1028D00094F863C0CDF824C005F5845C0CF1190CA4
:1028E000CDF820C094F85CC0CDF81CC094F869C045
:1028F000CDE9057C94F86270049794F861700397B1
:1029000094F85F70029794F86070019794F85E7085
:10291000009722F099FA074688B18949306841F05A
:10292000C0FE40F036FE40F035FE94F8C0208749E6
:102930003B46306841F0B5FE3A462B2151E78449C9
:10294000306841F0AEFE40F024FE40F023FE94F8E3
:10295000C0208049306868E20079FEF723FF002834
:102960003FF4FEAD012300F5805080F8C530012012
:10297000F7E50079FEF716FF064658B9764D70491F
:10298000286841F08EFE40F004FE40F003FE2279FC
:10299000724947E600F5805595F8C00023798342D7
:1029A0007FF4DEADB4F80540BCB16B4F64493868C4
:1029B00041F077FE40F0EDFD40F0ECFD95F8C020D1
:1029C0006749386841F06DFE95F8B830032B3FF445
:1029D000C7AD224607213046ACE695F8B830012B4A
:1029E0001FD0022B7FF4BCAD304600F07DFB95F884
:1029F000A530002B46D0B5F8AE30002B42D1564C56
:102A00004F49206841F04DFE40F0C3FD40F0C2FD4B
:102A100095F8C0205349206841F043FE0122092166
:102A200014E0D5F8A8104B1C12D14B4C4449206837
:102A300041F037FE40F0ADFD40F0ACFD95F8C02010
:102A40004949206841F02DFE012206213046C9E6A1
:102A5000022385F8B8301CF089F80446002886D097
:102A60003D4F3749386841F01CFE40F092FD40F080
:102A700091FD95F8C0203D49386841F012FE22468C
:102A80000821E3E706F58551B5F88F2095F8C000D9
:102A90000C3101F0A5FF044690B12F4F284938684A
:102AA00041F0FFFD40F075FD40F074FD95F8C02049
:102AB0002F492346386841F0F4FD22460A21C5E734
:102AC000032385F8B83052E700F5855600F58555A3
:102AD000284F0C36183504F10908022241463846C1
:102AE00044F047FC10B9B4F8053033800236AE42EA
:102AF00007F10207F1D133E50079FEF753FE0546F1
:102B000058B9154D0E49286841F0CBFD40F041FD04
:102B100040F040FD2279184984E50222174804F16B
:102B20000A0144F026FC00287FF41AADD4F80520F1
:102B300005F580532846C3F8A82000F093FA0FE566
:102B40007C4F0508F45D0508255E0508605E0508F4
:102B5000C34F0508A05E05080C370020CF5E0508AE
:102B6000365F0508D05F0508635F05088E5F0508BE
:102B700025600508089E0020C1600508149E0020FD
:102B80000079FEF70FFE58B9C04DC149286841F0E1
:102B900088FD40F0FEFC40F0FDFC2279BD4941E596
:102BA0000421231D0F9300F5805393F85D20022A22
:102BB00004BF627A83F829210FAA01F04BFAD6E606
:102BC0000079FEF7EFFDB14F054658B9B0493868B6
:102BD00041F067FD40F0DDFC40F0DCFC2279AE49BD
:102BE000386820E500F080FAA37B05F5805685F86B
:102BF000C83F94F8243005F5865185F8CF3F94F806
:102C0000213005F6B97285F8D03F94F822300831AA
:102C100085F8D13F94F8233085F8D23FB6F8C2301A
:102C2000A5F8D43FE37F85F8CE3FA37F85F8CD3F5D
:102C3000237F85F8CB3F637F85F8CC3F637C85F8A5
:102C4000CA3F237C85F8C93F637B85F8C73F237B58
:102C500085F8C63FE37A85F8C53FD4F81230C5F849
:102C6000BB3FD4F81630C5F8BF3F638BA5F8C33F10
:102C700096F85E3096F8C000019396F85D300093A8
:102C800005F6BB7300F00CFC044698B18049386827
:102C900041F007FD40F07DFC40F07CFC96F8C02040
:102CA0007E492346386841F0FCFC22462F21284605
:102CB00000F09AF97A49386841F0F3FC40F069FC79
:102CC00040F068FC96F8C0207649386841F0E9FC8D
:102CD00096F89640B6F88330B6F8872096F86E10CE
:102CE00096F8C000099496F89540089496F86F40BD
:102CF000079496F97140069496F85B40059496F80F
:102D000068400494D6F87B400394D6F87740029448
:102D1000B6F889400194B6F88540009422F0F2F8A4
:102D2000044600283FF423AE5949386841F0B9FC05
:102D300040F02FFC40F02EFC96F8C0205A49234664
:102D4000386841F0AEFC22461E212846F2E40079A4
:102D5000FEF728FD064600283FF402AC4B4F5049D1
:102D6000386841F09EFC40F014FC40F013FC2279DE
:102D70004E49386841F095FC4FF6FF73B6F8A42F22
:102D800006F580559A4215D195F82631063B012B60
:102D900038D80523424985F82631386841F081FC4E
:102DA00040F0F7FB40F0F6FB95F8C020404938684A
:102DB00041F077FC95F82631063B012B22D895F897
:102DC000E8300133DBB20A2B85F8E83022D9002144
:102DD0004FF6FF7385F8E8103046A6F8A43F40F0A0
:102DE000C1F805232E4985F82631386841F059FC91
:102DF00040F0CFFB40F0CEFB95F8C0202C4938685E
:102E000041F04FFC0123062130460F948DF84330EA
:102E10000FAAD2E62249386841F043FC40F0B9FBE2
:102E200040F0B8FB22792349386841F03AFC9EE52E
:102E30000079FEF7B7FC054600283FF491AB05F595
:102E4000805393F82631114E063B012B306814490C
:102E500012D941F026FC40F09CFB40F09BFB22790C
:102E60001549306841F01DFC0023072128460F94C6
:102E70008DF843300FAAA0E641F013FC40F089FB27
:102E800040F088FB22790D4964E500BF0C37002033
:102E90007C4F05081C61050887610508A2570508D5
:102EA000C34F0508DD570508E86105082F620508CE
:102EB000696205089C620508D86205080C6305086C
:102EC0001FB50B46032810D8DFE800F002111313DA
:102ED000094C2068616801AA03C2218901AC1180F4
:102EE000128803CC1A811860596004B010BD034CDD
:102EF000EFE7034CEDE700BF2B650508D16305083C
:102F0000DC6305082DE9F7439DF82C400F46DDE909
:102F10000D969DF828108DF803409DF830408DF8EF
:102F200000208DF801308DF802108DF80440B9F1C1
:102F3000000F50D0002E4ED0022A4ED0032B4ED080
:102F400001284CD0012905D10623A9F800302623F9
:102F500033801FE0012A04D1022904BF00238DF829
:102F60000230DFF88080002445460522694640464D
:102F700044F0FFF938BB04EBC4042B195A79997952
:102F8000B3F8073042EA0122FF2FA9F800209AB2D5
:102F9000338003D1002003B0BDE8F083B9F80030DE
:102FA000B7EE047A07EE903AF8EEE77A67EE877AA2
:102FB000FCEEE77A17EE903A9BB203F11301B1FBF6
:102FC000F3F31344C4E70134B4F5A27F08F1090810
:102FD000CBD12D20DFE72120DDE70A20DBE70F2022
:102FE000D9E700BFE76305082DE9F0410446194F12
:102FF0000E46154638686CB9174941F052FB40F04F
:10300000C8FA40F0C7FA2A4638681449BDE8F041CA
:1030100041F047BB04F580540F49D4F8D88041F003
:1030200040FB40F0B6FA40F0B5FA2B4694F8C020C9
:103030000B49386841F035FBB8F1000F07D02A463C
:103040003146434694F8C000BDE8F0411847BDE85A
:10305000F08100BF0C3700207C4F0508356505085E
:1030600065650508F7B500F5805595F825710446A6
:1030700087BB95F8243100F587560C3623B13046CE
:1030800002F0AEFC85F8247100233046009340F630
:10309000B8312346104A02F0C1FC0646B8B10F4FC2
:1030A0000F49386841F0FDFA40F073FA40F072FAC7
:1030B00095F8C02033460B49386841F0F2FA3246A1
:1030C0000221204603B0BDE8F040FFF78DBF012389
:1030D00085F8243103B0F0BD412F04080C370020DF
:1030E0007C4F050892650508F8B5054600F5875040
:1030F0000C3002F075FC05F580560446B0B10D4F5A
:103100000D49386841F0CDFA40F043FA40F042FAF8
:1031100096F8C02023460949386841F0C2FA224691
:103120002846BDE8F8400421FFF75EBFA6F8240159
:10313000F8BD00BF0C3700207C4F0508CD650508A1
:1031400070B504460D460F2900F20681DFE811F044
:103150001501100024003400440054006400740081
:1031600084009400A400B400C400D400E400F4007F
:10317000824D8349286841F094FA40F00AFA40F001
:1031800009FA012304F5805494F8C0207D49286889
:10319000BDE8704041F085BA784D7949286804F55A
:1031A000805441F07EFA40F0F4F940F0F3F9022344
:1031B00094F8C0207449EAE7704D7449286804F512
:1031C000805441F06EFA40F0E4F940F0E3F9032353
:1031D00094F8C0206E49DAE7684D6949286804F51B
:1031E000805441F05EFA40F0D4F940F0D3F9042362
:1031F00094F8C0206749CAE7604D6149286804F522
:10320000805441F04EFA40F0C4F940F0C3F9052370
:1032100094F8C0206049BAE7584D5949286804F528
:10322000805441F03EFA40F0B4F940F0B3F906237F
:1032300094F8C0205949AAE7504D5149286804F52F
:10324000805441F02EFA40F0A4F940F0A3F907238E
:1032500094F8C02052499AE7484D4949286804F536
:10326000805441F01EFA40F094F940F093F908239D
:1032700094F8C0204B498AE7404D4149286804F53D
:10328000805441F00EFA40F084F940F083F90923AC
:1032900094F8C02044497AE7384D3949286804F544
:1032A000805441F0FEF940F074F940F073F90A23BC
:1032B00094F8C0203D496AE7304D3149286804F54B
:1032C000805441F0EEF940F064F940F063F90B23CB
:1032D00094F8C02036495AE7284D2949286804F552
:1032E000805441F0DEF940F054F940F053F90C23DA
:1032F00094F8C0202F494AE7204D2149286804F559
:10330000805441F0CEF940F044F940F043F90D23E8
:1033100094F8C02028493AE7184D1949286804F55F
:10332000805441F0BEF940F034F940F033F90E23F7
:1033300094F8C02021492AE7104D1149286804F566
:10334000805441F0AEF940F024F940F023F90F2306
:1033500094F8C0201A491AE7084E0949306804F564
:10336000805441F09EF940F014F940F013F92B46D7
:1033700094F8C020134930680AE770BD0C3700206C
:103380007C4F05080B6605083F660508C34F050816
:103390007A660508B96605080E67050847670508D7
:1033A00084670508C4670508F66705083B680508D3
:1033B00074680508DA680508336905088369050833
:1033C000DF6905081D6A05082DE9F0410646174624
:1033D00098460D46C9B10B68BBB1084633F05EFE96
:1033E000044688B1284D2949286841F05AF940F02F
:1033F000D0F840F0CFF8234632462549286841F0FE
:1034000050F92046BDE8F081286028462EF0B6F934
:10341000044660B11C4D1D49286841F042F940F056
:10342000B8F840F0B7F8234632461A49E6E7414675
:1034300028462EF0EFFA044660B1134D1349286870
:1034400041F02FF940F0A5F840F0A4F823463246A9
:103450001149D3E77B78002BD3D0284633F058FEB0
:1034600005460028CDD0084C0849206841F019F9DC
:1034700040F08FF840F08EF820682B46324607491E
:1034800041F00FF92C46BCE70C3700207C4F0508B3
:103490004E6A0508866A0508BC6A0508F96A0508C7
:1034A0002DE9F8430E4605461178304699469DF8B9
:1034B00020709DF824802EF0AFF9044688B12C4E80
:1034C0002C49306841F0EDF840F063F840F062F8C4
:1034D00023462A462849306841F0E3F82046BDE8F3
:1034E000F883012F02D0022F18BFFF27B8F1010F78
:1034F00004D0B8F1020F18BF4FF0FF08424639461A
:1035000030462EF099F9044660B1194E19493068D9
:1035100041F0C7F840F03DF840F03CF823462A4619
:103520001649D8E7494630462EF0A8F9044660B15E
:103530000F4E1049306841F0B4F840F02AF840F0DE
:1035400029F823462A460E49C5E7304636F0C4FB23
:1035500004460028C2D0064E0649306841F0A1F862
:1035600040F017F840F016F823462A460549B2E71E
:103570000C3700207C4F0508316B0508696B050886
:10358000AF6B0508F06B050838B5044688B10346F3
:10359000014400208B421AD0002213F8014B44FA58
:1035A00002F5ED0702F1010248BF0130082AF6D109
:1035B000F0E7074D0749286841F073F83FF0E9FF4D
:1035C0003FF0E8FF0449286841F06BF8204638BD19
:1035D0000C3700207C4F05082E6C05082DE9F04FB4
:1035E0000446002797B000F5847303930893D0F83E
:1035F000043100F58055ADF8243000F658030493EB
:103600000A93D0F8543812AEADF82C3008AB0E93B4
:103610000AAB0F93431C059310930378ADF84670E3
:103620008DF8443095F828318DF8453000F6AC73AC
:103630000FCB07C6337004F5865608360121304695
:103640000EAA37F0D5F8804601462046FFF778FDF0
:10365000B8F1000F22D0B8F1030FDFF83C9000F072
:1036600021830B49D9F8000041F01BF83FF091FF8E
:103670003FF090FF95F8C02043460649D9F8000076
:1036800041F00FF842463A212046FFF7ADFC6EE2CA
:103690007C4F0508727205080C370020002304F6E1
:1036A000D6773846069307933FF03BFF95F85E9038
:1036B0004146B9F1FF0918BF4FF0010930464A46AB
:1036C00007AB2EF077FB804601462046FFF738FD1A
:1036D000B8F1000F40F09B814146384604F6DA739A
:1036E00007AA01F0CBFE8346002800F0A281DFF894
:1036F0007C83D949D8F8000040F0D3FF3FF049FF60
:103700003FF048FF5B4695F8C020D449D8F8000048
:1037100040F0C7FF4FF0000895F85E30FF2B2CD02B
:1037200000210222304607AB2EF044FB82460146C0
:103730002046FFF705FDBAF1000F40F07D81012121
:10374000384604F6DA7307AA01F098FE824600288C
:1037500000F09C81DFF814B3BF49DBF8000040F0B3
:10376000A0FF3FF016FF3FF015FF534695F8C0202D
:10377000BB49DBF8000040F094FF4A46022106AB4B
:1037800030462EF017FB824601462046FFF7D8FC54
:1037900004F58055BAF1000F40F07B8102213846D4
:1037A00004F6DA7306AA01F069FE8246002800F0EA
:1037B0008081DFF8B8B2A849DBF8000040F071FF63
:1037C0003FF0E7FE3FF0E6FE534695F8C020A549DE
:1037D000DBF8000040F065FF95F85E30FF2B2CD041
:1037E00002223046114606AB2EF0E4FA824601462C
:1037F0002046FFF7A5FCBAF1000F40F05D810321E0
:10380000384604F6DA7306AA01F038FE824600282C
:1038100000F06281DFF854B28F49DBF8000040F01D
:1038200040FF3FF0B6FE3FF0B5FE534695F8C0208E
:103830008D49DBF8000040F034FF4A46002106AB1A
:1038400030462EF05FF8824601462046FFF778FCAE
:1038500004F5805BBAF1000F40F041810421384645
:1038600004F6DA7306AA01F009FE8246002800F089
:1038700044817E4D7849286840F013FF3FF089FE6F
:103880003FF088FE53469BF8C0207949286840F0F5
:1038900008FF9BF85E30FF2B29D000210222304622
:1038A00006AB2EF02FF8824601462046FFF748FC73
:1038B000BAF1000F40F024810521384604F6DA738E
:1038C00006AA01F0DBFD8246002800F02781674D43
:1038D0006149286840F0E5FE3FF05BFE3FF05AFE8C
:1038E00053469BF8C0206349286840F0DAFE032362
:1038F0008DF83030DBF8733030460CA9CDF831301C
:103900002DF0E0FF824678B1584D5349286840F0C9
:10391000C8FE3FF03EFE3FF03DFE53469BF8C02000
:103920005549286840F0BDFE4A46012106AB3046A5
:103930002EF040FA824601462046FFF701FC04F5CE
:103940008055BAF1000F40F059810621384604F63F
:10395000DA7306AA01F092FD8246002800F0E180A9
:10396000DFF808B13C49DBF8000040F09AFE3FF078
:1039700010FE3FF00FFE534695F8C0203F49DBF89C
:10398000000040F08EFE94F8B92F95F85D30022AC1
:1039900033D1022B31D195F89830013B012B2CD833
:1039A00003214A46304606AB2EF004FA8246014611
:1039B0002046FFF7C5FBBAF1000F40F03281072126
:1039C000384604F6DA7306AA01F058FD824600284C
:1039D00000F0C580DFF894B01F49DBF8000040F02C
:1039E00060FE3FF0D6FD3FF0D5FD534695F8C02070
:1039F0002349DBF8000040F054FE95F85D30012BC0
:103A000000F0BA80B8F1000F00F0B180ABE0DFF851
:103A10005CB01149DBF8000040F043FE3FF0B9FD17
:103A20003FF0B8FD434695F8C0201649DBF800008A
:103A30006EE64FF001086FE6DFF830B00649DBF8BC
:103A4000000040F02EFE3FF0A4FD3FF0A3FD5346E2
:103A500095F8C0200C498CE67C4F0508776C05086A
:103A6000F56C0508856D05080B6E05080C37002000
:103A7000A36E0508326F0508D36F05081C70050892
:103A8000E4700508B66C05083D6D05084FF00108A7
:103A900073E6DFF8B0B2A849DBF8000040F001FEA1
:103AA0003FF077FD3FF076FD534695F8C020A349DF
:103AB0008EE64FF001088FE6DFF888B29E49DBF80A
:103AC000000040F0EEFD3FF064FD3FF063FD534623
:103AD00095F8C0209A49ACE64FF00108ADE6994D43
:103AE0009549286840F0DDFD3FF053FD3FF052FD61
:103AF00053469BF8C0209449C8E64FF00108C8E639
:103B0000904D8D49286840F0CCFD3FF042FD3FF0DC
:103B100041FD53469BF8C0208C49E5E64FF0010873
:103B2000E5E6079B8DF830000CA93046CDF8313022
:103B30002DF0C8FE824601462046FFF701FBBAF190
:103B4000000F42D194F8B92F95F85D30022A08D1C0
:103B5000022B06D195F89830013B012B5ED995F8E0
:103B60005D30012B06D0D5F8D060002E77D117B08C
:103B7000BDE8F08F4FF001084A460121304606AB00
:103B80002DF0C0FE814601462046FFF7D9FAB9F173
:103B9000000F56D10921384604F6DA7306AA01F05F
:103BA0006DFC81460028DED0664E6349306840F0E7
:103BB00078FD3FF0EEFC3FF0EDFC4B4695F8C02061
:103BC0006349306840F06DFD1CE7DFF878815A49A1
:103BD000D8F8000040F065FD3FF0DBFC3FF0DAFC78
:103BE00053469BF8C0205B49D8F8000040F059FDCF
:103BF00094F8B93F022B9BF85D30A8E7DFF844B199
:103C00004D49DBF8000040F04CFD3FF0C2FC3FF0B6
:103C1000C1FC534695F8C0204F49B0E64FF001086B
:103C2000BEE6DFF820B14449DBF8000040F039FD82
:103C30003FF0AFFC3FF0AEFC534695F8C02047493B
:103C4000D7E6404E3C49306840F02BFD3FF0A1FCE8
:103C50003FF0A0FC4B4695F8C0204149B1E72378DE
:103C600004F6DA7285F82C31631CC5F83031D4F8CB
:103C70000431C5F83431039BC5F83831D4F85438D1
:103C8000C5F83C31049BC5F840310023019304F58D
:103C900089530C330093B4F8A41F3B4695F8C00039
:103CA000B04764E795F8C030394630460DAACDE9F3
:103CB0000C778DF830302DF089FE064601462046FF
:103CC000FFF73EFA36BB2749D9F8000040F0E9FC7F
:103CD0003FF05FFC3FF05EFC95F8C0202249D9F828
:103CE000000040F0DEFCD5F8D43013B131460CA80A
:103CF00098471C49D9F8000040F0D3FC3FF049FC3C
:103D00003FF048FC95F8C0201849D9F8000040F071
:103D1000C8FC2CE70849D9F8000040F0C2FC3FF08D
:103D200038FC3FF037FC334695F8C0201049D9F8ED
:103D3000000040F0B6FCDCE77C4F0508C86D0508C4
:103D4000576E05080C370020ED6E0508856F0508D5
:103D50005D71050860700508A570050823710508E8
:103D600097710508C34F0508CC7105084372050813
:103D7000F97105082DE9F04F0446CB790A68D0F8AF
:103D8000A80F85B004F5847804F58056EBB111894D
:103D900002F11305C1F30B01A4F8A41F117C86F8EE
:103DA0002811577B92F80EA092F8119010B90421B7
:103DB000C4F80411D4F8041101F5847020440831CA
:103DC000C4F8A80FC4F8041109E0517A02F10C05F7
:103DD00086F82811977992F807A092F80A904FF088
:103DE000000B83F001030093414696F82931D4F883
:103DF000A80F3FF001FBD4F8042102F5847222449D
:103E00005FFA8BF34B4529D3A2EB0802012FC4F8CC
:103E10000421274C11D00F2F46D0002F46D0254922
:103E2000206840F03EFC3FF0B4FB3FF0B3FB96F857
:103E3000C0202149206840F034FC00251F4920683B
:103E400040F02FFC3FF0A5FB3FF0A4FB1C4920688D
:103E500040F027FC284605B0BDE8F08F294611F850
:103E6000030BBAF10F0F00F0030002F1010310D1B0
:103E700060F07F0010702278A8786D7804EB020C57
:103E800001328CF801500BF1010B22700D181A460B
:103E9000B6E71070AA781846039143F09FFA0346DC
:103EA000AA7803991344E6E70125C7E70225C5E789
:103EB0000C3700207C4F0508AF720508C34F05087A
:103EC000DF72050873B5044650F09EFD054650F0BC
:103ED000B9F80C4E04F580540B49C4F8E000306882
:103EE00040F0DFFB3FF055FB3FF054FB0095D4F86A
:103EF000E03094F8C0200549306840F0D2FB02B0B1
:103F000070BD00BF0C370020C34F0508F1720508D3
:103F100038B500F580540546002194F86E2094F8D9
:103F2000C00021F027F880B9154D1649286840F0E7
:103F3000B8FB3FF02EFB3FF02DFB94F8C020124958
:103F4000286840F0AEFB042038BD252815D105F5C2
:103F500087500B4D0C3001F043FD0A49286840F0B2
:103F6000A0FB3FF016FB3FF015FB94F8C02007497B
:103F7000286840F096FB0220E6E70920E4E700BF4E
:103F80000C370020C34F05082E730508747305080D
:103F9000F8B500F58054054694F86E1094F8C0000A
:103FA00020F09CFFD4F8C830254EBBB105F58650F3
:103FB000083033F073F8074680B12249306840F08A
:103FC00070FB3FF0E6FA3FF0E5FA3B4694F8C0207C
:103FD0001D49306840F065FB0120F8BD41F24412F4
:103FE0000021284643F0EFF91849306840F059FBAA
:103FF0003FF0CFFA3FF0CEFA94F8C0201449306871
:1040000040F04FFBFF2384F8C0304FF0FF33C4F87B
:10401000A8301723A4F8BA30B4F8A43040F24A729A
:1040200003F0F00343F48673A4F8A430002405F6EB
:1040300058002146C5F8544843F0C5F92046CCE75E
:104040000C3700207C4F0508AA730508C34F0508EC
:10405000E47305082DE9F0430F46904606468FB0FD
:10406000B8B9B84CB849206840F01BFB3FF091FA52
:104070003FF090FAFF22B549206840F012FB22225F
:1040800035213046FEF7B0FF222528460FB0BDE8A7
:10409000F0830A2900F5805421D1AA4D00F58750FC
:1040A0000C3001F09DFCA849286840F0FAFA3FF076
:1040B00070FA3FF06FFA94F8C020A549286840F0E4
:1040C000F0FA092384F826313046D8F8042098F80D
:1040D0000010FEF789FF0025C7E017469846092F14
:1040E0004FF0010540F0C180002194F86E2094F853
:1040F000C00020F03FFF054690B9924D95492868D1
:1041000040F0CFFA3FF045FA3FF044FA286894F8BF
:10411000C020914940F0C5FA082584F8265138E2BC
:1041200041F20C03984205D041F21203984201D0AB
:1041300025281BD106F587500C3001F051FC304684
:10414000FFF726FF0546002840F00A837D4E81498F
:10415000306840F0A6FA3FF01CFA3FF01BFA94F8E2
:10416000C0207E49306840F09CFAD6E7DFF8D48161
:104170007549D8F8000040F094FA3FF00AFA3FF091
:1041800009FA2B4694F8C0207549D8F8000040F091
:1041900088FA232384F826718DF82C300C9586E05C
:1041A000002F7FF472AF674D6A49286840F079FAB2
:1041B0003FF0EFF93FF0EEF994F8C0206949286824
:1041C00040F06FFA012384F82631E2E1012F7FF4F9
:1041D0005CAF98F80030002B62D05A4F5D493868C8
:1041E00040F05FFA3FF0D5F93FF0D4F994F8C020E1
:1041F0005D49386840F055FA022294F8A530A4F8D9
:104200002621002B3FF469AF40F24A7194F8C000B8
:1042100006F658023EF004FF0546A0B14A49386848
:1042200040F03FFA3FF0B5F93FF0B4F994F8C02000
:104230004E492B46386840F034FA2A460F21304662
:10424000FEF7D2FE21E74349386840F02AFA3FF0F2
:10425000A0F93FF09FF994F8C0204549386840F034
:1042600020FA4FF000080227012594F82631082B88
:104270003FF60BAF01A252F823F000BFA1410008A6
:10428000CD410008B54200087D430008FD46000806
:104290004F450008DD460008F34600084347000884
:1042A000092384F8263136230C978DF82C300A2107
:1042B0000BAAE2E1022F7FF4E8AE94F8C53043B9CF
:1042C000092384F826312C238DF82C3001230C93FC
:1042D000EDE7012194F86E2094F8C00020F04AFE2A
:1042E00040BB009006F58750334640F6B831214A6E
:1042F0000C3001F093FB0546B8B9124E012194F839
:10430000C00000F0B1FB1349306840F0CAF93FF03B
:1043100040F93FF03FF994F8C0201749306840F069
:10432000C0F9032384F82631AFE6092384F8263147
:10433000212331E7092384F8263120230C908DF8BE
:104340002C30B4E70C3700207C4F050807740508B3
:104350003F740508C34F05086B7405089A74050877
:10436000CE7405080975050874730508195A0508FF
:1043700034750508DD2F04086D750508042F7FF4DA
:1043800084AED8F80030C54F5D88002D60D150F064
:104390003BFB81464FF056FED8F80030C4F8DC00F5
:1043A000D3F80720BE49C6F8AC2FDA7A386886F809
:1043B000B02F9A89A6F8B12FDA89A6F8B32F1A8AF6
:1043C000A6F8B52F5B8AA6F8B73F40F06AF93FF030
:1043D000E0F83FF0DFF894F8C020B249386840F0C8
:1043E00060F9AF49386840F05CF93FF0D2F83FF02F
:1043F000D1F8B6F8B73FAC490693B6F8B53F059388
:10440000B6F8B33F049396F8B03F0393B6F8B13FC4
:104410000293D6F8AC3FCDE90093D4F8DC3094F8A1
:10442000C020386840F03DF99D49386840F039F9BE
:104430003FF0AFF83FF0AEF89C4994F8C0203868E0
:1044400040F02FF9294630463EF08CFD052369E700
:104450009749386840F025F93FF09BF83FF09AF80B
:10446000D8F8003094F8C0205B889249386840F052
:1044700018F994F827310133DBB2022B84F8273185
:104480005BD88B49386840F00CF93FF082F83FF078
:1044900081F894F8C0208849386840F002F994F80F
:1044A0009630099394F89530089394F86F300793F9
:1044B00094F97130069394F85B30059394F8683062
:1044C0000493D4F87B300393D4F877300293B4F894
:1044D00089300193B4F885300093B4F88330B4F890
:1044E000872094F86E1094F8C00020F00BFD05466C
:1044F00088B16F49386840F0D4F83FF04AF83FF08F
:1045000049F894F8C0206D492B46386840F0C9F846
:104510002A461E2193E66249386840F0C2F83FF00F
:1045200038F83FF037F894F8C0206549386840F013
:10453000B8F8022384F8263193E606F587500C304C
:1045400001F04EFA092384F826311F23BCE6082F18
:1045500063D198F80B50F5B9B4F8893043B13046BF
:10456000FFF7D6FC092884F8260112D1242313E68C
:104570004A4D4B49286840F094F83FF00AF83FF064
:1045800009F8B8F8083094F8C0204E49286840F07F
:1045900088F8002579E598F80A30012B2AD13F4D9B
:1045A000B4F8897028683E4987B140F07AF83EF047
:1045B000F0FF3EF0EFFF94F8C0204349286840F038
:1045C00070F8072384F8263101255EE540F069F88C
:1045D0003EF0DFFF3EF0DEFF94F8C0203B49286844
:1045E00040F05FF805233946304684F826313EF026
:1045F000B9FCCEE7022BE7D1284D2949286840F0C5
:1046000050F83EF0C6FF3EF0C5FF94F8C020304998
:10461000286840F046F80623D5E5063F012F3FF60F
:1046200034AD41463046FFF7A5FB054600283FF470
:104630000DAF1A4F012D3868194923D140F031F8D8
:104640003EF0A7FF3EF0A6FFB6F8A43F94F8C020C6
:104650002049386840F025F8012308218DF83730CB
:10466000B6F8A43F8DF83650ADF8343006F58473B3
:104670000B93D6F804310BAA0C933046FFF7EAFCF3
:10468000054602E540F00DF83EF083FF3EF082FF64
:10469000B6F8A43F94F8C0200F49DAE70C370020A1
:1046A000C34F0508B2750508F0750508696205086D
:1046B0007C4F0508B0760508FF760508E861050817
:1046C000747305084677050899770508E0770508AB
:1046D000237805086B7805089F780508082F7FF474
:1046E000D4AC0122414630460FB0BDE8F04300F0A3
:1046F00063B8082F7FF4C9AC0022F3E7042F7FF4DE
:10470000C4ACD8F800301B79002B7FF442AF3046A0
:10471000FFF7D8FBD8F80030224D5B8833BB06F595
:1047200087500C3001F05CF91F4928683FF0B9FF51
:104730003EF02FFF3EF02EFF94F8C0201B49286862
:10474000F5E6042F7FF4A1ACD8F800301A79002ADE
:104750007FF41FAF5B8843B93046FFF7B3FBEEE44D
:10476000092384F82631382316E50E4D10492868B0
:104770003FF097FF3EF00DFF3EF00CFFD8F8003001
:1047800094F8C0205B880B4928683FF08AFF092312
:1047900084F8263123238DF82C30D8F800305B883C
:1047A00095E500BF0C370020C34F0508747305085A
:1047B0007C4F0508D47805082DE9F043CE7A0446ED
:1047C0000F46914687B000F5805566B3B5F889303D
:1047D000A3B1FFF79DFB092885F8260121D12423E9
:1047E0008DF80C30002304930A21204603AAFFF71A
:1047F00031FC0646304607B0BDE8F0835B4E5C49AD
:1048000030683FF04EFF3EF0C4FE3EF0C3FEB4F809
:10481000A43F584900933B8995F8C02030683FF089
:1048200040FF0026E6E70A89B0F8A43F9A421ED06E
:10483000B5F8893053B1FFF76BFB092885F82601DD
:10484000EFD1242304968DF80C30CDE7474E48492C
:1048500030683FF026FF3EF09CFE3EF09BFEB4F831
:10486000A43F454900933B8995F8C020D6E700F561
:1048700087500C3001F0B4F858B1092385F826317F
:10488000222304900A21204603AA8DF80C30FFF75A
:10489000E1FBDFF8D880B5F88930D8F8000034495A
:1048A000A3B33FF0FEFE3EF074FE3EF073FE95F8BB
:1048B000C0203249D8F800003FF0F3FE0221002268
:1048C000204685F82611FFF7C5FBBB7A0646022B6A
:1048D0000AD1B9F1000F07D02046FEF77FFE002174
:1048E00020463EF03FFB85E72149D8F800003FF025
:1048F000D8FE3EF04EFE3EF04DFE3B8995F8C020BE
:104900001F49D8F800003FF0CCFEE8E73FF0C9FEB1
:104910003EF03FFE3EF03EFE95F8C0201949D8F823
:1049200000003FF0BEFE052385F82631BB7A022B3E
:104930000AD1B9F1000F07D02046FEF74FFE002143
:1049400020463EF00FFB6CE70949D8F800003FF025
:10495000A8FE3EF01EFE3EF01DFE3B8995F8C020ED
:104960000749D8F800003FF09CFEE8E70C3700202C
:10497000C34F05082279050877790508747305087F
:10498000CB7905086962050808B5074B4FF44672F4
:104990000021184642F017FDFF22827680F822217E
:1049A00080F82A2208BD00BFA80D00200B4B9A7E7C
:1049B00082420DD093F8222182420BD093F82A2212
:1049C000824209D102224FF4847101FB0230704708
:1049D0000022F8E70122F6E700207047A80D00202A
:1049E000FF282DE9F04107460E46904632D099B394
:1049F000A2F11703E32B31D84FF6FF730C889C42CA
:104A00002CD08A889A4229D0CA889A4226D00A890C
:104A10009A4223D0FF20FFF7C9FF054600B3214685
:104A200038461AF0DDF8044688B94FF4847201461E
:104A3000284642F0C8FC0B4BAF761A689B88C5F835
:104A400006206B8101236E61A5F818802B7020462B
:104A5000BDE8F0812524FAE72224F8E72124F6E7CF
:104A60001924F4E7F9790508FF2837B50C4625D055
:104A7000FFF79CFF054618B34CB9983000F0B0FF23
:104A800005F1600000F0ACFF204603B030BD0378B4
:104A9000052B03D0082B0AD00220F6E7002341F2B1
:104AA0008831084A0093983000F0B8FFEDE7002302
:104AB00041F28831044A00936030F5E72520E4E7AD
:104AC0002D20E2E7D932040893320408174B9842AC
:104AD00007D003F13802904203D003F170029042F4
:104AE0000AD1002300E001234FF48472104802FB36
:104AF000030070470223F7E703F584729042F2D077
:104B000003F5A0729042EED003F5BC729042EAD059
:104B100003F504729042EDD003F512729042E9D091
:104B200003F520739842E5D000207047080E00205E
:104B3000A80D002013B590F82A00FFF737FF68B1E1
:104B400000F16004204600F04BFF00234FF47A711F
:104B5000009320460123024A00F060FF02B010BD1E
:104B60009332040870B5054600F07CFB06462846E3
:104B700000F064F92B68A94A23F47F43064023F030
:104B8000070386F001069342F6B200F0B2800BD81C
:104B900002F17A42934200F0A08002F57D02934236
:104BA00020D086F0010070BD9D4A9342F9D128794A
:104BB000FFF7FCFE04460028F3D0EB790B2B3DD128
:104BC0004269B5F805301188994221D16B89042BCF
:104BD00006D10378012B03D1EA6880F82030C26146
:104BE000012321E0A879FFF7E1FE04460028D8D090
:104BF000D03000F0F5FE04F1600000F0F1FE04F1A9
:104C0000980000F0EDFE00232370FF23A376C8E791
:104C1000D18899420AD1AD89983000F0E1FE294649
:104C2000A07E3EF034FB00231E43BAE712899A426D
:104C3000F9D1A989807E3EF02BFBF4E71B2B01D034
:104C40001D2BAED16169B5F8052048899042C7D0C7
:104C500048889042C4D0C888904202D009899142C5
:104C6000E1D11D2B02D1A07E19F0AAFF6B89022B86
:104C7000B6D16269B5F80530D1888B4208D0128967
:104C80009A420ED0AD892946A07E3EF001FBA7E7EF
:104C9000E8791D2817D1E07B0228A1D112899A4218
:104CA00005D1EA791D2A13D1227C022A98D18B42A0
:104CB000AD89E8D104F1980000F092FE2946A07E6B
:104CC0003EF0E5FA8CE71B28E8D1E07B0128E4E719
:104CD0001B2AECD1227C012AE8E72879FFF766FE3F
:104CE00000283FF45EAF6B79AA7943EA022303837D
:104CF00057E72879FFF75AFE044600283FF451AFE2
:104D0000B5F80520037862B3092B8CD8012101FA8C
:104D100003F010F4127F0AD110F090001BD18B42E7
:104D200081D12070E169A07EFDF7F2F958E70023F8
:104D300084F82230A384A378052B05D102212370A7
:104D4000A07EFDF785FA4BE7012B7FF449AF0823DE
:104D500003212370F4E70223A07E2370FDF778FA85
:104D600061E7013B082B3FF65EAF01A252F823F04A
:104D7000954D0008274C0008C34D0008FB4D000866
:104D8000274C0008E14D00082B4E0008274C000876
:104D9000B14D000894F82030807EE1692BB10223E8
:104DA00000222370FDF7B4F93DE701222370F9E7F3
:104DB0008378827C03441A7302230022037001214A
:104DC000BEE78378827C03441A7340F20253438027
:104DD00020463EF01BF9024620BB04232370FFE669
:104DE0008378827C03441A7340F2011343803EF0BF
:104DF0000DF90246B0B90723F0E78378817CC21829
:104E00001173C2789A4205D10022052380F822202E
:104E1000828493E701338370DAE700BFA0000906BC
:104E2000A000090702232370C9E78378827C03442A
:104E30001A73002280F82220828488E7F0B5036884
:104E4000954A23F47F4323F007039342054691B02C
:104E500004D0002080F0010011B0F0BD0079FFF710
:104E6000A5FD04460028F4D0EB791D2BF1D1436950
:104E7000B5F805209B889A42EBD16B89012B04D8A9
:104E8000A07E19F09DFE0120E4E72A7B012A4CD088
:104E9000022A00F08F80002AF2D1032BF0D1037890
:104EA000B5F80D50052BEBD190F82230002BE7D050
:104EB00090F82170002FE3D1838CAB42E0D1D03049
:104EC00000F08EFD04F1280604F1600000F088FD7A
:104ED000304600F0A5F9304684F822700AA93EF069
:104EE00065FA034600B90A9BDDF83920DDF8351074
:104EF000A07ECDE908129DF8342007929DF833205A
:104F00000692DDF82F2005929DF82E2004929DF840
:104F10002D2003929DF82C20CDE901520122009210
:104F200000220021FDF73EFAAAE7052BA8D103785D
:104F3000052BA5D190F82230002BA1D090F821307C
:104F4000022B9DD1B5F80D20838C9A4298D1D03098
:104F500000F046FD04F1280604F1600000F040FD79
:104F6000304600F05DF90023304684F822300AA96B
:104F70003EF01CFA034600B90A9BDDF83920DDF843
:104F80003510A07ECDE908129DF8342007929DF8D7
:104F900033200692DDF82F2005929DF82E200492F2
:104FA0002A7C0392EA7B0292B5F80D20019201223D
:104FB0000092B6E7022B7FF463AF90F822306D7B4E
:104FC000002B3FF45DAFD03000F00AFD94F82330A1
:104FD000BBB1012D06D104F1600000F001FD0023FA
:104FE00084F822300026A07E32462B46032184F826
:104FF00023603EF0CFF92A463146A07E3EF0CCF940
:105000003EE7002394F8211084F82230012901D0D2
:10501000042904D12B460022A07E3EF0BBF994F86F
:105020002130012B31D013F0FD0F7FF429AF04F1B3
:105030002806304600F0F4F830460AA93EF0B6F9EA
:10504000034600B90A9BDDF83910DDF8356094F8A5
:105050002120A07ECDE908619DF8341007919DF8CC
:1050600033100691DDF82F1005919DF82E10049154
:105070009DF82D1003919DF82C100291A18CCDE983
:105080000051911E4A424A414BE72A460021A07E28
:105090003EF081F9F4E600BFA000090738B500240E
:1050A00005464FF0B5FB074B1B681BB94FF0ABFB38
:1050B000204638BD93F82A20AA4208BF1C461B6828
:1050C000F3E700BF083700202DE970430446164679
:1050D0000D46037B86B023F0180343F01003816173
:1050E000037301460D483EF048FAD4E90489217B58
:1050F000CDE90489227981F00403C1F340010191D3
:105100000292226B2946009220463246C3F3800366
:105110003EF010F906B0BDE8708300BF08370020EC
:105120002DE9F0410C4690461E46054686B0002803
:105130006FD000296DD04B68002B6AD0002A68D050
:105140008B7BFF2B67D00A7C4FF6FF73002A52D06F
:10515000B8F802209A425ED02368002B57D0A3896A
:10516000173B9BB2E32B52D84FF052FB07462B4B19
:105170001B68002B42D1A07BFFF790FF00283FD196
:1051800001AB04F1100C1A4620686168083403C2B0
:1051900064451346F7D12068002110603822284664
:1051A00042F011F901AC05F11C030DF1140C22467B
:1051B00003CA624518605960144603F10803F6D12A
:1051C000106818609DF8303085F82460EB842B7BE4
:1051D000C5F8348043F008032B73AE800EB1731E04
:1051E0009EB229460D48EE803EF0B8F938464FF0A1
:1051F0000AFB002008E0B8F80A20ABE79D42B7D1CF
:1052000038464FF000FB2E2006B0BDE8F08121208B
:10521000FAE72220F8E72520F6E700BF083700204C
:1052200070B50546C8B14FF0F3FA06460C4B1B6843
:105230002BB92D2430464FF0E6FA204670BD9D4232
:10524000F5D12C7B14F0100405D10622012128464B
:10525000FFF73AFFEEE70224ECE72224EDE700BF78
:10526000083700200368764A23F47F4323F00703BE
:1052700093422DE9F04705461BD002F1C06202F5CA
:10528000403293421BD002F1794293420CD1007913
:10529000FFF704FF40B1B5F80520038D9A4203D013
:1052A00013220221FFF710FF002080F00100BDE86B
:1052B000F0878079FFF7F2FE0028F1D1F4E7C37997
:1052C0001D2B01D01B2BEFD12879FFF7E7FE0446F9
:1052D0000028E9D090F82B20EB79F2B91D2BE3D010
:1052E00094F82C00B5F80520616BC0B14988914253
:1052F000DAD11D2B02D1287919F062FC6A89D2B269
:10530000012A03D9208DC31E93420AD22B220221E7
:105310002046FFF7D9FE0120C7E71B2BDFE74989AD
:10532000E5E7297B94F824C0CF074FEA910301F009
:1053300002061BD5A380237B43F001032373A388BC
:1053400026B1217B238141F0020121739C4564D861
:10535000E18CFF2901D099425FD304385843E169B9
:10536000013A83188B4251D91D22D0E7277BF907D8
:105370001BD4E6464FF0010947F001072773A380CD
:105380005FFA8EF1994203D361890B446381D6E7BA
:1053900009FA0EF8D4E9047147EA080741EAE8710E
:1053A000C4E904710EF1010EEAE7B4F806E0A3EBDC
:1053B0000E0101F03F0101390EF101095FFA81F898
:1053C00059FA81F189B23F2984BF47F00407277356
:1053D000A180217B490705D44FF0010A013BDBB2D4
:1053E0009E4501D34346CFE763450CD3E18C9942F8
:1053F00009D3D4E904710AFA03F947EA090741EA33
:10540000E971C4E90471013BDBB2E9E72363236A74
:1054100005F10D01184441F0E1FF2046A188FFF796
:1054200089FBA288E38CE2809A4205D0002E3FF4EB
:1054300072AFFF2B7FF46FAF0022114668E700BF09
:10544000A0000601092838B504460FD9084D0949BE
:1054500028683FF026F93EF09CF83EF09BF8224683
:10546000054928683FF01DF9002038BD0420FCE7FD
:105470000C3700207C4F0508FF7905082DE9F34122
:10548000044690F8028008460D4617461E46FFF770
:10549000D9FF4044013080281DD9284E2849306862
:1054A0003FF0FFF83EF075F83EF074F82846366895
:1054B000A478FFF7C7FF0134031980221C2430466B
:1054C000CDE900241F492A46DBB23FF0EAF8204626
:1054D00002B0BDE8F0816378AB4212D92626174F9F
:1054E000174938683FF0DDF83EF053F83EF052F8C7
:1054F00000962A466378144938683FF0D2F830465F
:10550000E6E7A3782846F554A37801331E44FFF755
:1055100099FF39460246304641F060FF28466570E3
:10552000FFF790FFA378013318442378C0B201330A
:10553000A070E07023700020CAE700BF0C37002085
:105540007C4F05081A7A0508837A05082DE9F0478B
:105550009946C37804460E46174633BB304D314951
:1055600028683FF09EF83EF014F83EF013F81B2335
:1055700032462D4928683FF094F84FF01B086378B5
:10558000092B10D9264D274928683FF08AF83EF0AC
:1055900000F83DF0FFFF26233246244928683FF0FB
:1055A00080F84FF02608002525E04FF00008E6E7D8
:1055B00017F805A05046FFF745FF5645024617D19C
:1055C000691C4846394441F009FF2378012B04D96E
:1055D000013B23704046BDE8F08700213846E27861
:1055E00041F0F1FE002323706370A370E370F1E7D4
:1055F00001321544EDB2E378AB42D9D8084C0949E1
:1056000020683FF04EF83DF0C4FF3DF0C3FF324646
:10561000074920683FF045F84FF00108DAE700BF7E
:105620000C3700207C4F0508DF7A0508197B050838
:10563000397B0508F8B50C460F4D104F8E18B44253
:1056400001D1002014E0296814F8013B7B540A2B97
:1056500001F10101296001D0F729F0D13846FBF7AB
:10566000FFFB30B12B68834203D0012331202B6034
:10567000F8BD01232B60E2E7F89A0020909E0020FD
:105680002DE9F047534E96B0354609AC0FCD0FC407
:105690002B6806F1140523600EAC0FCD0FC495E8FE
:1056A0000F00DFF8488184E80F004B484FF0BBF84B
:1056B00040464FF0B8F84FF48073484FADF83C3097
:1056C000474B38460B9309A90EAB0D9303F0BAFE76
:1056D00004210225B6F834A00DEB01000122ADF83B
:1056E00004A03EF02AF8B6F836900022012102A864
:1056F000ADF808903EF021F8368F0122042103A86E
:10570000ADF80C603EF019F80122042104A8354CD4
:10571000ADF810503EF011F8334B4FF44870C4F818
:10572000C8344FF00213C4F8C43403F58033C4F80E
:10573000CC341C23C4F8B43405F076FE08A8ADF8C8
:10574000205000F06FFB142005F06EFE08A8ADF8A5
:10575000205000F057FB232005F066FE08A8ADF8A6
:10576000205000F05FFBB92138463EF067FE08A8E4
:10577000ADF8205000F046FB002205A81146ADF818
:1057800014A03DF0DAFF002206A81146ADF81890EB
:105790003DF0D3FF0122002107A8ADF81C603DF0C9
:1057A000CCFF0122002108A8ADF820503DF0C5FF34
:1057B000384603F081FC00234046C4F8B434C4F8F2
:1057C000C834C4F8C434C4F8CC344FF02FF816B041
:1057D000BDE8F087587B0508DC7D050800000A500D
:1057E000E070720000C0035002000100E07D050877
:1057F00008B504484FF017F841F099FCBDE808409F
:10580000FFF73EBFDC7D050801484FF00CB800BF34
:10581000DC7D05080348044A0449121A92103DF041
:1058200089BE00BF800100084003000820990020C5
:1058300008B5154B83F30A8800F030F8FFF7EAFF4C
:10584000124B13498B4212D30020124B12498B4248
:1058500018D3FBF783FA186850F82240586840F8CC
:105860002240013298688242F5D30C33EAE70022E5
:10587000F8E71C6844F8220001325C68A242F8D3C1
:105880000833E4E70022F8E700000020382006088B
:105890004420060844200608442006084FF48041AE
:1058A000124B134A70B59A60D3F88820114D42F418
:1058B0007002C3F88820104A05F5005491664FF035
:1058C000FF3222660D4A62660222C3F8D020BFF37F
:1058D0004F8FBFF36F8F4FF44036002004F022FD4E
:1058E0000020E66004F002FD2E6170BD00ED00E0D6
:1058F000000000080080004400900050F7FF3700CF
:10590000014B1860704700BF009B0020054B1860DA
:10591000054B1B6F03F00703032B01D14DF0F2BCC5
:10592000704700BF089B00200080005018B1034B57
:105930001860002070472220704700BF0C370020FD
:1059400008B504F009FD014B186008BD0C370020B4
:10595000024B034918683EF0A4BE00BF0C3700207C
:10596000927B050870B50C4C0C49064620683EF049
:1059700098FE04F0F1FC0546206804F0E1FC304696
:10598000FFF7E6FF284604F0DBFC20680449BDE889
:1059900070403EF086BE00BF0C370020947B0508A7
:1059A000967B050838B505464EF032FF00230B4ABA
:1059B00014685CB1AC4206D1A96A6BB199624EF031
:1059C00022FF012007E02346A46AF2E7002DF3D06E
:1059D0004EF019FF204638BD1160F0E71037002067
:1059E00010B50446B0B14EF071FA2046FFF7DAFF69
:1059F00010B194F82C300BB9002010BD064C236870
:105A0000002BF9D04EF004FF2368013B23604EF0D9
:105A1000FAFEF1E72220F0E7143700202DE9F043E9
:105A200085B00546914698460E469DF8307009B9F6
:105A3000002F5CD12846FFF7D3FF0446002836D15B
:105A400085F82C00686305F081FC864233D94EF05E
:105A5000D5FA2146844640F2E7304FF47A720023AB
:105A6000E6FB0C010BF0FCFE4FF0FF3200230BF0C5
:105A7000F7FE2B46E88611462846CDE900441D4A2C
:105A80004EF09DFF044690B9C5E9089885F82D7041
:105A90002E634EF0BDFE184A136833B31A469B6A54
:105AA000002BFBD195620023AB624EF0ACFE20468A
:105AB00005B0BDE8F08347B12B4631462846CDE915
:105AC00000440C4A4EF01EFBDCE7304603A94EF0C2
:105AD0009BFA04460028EAD12B462846CDE90077F8
:105AE000044A03994EF047FFCCE71560DBE7212419
