S02B00002F55736572732F6368656E6771692F53696D706C696369747953747564696F2F76365F776F726B7347
S31508000000A80D00204D580008A72E0408A72E04089E
S31508000010B94A0408A72E0408A72E0408A72E040820
S31508000020A72E0408A72E0408A72E0408A72E04083E
S31508000030A72E0408A72E040805280408A72E0408D6
S31508000040A72E0408A72E0408A72E0408A72E04081E
S31508000050A72E0408A72E0408A72E0408A72E04080E
S31508000060A72E0408A72E0408A72E0408D500010801
S315080000705B6B0408A72E0408A72E0408A72E0408FD
S31508000080A72E0408A72E0408A72E0408A72E0408DE
S31508000090A72E0408B5630008A72E0408A72E04088F
S315080000A0A72E0408C15F0008A15F0008A72E040850
S315080000B0A72E040801E30208D5EB0208491E050825
S315080000C0451E050849E302085F1E05084D1E05087A
S315080000D0A5EB0208511E050815EC02087DEC02087E
S315080000E0A72E0408A72E0408A72E0408A72E04087E
S315080000F09B3F0408A72E0408A72E0408A72E040869
S31508000100A72E0408A72E0408A72E0408A72E04085D
S31508000110A72E0408A72E0408A72E0408A72E04084D
S31508000120A72E0408A72E0408A72E0408A72E04083D
S31508000130A72E0408A72E0408A72E0408A72E04082D
S31508000140A72E0408A72E0408A72E0408B9430508F5
S3150800015015CD0208A72E0408331E0508391E050802
S31508000160A72E0408A72E0408A72E0408A72E0408FD
S31508000180F0B5114A114C124E00F00105E3695F07FC
S3150800019013D40DB9334213D103EA00078F4207D1AE
S315080001A00B4A1A40002A0CBF00206FF00100F0BD70
S315080001B0013AEBD16FF00200F9E74FF0FF30F6E7AE
S315080001C06FF00100F3E700BF809698000000035027
S315080001D0020001000B4B70B5D96911F480310DD1BD
S315080001E001244FF48072084E084DF46020462C64B2
S315080001F01A61FFF7C5FF3464EC6070BD6FF001004B
S31508000200FBE700BF00000350001003500020035016
S315080002104FF4803238B50E4B0E4C9A66E56941F6B6
S31508000220713315400122E3630B4B0021DA60022388
S31508000230606121202361FFF7A3FF10B92120FFF792
S315080002409FFF0122054BDA600DB10023E36338BD39
S315080002500090005000000350001003500020035087
S3150800026070B5134C6061E3695B071ED40E4656F8F9
S31508000270043B8D18A361AE420BD104230021212033
S315080002802361FFF77DFF58B9BDE870402120FFF7CD
S3150800029077BF08210846FFF773FF10B104232361CF
S315080002A070BD56F8043BA361E5E74FF0FF30F7E76A
S315080002B0000003502DE9F84315464FF48032184BD9
S315080002C089469A6603F51C33DF690646174041F6E8
S315080002D07132DA63012203F58053DFF84C80DA6065
S315080002E055B9284601220F4BDA601FB10022A3F543
S315080002F00053DA63BDE8F88306F5005404EA0804F7
S31508000300A41BAC4228BF2C46494622463046FFF776
S31508000310A7FF0028E6D12644A1442D1BE0E700BF2D
S31508000320009000500020035000E0FFFF000000008E
S3150800033000000000000000000000000000000000AF
S31508000340013800D0FCE770472DE9F04F93B0CDE9AE
S315080003500A32DDE91C530E9353EC102BCDE9080144
S31508000360104619468DED060B1E9E10F069FE80B1EB
S31508000370DDE906014FF0FF32C54B10F089FE40B9A2
S31508000380DDE906014FF0FF326FF4801310F062FECC
S3150800039070B1DDE908019DED060B0E9B1E96CDE9B1
S315080003A01C53DDE90A3213B0BDE8F04F00F088B9F6
S315080003B00022DDE90601002310F04CFE002800F0BB
S315080003C03381DDE906A303F1004BCBF30A5016F49B
S315080003D08063A0F2FF3008BF06250F9310F05EFB7E
S315080003E09BA3D3E9002310F0C3FB9BA3D3E9002307
S315080003F010F008FACBF31304894644F07F5180467F
S315080004000022A44B504641F4401110F0F9F994A388
S31508000410D3E9002310F0ACFB02460B46404649469A
S3150800042010F0F0F910F03EFE044610F037FB8EA3EC
S31508000430D3E900238046894610F09AFB0022964BA2
S3150800044010F0E0F910F02EFE89A3D3E90023074641
S315080004504946404610F08CFB80463846894610F0DF
S315080004601DFB85A3D3E9002310F082FB02460B4649
S315080004704046494610F0C4F902460B46CDE90C231E
S3150800048010F076FBDDE90C238046894610461946AE
S3150800049010F0B8F90022CDE91001804B40464946D4
S315080004A010F090FC00227E4B10F0ACF902460B4689
S315080004B04046494610F086FC00227A4B10F0A2F915
S315080004C002460B464046494610F07CFCDDE90C2303
S315080004D08046894600204FF0804110F091F9024687
S315080004E00B464046494610F08DF902460B46DDE9B3
S315080004F0100110F067FC07F2FF3700226A4B10F074
S3150800050081F900223B0510F033FB52465B468046D4
S31508000510894610F0BDFD002840F08980CDE90C8998
S3150800052004F16303C72B34BF0427052731051BD500
S3150800053053A3D3E900235046594610F09FFD0028DF
S315080005407FD051A3D3E900235046594610F082FDC7
S31508000550002876D00027A542C6BF2C1B04F1FF351C
S3150800056000253C4646F480660E9B9F422CBF4FF002
S315080005700008A3EB070816F0020903D0002F18BFDE
S315080005804FF000083CB1DDE90C235046594610F0FF
S3150800059019FC82468B46DDE906010022002310F08D
S315080005A059FD10B10BF100439B46DDE9080126F41D
S315080005B00063CDE90183DDE90A324BEC10AB009507
S315080005C000F07EF802465FB3DDE9091316F0200F46
S315080005D000F10105089E0CBF65204520B047DDE9FE
S315080005E008010523002205930A23002CCDE90232CF
S315080005F007F1FF374FEAD473B8BF64422A4601931E
S3150800060004970A9B009444F0A9FB0246B9F1000F2F
S3150800061006D00B9BC41A0B9B1A190E9BA34245D8EE
S31508000620104613B0BDE8F08FDDE906ABCDE6002233
S31508000630404649461A4B10F0C5FB013CCDE90C0172
S315080006406EE7002D90D00F9B002B8DD0013D8BE7D8
S31508000650FB799F501344D33FB3C8608B288AC63FA3
S3150800066061436F63A787D23F71A379094F930A4005
S315080006701655B5BBB16B0240EF39FAFE422EE63F7E
S315080006802D431CEBE2361A3F0000000080842E4101
S31508000690FFFFEF7F0000F83F0000E03F00002C401E
S315080006A000002440000018400000F03F2020DDE94B
S315080006B00913089DA8470134ADE700BF00000000F4
S315080006C02DE9F04F5BEC10AB97B0CDE90501DDE9FC
S315080006D02057CDE90723504652465B465946229E87
S315080006E010F0AEFC70B90323CDE902760193B04B46
S315080006F00093DDE90501DDE9072344F04FFA17B059
S31508000700BDE8F08F4FF0FF326FF48013504659461C
S3150800071010F0A0FC28B10423CDE902760193A54B7D
S31508000720E6E74FF0FF3250465946A34B10F0B0FCAF
S3150800073068B1A24A06F00403002B08BF0322A04BA7
S315080007401CBF13460422CDE902760192D0E7504633
S3150800075093A3D3E90023594610F09AFC38B992A31B
S31508000760D3E900235046594610F074FC68B1DDE918
S315080007700723DDE905014BEC10ABCDE92176209581
S3150800078017B0BDE8F04FFFF7DFBD00220023504643
S31508000790594610F05FFC002800F09A805B465246E6
S315080007A00020002110F02CF8012382468B4609937D
S315080007B016F4806400F08E80092D40F28E800024A5
S315080007C030210EABA5F109020134202C03F8011BD8
S315080007D0A5EB040901D09442F6D15946504610F0CB
S315080007E061FC784B054603EBC90393ED007B8DED61
S315080007F00A7B10F053F902460B46504659460FF04D
S31508000800FFFFDDE90A2310F0B3F902460B46CDE9EE
S315080008100C2310F06FFC804610F030F902460B46A8
S31508000820DDE90C010FF0ECFF02460B46CDE90C237F
S315080008300022654B10F02CFC002851D008F1010865
S31508000840404610F01BF902460B46DDE90A0110F096
S315080008500BFC10B14FF000080135B9F1000F50D16B
S31508000860284610F01BF902460B46504659460FF02B
S31508000870C7FF0022544B8046894610F0EBFB30B187
S31508000880002240464946504B10F002FC10B1E807DA
S3150800089000D501350A210EAB1A19202C0AD095FB72
S315080008A0F1F001FB1055303502F8015B01340546BD
S315080008B00028F2D106F00302012A57D1002F55D09D
S315080008C0099A12B916F00C0F00D0013F302245E004
S315080008D009906DE74FF006097FE7A94600247CE7F3
S315080008E00022DDE90C01384B10F0B4FB0028B4D126
S315080008F0B8F1000F02D018F0010FAED008F10108C8
S31508000900ABE70A210EAB2344202C0ED0B8FBF1F03E
S3150800091001FB1082B8F1090F02F1300209F1FF3923
S3150800092004F1010403F8012B11D83021A1440EAAC1
S31508000930202CAFD0A14504F101030AD11C4609F1C8
S3150800094058030DEB03092E2309F8203CA2E780463D
S31508000950DAE7A1541C46EBE71A550134A74205D934
S31508000960202CF9D1CDE902760194C1E6202CF9D0E4
S31508000970099A3AB12D2104F158026A4402F8201C5A
S315080009800134EFE7710704D504F158022B216A44B4
S31508000990F4E73207E6D504F1580220216A44EDE768
S315080009A00000000065CDCD410000000065CDCDC139
S315080009B0887705088C770508FFFFEF7F7F7705089E
S315080009C084770508987705080000E03F00000000D6
S315080009D02DE9F04F2DED028B002597B01D7003937E
S315080009E0229B074607911D60002800F03C8143784A
S315080009F0047844EA0324837844EA0344C37844EA3F
S31508000A00036463783F2B00F22E81AA4214BF0623A3
S31508000A1008238DF8243009230C958DF82630427961
S31508000A20037908469FEDA48B43EA02234A790434E6
S31508000A30023292008DF825200AAA0092043B9BB246
S31508000A402146007909AA8DED0A8B39F0CBF90A9B64
S31508000A500646049360B1049B23B10C991846C91A3B
S31508000A6043F05DFF304617B0BDEC028BBDE8F08F52
S31508000A700B98039DC01A40102870C0B200EB4000C6
S31508000A808F49800051F00DFA8346002800F0108146
S31508000A902B788DED0E8B1096002B00F0FA803346DE
S31508000AA002960299E279591A8A42B246B04600F28B
S31508000AB0AC8004D202991144994218BF0F91002ABA
S31508000AC040F0AD807A783B7894F802E043EA022356
S31508000AD0BA7894F803C043EA0243FA7808EB480167
S31508000AE043EA026300220BEB810514925A781878C0
S31508000AF085F802E085F803C002F00F03E2798DED70
S31508000B00128B6A7194F906202A710BF821000EAA35
S31508000B106B70204612AB09A937F056F981460028B2
S31508000B203BD01298149910B1091A43F0F8FE039BAA
S31508000B301B78F3B100252C462E4604EB44040BEB38
S31508000B408404627A207A40EA0220A27A40EA0240C5
S31508000B50E27A50EA026000F0968043F0DEFE039BDC
S31508000B6001351B7826726672A672E672ECB29C4252
S31508000B70E3D3584643F0D1FE0023029A1099891A06
S31508000B80039A1370029B13B1184643F0C8FE049BE0
S31508000B904E46002B7FF461AF64E7DDE91232D21AC4
S31508000BA0104647490693059251F07BF9C0F3072C86
S31508000BB085F809C0C0F3074C85F80AC04FEA106CDF
S31508000BC0069B287285F80BC0002865D0059A002A6E
S31508000BD035D185F8069085F80790002B40D1049BFF
S31508000BE00AF1010A33F81820E3795FFA8AF83344E0
S31508000BF0DEB2039B14441B7843453BD90F9B0299ED
S31508000C00E279591A8A427FF654AF511A0EA837F07C
S31508000C107DF80E9BE2790293002A3FF453AF0798BA
S31508000C204378017841EA0321837841EA0341C3788E
S31508000C30029841EA0361314446F03FF842E7194613
S31508000C400692059346F039F8069A1499059BAA71F7
S31508000C50C2F30722EA71C91A184643F060FEBEE7D6
S31508000C601499C91AF8E70B26304617B0BDEC028B63
S31508000C70BDE8F08F229B1099C3F800B0029BC91AF1
S31508000C80002B81D183E70135ECB29C42FFF455AFC6
S31508000C906FE7229B1860DEE63BB114991846C91A1D
S31508000CA043F03DFE4FF0020941E74FF002093EE7E7
S31508000CB00226D0E6AFF30080000000000000000026
S31508000CC0BC0B06080348044B834202D0034B03B10E
S31508000CD01847704764B3002064B300200000000082
S31508000CE0064B0749C91A891048BF0131491003D074
S31508000CF0044B0BB101481847704700BF64B3002086
S31508000D0064B300200000000010B5064C237843B9F0
S31508000D10FFF7D8FF044B13B10448AFF30080012353
S31508000D20237010BDAE98002000000000B416060817
S31508000D3008B5054B1BB105490548AFF30080BDE86A
S31508000D400840FFF7CDBF00BF00000000C813002011
S31508000D50B4160608A3F5803A704700BF174B002B58
S31508000D6008BF134B9D46FFF7F5FF00218B460F463C
S31508000D701348144A121A45F0BAFF0E4B002B00D03E
S31508000D8098470D4B002B00D09847002000210400FF
S31508000D900D000D48002802D00C48AFF3008010F073
S31508000DA06BFD2000290045F0DAFE10F0A3FB00BF1A
S31508000DB0000008000000000000000000A80D002048
S31508000DC0A80D002080AA00200000000000000000F6
S31508000DD013B5094C237863B9022304200093074A04
S31508000DE04FF4805306490DF0CDF90028A4BF01231E
S31508000DF0237002B010BD00BFB0A80020AF98002035
S31508000E000847050830B5154B87B01B7805461446C4
S31508000E10019103B341F0DAFC4FF41B630D22CDF8C0
S31508000E200D00CDF81110042002A902938DF80C507C
S31508000E300DF07CF904220DEB020110460DF076F94F
S31508000E40019B21461A0202F4E062C3F30723042039
S31508000E501A430DF06BF907B030BD00BFAFA80020EC
S31508000E6030B5144B05461B7885B003F0FF04F3B183
S31508000E70FF2928BFFF210C4641F0A8FC04F109020E
S31508000E8013029BB243EA122343F0807343F0B00384
S31508000E900D22CDE900300291042069468DF80C40F8
S31508000EA00DF044F92246294604200DF03FF9204664
S31508000EB005B030BDAFA800200122014B1A7070475B
S31508000EC0AFA800201FB541F081FC084B0391CDE97E
S31508000ED001300C22042001A90DF028F904200DF098
S31508000EE083F90028FAD105B05DF804FBB0080002C2
S31508000EF037B5044619F0B4F8054600284AD1A36860
S31508000F0043F40033A36046F012FFA368244A43F46F
S31508000F10A013A360A261257743F02EFEA368A080E4
S31508000F201B030CD4B0F5FA7F09D953F0FCF801215C
S31508000F300546084652F098F8284653F0EFF820463A
S31508000F4019F0B6F838BBE06838B31BF00DF917F09E
S31508000F5023F917F035FF4AF01FF848F0CAFA4FF49C
S31508000F604173ADF80430FF2301A88DF8063012F05E
S31508000F7063FC00220320114649F06BFA0321042082
S31508000F801AF05EFA0A2012F0BBF819F049F8204662
S31508000F9041F033FC002003B030BD0248D5E700BF5E
S31508000FA005040300DEAF002008B50449044823F011
S31508000FB0B7FFBDE8084023F0E5BF00BF184705089E
S31508000FC0DC4705084FF08052014B5A60704700BF56
S31508000FD000ED00E0F8B50E460546D0B1C9B10E4B96
S31508000FE00E4F1968386806F0D3F9044678B906230F
S31508000FF032460B49386806F099FA044638B901238F
S315080010002A460849386806F091FA00B12C7020463D
S31508001010F8BD2124FBE700BF6CAC00208CAC002097
S315080010202C0004003C00040007B5084B1878FF287C
S3150800103002D023F0ADFA30B14FF6047301A8ADF82B
S31508001040043045F01CFD03B05DF804FBEFAF00204B
S3150800105010B50D4C0D4804F0D1FC23780BB123F0E4
S31508001060F1FAFF220A4B01211A700022094B22705D
S315080010709A70152219705970DA701A7100F050FBBF
S31508001080BDE8104000F02CB9B1A80020E0130020FC
S31508001090EFAF0020B2A8002038B500F077F9044673
S315080010A000F0CEF9C0B10E4D2B789BB90D4B1B78CD
S315080010B0FF2B11D1022C11D80B4C2279E178A0789C
S315080010C023F096FA38B90121207823F0A7FA10B947
S315080010D001232B70002038BD0220FCE71D20FAE70B
S315080010E0B1A80020EFAF0020B2A80020F0B5054651
S315080010F085B00E4600F04AF95DB3194F3B78FF2BD1
S3150800110029D1022829D8002342F21071154A164817
S31508001110009304F091FC0446A0B901460DF10F03B3
S3150800112000936A792B79286843EA022363F30F014F
S315080011300E4B32461B7823F081F9044628B10A483B
S3150800114004F05CFC204605B0F0BD9DF80F303B70FE
S31508001150F8E72224F6E70224F4E71D24F2E700BFA5
S31508001160EFAF002029100008E0130020B2A80020E5
S31508001170036837B523F47F43504A23F007039342A5
S31508001180044621D009D8A2F5A022934217D002F529
S315080011908022934273D003B030BD494A93424AD065
S315080011A002F57F029342F6D1464B1B78002BF2D00C
S315080011B0454B1B78FF2BEED100F11E0369E003B007
S315080011C0BDE83040FFF744BF3F4B017B1A78914298
S315080011D0E1D1C27A012ADED1FF223A4D3B481A7084
S315080011E004F00CFC2B784BB123F02CFA08B34FF61D
S315080011F0047301A8ADF8043045F041FC607A227A00
S31508001200012342EA00226168207B00F077F830B1BA
S315080012104FF6047301A8ADF8043045F030FC0023FE
S315080012208DF80430237B8DF8053001A845F027FC9E
S31508001230B1E72870E2E7244D80792B78834205D1FF
S31508001240224804F0DBFBFF232B70A4E700F0BCF870
S315080012500028A0D0A07900F0E1F800289BD0A0795A
S3150800126000F076F830B14FF6047301A8ADF80430F3
S3150800127045F005FC02238DF80430A379D3E7114B1A
S315080012801B78002B87D0104B1B78FF2B83D100F1DE
S31508001290160394F90D20E17A601D41F0BAFA002888
S315080012A03FF479AF11283FF476AF2D3801287FF641
S315080012B072AF4FF60473ADF80430B6E7A000060027
S315080012C0A0000601B1A80020EFAF0020E01300201F
S315080012D0024B187880F00100704700BFB1A80020C3
S315080012E0FF22044B1A701A721A740022024B1A70E3
S315080012F0704700BFB7A80020CFA8002013B56C46DA
S3150800130084E80600104A1178FF2917D0117AFF29B8
S3150800131016D0117CFF2915D1022102F83100009858
S3150800132002EBC102C2F8020000205370A388D380E2
S31508001330064A13780133137002B010BD0021ECE79A
S315080013400121EAE71A20F7E7B7A80020CFA800206E
S315080013500C4B1A7882420FD01A7A82420ED01A7C27
S3150800136082420DD10222FF2103F83210064A0020DC
S315080013701378013B137070470022F4E70122F2E765
S315080013802D207047B7A80020CFA80020014B187859
S31508001390704700BFCFA800200A4B1A7882420AD0AD
S315080013A01A7A824209D01A7C824208D1022203EBB9
S315080013B0C200023070470022F9E70122F7E7002051
S315080013C0704700BFB7A80020064B1A78824207D09C
S315080013D01A7A824204D01B7C1B1A5842584170471D
S315080013E001207047B7A8002070B5044680B10026D2
S315080013F0094D15F8023CFF2B05D006222146284642
S3150800140045F04BFC30B10136032E05F10805F0D145
S31508001410002070BD0120FCE7B9A800200146002283
S31508001420064B1878884202D15878012805D001322F
S31508001430032A03F10803F4D100207047B7A8002057
S31508001440024B1888003818BF01207047181400206E
S315080014502DE9F04F8E4D90462E7893B03207894687
S315080014609A464FF00004009035D4F30647D4F707A0
S315080014704CD44FF0000B9AF800305F46013B0D93B1
S3150800148006F0040308932B7ACDE901BB00936B6839
S3150800149009936B7803F001030B9395F86430049372
S315080014A095F865300693069A049B13440C9395F8B1
S315080014B05C30039395F85D300593059A039B1344B6
S315080014C00A9306F002030F9306F02003079306F02B
S315080014D0400310937BE04FF00804002705F1090B41
S315080014E0062200990BEB070045F0D7FB0028BCD075
S315080014F006373C2FF4D1002013B0BDE8F08F95F8DD
S31508001500453044F010044B45F5D1B0E795F9023063
S3150800151044F001044345ACDBEDE70AEB07035D78CD
S3150800152093F802900F9B002B36D0A9F10803012BE4
S3150800153032D8089A234644F002041ABB009BAB42F1
S3150800154030D2F81C009A0999504445F0A6FB0028A9
S3150800155008BF4FF0010B079B002B00F08580B9F1FF
S31508001560210F40F081800A9B44F020049D42C2DD91
S31508001570039B059AD91903314648514445F08DFB1A
S3150800158010B3B8E743F00604009BAB42E3D2009AD7
S315080015906B1E9342DFD1D4E7109B1BB1A9F102035E
S315080015A0012B2ED93006D6D5A9F10603012BD2D8A0
S315080015B04FF00008BA1C44F080046B1E0E92984542
S315080015C03DDB079B002B4FD101353D44EFB20D9B08
S315080015D09F42A2DB16F0060F02D0BBF1000F8AD09D
S315080015E0710602D5019B002B85D0320602D5029BD7
S315080015F0002B80D0264BA4B21888031B58425841AA
S315080016007AE74FF000086B1E0E9344F04004BB1CAB
S315080016100E9A90459FDA03EB0801013102221E4813
S315080016205144119345F039FB0028019B08BF01235B
S3150800163008F1020801935FFA88F8119BE8E711930D
S315080016400E9B102203EB080101311448514445F062
S3150800165024FB0028029B08BF012308F11008029307
S315080016605FFA88F8119BAAE70B9B002BACD0B9F15F
S31508001670FF0FA9D10C9B44F480749D427FF73BAFC2
S31508001680049B069AD91903310548514476E700BFE9
S3150800169018140020701400205E1400206014002026
S315080016A078140020F8B506460D461746FFF710FED3
S315080016B0B8B1C6B1284642F0F6FF0D4C6060A0B13D
S315080016C02A46314645F01EFB2378257243F002036D
S315080016D023700FB90020F8BD237843F00403237064
S315080016E0F8E70220F7E72120F5E71920F3E700BF1E
S315080016F01814002010B50446FFF7EAFD50B15CB196
S3150800170000202288054BA3F846201A7842F04002AA
S315080017101A7010BD0220FCE72120FAE718140020F1
S3150800172010B5FFF7D5FDF0B1104C606818B143F05D
S31508001730BCF800236360A06D18B143F0B6F8002327
S31508001740A365206E18B143F0B0F800232366002085
S31508001750FE23A070207284F84530A4F85C00A4F833
S315080017606400208010BD0220FCE700BF181400208A
S3150800177000234FF0FF320449C818CA5006333C2BE1
S315080017808280F9D1FFF7CCBF21140020034A04490F
S31508001790002808BF1146042023F0BAB89448050863
S315080017A08C48050838B5174B044693F8C020824282
S315080017B0A3F580501BD003F5805292F80422A2426A
S315080017C01BD003F5005393F84833A34217D00E4DA8
S315080017D00E49286842F01FFC41F095FB41F094FB46
S315080017E022460B49286842F016FC002038BD002323
S315080017F041F2441202FB0300F8E70123F8E702234B
S31508001800F6E700BF80240020504800209C480508C1
S31508001810A14805082DE9F04FFF288FB00D46CDE900
S315080018200A32099000F01E84002900F01D840A9BE4
S31508001830002B00F01984199B002B00F01584189BC7
S31508001840002B00F01184AF4EAF49306842F0E3FB3D
S3150800185041F059FB41F058FB099AAC49306842F00F
S31508001860DAFBAB4B93F8C020A3F58054FF2A2BD0A4
S3150800187003F5805292F80422FF2A00F09F8003F5B0
S31508001880005393F84833FF2B00F09B80A14930683A
S3150800189042F0C1FB41F037FB41F036FB9E49306808
S315080018A042F0B9FB9B49306842F0B5FB41F02BFB8F
S315080018B041F02AFB099A9949306842F0ACFB1C248E
S315080018C020460FB0BDE8F08F4FF0000941F24412F0
S315080018D002FB09F3E71800213846079345F007FA93
S315080018E00021384640F0F8FF41F2A8034FF0FF32D6
S315080018F0FA5041F2BA0317224FF0000BFA5207F5D5
S315080019008052B2F8A430594603F0F00343F48673C4
S31508001910A2F8A430079B40F24A7203F65800204406
S31508001920C7F854B845F0E3F941F2BC0307F803B029
S31508001930099B07F586563370079B492203F58250A3
S315080019401A302946204445F0DDF941F26603FB5C6E
S3150800195041F2C40A089341F268036A4D17F80380F6
S315080019606949286842F057FB41F0CDFA41F0CCFAB4
S31508001970CDF80080089B32786949286842F04BFB0D
S31508001980079B5A4603EB0A0121445B46307822F04E
S31508001990D9FD0446C0B15F49286842F03CFB41F0D6
S315080019A0B2FA41F0B1FA5F493278286842F033FB5F
S315080019B02D212246384601F025FB81E74FF0010923
S315080019C084E74FF0020981E717F80A309BB93078A7
S315080019D022F06AFE044670B14E49286842F01BFBA5
S315080019E041F091FA41F090FA4F493278286842F06E
S315080019F012FB2E21DDE70B9B28681B884B4CA7F8AA
S31508001A00B93F13F0FF0344D13F4942F004FB41F0CC
S31508001A107AFA41F079FA41F2441303FB094303F5D4
S31508001A2086531A784249286842F0F5FA41F2441476
S31508001A3041F2D003DFF8F4A00A9A04FB09A4E250A5
S31508001A4041F2D403189A94F8B91FE25041F2D80328
S31508001A50199AE250079B03F5845641F25D0319363D
S31508001A6056443246E05C37F007FE834600286BD0C2
S31508001A702849286842F0CFFA41F045FA41F044FA7D
S31508001A802C495B46099A286842F0C5FA2124302178
S31508001A908FE7012B0FD11C4942F0BDFA41F033FA0A
S31508001AA041F032FA41F2441303FB094303F5865326
S31508001AB01A782149B7E7022B0FD1134942F0ABFA3E
S31508001AC041F021FA41F020FA41F2441303FB09439D
S31508001AD003F586531A781949A5E7194942F09BFA7E
S31508001AE041F011FA41F010FA41F2441303FB09449C
S31508001AF004F5865294F8B93F12781249286842F0DC
S31508001B008AFA93E750480020E3480508E84805089C
S31508001B10802400209C4805081D4905083849050801
S31508001B2068490508C4490508F449050880140020D1
S31508001B30234A05089C4B0508784A0508D64A05082D
S31508001B40264B05082B4B05080A21304601F02AFDCD
S31508001B500646C44904F58654286842F05CFA41F002
S31508001B60D2F941F0D1F933462278BF49286842F0C4
S31508001B7052FA2078FFF716FE00F5805B9BF85D3079
S31508001B800446022BB94E4DD19BF86730072B00F25D
S31508001B905181DFE813F0080018004F014F01E800F3
S31508001BA04F014F01FB000123AE4980F8D33F286857
S31508001BB042F031FA41F0A7F941F0A6F99BF8C020A6
S31508001BC0AB4928682CE0089B3068012B1AD8A9492C
S31508001BD004F5805842F01FFA41F095F941F094F95E
S31508001BE098F8C020A449306842F015FA0122292144
S31508001BF0204601F007FA002388F86730012384F8A5
S31508001C00D33F0FE0022384F8D33F964942F003FA04
S31508001C1041F079F941F078F99BF8C0209749306886
S31508001C2042F0F9F904F5805898F8673088F8683072
S31508001C3098F85D30012B20D198F86BB03068BBF16D
S31508001C40020F00F02B81BBF1FE0F00F04C81BBF1B7
S31508001C50010F40F05881874942F0DDF941F053F908
S31508001C6041F052F998F8C0208549306842F0D3F916
S31508001C7088F86CB0002384F8D33F41F2441606FB7B
S31508001C8009A606F5845BBBF80930002B35D10DF1A2
S31508001C90360304930DAB039341F29703F35C41F2C9
S31508001CA05A02029341F26803F35C41F25E01019322
S31508001CB096F8B93F41F25D00009341F29803B25C91
S31508001CC0F35C715C305C01F02BF906F58658044626
S31508001CD0002800F04781654E0F2C306840F02581BA
S31508001CE0644942F098F941F00EF941F00DF998F877
S31508001CF000206449306842F08EF941F2441606FB2A
S31508001D0009A606F584531A461032B2F8032006F5DA
S31508001D1083510292B3F8112006F586580192B3F85A
S31508001D200D20183100920833B1F80920B3F80330B2
S31508001D30B1F8071098F8000022F0ACFB044600281A
S31508001D4000F032815049286842F065F941F0DBF825
S31508001D5041F0DAF84D49234698F80020286842F001
S31508001D605AF9312125E6B8F1010F30687FF62FAF11
S31508001D7002233C4984F8D33F42F04DF941F0C3F8B9
S31508001D8041F0C2F89BF8C020414948E7B8F1010F75
S31508001D9011D9089B012B20D90423324980F8D33F57
S31508001DA0286842F038F941F0AEF841F0ADF89BF8F2
S31508001DB0C020384905E70122292101F023F9B8F1A5
S31508001DC0010F11D1089B3068022B0DD104F5805BF9
S31508001DD084F8D33F8BF8678017E70122292101F0A1
S31508001DE011F9B8F1020F10D02249286804F5805875
S31508001DF042F011F941F087F841F086F898F8C020CA
S31508001E001D49286842F007F9F5E6089B3068012B5A
S31508001E10EAD1042384F8D38F04F58058114988F849
S31508001E20673042F0F8F841F06EF841F06DF898F82E
S31508001E30C020A9E70F4904F58058286842F0EBF856
S31508001E4041F061F841F060F898F8C0201249286816
S31508001E5042F0E1F8012384F8D33F002388F867307D
S31508001E60E0E600BFE3480508D34B050850480020C4
S31508001E70094C0508264B05083C4C05087D4C050809
S31508001E80714D0508EB4E05089C48050835500508B0
S31508001E90B04C0508E34C0508164D0508089A012AB2
S31508001EA00AD9724942F0B7F841F02DF841F02CF8FA
S31508001EB098F8C0206E49D8E66C49089342F0ABF80A
S31508001EC041F021F841F020F898F8C02069493068B7
S31508001ED042F0A1F8089B2A211A46204688F86C3059
S31508001EE001F090F8C6E6644942F095F841F00BF81F
S31508001EF041F00AF898F8663098F8C0205F493068CB
S31508001F0042F089F8B4E65949089342F084F840F05B
S31508001F10FAFF40F0F9FF98F8C0205949306842F0B6
S31508001F207AF8089B88F86B30A4E60A2C0AD14F4940
S31508001F3042F071F840F0E7FF40F0E6FF98F800201D
S31508001F405049D7E6504942F066F840F0DCFF40F0C9
S31508001F50DBFF4E49234698F80020306842F05BF8CC
S31508001F60322126E5BDF8343006F58356A6F81F302B
S31508001F70A6F82130BDF836303F492868ABF803305B
S31508001F80ABF8053042F047F840F0BDFF40F0BCFF23
S31508001F90BBF805303E490093B6F8213098F8002082
S31508001FA0286842F038F8A8E641F25B03FF22F15CA4
S31508001FB0099822F097FA044680B13349286842F016
S31508001FC02AF840F0A0FF40F09FFF3249234698F8D0
S31508001FD00020286842F01FF83321EAE441F2CC09D0
S31508001FE00799079B079A01F586514B4402F6B97281
S31508001FF0083153445244514498F8000001F0F2F96C
S315080020008246A8B12049286842F005F840F07BFFCF
S3150800201040F07AFF534698F800201F49286841F097
S31508002020FAFF52462F21384600F0ECFF012447E418
S315080020301149286841F0EFFF40F065FF40F064FF62
S3150800204098F800201549286841F0E5FF1A9B1BB14E
S3150800205016F809301A9A137000223846114602F00B
S3150800206007F82DE425242BE4222429E4264B050829
S31508002070B84D0508FF4D0508E34805084A4E05080A
S315080020808F4E0508474F05089C4805088D4F0508DB
S31508002090E44F05087F500508C2500508FD5005089D
S315080020A02DE9F047002541F244172E461E4CA4F6AA
S315080020B05809A4F6580841F244120021404644F053
S315080020C016FEFF2384F8683884F8D1384FF0FF33BA
S315080020D04FF0010AC4F85038172307FB059284F815
S315080020E0CE6884F84DA8A4F8623802F5805292F8B2
S315080020F0A430002123F00F0343F00C0382F8A43028
S31508002100204640F24A7244F8046C44F0F0FD554407
S3150800211084F864685146404640F0DEFB032D3C4493
S31508002120C7D1BDE8F08700BFD81C00202DE9F041D3
S31508002130064688461746FFF735FB434C054698B9C9
S315080021404249206841F067FF40F0DDFE40F0DCFEC2
S3150800215032463F49206841F05EFF22222721284661
S31508002160BDE8F04100F04EBF05F5805696F8A4305C
S315080021702068DB0712D518F0010F0FD1334941F05B
S315080021804AFF40F0C0FE40F0BFFE96F8C020314935
S31508002190206841F040FF3A460B21E0E787B12B491A
S315080021A041F039FF40F0AFFE40F0AEFE96F8C02091
S315080021B029493B46206841F02EFF3A460C21CEE7D6
S315080021C0264941F028FF40F09EFE40F09DFE43461A
S315080021D096F8C0202249206841F01DFF96F8A41001
S315080021E096F8C00040F016FC074688B117492068E3
S315080021F041F011FF40F087FE40F086FE96F8C020B9
S3150800220018493B46206841F006FF3A460D21A6E7E5
S31508002210032196F8C00040F041FC074688B10B49F7
S31508002220206841F0F8FE40F06EFE40F06DFE96F82C
S31508002230C0200D493B46206841F0EDFE3A460E2186
S315080022408DE7BDE8F08100BF504800209C4805088E
S315080022502B5105085A510508C0510508E3480508D9
S315080022600152050840520508805205082DE9F0413B
S3150800227086B007460E461546FFF794FA0446A8B9EF
S31508002280494D4A49286841F0C6FE40F03CFE40F0F8
S315080022903BFE3A464649286841F0BDFE22220E21F9
S315080022A0204606B0BDE8F04100F0ACBEA5B1DFF8A7
S315080022B0F8803E49D8F8000041F0ADFE40F023FE14
S315080022C040F022FE009533463A463A49D8F80000CF
S315080022D041F0A1FE2A46E2E7022E57D0032E22D06D
S315080022E0012E2FD100F5805696F8B830052B29D146
S315080022F00C23032196F8C00086F8B83040F0CEFBD0
S315080023000546F8B1284F2949386841F084FE40F05F
S31508002310FAFD40F0F9FD2B4696F8C02026493868A4
S3150800232041F079FED6E700F5805696F8B8300C2BC2
S315080023300BD0012103AA8DF80C1001F099FE052394
S3150800234086F8B83006B0BDE8F08100F6580240F2CB
S315080023504A7196F8C00040F01DFB05460028EED0ED
S31508002360114F1249386841F056FE40F0CCFD40F056
S31508002370CBFD96F8C0202B461049386841F04BFE35
S315080023802A460F21204600F03DFED8E70723012103
S3150800239000F5805484F8B83084F8BC5003AA8DF848
S315080023A00C1001F065FECDE7504800209C48050852
S315080023B0BB520508F8520508805205083953050826
S315080023C02DE9F04F87B00646DDE918BA89461D465D
S315080023D0DDF85480FFF7E6F9044680B9504D5149B7
S315080023E0286841F018FE40F08EFD40F08DFD32461B
S315080023F04D49286841F00FFE2222112120E000F500
S31508002400805696F8A5300BB300F6580240F24A718A
S3150800241096F8C00040F0BEFA0746B8B1404D4149AB
S31508002420286841F0F8FD40F06EFD40F06DFD96F825
S31508002430C0203E493B46286841F0EDFD3A460F214B
S31508002440204607B0BDE8F04F00F0DCBDB5B1344F0B
S315080024503449386841F0DFFD40F055FD40F054FD41
S315080024602B4696F8C0203249386841F0D4FD5BEA1D
S315080024700A0A51D0062D4FD02A46BEE7B9F1000FF9
S315080024804AD0274F2B49C4F85488386841F0C3FD11
S3150800249040F039FD40F038FD94F8593894F858184A
S315080024A096F8C02003F00F03CDF8008041EA032315
S315080024B03868214941F0AFFD94F8592894F85838FE
S315080024C002F00F0204F6580943EA0223D4F8541816
S315080024D02A46ADF81430484696F82831CDE90398CF
S315080024E08DF8175040F00DFA08218DF8160003AA4A
S315080024F0204601F0BDFD044670B10A49386841F02E
S315080025008AFD40F000FD40F0FFFC234696F8C02007
S315080025100A49386841F07FFD07B0BDE8F08F00BF73
S31508002520504800209C4805087F530508395305087C
S31508002530C3530508E3480508055405084954050822
S315080025402DE9F0410368B04A23F47F4323F00703DB
S315080025509342044692B000F021832ED802F17F42BE
S31508002560934200F03B830FD802F17F42934200F07A
S31508002570018202F53002934200F0CC82002080F0FE
S31508002580010012B0BDE8F081A04A934248D002F596
S3150800259040329342F2D10079FFF704F9002840F05F
S315080025A0A1829B4D9B49286841F035FD40F0ABFC64
S315080025B040F0AAFC2279984942E0984A934200F0F2
S315080025C0458413D802F17E42934200F0CE8302F589
S315080025D02D029342D2D10079FFF7E4F80028CDD036
S315080025E0637900F5805080F85B30C7E78C4A9342E0
S315080025F000F0CD8102F1FC729342BFD1844D85492A
S31508002600286841F008FD40F07EFC40F07DFCA37987
S315080026108449009363792279286841F0FCFCADE788
S315080026200079FFF7BFF8074670B9794D79492868E8
S3150800263041F0F1FC40F067FC40F066FC22797A49EB
S31508002640286841F0E8FC99E7B4F8052000F58055BC
S3150800265093B2A5F8C220B5F881209A4203D3B5F8FB
S315080026607F209A4277D96A4E7049306841F0D3FC88
S3150800267040F049FC40F048FCB4F80510B5F87F3046
S3150800268095F8C0200191B5F8811000913068684925
S3150800269041F0C1FC95F8C630A3BB5D4E634930686E
S315080026A041F0B9FC40F02FFC40F02EFC95F8C02014
S315080026B06049306841F0AFFCB5F893C0B5F88B3087
S315080026C0B5F88120B5F87F1095F8C000CDF808C098
S315080026D0B5F891C0CDF804C0B5F88DC0CDF800C0E6
S315080026E021F0D8FE002869D05049306841F093FCA3
S315080026F040F009FC40F008FC95F8C0204E493068C7
S3150800270041F089FC012385F8C630E37A002B59D0BD
S3150800271095F8B830002B40F0388195F8C0001BF0CA
S31508002720CFFE3B4E0446002850D005284ED03949E6
S31508002730306841F070FC40F0E6FB40F0E5FB95F8A8
S31508002740C0203E49306841F066FC224605213846DD
S3150800275000F058FC12E7B5F88B20B4F807309A4217
S3150800276014D02B4E3149306841F055FC40F0CBFB74
S3150800277040F0CAFBB4F80710B5F88B3095F8C020BE
S3150800278000912F49306841F046FC83E7B5F88D2063
S31508002790B4F809309A42B5D01D4E2449306841F044
S315080027A03AFC40F0B0FB40F0AFFBB4F80910B5F8BE
S315080027B08D3095F8C02000912249E3E795F8C63098
S315080027C0002BA2D1012385F8C630D7E6012795F854
S315080027D0C04085F8B8702046FEF7E4FF0546A8BB5A
S315080027E00C49306841F017FC40F08DFB40F08CFB3B
S315080027F022461549306841F00EFC22222721284638
S3150800280000F000FCC1E000BFA0005902A0000602CB
S31508002810504800209C4805087F590508A00059051E
S31508002820A0000906715C050890540508264B0508A2
S31508002830F45405080756050851560508B256050802
S3150800284073550508B7550508EB56050800F5805475
S3150800285094F97220394694F86C3094F8C0000092C6
S31508002860002221F08FFF074680B1BC49306841F04D
S31508002870D2FB40F048FB40F047FB94F8C020B8492B
S31508002880306841F0C8FB3A462821B8E794F8C000FA
S3150800289021F068FF074688B1B049306841F0BBFBB4
S315080028A040F031FB40F030FB94F8C020AD493B4680
S315080028B0306841F0B0FB3A462C21A0E794F86DC089
S315080028C094F85D3094F8702094F86E1094F8C0006F
S315080028D0CDF834C094F864C0CDF830C094F865C01B
S315080028E0CDF82CC094F86AC0CDF828C094F863C017
S315080028F0CDF824C005F5845C0CF1190CCDF820C080
S3150800290094F85CC0CDF81CC094F869C0CDE9057C84
S3150800291094F86270049794F86170039794F85F705E
S31508002920029794F86070019794F85E70009721F00A
S3150800293045FF074688B18949306841F06CFB40F08D
S31508002940E2FA40F0E1FA94F8C02087493B4630683D
S3150800295041F061FB3A462B2151E78449306841F042
S315080029605AFB40F0D0FA40F0CFFA94F8C0208049DC
S31508002970306868E20079FEF715FF00283FF4FEADDF
S31508002980012300F5805080F8C5300120F7E500796D
S31508002990FEF708FF064658B9764D7049286841F093
S315080029A03AFB40F0B0FA40F0AFFA2279724947E6AE
S315080029B000F5805595F8C000237983427FF4DEAD93
S315080029C0B4F80540BCB16B4F6449386841F023FB45
S315080029D040F099FA40F098FA95F8C02067493868A7
S315080029E041F019FB95F8B830032B3FF4C7AD2246E2
S315080029F007213046ACE695F8B830012B1FD0022BDC
S31508002A007FF4BCAD304600F07DFB95F8A530002B71
S31508002A1046D0B5F8AE30002B42D1564C4F49206807
S31508002A2041F0F9FA40F06FFA40F06EFA95F8C020D6
S31508002A305349206841F0EFFA0122092114E0D5F83C
S31508002A40A8104B1C12D14B4C4449206841F0E3FABC
S31508002A5040F059FA40F058FA95F8C02049492068DC
S31508002A6041F0D9FA012206213046C9E6022385F843
S31508002A70B8301BF035FD0446002886D03D4F37494F
S31508002A80386841F0C8FA40F03EFA40F03DFA95F849
S31508002A90C0203D49386841F0BEFA22460821E3E7DE
S31508002AA006F58551B5F88F2095F8C0000C3101F070
S31508002AB0A5FF044690B12F4F2849386841F0ABFA74
S31508002AC040F021FA40F020FA95F8C0202F49234615
S31508002AD0386841F0A0FA22460A21C5E7032385F89B
S31508002AE0B83052E700F5855600F58555284F0C365F
S31508002AF0183504F1090802224146384644F0CDF853
S31508002B0010B9B4F8053033800236AE4207F1020731
S31508002B10F1D133E50079FEF745FE054658B9154D5E
S31508002B200E49286841F077FA40F0EDF940F0ECF9E3
S31508002B302279184984E50222174804F10A0144F06B
S31508002B40ACF800287FF41AADD4F8052005F58053B3
S31508002B502846C3F8A82000F093FA0FE59C48050814
S31508002B60145705084557050880570508E34805081A
S31508002B70C057050850480020EF570508565805085D
S31508002B80F058050883580508AE580508455905083C
S31508002B9068AF0020E159050874AF00200079FEF7F8
S31508002BA001FE58B9C04DC149286841F034FA40F0D1
S31508002BB0AAF940F0A9F92279BD4941E50421231D66
S31508002BC00F9300F5805393F85D20022A04BF627ABA
S31508002BD083F829210FAA01F04BFAD6E60079FEF709
S31508002BE0E1FDB14F054658B9B049386841F013FAC6
S31508002BF040F089F940F088F92279AE49386820E52D
S31508002C0000F080FAA37B05F5805685F8C83F94F84E
S31508002C10243005F5865185F8CF3F94F8213005F61E
S31508002C20B97285F8D03F94F82230083185F8D13F3B
S31508002C3094F8233085F8D23FB6F8C230A5F8D43FC9
S31508002C40E37F85F8CE3FA37F85F8CD3F237F85F8C0
S31508002C50CB3F637F85F8CC3F637C85F8CA3F237CEE
S31508002C6085F8C93F637B85F8C73F237B85F8C63F50
S31508002C70E37A85F8C53FD4F81230C5F8BB3FD4F8D7
S31508002C801630C5F8BF3F638BA5F8C33F96F85E308C
S31508002C9096F8C000019396F85D30009305F6BB736D
S31508002CA000F00CFC044698B18049386841F0B3F945
S31508002CB040F029F940F028F996F8C0207E492346C5
S31508002CC0386841F0A8F922462F21284600F09AF9DB
S31508002CD07A49386841F09FF940F015F940F014F93F
S31508002CE096F8C0207649386841F095F996F89640E6
S31508002CF0B6F88330B6F8872096F86E1096F8C000B6
S31508002D00099496F89540089496F86F40079496F9B2
S31508002D107140069496F85B40059496F868400494CA
S31508002D20D6F87B400394D6F877400294B6F88940E3
S31508002D300194B6F88540009421F09EFD04460028CB
S31508002D403FF423AE5949386841F065F940F0DBF89D
S31508002D5040F0DAF896F8C0205A492346386841F018
S31508002D605AF922461E212846F2E40079FEF71AFD92
S31508002D70064600283FF402AC4B4F5049386841F0EC
S31508002D804AF940F0C0F840F0BFF822794E49386851
S31508002D9041F041F94FF6FF73B6F8A42F06F58055B2
S31508002DA09A4215D195F82631063B012B38D80523CA
S31508002DB0424985F82631386841F02DF940F0A3F8E4
S31508002DC040F0A2F895F8C0204049386841F023F948
S31508002DD095F82631063B012B22D895F8E8300133C1
S31508002DE0DBB20A2B85F8E83022D900214FF6FF73AB
S31508002DF085F8E8103046A6F8A43F3FF06DFD052398
S31508002E002E4985F82631386841F005F940F07BF8F7
S31508002E1040F07AF895F8C0202C49386841F0FBF85C
S31508002E200123062130460F948DF843300FAAD2E6C7
S31508002E302249386841F0EFF840F065F840F064F848
S31508002E4022792349386841F0E6F89EE50079FEF7CD
S31508002E50A9FC054600283FF491AB05F5805393F885
S31508002E602631114E063B012B3068144912D941F020
S31508002E70D2F840F048F840F047F82279154930680A
S31508002E8041F0C9F80023072128460F948DF84330EE
S31508002E900FAAA0E641F0BFF840F035F840F034F844
S31508002EA022790D4964E500BF504800209C48050872
S31508002EB03C5A0508A75A0508C2500508E3480508FC
S31508002EC0FD500508085B05084F5B0508895B050882
S31508002ED0BC5B0508F85B05082C5C05081FB50B46A6
S31508002EE0032810D8DFE800F002111313094C2068F4
S31508002EF0616801AA03C2218901AC1180128803CC3A
S31508002F001A811860596004B010BD034CEFE7034CF2
S31508002F10EDE700BF4B5E0508F15C0508FC5C05089B
S31508002F202DE9F7439DF82C400F46DDE90D969DF8EF
S31508002F3028108DF803409DF830408DF800208DF854
S31508002F4001308DF802108DF80440B9F1000F50D009
S31508002F50002E4ED0022A4ED0032B4ED001284CD03C
S31508002F60012905D10623A9F80030262333801FE05E
S31508002F70012A04D1022904BF00238DF80230DFF8A4
S31508002F8080800024454605226946404643F085FE72
S31508002F9038BB04EBC4042B195A799979B3F807306E
S31508002FA042EA0122FF2FA9F800209AB2338003D102
S31508002FB0002003B0BDE8F083B9F80030B7EE047A14
S31508002FC007EE903AF8EEE77A67EE877AFCEEE77A4C
S31508002FD017EE903A9BB203F11301B1FBF3F31344D6
S31508002FE0C4E70134B4F5A27F08F10908CBD12D2036
S31508002FF0DFE72120DDE70A20DBE70F20D9E700BF5E
S31508003000075D05082DE9F0410446194F0E46154699
S3150800301038686CB9174940F0FEFF3FF074FF3FF07F
S3150800302073FF2A4638681449BDE8F04140F0F3BFFB
S3150800303004F580540F49D4F8D88040F0ECFF3FF0EF
S3150800304062FF3FF061FF2B4694F8C0200B493868B1
S3150800305040F0E1FFB8F1000F07D02A463146434653
S3150800306094F8C000BDE8F0411847BDE8F08100BFFC
S31508003070504800209C480508555E0508855E0508E9
S31508003080F7B500F5805595F82571044687BB95F880
S31508003090243100F587560C3623B1304602F0AEFCD3
S315080030A085F8247100233046009340F6B83123464C
S315080030B0104A02F0C1FC0646B8B10F4F0F493868EE
S315080030C040F0A9FF3FF01FFF3FF01EFF95F8C02014
S315080030D033460B49386840F09EFF324602212046A7
S315080030E003B0BDE8F040FFF78DBF012385F8243112
S315080030F003B0F0BDB5280408504800209C480508D0
S31508003100B25E0508F8B5054600F587500C3002F0A2
S3150800311075FC05F580560446B0B10D4F0D49386863
S3150800312040F079FF3FF0EFFE3FF0EEFE96F8C02044
S3150800313023460949386840F06EFF22462846BDE80E
S31508003140F8400421FFF75EBFA6F82401F8BD00BFCA
S31508003150504800209C480508ED5E050870B50446F1
S315080031600D460F2900F20681DFE811F0150110005F
S315080031702400340044005400640074008400940061
S31508003180A400B400C400D400E400F400824D8349CE
S31508003190286840F040FF3FF0B6FE3FF0B5FE012339
S315080031A004F5805494F8C0207D492868BDE870402D
S315080031B040F031BF784D7949286804F5805440F0CD
S315080031C02AFF3FF0A0FE3FF09FFE022394F8C0209E
S315080031D07449EAE7704D7449286804F5805440F04C
S315080031E01AFF3FF090FE3FF08FFE032394F8C020AD
S315080031F06E49DAE7684D6949286804F5805440F055
S315080032000AFF3FF080FE3FF07FFE042394F8C020BB
S315080032106749CAE7604D6149286804F5805440F05B
S31508003220FAFE3FF070FE3FF06FFE052394F8C020CB
S315080032306049BAE7584D5949286804F5805440F062
S31508003240EAFE3FF060FE3FF05FFE062394F8C020DA
S315080032505949AAE7504D5149286804F5805440F069
S31508003260DAFE3FF050FE3FF04FFE072394F8C020E9
S3150800327052499AE7484D4949286804F5805440F070
S31508003280CAFE3FF040FE3FF03FFE082394F8C020F8
S315080032904B498AE7404D4149286804F5805440F077
S315080032A0BAFE3FF030FE3FF02FFE092394F8C02007
S315080032B044497AE7384D3949286804F5805440F07E
S315080032C0AAFE3FF020FE3FF01FFE0A2394F8C02016
S315080032D03D496AE7304D3149286804F5805440F085
S315080032E09AFE3FF010FE3FF00FFE0B2394F8C02025
S315080032F036495AE7284D2949286804F5805440F08C
S315080033008AFE3FF000FE3FF0FFFD0C2394F8C02034
S315080033102F494AE7204D2149286804F5805440F092
S315080033207AFE3FF0F0FD3FF0EFFD0D2394F8C02044
S3150800333028493AE7184D1949286804F5805440F099
S315080033406AFE3FF0E0FD3FF0DFFD0E2394F8C02053
S3150800335021492AE7104D1149286804F5805440F0A0
S315080033605AFE3FF0D0FD3FF0CFFD0F2394F8C02062
S315080033701A491AE7084E0949306804F5805440F09E
S315080033804AFE3FF0C0FD3FF0BFFD2B4694F8C02033
S31508003390134930680AE770BD504800209C48050864
S315080033A02B5F05085F5F0508E34805089A5F05086F
S315080033B0D95F05082E60050867600508A46005083A
S315080033C0E4600508166105085B610508946105084F
S315080033D0FA61050853620508A3620508FF62050835
S315080033E03D6305082DE9F0410646174698460D4601
S315080033F0C9B10B68BBB1084633F00AFB044688B16D
S31508003400284D2949286840F006FE3FF07CFD3FF02C
S315080034107BFD234632462549286840F0FCFD2046B8
S31508003420BDE8F081286028462DF062FE044660B1AA
S315080034301C4D1D49286840F0EEFD3FF064FD3FF045
S3150800344063FD234632461A49E6E7414628462DF0EB
S315080034509BFF044660B1134D1349286840F0DBFD15
S315080034603FF051FD3FF050FD234632461149D3E760
S315080034707B78002BD3D0284633F004FB054600287A
S31508003480CDD0084C0849206840F0C5FD3FF03BFD0B
S315080034903FF03AFD20682B463246074940F0BBFD0F
S315080034A02C46BCE7504800209C4805086E63050872
S315080034B0A6630508DC630508196405082DE9F843C1
S315080034C00E4605461178304699469DF820709DF8B7
S315080034D024802DF05BFE044688B12C4E2C493068BA
S315080034E040F099FD3FF00FFD3FF00EFD23462A46BA
S315080034F02849306840F08FFD2046BDE8F883012F43
S3150800350002D0022F18BFFF27B8F1010F04D0B8F177
S31508003510020F18BF4FF0FF084246394630462DF0D5
S3150800352045FE044660B1194E1949306840F073FDEE
S315080035303FF0E9FC3FF0E8FC23462A461649D8E75F
S31508003540494630462DF054FE044660B10F4E1049E8
S31508003550306840F060FD3FF0D6FC3FF0D5FC2346CE
S315080035602A460E49C5E7304636F070F80446002864
S31508003570C2D0064E0649306840F04DFD3FF0C3FC08
S315080035803FF0C2FC23462A460549B2E750480020C8
S315080035909C4805085164050889640508CF64050830
S315080035A01065050838B5044688B10346014400206D
S315080035B08B421AD0002213F8014B44FA02F5ED07A4
S315080035C002F1010248BF0130082AF6D1F0E7074D9B
S315080035D00749286840F01FFD3FF095FC3FF094FC32
S315080035E00449286840F017FD204638BD5048002099
S315080035F09C4805084E6505082DE9F04F0446002746
S3150800360097B000F5847303930893D0F8043100F556
S315080036108055ADF8243000F6580304930A93D0F881
S31508003620543812AEADF82C3008AB0E930AAB0F9394
S31508003630431C059310930378ADF846708DF8443013
S3150800364095F828318DF8453000F6AC730FCB07C6D0
S31508003650337004F586560836012130460EAA36F030
S3150800366081FD804601462046FFF778FDB8F1000F38
S3150800367022D0B8F1030FDFF83C9000F021830B4904
S31508003680D9F8000040F0C7FC3FF03DFC3FF03CFC99
S3150800369095F8C02043460649D9F8000040F0BBFC1F
S315080036A042463A212046FFF7ADFC6EE29C480508E3
S315080036B0926B050850480020002304F6D677384652
S315080036C0069307933FF0E7FB95F85E904146B9F1FC
S315080036D0FF0918BF4FF0010930464A4607AB2EF0DE
S315080036E023F8804601462046FFF738FDB8F1000F5B
S315080036F040F09B814146384604F6DA7307AA01F082
S31508003700CBFE8346002800F0A281DFF87C83D949E6
S31508003710D8F8000040F07FFC3FF0F5FB3FF0F4FBE3
S315080037205B4695F8C020D449D8F8000040F073FCF1
S315080037304FF0000895F85E30FF2B2CD000210222AE
S31508003740304607AB2DF0F0FF824601462046FFF7CC
S3150800375005FDBAF1000F40F07D810121384604F6D7
S31508003760DA7307AA01F098FE8246002800F09C81C9
S31508003770DFF814B3BF49DBF8000040F04CFC3FF01B
S31508003780C2FB3FF0C1FB534695F8C020BB49DBF8A6
S31508003790000040F040FC4A46022106AB30462DF0B8
S315080037A0C3FF824601462046FFF7D8FC04F580553C
S315080037B0BAF1000F40F07B810221384604F6DA732D
S315080037C006AA01F069FE8246002800F08081DFF82B
S315080037D0B8B2A849DBF8000040F01DFC3FF093FBA7
S315080037E03FF092FB534695F8C020A549DBF8000048
S315080037F040F011FC95F85E30FF2B2CD002223046A3
S31508003800114606AB2DF090FF824601462046FFF78B
S31508003810A5FCBAF1000F40F05D810321384604F695
S31508003820DA7306AA01F038FE8246002800F06281A3
S31508003830DFF854B28F49DBF8000040F0ECFB3FF0AC
S3150800384062FB3FF061FB534695F8C0208D49DBF8D3
S31508003850000040F0E0FB4A46002106AB30462DF05A
S315080038600BFD824601462046FFF778FC04F5805B8F
S31508003870BAF1000F40F041810421384604F6DA73A4
S3150800388006AA01F009FE8246002800F044817E4D12
S315080038907849286840F0BFFB3FF035FB3FF034FB22
S315080038A053469BF8C0207949286840F0B4FB9BF83A
S315080038B05E30FF2B29D000210222304606AB2DF0C0
S315080038C0DBFC824601462046FFF748FCBAF1000FAA
S315080038D040F024810521384604F6DA7306AA01F079
S315080038E0DBFD8246002800F02781674D614928687C
S315080038F040F091FB3FF007FB3FF006FB53469BF871
S31508003900C0206349286840F086FB03238DF83030D1
S31508003910DBF8733030460CA9CDF831302DF08CFC2D
S31508003920824678B1584D5349286840F074FB3FF0F9
S31508003930EAFA3FF0E9FA53469BF8C0205549286849
S3150800394040F069FB4A46012106AB30462DF0ECFEF5
S31508003950824601462046FFF701FC04F58055BAF178
S31508003960000F40F059810621384604F6DA7306AA94
S3150800397001F092FD8246002800F0E180DFF808B1E8
S315080039803C49DBF8000040F046FB3FF0BCFA3FF04C
S31508003990BBFA534695F8C0203F49DBF8000040F0D3
S315080039A03AFB94F8B92F95F85D30022A33D1022BE9
S315080039B031D195F89830013B012B2CD803214A4682
S315080039C0304606AB2DF0B0FE824601462046FFF78C
S315080039D0C5FBBAF1000F40F032810721384604F6DC
S315080039E0DA7306AA01F058FD8246002800F0C58061
S315080039F0DFF894B01F49DBF8000040F00CFB3FF0FD
S31508003A0082FA3FF081FA534695F8C0202349DBF83D
S31508003A10000040F000FB95F85D30012B00F0BA80FD
S31508003A20B8F1000F00F0B180ABE0DFF85CB01149E7
S31508003A30DBF8000040F0EFFA3FF065FA3FF064FA71
S31508003A40434695F8C0201649DBF800006EE64FF0AD
S31508003A5001086FE6DFF830B00649DBF8000040F0F1
S31508003A60DAFA3FF050FA3FF04FFA534695F8C0207D
S31508003A700C498CE69C4805089765050815660508EF
S31508003A80A56605082B67050850480020C367050882
S31508003A9052680508F36805083C690508046A0508BC
S31508003AA0D66505085D6605084FF0010873E6DFF878
S31508003AB0B0B2A849DBF8000040F0ADFA3FF023FAAF
S31508003AC03FF022FA534695F8C020A3498EE64FF0F8
S31508003AD001088FE6DFF888B29E49DBF8000040F05F
S31508003AE09AFA3FF010FA3FF00FFA534695F8C020BD
S31508003AF09A49ACE64FF00108ADE6994D9549286814
S31508003B0040F089FA3FF0FFF93FF0FEF953469BF87B
S31508003B10C0209449C8E64FF00108C8E6904D8D4983
S31508003B20286840F078FA3FF0EEF93FF0EDF9534691
S31508003B309BF8C0208C49E5E64FF00108E5E6079BAF
S31508003B408DF830000CA93046CDF831302DF074FBD5
S31508003B50824601462046FFF701FBBAF1000F42D123
S31508003B6094F8B92F95F85D30022A08D1022B06D1B0
S31508003B7095F89830013B012B5ED995F85D30012BFD
S31508003B8006D0D5F8D060002E77D117B0BDE8F08FF3
S31508003B904FF001084A460121304606AB2DF06CFB72
S31508003BA0814601462046FFF7D9FAB9F1000F56D1EA
S31508003BB00921384604F6DA7306AA01F06DFC814637
S31508003BC00028DED0664E6349306840F024FA3FF09C
S31508003BD09AF93FF099F94B4695F8C0206349306841
S31508003BE040F019FA1CE7DFF878815A49D8F800003E
S31508003BF040F011FA3FF087F93FF086F953469BF8F3
S31508003C00C0205B49D8F8000040F005FA94F8B93F9F
S31508003C10022B9BF85D30A8E7DFF844B14D49DBF885
S31508003C20000040F0F8F93FF06EF93FF06DF95346A1
S31508003C3095F8C0204F49B0E64FF00108BEE6DFF818
S31508003C4020B14449DBF8000040F0E5F93FF05BF9A4
S31508003C503FF05AF9534695F8C0204749D7E6404EF3
S31508003C603C49306840F0D7F93FF04DF93FF04CF940
S31508003C704B4695F8C0204149B1E7237804F6DA7235
S31508003C8085F82C31631CC5F83031D4F80431C5F8F1
S31508003C903431039BC5F83831D4F85438C5F83C316B
S31508003CA0049BC5F840310023019304F589530C336E
S31508003CB00093B4F8A41F3B4695F8C000B04764E7E4
S31508003CC095F8C030394630460DAACDE90C778DF8FF
S31508003CD030302DF035FB064601462046FFF73EFA02
S31508003CE036BB2749D9F8000040F095F93FF00BF9A3
S31508003CF03FF00AF995F8C0202249D9F8000040F0AB
S31508003D008AF9D5F8D43013B131460CA898471C491E
S31508003D10D9F8000040F07FF93FF0F5F83FF0F4F8E5
S31508003D2095F8C0201849D9F8000040F074F92CE736
S31508003D300849D9F8000040F06EF93FF0E4F83FF082
S31508003D40E3F8334695F8C0201049D9F8000040F04A
S31508003D5062F9DCE79C480508E86605087767050800
S31508003D60504800200D680508A56805087D6A0508FD
S31508003D7080690508C5690508436A0508B76A05081C
S31508003D80E3480508EC6A0508636B0508196B05081E
S31508003D902DE9F04F0446CB790A68D0F8A80F85B00C
S31508003DA004F5847804F58056EBB1118902F1130500
S31508003DB0C1F30B01A4F8A41F117C86F82811577BC0
S31508003DC092F80EA092F8119010B90421C4F80411C3
S31508003DD0D4F8041101F5847020440831C4F8A80FFA
S31508003DE0C4F8041109E0517A02F10C0586F8281185
S31508003DF0977992F807A092F80A904FF0000B83F093
S31508003E0001030093414696F82931D4F8A80F3EF0ED
S31508003E10ADFFD4F8042102F5847222445FFA8BF3CD
S31508003E204B4529D3A2EB0802012FC4F80421274CDD
S31508003E3011D00F2F46D0002F46D02549206840F0D4
S31508003E40EAF83FF060F83FF05FF896F8C02021499D
S31508003E50206840F0E0F800251F49206840F0DBF8AC
S31508003E603FF051F83FF050F81C49206840F0D3F86D
S31508003E70284605B0BDE8F08F294611F8030BBAF1BC
S31508003E800F0F00F0030002F1010310D160F07F006C
S31508003E9010702278A8786D7804EB020C01328CF841
S31508003EA001500BF1010B22700D181A46B6E7107077
S31508003EB0AA781846039142F025FF0346AA78039983
S31508003EC01344E6E70125C7E70225C5E75048002061
S31508003ED09C480508CF6B0508E3480508FF6B0508ED
S31508003EE073B5044650F024FA05464FF03FFD0C4ED4
S31508003EF004F580540B49C4F8E000306840F08BF8AC
S31508003F003FF001F83FF000F80095D4F8E03094F857
S31508003F10C0200549306840F07EF802B070BD00BF89
S31508003F2050480020E3480508116C050838B500F527
S31508003F3080540546002194F86E2094F8C00020F0BD
S31508003F40D3FC80B9154D1649286840F064F83EF050
S31508003F50DAFF3EF0D9FF94F8C0201249286840F0ED
S31508003F605AF8042038BD252815D105F587500B4D7C
S31508003F700C3001F043FD0A49286840F04CF83EF041
S31508003F80C2FF3EF0C1FF94F8C0200749286840F0F8
S31508003F9042F80220E6E70920E4E700BF504800207F
S31508003FA0E34805084E6C0508946C0508F8B500F555
S31508003FB08054054694F86E1094F8C00020F048FC2A
S31508003FC0D4F8C830254EBBB105F58650083032F016
S31508003FD01FFD074680B12249306840F01CF83EF0C4
S31508003FE092FF3EF091FF3B4694F8C0201D49306889
S31508003FF040F011F80120F8BD41F24412002128468C
S3150800400042F075FE1849306840F005F83EF07BFF2F
S315080040103EF07AFF94F8C020144930683FF0FBFF61
S31508004020FF2384F8C0304FF0FF33C4F8A8301723B5
S31508004030A4F8BA30B4F8A43040F24A7203F0F00398
S3150800404043F48673A4F8A430002405F658002146E4
S31508004050C5F8544842F04BFE2046CCE750480020AD
S315080040609C480508CA6C0508E3480508046D050858
S315080040702DE9F0430F46904606468FB0B8B9B84CBE
S31508004080B84920683FF0C7FF3EF03DFF3EF03CFFD1
S31508004090FF22B54920683FF0BEFF2222352130466F
S315080040A0FEF7B0FF222528460FB0BDE8F0830A299F
S315080040B000F5805421D1AA4D00F587500C3001F047
S315080040C09DFCA84928683FF0A6FF3EF01CFF3EF07D
S315080040D01BFF94F8C020A54928683FF09CFF0923D8
S315080040E084F826313046D8F8042098F80010FEF7F0
S315080040F089FF0025C7E017469846092F4FF00105A6
S3150800410040F0C180002194F86E2094F8C00020F099
S31508004110EBFB054690B9924D954928683FF07BFF21
S315080041203EF0F1FE3EF0F0FE286894F8C020914972
S315080041303FF071FF082584F8265138E241F20C0356
S31508004140984205D041F21203984201D025281BD186
S3150800415006F587500C3001F051FC3046FFF726FF74
S315080041600546002840F00A837D4E814930683FF0B5
S3150800417052FF3EF0C8FE3EF0C7FE94F8C0207E49C6
S3150800418030683FF048FFD6E7DFF8D4817549D8F89C
S3150800419000003FF040FF3EF0B6FE3EF0B5FE2B466F
S315080041A094F8C0207549D8F800003FF034FF23235F
S315080041B084F826718DF82C300C9586E0002F7FF454
S315080041C072AF674D6A4928683FF025FF3EF09BFEAF
S315080041D03EF09AFE94F8C020694928683FF01BFF14
S315080041E0012384F82631E2E1012F7FF45CAF98F8C9
S315080041F00030002B62D05A4F5D4938683FF00BFFFC
S315080042003EF081FE3EF080FE94F8C0205D49386895
S315080042103FF001FF022294F8A530A4F82621002BCE
S315080042203FF469AF40F24A7194F8C00006F65802A6
S315080042303EF0B0FB0546A0B14A4938683FF0EBFEB0
S315080042403EF061FE3EF060FE94F8C0204E492B46D3
S3150800425038683FF0E0FE2A460F213046FEF7D2FEC8
S3150800426021E7434938683FF0D6FE3EF04CFE3EF063
S315080042704BFE94F8C020454938683FF0CCFE4FF015
S3150800428000080227012594F82631082B3FF60BAFC4
S3150800429001A252F823F000BFBD410008E941000819
S315080042A0D142000899430008194700086B450008E1
S315080042B0F94600080F4700085F470008092384F8F5
S315080042C0263136230C978DF82C300A210BAAE2E109
S315080042D0022F7FF4E8AE94F8C53043B9092384F871
S315080042E026312C238DF82C3001230C93EDE7012180
S315080042F094F86E2094F8C00020F0F6FA40BB0090BF
S3150800430006F58750334640F6B831214A0C3001F09D
S3150800431093FB0546B8B9124E012194F8C00000F087
S31508004320B1FB134930683FF076FE3EF0ECFD3EF0F7
S31508004330EBFD94F8C020174930683FF06CFE032364
S3150800434084F82631AFE6092384F82631212331E79C
S31508004350092384F8263120230C908DF82C30B4E7F5
S31508004360504800209C480508276D05085F6D05081C
S31508004370E34805088B6D0508BA6D0508EE6D050856
S31508004380296E0508946C050839530508546E050806
S31508004390512904088D6E0508042F7FF484AED8F8D9
S315080043A00030C54F5D88002D60D14FF0C1FF8146B2
S315080043B04FF0DCFAD8F80030C4F8DC00D3F8072050
S315080043C0BE49C6F8AC2FDA7A386886F8B02F9A89CB
S315080043D0A6F8B12FDA89A6F8B32F1A8AA6F8B52F48
S315080043E05B8AA6F8B73F3FF016FE3EF08CFD3EF01E
S315080043F08BFD94F8C020B24938683FF00CFEAF49EF
S3150800440038683FF008FE3EF07EFD3EF07DFDB6F8CA
S31508004410B73FAC490693B6F8B53F0593B6F8B33F30
S31508004420049396F8B03F0393B6F8B13F0293D6F8D3
S31508004430AC3FCDE90093D4F8DC3094F8C020386856
S315080044403FF0E9FD9D4938683FF0E5FD3EF05BFD2C
S315080044503EF05AFD9C4994F8C02038683FF0DBFDD1
S31508004460294630463EF038FA052369E79749386801
S315080044703FF0D1FD3EF047FD3EF046FDD8F800304E
S3150800448094F8C0205B88924938683FF0C4FD94F8D8
S3150800449027310133DBB2022B84F827315BD88B49ED
S315080044A038683FF0B8FD3EF02EFD3EF02DFD94F83D
S315080044B0C020884938683FF0AEFD94F896300993D5
S315080044C094F89530089394F86F30079394F97130FF
S315080044D0069394F85B30059394F868300493D4F8FF
S315080044E07B300393D4F877300293B4F8893001937C
S315080044F0B4F885300093B4F88330B4F8872094F87C
S315080045006E1094F8C00020F0B7F9054688B16F49D7
S3150800451038683FF080FD3EF0F6FC3EF0F5FC94F876
S31508004520C0206D492B4638683FF075FD2A461E2186
S3150800453093E6624938683FF06EFD3EF0E4FC3EF0D3
S31508004540E3FC94F8C020654938683FF064FD02230F
S3150800455084F8263193E606F587500C3001F04EFABA
S31508004560092384F826311F23BCE6082F63D198F85F
S315080045700B50F5B9B4F8893043B13046FFF7D6FC8D
S31508004580092884F8260112D1242313E64A4D4B49FB
S3150800459028683FF040FD3EF0B6FC3EF0B5FCB8F8A2
S315080045A0083094F8C0204E4928683FF034FD0025AD
S315080045B079E598F80A30012B2AD13F4DB4F889706D
S315080045C028683E4987B13FF026FD3EF09CFC3EF048
S315080045D09BFC94F8C020434928683FF01CFD07233C
S315080045E084F8263101255EE53FF015FD3EF08BFC8B
S315080045F03EF08AFC94F8C0203B4928683FF00BFD42
S3150800460005233946304684F826313EF065F9CEE76B
S31508004610022BE7D1284D294928683FF0FCFC3EF0DB
S3150800462072FC3EF071FC94F8C020304928683FF0CF
S31508004630F2FC0623D5E5063F012F3FF634AD414689
S315080046403046FFF7A5FB054600283FF40DAF1A4F85
S31508004650012D3868194923D13FF0DDFC3EF053FCA3
S315080046603EF052FCB6F8A43F94F8C02020493868BA
S315080046703FF0D1FC012308218DF83730B6F8A43F66
S315080046808DF83650ADF8343006F584730B93D6F8AA
S3150800469004310BAA0C933046FFF7EAFC054602E5FF
S315080046A03FF0B9FC3EF02FFC3EF02EFCB6F8A43FD6
S315080046B094F8C0200F49DAE750480020E348050877
S315080046C0D26E0508106F0508895B05089C48050821
S315080046D0D06F05081F700508085B0508946C050867
S315080046E066700508B9700508007105084371050864
S315080046F08B710508BF710508082F7FF4D4AC012219
S31508004700414630460FB0BDE8F04300F063B8082FC5
S315080047107FF4C9AC0022F3E7042F7FF4C4ACD8F8C1
S3150800472000301B79002B7FF442AF3046FFF7D8FBE9
S31508004730D8F80030224D5B8833BB06F587500C301D
S3150800474001F05CF91F4928683FF065FC3EF0DBFB89
S315080047503EF0DAFB94F8C0201B492868F5E6042FDA
S315080047607FF4A1ACD8F800301A79002A7FF41FAF7D
S315080047705B8843B93046FFF7B3FBEEE4092384F8B8
S315080047802631382316E50E4D104928683FF043FCBC
S315080047903EF0B9FB3EF0B8FBD8F8003094F8C020DC
S315080047A05B880B4928683FF036FC092384F82631D4
S315080047B023238DF82C30D8F800305B8895E500BFA8
S315080047C050480020E3480508946C05089C480508ED
S315080047D0F47105082DE9F043CE7A04460F46914652
S315080047E087B000F5805566B3B5F88930A3B1FFF7F1
S315080047F09DFB092885F8260121D124238DF80C3044
S31508004800002304930A21204603AAFFF731FC064633
S31508004810304607B0BDE8F0835B4E5C4930683FF030
S31508004820FAFB3EF070FB3EF06FFBB4F8A43F584924
S3150800483000933B8995F8C02030683FF0ECFB0026D2
S31508004840E6E70A89B0F8A43F9A421ED0B5F889303F
S3150800485053B1FFF76BFB092885F82601EFD124230E
S3150800486004968DF80C30CDE7474E484930683FF03E
S31508004870D2FB3EF048FB3EF047FBB4F8A43F45495F
S3150800488000933B8995F8C020D6E700F587500C3091
S3150800489001F0B4F858B1092385F82631222304908B
S315080048A00A21204603AA8DF80C30FFF7E1FBDFF852
S315080048B0D880B5F88930D8F800003449A3B33FF05A
S315080048C0AAFB3EF020FB3EF01FFB95F8C0203249BC
S315080048D0D8F800003FF09FFB02210022204685F809
S315080048E02611FFF7C5FBBB7A0646022B0AD1B9F19A
S315080048F0000F07D02046FEF77FFE002120463DF038
S31508004900EBFF85E72149D8F800003FF084FB3EF02D
S31508004910FAFA3EF0F9FA3B8995F8C0201F49D8F80B
S3150800492000003FF078FBE8E73FF075FB3EF0EBFA56
S315080049303EF0EAFA95F8C0201949D8F800003FF089
S315080049406AFB052385F82631BB7A022B0AD1B9F111
S31508004950000F07D02046FEF74FFE002120463DF007
S31508004960BBFF6CE70949D8F800003FF054FB3EF05E
S31508004970CAFA3EF0C9FA3B8995F8C0200749D8F823
S3150800498000003FF048FBE8E750480020E3480508E8
S315080049904272050897720508946C0508EB720508BB
S315080049A0895B050808B5074B4FF44672002118467F
S315080049B042F09DF9FF22827680F8222180F82A2289
S315080049C008BD00BFA80D00200B4B9A7E82420DD071
S315080049D093F8222182420BD093F82A22824209D1E7
S315080049E002224FF4847101FB023070470022F8E777
S315080049F00122F6E700207047A80D0020FF282DE9C0
S31508004A00F04107460E46904632D099B3A2F11703F5
S31508004A10E32B31D84FF6FF730C889C422CD08A883A
S31508004A209A4229D0CA889A4226D00A899A4223D01D
S31508004A30FF20FFF7C9FF054600B32146384619F09F
S31508004A4089FD044688B94FF484720146284642F027
S31508004A504EF90B4BAF761A689B88C5F806206B8112
S31508004A6001236E61A5F818802B702046BDE8F081F9
S31508004A702524FAE72224F8E72124F6E71924F4E79F
S31508004A8019730508FF2837B50C4625D0FFF79CFF94
S31508004A90054618B34CB9983000F0B0FF05F1600030
S31508004AA000F0ACFF204603B030BD0378052B03D0D9
S31508004AB0082B0AD00220F6E7002341F28831084A7B
S31508004AC00093983000F0B8FFEDE7002341F28831F3
S31508004AD0044A00936030F5E72520E4E72D20E2E755
S31508004AE04D2C0408072C0408174B984207D003F1ED
S31508004AF03802904203D003F1700290420AD1002393
S31508004B0000E001234FF48472104802FB030070474B
S31508004B100223F7E703F584729042F2D003F5A072F8
S31508004B209042EED003F5BC729042EAD003F50472C7
S31508004B309042EDD003F512729042E9D003F5207346
S31508004B409842E5D000207047080E0020A80D0020E6
S31508004B5013B590F82A00FFF737FF68B100F1600433
S31508004B60204600F04BFF00234FF47A71009320464D
S31508004B700123024A00F060FF02B010BD072C0408AA
S31508004B8070B5054600F07CFB0646284600F064F939
S31508004B902B68A94A23F47F43064023F0070386F0CF
S31508004BA001069342F6B200F0B2800BD802F17A42BF
S31508004BB0934200F0A08002F57D02934220D086F051
S31508004BC0010070BD9D4A9342F9D12879FFF7FCFE92
S31508004BD004460028F3D0EB790B2B3DD14269B5F892
S31508004BE005301188994221D16B89042B06D10378A7
S31508004BF0012B03D1EA6880F82030C261012321E045
S31508004C00A879FFF7E1FE04460028D8D0D03000F096
S31508004C10F5FE04F1600000F0F1FE04F1980000F0E2
S31508004C20EDFE00232370FF23A376C8E7D1889942B7
S31508004C300AD1AD89983000F0E1FE2946A07E3DF004
S31508004C40E0FF00231E43BAE712899A42F9D1A989DF
S31508004C50807E3DF0D7FFF4E71B2B01D01D2BAED18C
S31508004C606169B5F8052048899042C7D048889042BE
S31508004C70C4D0C888904202D009899142E1D11D2B3F
S31508004C8002D1A07E19F056FC6B89022BB6D1626957
S31508004C90B5F80530D1888B4208D012899A420ED0D1
S31508004CA0AD892946A07E3DF0ADFFA7E7E8791D2826
S31508004CB017D1E07B0228A1D112899A4205D1EA7957
S31508004CC01D2A13D1227C022A98D18B42AD89E8D1BC
S31508004CD004F1980000F092FE2946A07E3DF091FF6F
S31508004CE08CE71B28E8D1E07B0128E4E71B2AECD1F6
S31508004CF0227C012AE8E72879FFF766FE00283FF4B8
S31508004D005EAF6B79AA7943EA0223038357E72879CA
S31508004D10FFF75AFE044600283FF451AFB5F80520C0
S31508004D20037862B3092B8CD8012101FA03F010F439
S31508004D30127F0AD110F090001BD18B4281D12070CE
S31508004D40E169A07EFDF7F2F958E7002384F82230DE
S31508004D50A384A378052B05D102212370A07EFDF735
S31508004D6085FA4BE7012B7FF449AF0823032123700B
S31508004D70F4E70223A07E2370FDF778FA61E7013B8A
S31508004D80082B3FF65EAF01A252F823F0B14D00089A
S31508004D90434C0008DF4D0008174E0008434C000836
S31508004DA0FD4D0008474E0008434C0008CD4D00084D
S31508004DB094F82030807EE1692BB10223002223700B
S31508004DC0FDF7B4F93DE701222370F9E78378827C81
S31508004DD003441A730223002203700121BEE7837875
S31508004DE0827C03441A7340F20253438020463DF006
S31508004DF0C7FD024620BB04232370FFE68378827C26
S31508004E0003441A7340F2011343803DF0B9FD02468C
S31508004E10B0B90723F0E78378817CC2181173C2788A
S31508004E209A4205D10022052380F82220828493E73E
S31508004E3001338370DAE700BFA0000906A00009075E
S31508004E4002232370C9E78378827C03441A730022FD
S31508004E5080F82220828488E7F0B50368954A23F40F
S31508004E607F4323F007039342054691B004D0002000
S31508004E7080F0010011B0F0BD0079FFF7A5FD0446EA
S31508004E800028F4D0EB791D2BF1D14369B5F805203C
S31508004E909B889A42EBD16B89012B04D8A07E19F026
S31508004EA049FB0120E4E72A7B012A4CD0022A00F0BC
S31508004EB08F80002AF2D1032BF0D10378B5F80D5074
S31508004EC0052BEBD190F82230002BE7D090F8217013
S31508004ED0002FE3D1838CAB42E0D1D03000F08EFDB9
S31508004EE004F1280604F1600000F088FD304600F061
S31508004EF0A5F9304684F822700AA93DF011FF034649
S31508004F0000B90A9BDDF83920DDF83510A07ECDE919
S31508004F1008129DF8342007929DF833200692DDF892
S31508004F202F2005929DF82E2004929DF82D2003929D
S31508004F309DF82C20CDE90152012200920022002181
S31508004F40FDF73EFAAAE7052BA8D10378052BA5D1CC
S31508004F5090F82230002BA1D090F82130022B9DD159
S31508004F60B5F80D20838C9A4298D1D03000F046FDD2
S31508004F7004F1280604F1600000F040FD304600F018
S31508004F805DF90023304684F822300AA93DF0C8FEB0
S31508004F90034600B90A9BDDF83920DDF83510A07EF6
S31508004FA0CDE908129DF8342007929DF83320069221
S31508004FB0DDF82F2005929DF82E2004922A7C039274
S31508004FC0EA7B0292B5F80D20019201220092B6E71B
S31508004FD0022B7FF463AF90F822306D7B002B3FF4F1
S31508004FE05DAFD03000F00AFD94F82330BBB1012D37
S31508004FF006D104F1600000F001FD002384F8223098
S315080050000026A07E32462B46032184F823603DF015
S315080050107BFE2A463146A07E3DF078FE3EE7002319
S3150800502094F8211084F82230012901D0042904D1EA
S315080050302B460022A07E3DF067FE94F82130012B16
S3150800504031D013F0FD0F7FF429AF04F1280630465E
S3150800505000F0F4F830460AA93DF062FE034600B9AE
S315080050600A9BDDF83910DDF8356094F82120A07E1A
S31508005070CDE908619DF8341007919DF83310069123
S31508005080DDF82F1005919DF82E1004919DF82D102E
S3150800509003919DF82C100291A18CCDE90051911E27
S315080050A04A424A414BE72A460021A07E3DF02DFEA2
S315080050B0F4E600BFA000090738B5002405464FF0FE
S315080050C03BF8074B1B681BB94FF031F8204638BD33
S315080050D093F82A20AA4208BF1C461B68F3E700BFBC
S315080050E04C4800202DE97043044616460D46037BBE
S315080050F086B023F0180343F0100381610373014659
S315080051000D483DF0F4FED4E90489217BCDE90489F4
S31508005110227981F00403C1F3400101910292226BC6
S315080051202946009220463246C3F380033DF0BCFD73
S3150800513006B0BDE8708300BF4C4800202DE9F04159
S315080051400C4690461E46054686B000286FD00029B4
S315080051506DD04B68002B6AD0002A68D08B7BFF2B5A
S3150800516067D00A7C4FF6FF73002A52D0B8F802209F
S315080051709A425ED02368002B57D0A389173B9BB26F
S31508005180E32B52D84EF0D8FF07462B4B1B68002B53
S3150800519042D1A07BFFF790FF00283FD101AB04F175
S315080051A0100C1A4620686168083403C26445134621
S315080051B0F7D12068002110603822284641F097FD73
S315080051C001AC05F11C030DF1140C224603CA624515
S315080051D018605960144603F10803F6D11068186080
S315080051E09DF8303085F82460EB842B7BC5F8348035
S315080051F043F008032B73AE800EB1731E9EB2294688
S315080052000D48EE803DF064FE38464EF090FF0020D3
S3150800521008E0B8F80A20ABE79D42B7D138464EF009
S3150800522086FF2E2006B0BDE8F0812120FAE722206D
S31508005230F8E72520F6E700BF4C48002070B505467C
S31508005240C8B14EF079FF06460C4B1B682BB92D24C6
S3150800525030464EF06CFF204670BD9D42F5D12C7B42
S3150800526014F0100405D1062201212846FFF73AFF5B
S31508005270EEE70224ECE72224EDE700BF4C480020C5
S315080052800368764A23F47F4323F0070393422DE904
S31508005290F04705461BD002F1C06202F54032934240
S315080052A01BD002F1794293420CD10079FFF704FF33
S315080052B040B1B5F80520038D9A4203D01322022186
S315080052C0FFF710FF002080F00100BDE8F087807925
S315080052D0FFF7F2FE0028F1D1F4E7C3791D2B01D0C0
S315080052E01B2BEFD12879FFF7E7FE04460028E9D003
S315080052F090F82B20EB79F2B91D2BE3D094F82C000B
S31508005300B5F80520616BC0B149889142DAD11D2BE9
S3150800531002D1287919F00EF96A89D2B2012A03D97D
S31508005320208DC31E93420AD22B2202212046FFF764
S31508005330D9FE0120C7E71B2BDFE74989E5E7297B6B
S3150800534094F824C0CF074FEA910301F002061BD553
S31508005350A380237B43F001032373A38826B1217B13
S31508005360238141F0020121739C4564D8E18CFF2911
S3150800537001D099425FD304385843E169013A83184A
S315080053808B4251D91D22D0E7277BF9071BD4E64665
S315080053904FF0010947F001072773A3805FFA8EF1E2
S315080053A0994203D361890B446381D6E709FA0EF85B
S315080053B0D4E9047147EA080741EAE871C4E90471C7
S315080053C00EF1010EEAE7B4F806E0A3EB0E0101F0D0
S315080053D03F0101390EF101095FFA81F859FA81F1A5
S315080053E089B23F2984BF47F004072773A180217B30
S315080053F0490705D44FF0010A013BDBB29E4501D3AC
S315080054004346CFE763450CD3E18C994209D3D4E9E7
S3150800541004710AFA03F947EA090741EAE971C4E996
S315080054200471013BDBB2E9E72363236A05F10D0149
S31508005430184441F067FC2046A188FFF789FBA2883B
S31508005440E38CE2809A4205D0002E3FF472AFFF2B20
S315080054507FF46FAF0022114668E700BFA00006017F
S31508005460092838B504460FD9084D094928683EF079
S31508005470D2FD3DF048FD3DF047FD22460549286826
S315080054803EF0C9FD002038BD0420FCE75048002046
S315080054909C4805081F7305082DE9F341044690F852
S315080054A0028008460D4617461E46FFF7D9FF4044B8
S315080054B0013080281DD9284E284930683EF0ABFDBA
S315080054C03DF021FD3DF020FD28463668A478FFF71B
S315080054D0C7FF0134031980221C243046CDE9002475
S315080054E01F492A46DBB23EF096FD204602B0BDE8CB
S315080054F0F0816378AB4212D92626174F17493868C8
