:020000040800F2
:10000000A80D0020DD4B000837FB030837FB030871
:100010004917040837FB030837FB030837FB0308BD
:1000200037FB030837FB030837FB030837FB0308DC
:1000300037FB030837FB03089DF4030837FB03086D
:1000400037FB030837FB030837FB030837FB0308BC
:1000500037FB030837FB030837FB030837FB0308AC
:1000600037FB030837FB030837FB03081DDC0008D8
:10007000FD37040837FB030837FB030837FB030889
:1000800037FB030837FB030837FB030837FB03087C
:1000900037FB03084557000837FB030837FB030805
:1000A00037FB0308515300083153000837FB03089E
:1000B00037FB030879B102084DBA02088BE4040843
:1000C00087E40408C1B10208A1E404088FE404082D
:1000D0001DBA020893E404088DBA0208F5BA0208B2
:1000E00037FB030837FB030837FB030837FB03081C
:1000F0002B0C040837FB030837FB030837FB030806
:1001000037FB030837FB030837FB030837FB0308FB
:1001100037FB030837FB030837FB030837FB0308EB
:1001200037FB030837FB030837FB030837FB0308DB
:1001300037FB030837FB030837FB030837FB0308CB
:1001400037FB030837FB030837FB0308F9090508E9
:100150008D9B020837FB030875E404087BE4040860
:1001600037FB030837FB030837FB030837FB03089B
:10018000F0B5114A114C124E00F00105E3695F070A
:1001900013D40DB9334213D103EA00078F4207D1BC
:1001A0000B4A1A40002A0CBF00206FF00100F0BD7E
:1001B000013AEBD16FF00200F9E74FF0FF30F6E7BC
:1001C0006FF00100F3E700BF809698000000035035
:1001D000020001000B4B70B5D96911F480310DD1CB
:1001E00001244FF48072084E084DF46020462C64C0
:1001F0001A61FFF7C5FF3464EC6070BD6FF0010059
:10020000FBE700BF00000350001003500020035024
:100210004FF4803238B50E4B0E4C9A66E56941F6C4
:10022000713315400122E3630B4B0021DA60022396
:10023000606121202361FFF7A3FF10B92120FFF7A0
:100240009FFF0122054BDA600DB10023E36338BD47
:100250000090005000000350001003500020035095
:1002600070B5134C6061E3695B071ED40E4656F807
:10027000043B8D18A361AE420BD104230021212041
:100280002361FFF77DFF58B9BDE870402120FFF7DB
:1002900077BF08210846FFF773FF10B104232361DD
:1002A00070BD56F8043BA361E5E74FF0FF30F7E778
:1002B000000003502DE9F84315464FF48032184BE7
:1002C00089469A6603F51C33DF690646174041F6F6
:1002D0007132DA63012203F58053DFF84C80DA6073
:1002E00055B9284601220F4BDA601FB10022A3F551
:1002F0000053DA63BDE8F88306F5005404EA080405
:10030000A41BAC4228BF2C46494622463046FFF784
:10031000A7FF0028E6D12644A1442D1BE0E700BF3B
:10032000009000500020035000E0FFFF000000009C
:1003300000000000000000000000000000000000BD
:10034000013800D0FCE770472DE9F04F93B0CDE9BC
:100350000A32DDE91C530E9353EC102BCDE9080152
:10036000104619468DED060B1E9E0EF003FC80B163
:10037000DDE906014FF0FF32C54B0EF023FC40B91A
:10038000DDE906014FF0FF326FF480130EF0FCFB45
:1003900070B1DDE908019DED060B0E9B1E96CDE9BF
:1003A0001C53DDE90A3213B0BDE8F04F00F088B904
:1003B0000022DDE9060100230EF0E6FB002800F034
:1003C0003381DDE906A303F1004BCBF30A5016F4A9
:1003D0008063A0F2FF3008BF06250F930EF0F8F8F7
:1003E0009BA3D3E900230EF05DF99BA3D3E900237F
:1003F0000DF0A2FFCBF31304894644F07F518046F1
:100400000022A44B504641F440110DF093FF94A3F9
:10041000D3E900230EF046F902460B464046494612
:100420000DF08AFF0EF0D8FB04460EF0D1F88EA333
:10043000D3E90023804689460EF034F90022964B1A
:100440000DF07AFF0EF0C8FB89A3D3E9002307461D
:10045000494640460EF026F98046384689460EF059
:10046000B7F885A3D3E900230EF01CF902460B462A
:10047000404649460DF05EFF02460B46CDE90C238F
:100480000EF010F9DDE90C23804689461046194626
:100490000DF052FF0022CDE91001804B4046494645
:1004A0000EF02AFA00227E4B0DF046FF02460B4664
:1004B000404649460EF020FA00227A4B0DF03CFFF0
:1004C00002460B46404649460EF016FADDE90C237B
:1004D0008046894600204FF080410DF02BFF0246F8
:1004E0000B46404649460DF027FF02460B46DDE924
:1004F00010010EF001FA07F2FF3700226A4B0DF0EF
:100500001BFF00223B050EF0CDF852465B468046AD
:1005100089460EF057FB002840F08980CDE90C8910
:1005200004F16303C72B34BF0427052731051BD50E
:1005300053A3D3E90023504659460EF039FB002857
:100540007FD051A3D3E90023504659460EF01CFB3F
:10055000002876D00027A542C6BF2C1B04F1FF352A
:1005600000253C4646F480660E9B9F422CBF4FF010
:100570000008A3EB070816F0020903D0002F18BFEC
:100580004FF000083CB1DDE90C23504659460EF00F
:10059000B3F982468B46DDE90601002200230EF006
:1005A000F3FA10B10BF100439B46DDE9080126F494
:1005B0000063CDE90183DDE90A324BEC10AB009515
:1005C00000F07EF802465FB3DDE9091316F0200F54
:1005D00000F10105089E0CBF65204520B047DDE90C
:1005E00008010523002205930A23002CCDE90232DD
:1005F00007F1FF374FEAD473B8BF64422A4601932C
:1006000004970A9B009441F0F1F90246B9F1000FFA
:1006100006D00B9BC41A0B9B1A190E9BA34245D8FC
:10062000104613B0BDE8F08FDDE906ABCDE6002241
:10063000404649461A4B0EF05FF9013CCDE90C01EA
:100640006EE7002D90D00F9B002B8DD0013D8BE7E6
:10065000FB799F501344D33FB3C8608B288AC63FB1
:1006600061436F63A787D23F71A379094F930A4013
:100670001655B5BBB16B0240EF39FAFE422EE63F8C
:100680002D431CEBE2361A3F0000000080842E410F
:10069000FFFFEF7F0000F83F0000E03F00002C402C
:1006A00000002440000018400000F03F2020DDE959
:1006B0000913089DA8470134ADE700BF0000000002
:1006C0002DE9F04F5BEC10AB97B0CDE90501DDE90A
:1006D0002057CDE90723504652465B465946229E95
:1006E0000EF048FA70B90323CDE902760193B04BBE
:1006F0000093DDE90501DDE9072341F097F817B024
:10070000BDE8F08F4FF0FF326FF48013504659462A
:100710000EF03AFA28B10423CDE902760193A54BF5
:10072000E6E74FF0FF3250465946A34B0EF04AFA27
:1007300068B1A24A06F00403002B08BF0322A04BB5
:100740001CBF13460422CDE902760192D0E7504641
:1007500093A3D3E9002359460EF034FA38B992A393
:10076000D3E90023504659460EF00EFA68B1DDE990
:100770000723DDE905014BEC10ABCDE9217620958F
:1007800017B0BDE8F04FFFF7DFBD00220023504651
:1007900059460EF0F9F9002800F09A805B4652465F
:1007A000002000210DF0C6FD012382468B460993EF
:1007B00016F4806400F08E80092D40F28E800024B3
:1007C00030210EABA5F109020134202C03F8011BE6
:1007D000A5EB040901D09442F6D1594650460EF0DB
:1007E000FBF9784B054603EBC90393ED007B8DEDD8
:1007F0000A7B0DF0EDFE02460B46504659460DF0C1
:1008000099FDDDE90A230DF04DFF02460B46CDE9C7
:100810000C230EF009FA80460DF0CAFE02460B4684
:10082000DDE90C010DF086FD02460B46CDE90C23F7
:100830000022654B0EF0C6F9002851D008F10108DE
:1008400040460DF0B5FE02460B46DDE90A010EF00A
:10085000A5F910B14FF000080135B9F1000F50D1E2
:1008600028460DF0B5FE02460B46504659460DF09F
:1008700061FD0022544B804689460EF085F930B167
:10088000002240464946504B0EF09CF910B1E80753
:1008900000D501350A210EAB1A19202C0AD095FB80
:1008A000F1F001FB1055303502F8015B01340546CB
:1008B0000028F2D106F00302012A57D1002F55D0AB
:1008C000099A12B916F00C0F00D0013F302245E012
:1008D00009906DE74FF006097FE7A94600247CE701
:1008E0000022DDE90C01384B0EF04EF90028B4D19E
:1008F000B8F1000F02D018F0010FAED008F10108D6
:10090000ABE70A210EAB2344202C0ED0B8FBF1F04C
:1009100001FB1082B8F1090F02F1300209F1FF3931
:1009200004F1010403F8012B11D83021A1440EAACF
:10093000202CAFD0A14504F101030AD11C4609F1D6
:1009400058030DEB03092E2309F8203CA2E780464B
:10095000DAE7A1541C46EBE71A550134A74205D942
:10096000202CF9D1CDE902760194C1E6202CF9D0F2
:10097000099A3AB12D2104F158026A4402F8201C68
:100980000134EFE7710704D504F158022B216A44C2
:10099000F4E73207E6D504F1580220216A44EDE776
:1009A0000000000065CDCD410000000065CDCDC147
:1009B000B03A0508B43A0508FFFFEF7FA73A0508EB
:1009C000AC3A0508C03A05080000E03F000000000E
:1009D0002DE9F04F2DED028B002597B01D7003938C
:1009E000229B074607911D60002800F03C81437858
:1009F000047844EA0324837844EA0344C37844EA4D
:100A0000036463783F2B00F22E81AA4214BF0623B1
:100A100008238DF8243009230C958DF8263042796F
:100A2000037908469FEDA48B43EA02234A790434F4
:100A3000023292008DF825200AAA0092043B9BB254
:100A40002146007909AA8DED0A8B36F017F80A9B2A
:100A50000646049360B1049B23B10C991846C91A49
:100A600040F0A5FD304617B0BDEC028BBDE8F08F1D
:100A70000B98039DC01A40102870C0B200EB4000D4
:100A80008F4980004DF02EFD8346002800F0108134
:100A90002B788DED0E8B1096002B00F0FA803346EC
:100AA00002960299E279591A8A42B246B04600F299
:100AB000AC8004D202991144994218BF0F91002AC8
:100AC00040F0AD807A783B7894F802E043EA022364
:100AD000BA7894F803C043EA0243FA7808EB480175
:100AE00043EA026300220BEB810514925A781878CE
:100AF00085F802E085F803C002F00F03E2798DED7E
:100B0000128B6A7194F906202A710BF821000EAA43
:100B10006B70204612AB09A933F0D2FF8146002842
:100B20003BD01298149910B1091A40F040FD039B74
:100B30001B78F3B100252C462E4604EB44040BEB46
:100B40008404627A207A40EA0220A27A40EA0240D3
:100B5000E27A50EA026000F0968040F026FD039BA6
:100B600001351B7826726672A672E672ECB29C4260
:100B7000E3D3584640F019FD0023029A1099891AD0
:100B8000039A1370029B13B1184640F010FD049BAA
:100B90004E46002B7FF461AF64E7DDE91232D21AD2
:100BA00010464749069305924DF09CFCC0F3072C74
:100BB00085F809C0C0F3074C85F80AC04FEA106CED
:100BC000069B287285F80BC0002865D0059A002A7C
:100BD00035D185F8069085F80790002B40D1049B0D
:100BE0000AF1010A33F81820E3795FFA8AF83344EE
:100BF000DEB2039B14441B7843453BD90F9B0299FB
:100C0000E279591A8A427FF654AF511A0EA833F08E
:100C1000F9FE0E9BE2790293002A3FF453AF079846
:100C20004378017841EA0321837841EA0341C3789C
:100C3000029841EA0361314442F0B6FE42E71946A8
:100C40000692059342F0B0FE069A1499059BAA718C
:100C5000C2F30722EA71C91A184640F0A8FCBEE7A1
:100C60001499C91AF8E70B26304617B0BDEC028B71
:100C7000BDE8F08F229B1099C3F800B0029BC91AFF
:100C8000002B81D183E70135ECB29C42FFF455AFD4
:100C90006FE7229B1860DEE63BB114991846C91A2B
:100CA00040F085FC4FF0020941E74FF002093EE7B2
:100CB0000226D0E6AFF30080000000000000000034
:100CC00024BA05080348044B834202D0034B03B106
:100CD0001847704778A1002078A10020000000008C
:100CE000064B0749C91A891048BF0131491003D082
:100CF000044B0BB101481847704700BF78A1002092
:100D000078A100200000000010B5064C237843B9FC
:100D1000FFF7D8FF044B13B10448AFF30080012361
:100D2000237010BDFE860020000000001CC50508D1
:100D300008B5054B1BB105490548AFF30080BDE878
:100D40000840FFF7CDBF00BF00000000C81300201F
:100D50001CC50508A3F5803A704700BF174B002B50
:100D600008BF134B9D46FFF7F5FF00218B460F464A
:100D70001348144A121A42F031FE0E4B002B00D0D9
:100D800098470D4B002B00D098470020002104000D
:100D90000D000D48002802D00C48AFF300800EF083
:100DA00005FB2000290042F02BFD0EF03DF900BFAD
:100DB000000008000000000000000000A80D002056
:100DC000A80D0020E09800200000000000000000B6
:100DD00013B5094C237863B9022304200093074A12
:100DE0004FF4805306490CF095FB0028A4BF012363
:100DF000237002B010BD00BF00970020FF860020C6
:100E0000480D050830B5154B87B01B7805461446CC
:100E1000019103B33EF026FB4FF41B630D22CDF886
:100E20000D00CDF81110042002A902938DF80C508A
:100E30000CF044FB04220DEB020110460CF03EFBCB
:100E4000019B21461A0202F4E062C3F30723042047
:100E50001A430CF033FB07B030BD00BFFF960020F3
:100E600030B5144B05461B7885B003F0FF04F3B191
:100E7000FF2928BFFF210C463EF0F4FA04F10902D5
:100E800013029BB243EA122343F0807343F0B00392
:100E90000D22CDE900300291042069468DF80C4006
:100EA0000CF00CFB2246294604200CF007FB2046E0
:100EB00005B030BDFF9600200122014B1A7070472B
:100EC000FF9600201FB53EF0CDFA084B0391CDE907
:100ED00001300C22042001A90CF0F0FA04200CF0DF
:100EE0004BFB0028FAD105B05DF804FBB008000206
:100EF00037B5044616F01CFC054600284AD1A36805
:100F000043F40033A36043F086FDA368244A43F40E
:100F1000A013A360A261257740F076FCA368A080AF
:100F20001B030CD4B0F5FA7F09D94FF01CFC01214A
:100F3000054608464EF0B8FB28464FF00FFC204609
:100F400016F01EFC38BBE06838B318F05FFC14F0F4
:100F5000EBFC15F0BBFA46F0D7FC45F018F940F26F
:100F60000443ADF80430FF2301A88DF8063010F0DB
:100F700073F900220320114645F061FF032104208C
:100F800017F0C2FD0A200FF0CBFD16F0B1FB204692
:100F90003EF07FFA002003B030BD0248D5E700BF25
:100FA000050403003E9E002008B50449044820F0D3
:100FB00057FFBDE8084020F085BF00BF580D050869
:100FC0001C0E05084FF08052014B5A60704700BF5D
:100FD00000ED00E0F8B50E460546D0B1C9B10E4BA4
:100FE0000E4F1968386805F09BFB044678B9062354
:100FF00032460B49386805F061FC044638B90123D4
:101000002A460849386805F059FC00B12C70204682
:10101000F8BD2124FBE700BFCC9A0020EC9A002009
:101020002C0004003C00040007B5084B1878FF288A
:1010300002D020F043FB30B14FF6047301A8ADF8A5
:10104000043042F06DFB03B05DF804FB4F9E0020BE
:1010500010B50D4C0D4803F099FE23780BB120F02C
:1010600087FBFF220A4B01211A700022094B2270D4
:101070009A70152219705970DA701A7100F012FB0B
:10108000BDE8104000F02CB901970020E0130020CB
:101090004F9E00200297002038B500F077F90446F3
:1010A00000F0CEF9C0B10E4D2B789BB90D4B1B78DB
:1010B000FF2B11D1022C11D80B4C2279E178A078AA
:1010C00020F02CFB38B90121207820F03DFB10B92D
:1010D00001232B70002038BD0220FCE71D20FAE719
:1010E000019700204F9E002002970020F0B5054692
:1010F00085B00E4600F04AF95DB3194F3B78FF2BDF
:1011000029D1022829D8002342F21071154A164825
:10111000009303F059FE0446A0B901460DF10F03F8
:1011200000936A792B79286843EA022363F30F015D
:101130000E4B32461B7820F06DFA044628B10A485F
:1011400003F024FE204605B0F0BD9DF80F303B7043
:10115000F8E72224F6E70224F4E71D24F2E700BFB3
:101160004F9E002029100008E01300200297002065
:10117000036837B523F47F43504A23F007039342B3
:10118000044621D009D8A2F5A022934217D002F537
:101190008022934273D003B030BD494A93424AD073
:1011A00002F57F029342F6D1464B1B78002BF2D01A
:1011B000454B1B78FF2BEED100F11E0369E003B015
:1011C000BDE83040FFF744BF3F4B017B1A789142A6
:1011D000E1D1C27A012ADED1FF223A4D3B481A7092
:1011E00003F0D4FD2B784BB120F0C2FA08B34FF6D0
:1011F000047301A8ADF8043042F092FA607A227AC2
:10120000012342EA00226168207B00F077F830B1C8
:101210004FF6047301A8ADF8043042F081FA0023C0
:101220008DF80430237B8DF8053001A842F078FA60
:10123000B1E72870E2E7244D80792B78834205D10D
:10124000224803F0A3FDFF232B70A4E700F0BCF8B5
:101250000028A0D0A07900F0E1F800289BD0A07968
:1012600000F076F830B14FF6047301A8ADF8043001
:1012700042F056FA02238DF80430A379D3E7114BDC
:101280001B78002B87D0104B1B78FF2B83D100F1EC
:10129000160394F90D20E17A601D3EF006F900284E
:1012A0003FF479AF11283FF476AF2D3801287FF64F
:1012B00072AF4FF60473ADF80430B6E7A000060035
:1012C000A0000601019700204F9E0020E01300209F
:1012D000024B187880F00100704700BF0197002092
:1012E000FF22044B1A701A721A740022024B1A70F1
:1012F000704700BF079700201F97002013B56C466A
:1013000084E80600104A1178FF2917D0117AFF29C6
:1013100016D0117CFF2915D1022102F83100009866
:1013200002EBC102C2F8020000205370A388D380F0
:10133000064A13780133137002B010BD0021ECE7A8
:101340000121EAE71A20F7E7079700201F970020FE
:101350000C4B1A7882420FD01A7A82420ED01A7C35
:1013600082420DD10222FF2103F83210064A0020EA
:101370001378013B137070470022F4E70122F2E773
:101380002D207047079700201F970020014B1878E9
:10139000704700BF1F9700200A4B1A7882420AD07C
:1013A0001A7A824209D01A7C824208D1022203EBC7
:1013B000C200023070470022F9E70122F7E700205F
:1013C000704700BF07970020064B1A78824207D06B
:1013D0001A7A824204D01B7C1B1A5842584170472B
:1013E000012070470797002070B5044680B10026A1
:1013F000094D15F8023CFF2B05D006222146284650
:1014000042F0C2FA30B10136032E05F10805F0D1E1
:10141000002070BD0120FCE7099700200146002252
:10142000064B1878884202D15878012805D001323D
:10143000032A03F10803F4D1002070470797002026
:10144000024B1888003818BF01207047181400207C
:101450002DE9F04F8E4D90462E7893B03207894695
:101460009A464FF00004009035D4F30647D4F707AE
:101470004CD44FF0000B9AF800305F46013B0D93BF
:1014800006F0040308932B7ACDE901BB00936B6847
:1014900009936B7803F001030B9395F86430049380
:1014A00095F865300693069A049B13440C9395F8BF
:1014B0005C30039395F85D300593059A039B1344C4
:1014C0000A9306F002030F9306F02003079306F039
:1014D000400310937BE04FF00804002705F1090B4F
:1014E000062200990BEB070042F04EFA0028BCD010
:1014F00006373C2FF4D1002013B0BDE8F08F95F8EB
:10150000453044F010044B45F5D1B0E795F9023071
:1015100044F001044345ACDBEDE70AEB07035D78DB
:1015200093F802900F9B002B36D0A9F10803012BF2
:1015300032D8089A234644F002041ABB009BAB42FF
:1015400030D2F81C009A0999504442F01DFA002844
:1015500008BF4FF0010B079B002B00F08580B9F10D
:10156000210F40F081800A9B44F020049D42C2DD9F
:10157000039B059AD91903314648514442F004FAB5
:1015800010B3B8E743F00604009BAB42E3D2009AE5
:101590006B1E9342DFD1D4E7109B1BB1A9F102036C
:1015A000012B2ED93006D6D5A9F10603012BD2D8AE
:1015B0004FF00008BA1C44F080046B1E0E92984550
:1015C0003DDB079B002B4FD101353D44EFB20D9B16
:1015D0009F42A2DB16F0060F02D0BBF1000F8AD0AB
:1015E000710602D5019B002B85D0320602D5029BE5
:1015F000002B80D0264BA4B21888031B58425841B8
:101600007AE74FF000086B1E0E9344F04004BB1CB9
:101610000E9A90459FDA03EB0801013102221E4821
:101620005144119342F0B0F90028019B08BF0123F7
:1016300008F1020801935FFA88F8119BE8E711931B
:101640000E9B102203EB080101311448514442F073
:101650009BF90028029B08BF012308F110080293A0
:101660005FFA88F8119BAAE70B9B002BACD0B9F16D
:10167000FF0FA9D10C9B44F480749D427FF73BAFD0
:10168000049B069AD91903310548514476E700BFF7
:1016900018140020701400205E1400206014002034
:1016A0007814002010B5FFF713FEF0B1104C6068FD
:1016B00018B13FF042FF00236360A06D18B13FF006
:1016C0003CFF0023A365206E18B13FF036FF0023D6
:1016D00023660020FE23A070207284F84530A4F811
:1016E0005C00A4F86400208010BD0220FCE700BF6D
:1016F0001814002000234FF0FF320449C818CA50C4
:1017000006333C2B8280F9D1FFF7CCBF2114002097
:1017100038B5134B044693F8C0208242A3F580509D
:1017200015D003F5805393F80432A34215D00D4D24
:101730000D4928683FF0B7FA3EF02DFA3EF02CFA3A
:1017400022460A4928683FF0AEFA002038BD00233F
:1017500041F2441202FB0300F8E70123F8E700BF5F
:10176000802400200C370020CC0E0508D10E05087F
:101770002DE9F047002541F244182F461D4CA4F6F0
:101780005809A4F6580A41F244120021504642F08A
:1017900025F9FF2384F8683884F8D1384FF0FF33F7
:1017A0000126C4F85038172308FB059284F8CE7838
:1017B00084F84D68A4F8623802F5805292F8A4309B
:1017C000002123F00F0343F00C0382F8A4302046DD
:1017D00040F24A7244F8047C42F000F984F86478DC
:1017E000314650463DF0C4FE44440DB1BDE8F0879B
:1017F0003546C6E7D81C00202DE9F041064688464C
:101800001746FFF785FF434C054698B942492068C3
:101810003FF049FA3EF0BFF93EF0BEF932463F498B
:1018200020683FF040FA222227212846BDE8F041F7
:1018300000F0BABE05F5805696F8A4302068DB07A4
:1018400012D518F0010F0FD133493FF02CFA3EF0BA
:10185000A2F93EF0A1F996F8C020314920683FF086
:1018600022FA3A460B21E0E787B12B493FF01BFAF9
:101870003EF091F93EF090F996F8C02029493B4698
:1018800020683FF010FA3A460C21CEE726493FF097
:101890000AFA3EF080F93EF07FF9434696F8C02000
:1018A000224920683FF0FFF996F8A41096F8C0008E
:1018B0003DF0F8FE074688B1174920683FF0F3F97C
:1018C0003EF069F93EF068F996F8C02018493B46A9
:1018D00020683FF0E8F93A460D21A6E7032196F883
:1018E000C0003DF023FF074688B10B4920683FF058
:1018F000DAF93EF050F93EF04FF996F8C0200D4964
:101900003B4620683FF0CFF93A460E218DE7BDE80F
:10191000F08100BF0C370020CC0E05085B170508CE
:101920008A170508F0170508130F05083118050870
:1019300070180508B01805082DE9F04186B0074673
:101940000E461546FFF7E4FE0446A8B9494D4A493C
:1019500028683FF0A8F93EF01EF93EF01DF93A461E
:10196000464928683FF09FF922220E21204606B002
:10197000BDE8F04100F018BEA5B1DFF8F8803E499F
:10198000D8F800003FF08FF93EF005F93EF004F979
:10199000009533463A463A49D8F800003FF083F9BB
:1019A0002A46E2E7022E57D0032E22D0012E2FD155
:1019B00000F5805696F8B830052B29D10C23032169
:1019C00096F8C00086F8B8303DF0B0FE0546F8B194
:1019D000284F294938683FF066F93EF0DCF83EF0C0
:1019E000DBF82B4696F8C020264938683FF05BF9B3
:1019F000D6E700F5805696F8B8300C2B0BD00121B5
:101A000003AA8DF80C1001F06FFD052386F8B8309D
:101A100006B0BDE8F08100F6580240F24A7196F82F
:101A2000C0003DF0FFFD05460028EED0114F1249E1
:101A300038683FF038F93EF0AEF83EF0ADF896F871
:101A4000C0202B46104938683FF02DF92A460F2157
:101A5000204600F0A9FDD8E70723012100F58054B6
:101A600084F8B83084F8BC5003AA8DF80C1001F04B
:101A70003BFDCDE70C370020CC0E0508EB18050820
:101A800028190508B0180508691905082DE9F04F4F
:101A900087B00646DDE918BA89461D46DDF8548050
:101AA000FFF736FE044680B9504D514928683FF093
:101AB000FAF83EF070F83EF06FF832464D4928686B
:101AC0003FF0F1F82222112120E000F5805696F82F
:101AD000A5300BB300F6580240F24A7196F8C000E8
:101AE0003DF0A0FD0746B8B1404D414928683FF0A0
:101AF000DAF83EF050F83EF04FF896F8C0203E4934
:101B00003B4628683FF0CFF83A460F21204607B001
:101B1000BDE8F04F00F048BDB5B1344F34493868E6
:101B20003FF0C1F83EF037F83EF036F82B4696F815
:101B3000C020324938683FF0B6F85BEA0A0A51D053
:101B4000062D4FD02A46BEE7B9F1000F4AD0274FE5
:101B50002B49C4F8548838683FF0A5F83EF01BF8CC
:101B60003EF01AF894F8593894F8581896F8C020AE
:101B700003F00F03CDF8008041EA032338682149C0
:101B80003FF091F894F8592894F8583802F00F0271
:101B900004F6580943EA0223D4F854182A46ADF84B
:101BA0001430484696F82831CDE903988DF817503F
:101BB0003DF0F3FC08218DF8160003AA204601F041
:101BC00093FC044670B10A4938683FF06CF83DF068
:101BD000E2FF3DF0E1FF234696F8C0200A4938684D
:101BE0003FF061F807B0BDE8F08F00BF0C37002070
:101BF000CC0E0508AF19050869190508F319050881
:101C0000130F0508351A0508791A05082DE9F04162
:101C10000368B04A23F47F4323F00703934204464A
:101C200092B000F021832ED802F17F42934200F05F
:101C30003B830FD802F17F42934200F0018202F50C
:101C40003002934200F0CC82002080F0010012B0FC
:101C5000BDE8F081A04A934248D002F54032934259
:101C6000F2D10079FFF754FD002840F0A1829B4D8E
:101C70009B4928683FF017F83DF08DFF3DF08CFF41
:101C80002279984942E0984A934200F0458413D85B
:101C900002F17E42934200F0CE8302F52D02934280
:101CA000D2D10079FFF734FD0028CDD0637900F55B
:101CB000805080F85B30C7E78C4A934200F0CD81BA
:101CC00002F1FC729342BFD1844D854928683EF0F1
:101CD000EAFF3DF060FF3DF05FFFA3798449009388
:101CE0006379227928683EF0DEFFADE70079FFF7DF
:101CF0000FFD074670B9794D794928683EF0D3FF4A
:101D00003DF049FF3DF048FF22797A4928683EF0CE
:101D1000CAFF99E7B4F8052000F5805593B2A5F8FD
:101D2000C220B5F881209A4203D3B5F87F209A42A9
:101D300077D96A4E704930683EF0B5FF3DF02BFF11
:101D40003DF02AFFB4F80510B5F87F3095F8C020B3
:101D50000191B5F881100091306868493EF0A3FF09
:101D600095F8C630A3BB5D4E634930683EF09BFFDB
:101D70003DF011FF3DF010FF95F8C020604930683C
:101D80003EF091FFB5F893C0B5F88B30B5F88120DF
:101D9000B5F87F1095F8C000CDF808C0B5F891C02F
:101DA000CDF804C0B5F88DC0CDF800C01FF05EFCC2
:101DB000002869D0504930683EF075FF3DF0EBFED9
:101DC0003DF0EAFE95F8C0204E4930683EF06BFFCA
:101DD000012385F8C630E37A002B59D095F8B83046
:101DE000002B40F0388195F8C00019F0BBFE3B4E47
:101DF0000446002850D005284ED0394930683EF0BE
:101E000052FF3DF0C8FE3DF0C7FE95F8C0203E49A8
:101E100030683EF048FF22460521384600F0C4FBFA
:101E200012E7B5F88B20B4F807309A4214D02B4E45
:101E3000314930683EF037FF3DF0ADFE3DF0ACFE7D
:101E4000B4F80710B5F88B3095F8C02000912F49F1
:101E500030683EF028FF83E7B5F88D20B4F80930EC
:101E60009A42B5D01D4E244930683EF01CFF3DF02B
:101E700092FE3DF091FEB4F80910B5F88D3095F85A
:101E8000C02000912249E3E795F8C630002BA2D18B
:101E9000012385F8C630D7E6012795F8C04085F8BC
:101EA000B8702046FFF734FC0546A8BB0C493068E3
:101EB0003EF0F9FE3DF06FFE3DF06EFE2246154904
:101EC00030683EF0F0FE22222721284600F06CFB0D
:101ED000C1E000BFA0005902A00006020C3700209C
:101EE000CC0E0508AF1F0508A0005905A000090683
:101EF000A1220508C01A050856110508241B05086B
:101F0000371C0508811C0508E21C0508A31B0508F1
:101F1000E71B05081B1D050800F5805494F9722085
:101F2000394694F86C3094F8C000009200221FF0FB
:101F300063FC074680B1BC4930683EF0B4FE3DF01A
:101F40002AFE3DF029FE94F8C020B84930683EF0E2
:101F5000AAFE3A462821B8E794F8C0001FF03CFCDE
:101F6000074688B1B04930683EF09DFE3DF013FE53
:101F70003DF012FE94F8C020AD493B4630683EF07B
:101F800092FE3A462C21A0E794F86DC094F85D309B
:101F900094F8702094F86E1094F8C000CDF834C016
:101FA00094F864C0CDF830C094F865C0CDF82CC06A
:101FB00094F86AC0CDF828C094F863C0CDF824C066
:101FC00005F5845C0CF1190CCDF820C094F85CC0C8
:101FD000CDF81CC094F869C0CDE9057C94F8627016
:101FE000049794F86170039794F85F70029794F8DF
:101FF0006070019794F85E7000971FF019FC074617
:1020000088B1894930683EF04EFE3DF0C4FD3DF098
:10201000C3FD94F8C02087493B4630683EF043FE3C
:102020003A462B2151E7844930683EF03CFE3DF0B2
:10203000B2FD3DF0B1FD94F8C0208049306868E2FF
:102040000079FFF765FB00283FF4FEAD012300F5A2
:10205000805080F8C5300120F7E50079FFF758FB84
:10206000064658B9764D704928683EF01CFE3DF092
:1020700092FD3DF091FD2279724947E600F58055C9
:1020800095F8C000237983427FF4DEADB4F80540B3
:10209000BCB16B4F644938683EF005FE3DF07BFDF6
:1020A0003DF07AFD95F8C020674938683EF0FBFDA9
:1020B00095F8B830032B3FF4C7AD224607213046D0
:1020C000ACE695F8B830012B1FD0022B7FF4BCADE5
:1020D000304600F0E9FA95F8A530002B46D0B5F867
:1020E000AE30002B42D1564C4F4920683EF0DBFD0C
:1020F0003DF051FD3DF050FD95F8C020534920685A
:102100003EF0D1FD0122092114E0D5F8A8104B1CA6
:1021100012D14B4C444920683EF0C5FD3DF03BFDDB
:102120003DF03AFD95F8C020494920683EF0BBFDDE
:10213000012206213046C9E6022385F8B83019F09D
:1021400021FD0446002886D03D4F374938683EF0CF
:10215000AAFD3DF020FD3DF01FFD95F8C0203D4952
:1021600038683EF0A0FD22460821E3E706F58551D8
:10217000B5F88F2095F8C0000C3101F07BFE0446C5
:1021800090B12F4F284938683EF08DFD3DF003FD9A
:102190003DF002FD95F8C0202F49234638683EF0F7
:1021A00082FD22460A21C5E7032385F8B83052E7AD
:1021B00000F5855600F58555284F0C36183504F185
:1021C000090802224146384641F0DEFB10B9B4F856
:1021D000053033800236AE4207F10207F1D133E514
:1021E0000079FFF795FA054658B9154D0E4928684C
:1021F0003EF059FD3DF0CFFC3DF0CEFC2279184970
:1022000084E50222174804F10A0141F0BDFB0028D1
:102210007FF41AADD4F8052005F580532846C3F89D
:10222000A82000F0FFF90FE5CC0E0508441D0508B5
:10223000751D0508B01D0508130F0508F01D0508DC
:102240000C3700201F1E0508861E0508201F0508E4
:10225000B31E0508DE1E0508751F0508C89D002071
:1022600011200508D49D00200079FFF751FA58B9D4
:10227000C04DC14928683EF016FD3DF08CFC3DF094
:102280008BFC2279BD4941E50421231D0F9300F504
:10229000805393F85D20022A04BF627A83F82921D3
:1022A0000FAA01F021F9D6E60079FFF731FAB14F14
:1022B000054658B9B04938683EF0F5FC3DF06BFC76
:1022C0003DF06AFC2279AE49386820E500F0ECF96F
:1022D000A37B05F5805685F8C83F94F8243005F5B2
:1022E000865185F8CF3F94F8213005F6B97285F80C
:1022F000D03F94F82230083185F8D13F94F823304C
:1023000085F8D23FB6F8C230A5F8D43FE37F85F810
:10231000CE3FA37F85F8CD3F237F85F8CB3F637FFA
:1023200085F8CC3F637C85F8CA3F237C85F8C93F9C
:10233000637B85F8C73F237B85F8C63FE37A85F842
:10234000C53FD4F81230C5F8BB3FD4F81630C5F8F5
:10235000BF3F638BA5F8C33F96F85E3096F8C00088
:10236000019396F85D30009305F6BB7300F00CFB0B
:10237000044698B1804938683EF095FC3DF00BFC6E
:102380003DF00AFC96F8C0207E49234638683EF0AE
:102390008AFC22462F21284600F006F97A4938683F
:1023A0003EF081FC3DF0F7FB3DF0F6FB96F8C020D7
:1023B000764938683EF077FC96F89640B6F8833058
:1023C000B6F8872096F86E1096F8C000099496F833
:1023D0009540089496F86F40079496F971400694DA
:1023E00096F85B40059496F868400494D6F87B40D4
:1023F0000394D6F877400294B6F889400194B6F871
:10240000854000941FF072FA044600283FF423AE82
:10241000594938683EF047FC3DF0BDFB3DF0BCFB40
:1024200096F8C0205A49234638683EF03CFC2246C4
:102430001E212846F2E40079FFF76AF906460028D3
:102440003FF402AC4B4F504938683EF02CFC3DF055
:10245000A2FB3DF0A1FB22794E4938683EF023FCF7
:102460004FF6FF73B6F8A42F06F580559A4215D1A2
:1024700095F82631063B012B38D80523424985F8CB
:10248000263138683EF00FFC3DF085FB3DF084FBC3
:1024900095F8C020404938683EF005FC95F8263193
:1024A000063B012B22D895F8E8300133DBB20A2B2A
:1024B00085F8E83022D900214FF6FF7385F8E8103F
:1024C0003046A6F8A43F3DF053F805232E4985F881
:1024D000263138683EF0E7FB3DF05DFB3DF05CFBEC
:1024E00095F8C0202C4938683EF0DDFB0123062119
:1024F00030460F948DF843300FAAD2E6224938684F
:102500003EF0D1FB3DF047FB3DF046FB22792349ED
:1025100038683EF0C8FB9EE50079FFF7F9F80546FC
:1025200000283FF491AB05F5805393F82631114E06
:10253000063B012B3068144912D93EF0B4FB3DF044
:102540002AFB3DF029FB2279154930683EF0ABFBB0
:102550000023072128460F948DF843300FAAA0E6E8
:102560003EF0A1FB3DF017FB3DF016FB22790D4933
:1025700064E500BF0C370020CC0E05086C20050870
:10258000D7200508F2160508130F05082D170508B2
:10259000382105087F210508B9210508EC21050827
:1025A000282205085C2205082DE9F0410446194F50
:1025B0000E46154638686CB917493EF074FB3DF07D
:1025C000EAFA3DF0E9FA2A4638681449BDE8F041D4
:1025D0003EF069BB04F580540F49D4F8D8803EF032
:1025E00062FB3DF0D8FA3DF0D7FA2B4694F8C020B4
:1025F0000B4938683EF057FBB8F1000F07D02A4668
:102600003146434694F8C000BDE8F0411847BDE8A4
:10261000F08100BF0C370020CC0E050821230508EF
:1026200051230508F7B500F5805595F82571044646
:1026300087BB95F8243100F587560C3623B1304618
:1026400002F0A4FB85F8247100233046009340F685
:10265000B8312346104A02F0B7FB0646B8B10F4F17
:102660000F4938683EF01FFB3DF095FA3DF094FAB3
:1026700095F8C02033460B4938683EF014FB3246CB
:102680000221204603B0BDE8F040FFF78DBF0123D3
:1026900085F8243103B0F0BD4DF503080C37002058
:1026A000CC0E05087E230508F8B5054600F58750D1
:1026B0000C3002F06BFB05F580560446B0B10D4FAF
:1026C0000D4938683EF0EFFA3DF065FA3DF064FAE6
:1026D00096F8C0202346094938683EF0E4FA2246BD
:1026E0002846BDE8F8400421FFF75EBFA6F82401A4
:1026F000F8BD00BF0C370020CC0E0508B923050833
:1027000070B504460D460F2900F20681DFE811F08E
:1027100015011000240034004400540064007400CB
:1027200084009400A400B400C400D400E400F400C9
:10273000824D834928683EF0B6FA3DF02CFA3DF010
:102740002BFA012304F5805494F8C0207D492868B1
:10275000BDE870403EF0A7BA784D7949286804F585
:1027600080543EF0A0FA3DF016FA3DF015FA02232F
:1027700094F8C0207449EAE7704D7449286804F55C
:1027800080543EF090FA3DF006FA3DF005FA03233E
:1027900094F8C0206E49DAE7684D6949286804F565
:1027A00080543EF080FA3DF0F6F93DF0F5F904234F
:1027B00094F8C0206749CAE7604D6149286804F56C
:1027C00080543EF070FA3DF0E6F93DF0E5F905235E
:1027D00094F8C0206049BAE7584D5949286804F573
:1027E00080543EF060FA3DF0D6F93DF0D5F906236D
:1027F00094F8C0205949AAE7504D5149286804F57A
:1028000080543EF050FA3DF0C6F93DF0C5F907237B
:1028100094F8C02052499AE7484D4949286804F580
:1028200080543EF040FA3DF0B6F93DF0B5F908238A
:1028300094F8C0204B498AE7404D4149286804F587
:1028400080543EF030FA3DF0A6F93DF0A5F9092399
:1028500094F8C02044497AE7384D3949286804F58E
:1028600080543EF020FA3DF096F93DF095F90A23A8
:1028700094F8C0203D496AE7304D3149286804F595
:1028800080543EF010FA3DF086F93DF085F90B23B7
:1028900094F8C02036495AE7284D2949286804F59C
:1028A00080543EF000FA3DF076F93DF075F90C23C6
:1028B00094F8C0202F494AE7204D2149286804F5A3
:1028C00080543EF0F0F93DF066F93DF065F90D23D6
:1028D00094F8C02028493AE7184D1949286804F5AA
:1028E00080543EF0E0F93DF056F93DF055F90E23E5
:1028F00094F8C02021492AE7104D1149286804F5B1
:1029000080543EF0D0F93DF046F93DF045F90F23F3
:1029100094F8C0201A491AE7084E0949306804F5AE
:1029200080543EF0C0F93DF036F93DF035F92B46C4
:1029300094F8C020134930680AE770BD0C370020B6
:10294000CC0E0508F72305082B240508130F0508EE
:1029500066240508A5240508FA240508332505087A
:1029600070250508B0250508E22505082726050875
:1029700060260508C62605081F2705086F270508D5
:10298000CB270508092805082DE9F8430E4605461A
:102990001178304699469DF820709DF824802BF0E0
:1029A000A9FA044688B12C4E2C4930683EF07BF9D8
:1029B0003DF0F1F83DF0F0F823462A46284930680A
:1029C0003EF071F92046BDE8F883012F02D0022FB6
:1029D00018BFFF27B8F1010F04D0B8F1020F18BFDC
:1029E0004FF0FF084246394630462BF093FA044632
:1029F00060B1194E194930683EF055F93DF0CBF8F9
:102A00003DF0CAF823462A461649D8E749463046DB
:102A10002BF0A2FA044660B10F4E104930683EF028
:102A200042F93DF0B8F83DF0B7F823462A460E4982
:102A3000C5E7304633F086FC04460028C2D0064E77
:102A4000064930683EF02FF93DF0A5F83DF0A4F8B6
:102A500023462A460549B2E70C370020CC0E05086C
:102A60003A28050872280508B8280508F928050835
:102A70002DE9F04F0446002797B000F584730393C7
:102A80000893D0F8043100F58055ADF8243000F6F5
:102A9000580304930A93D0F8543812AEADF82C3092
:102AA00008AB0E930AAB0F93431C05931093037866
:102AB000ADF846708DF8443095F828318DF84530E2
:102AC00000F6AC730FCB07C6337004F58656083694
:102AD000012130460EAA34F091F980460146204685
:102AE000FFF70EFEB8F1000F22D0B8F1030FDFF8A8
:102AF0003C9000F021830B49D9F800003EF0D3F858
:102B00003DF049F83DF048F895F8C02043460649A5
:102B1000D9F800003EF0C7F842463A212046FFF7B8
:102B200043FD6EE2CC0E0508322F05080C3700205D
:102B3000002304F6D6773846069307933CF0F3FF5C
:102B400095F85E904146B9F1FF0918BF4FF00109B1
:102B500030464A4607AB2BF08FFC804601462046A4
:102B6000FFF7CEFDB8F1000F40F09B81414638469B
:102B700004F6DA7307AA01F0CBFE8346002800F0C2
:102B8000A281DFF87C83D949D8F800003EF08BF8A9
:102B90003DF001F83DF000F85B4695F8C020D449BF
:102BA000D8F800003EF07FF84FF0000895F85E304E
:102BB000FF2B2CD000210222304607AB2BF05CFC0F
:102BC000824601462046FFF79BFDBAF1000F40F018
:102BD0007D810121384604F6DA7307AA01F098FED8
:102BE0008246002800F09C81DFF814B3BF49DBF86F
:102BF00000003EF058F83CF0CEFF3CF0CDFF5346CD
:102C000095F8C020BB49DBF800003EF04CF84A467E
:102C1000022106AB30462BF02FFC824601462046AF
:102C2000FFF76EFD04F58055BAF1000F40F07B818F
:102C30000221384604F6DA7306AA01F069FE8246DC
:102C4000002800F08081DFF8B8B2A849DBF8000066
:102C50003EF029F83CF09FFF3CF09EFF534695F86C
:102C6000C020A549DBF800003EF01DF895F85E3065
:102C7000FF2B2CD002223046114606AB2BF0FCFB7A
:102C8000824601462046FFF73BFDBAF1000F40F0B7
:102C90005D810321384604F6DA7306AA01F038FE96
:102CA0008246002800F06281DFF854B28F49DBF8D9
:102CB00000003DF0F8FF3CF06EFF3CF06DFF534626
:102CC00095F8C0208D49DBF800003DF0ECFF4A4646
:102CD000002106AB30462BF083F9824601462046A0
:102CE000FFF70EFD04F5805BBAF1000F40F0418163
:102CF0000421384604F6DA7306AA01F009FE82467A
:102D0000002800F044817E4D784928683DF0CBFFD3
:102D10003CF041FF3CF040FF53469BF8C02079490E
:102D200028683DF0C0FF9BF85E30FF2B29D00021C2
:102D30000222304606AB2BF053F98246014620466C
:102D4000FFF7DEFCBAF1000F40F024810521384680
:102D500004F6DA7306AA01F0DBFD8246002800F0D3
:102D60002781674D614928683DF09DFF3CF013FFC6
:102D70003CF012FF53469BF8C020634928683DF0A1
:102D800092FF03238DF83030DBF8733030460CA906
:102D9000CDF831302BF004F9824678B1584D5349C3
:102DA00028683DF080FF3CF0F6FE3CF0F5FE53460F
:102DB0009BF8C020554928683DF075FF4A4601211F
:102DC00006AB30462BF058FB824601462046FFF703
:102DD00097FC04F58055BAF1000F40F059810621A7
:102DE000384604F6DA7306AA01F092FD82460028FE
:102DF00000F0E180DFF808B13C49DBF800003DF06D
:102E000052FF3CF0C8FE3CF0C7FE534695F8C02088
:102E10003F49DBF800003DF046FF94F8B92F95F8E4
:102E20005D30022A33D1022B31D195F89830013B25
:102E3000012B2CD803214A46304606AB2BF01CFB55
:102E4000824601462046FFF75BFCBAF1000F40F0D6
:102E500032810721384604F6DA7306AA01F058FDDC
:102E60008246002800F0C580DFF894B01F49DBF8E7
:102E700000003DF018FF3CF08EFE3CF08DFE534606
:102E800095F8C0202349DBF800003DF00CFF95F8D1
:102E90005D30012B00F0BA80B8F1000F00F0B18076
:102EA000ABE0DFF85CB01149DBF800003DF0FBFE61
:102EB0003CF071FE3CF070FE434695F8C020164988
:102EC000DBF800006EE64FF001086FE6DFF830B087
:102ED0000649DBF800003DF0E6FE3CF05CFE3CF00D
:102EE0005BFE534695F8C0200C498CE6CC0E0508D5
:102EF00037290508B5290508452A0508CB2A0508FC
:102F00000C370020632B0508F22B0508932C0508CD
:102F1000DC2C0508A42D050876290508FD290508DF
:102F20004FF0010873E6DFF8B0B2A849DBF8000003
:102F30003DF0B9FE3CF02FFE3CF02EFE534695F8D6
:102F4000C020A3498EE64FF001088FE6DFF888B273
:102F50009E49DBF800003DF0A6FE3CF01CFE3CF074
:102F60001BFE534695F8C0209A49ACE64FF0010885
:102F7000ADE6994D954928683DF095FE3CF00BFE75
:102F80003CF00AFE53469BF8C0209449C8E64FF037
:102F90000108C8E6904D8D4928683DF084FE3CF05C
:102FA000FAFD3CF0F9FD53469BF8C0208C49E5E65C
:102FB0004FF00108E5E6079B8DF830000CA930467C
:102FC000CDF831302AF0ECFF824601462046FFF76B
:102FD00097FBBAF1000F42D194F8B92F95F85D3004
:102FE000022A08D1022B06D195F89830013B012B1B
:102FF0005ED995F85D30012B06D0D5F8D060002E53
:1030000077D117B0BDE8F08F4FF001084A46012193
:10301000304606AB2AF0E4FF814601462046FFF722
:103020006FFBB9F1000F56D10921384604F6DA7367
:1030300006AA01F06DFC81460028DED0664E634989
:1030400030683DF030FE3CF0A6FD3CF0A5FD4B465F
:1030500095F8C020634930683DF025FE1CE7DFF895
:1030600078815A49D8F800003DF01DFE3CF093FDF0
:103070003CF092FD53469BF8C0205B49D8F8000015
:103080003DF011FE94F8B93F022B9BF85D30A8E7A4
:10309000DFF844B14D49DBF800003DF004FE3CF0A0
:1030A0007AFD3CF079FD534695F8C0204F49B0E6D3
:1030B0004FF00108BEE6DFF820B14449DBF800001C
:1030C0003DF0F1FD3CF067FD3CF066FD534695F8A0
:1030D000C0204749D7E6404E3C4930683DF0E3FD0B
:1030E0003CF059FD3CF058FD4B4695F8C020414955
:1030F000B1E7237804F6DA7285F82C31631CC5F841
:103100003031D4F80431C5F83431039BC5F8383177
:10311000D4F85438C5F83C31049BC5F8403100233D
:10312000019304F589530C330093B4F8A41F3B4674
:1031300095F8C000B04764E795F8C030394630468E
:103140000DAACDE90C778DF830302AF0ADFF064698
:1031500001462046FFF7D4FA36BB2749D9F80000CC
:103160003DF0A1FD3CF017FD3CF016FD95F8C020A8
:103170002249D9F800003DF096FDD5F8D43013B1BE
:1031800031460CA898471C49D9F800003DF08BFD4A
:103190003CF001FD3CF000FD95F8C0201849D9F83D
:1031A00000003DF080FD2CE70849D9F800003DF013
:1031B0007AFD3CF0F0FC3CF0EFFC334695F8C02083
:1031C0001049D9F800003DF06EFDDCE7CC0E050893
:1031D000882A0508172B05080C370020AD2B050899
:1031E000452C05081D2E0508202D0508652D050810
:1031F000E32D0508572E0508130F05088C2E05082A
:10320000032F0508B92E05082DE9F04F0446CB79A8
:103210000A68D0F8A80F85B004F5847804F58056C4
:10322000EBB1118902F11305C1F30B01A4F8A41F3E
:10323000117C86F82811577B92F80EA092F8119015
:1032400010B90421C4F80411D4F8041101F58470F4
:1032500020440831C4F8A80FC4F8041109E0517AD9
:1032600002F10C0586F82811977992F807A092F8D8
:103270000A904FF0000B83F001030093414696F84B
:103280002931D4F8A80F3CF0B9FBD4F8042102F599
:10329000847222445FFA8BF34B4529D3A2EB0802D8
:1032A000012FC4F80421274C11D00F2F46D0002F36
:1032B00046D0254920683DF0F6FC3CF06CFC3CF023
:1032C0006BFC96F8C020214920683DF0ECFC0025FD
:1032D0001F4920683DF0E7FC3CF05DFC3CF05CFCE5
:1032E0001C4920683DF0DFFC284605B0BDE8F08FA2
:1032F000294611F8030BBAF10F0F00F0030002F199
:10330000010310D160F07F0010702278A8786D78EA
:1033100004EB020C01328CF801500BF1010B22700E
:103320000D181A46B6E71070AA781846039140F0B7
:1033300060FB0346AA7803991344E6E70125C7E733
:103340000225C5E70C370020CC0E05086F2F0508B5
:10335000130F05089F2F050873B504464DF008FBB1
:1033600005464CF023FE0C4E04F580540B49C4F87E
:10337000E00030683DF097FC3CF00DFC3CF00CFCAC
:103380000095D4F8E03094F8C020054930683DF04D
:103390008AFC02B070BD00BF0C370020130F050877
:1033A000B12F050838B500F580540546002194F882
:1033B0006E2094F8C0001EF0D1FA80B9154D164960
:1033C00028683DF070FC3CF0E6FB3CF0E5FB94F82F
:1033D000C020124928683DF066FC042038BD25282D
:1033E00015D105F587500B4D0C3001F0CFFC0A4983
:1033F00028683DF058FC3CF0CEFB3CF0CDFB94F847
:10340000C020074928683DF04EFC0220E6E709206D
:10341000E4E700BF0C370020130F0508EE2F050866
:1034200034300508F8B500F58054054694F86E1060
:1034300094F8C0001EF046FAD4F8C830254EBBB14F
:1034400005F58650083030F08BF9074680B12249E7
:1034500030683DF028FC3CF09EFB3CF09DFB3B4679
:1034600094F8C0201D4930683DF01DFC0120F8BDD6
:1034700041F244120021284640F0B0FA1849306861
:103480003DF011FC3CF087FB3CF086FB94F8C0203B
:10349000144930683DF007FCFF2384F8C0304FF03A
:1034A000FF33C4F8A8301723A4F8BA30B4F8A43016
:1034B00040F24A7203F0F00343F48673A4F8A43098
:1034C000002405F658002146C5F8544840F086FA15
:1034D0002046CCE70C370020CC0E05086A300508E2
:1034E000130F0508A43005082DE9F0430F46904658
:1034F00006468FB0B8B9B84CB84920683DF0D3FB48
:103500003CF049FB3CF048FBFF22B54920683DF008
:10351000CAFB222235213046FFF746F822252846ED
:103520000FB0BDE8F0830A2900F5805421D1AA4DDF
:1035300000F587500C3001F029FCA84928683DF0BF
:10354000B2FB3CF028FB3CF027FB94F8C020A549D7
:1035500028683DF0A8FB092384F826313046D8F8C6
:10356000042098F80010FFF71FF80025C7E0174661
:103570009846092F4FF0010540F0C180002194F8D2
:103580006E2094F8C0001EF0E9F9054690B9924DFE
:10359000954928683DF087FB3CF0FDFA3CF0FCFAC9
:1035A000286894F8C02091493DF07DFB082584F8F7
:1035B000265138E241F20C03984205D041F2120341
:1035C000984201D025281BD106F587500C3001F018
:1035D000DDFB3046FFF726FF0546002840F00A8352
:1035E0007D4E814930683DF05EFB3CF0D4FA3CF002
:1035F000D3FA94F8C0207E4930683DF054FBD6E7FA
:10360000DFF8D4817549D8F800003DF04CFB3CF060
:10361000C2FA3CF0C1FA2B4694F8C0207549D8F89C
:1036200000003DF040FB232384F826718DF82C30F8
:103630000C9586E0002F7FF472AF674D6A492868C9
:103640003DF031FB3CF0A7FA3CF0A6FA94F8C0201C
:10365000694928683DF027FB012384F82631E2E11F
:10366000012F7FF45CAF98F80030002B62D05A4FE6
:103670005D4938683DF017FB3CF08DFA3CF08CFA60
:1036800094F8C0205D4938683DF00DFB022294F8A3
:10369000A530A4F82621002B3FF469AF40F24A710F
:1036A00094F8C00006F658023BF0BCFF0546A0B1F6
:1036B0004A4938683DF0F7FA3CF06DFA3CF06CFA94
:1036C00094F8C0204E492B4638683DF0ECFA2A4663
:1036D0000F213046FEF768FF21E7434938683DF087
:1036E000E2FA3CF058FA3CF057FA94F8C020454909
:1036F00038683DF0D8FA4FF000080227012594F809
:103700002631082B3FF60BAF01A252F823F000BF81
:1037100035360008613600084937000811380008BE
:10372000913B0008E3390008713B0008873B000823
:10373000D73B0008092384F8263136230C978DF8EF
:103740002C300A210BAAE2E1022F7FF4E8AE94F8B4
:10375000C53043B9092384F826312C238DF82C3049
:1037600001230C93EDE7012194F86E2094F8C0003A
:103770001EF0F4F840BB009006F58750334640F643
:10378000B831214A0C3001F01FFB0546B8B9124E82
:10379000012194F8C00000F0B1FB134930683DF0FE
:1037A00082FA3CF0F8F93CF0F7F994F8C020174998
:1037B00030683DF078FA032384F82631AFE6092318
:1037C00084F82631212331E7092384F82631202388
:1037D0000C908DF82C30B4E70C370020CC0E050887
:1037E000C7300508FF300508130F05082B31050801
:1037F0005A3105088E310508C931050834300508ED
:1038000069190508F4310508E9F503082D320508A2
:10381000042F7FF484AED8F80030C54F5D88002DAA
:1038200060D14DF0A5F881464CF0C0FBD8F80030CF
:10383000C4F8DC00D3F80720BE49C6F8AC2FDA7A0A
:10384000386886F8B02F9A89A6F8B12FDA89A6F8D9
:10385000B32F1A8AA6F8B52F5B8AA6F8B73F3DF0BA
:1038600022FA3CF098F93CF097F994F8C020B2495C
:1038700038683DF018FAAF4938683DF014FA3CF06A
:103880008AF93CF089F9B6F8B73FAC490693B6F827
:10389000B53F0593B6F8B33F049396F8B03F039352
:1038A000B6F8B13F0293D6F8AC3FCDE90093D4F817
:1038B000DC3094F8C02038683DF0F5F99D4938684F
:1038C0003DF0F1F93CF067F93CF066F99C4994F859
:1038D000C02038683DF0E7F9294630463BF048FE05
:1038E000052369E7974938683DF0DDF93CF053F965
:1038F0003CF052F9D8F8003094F8C0205B88924927
:1039000038683DF0D0F994F827310133DBB2022B4F
:1039100084F827315BD88B4938683DF0C4F93CF016
:103920003AF93CF039F994F8C020884938683DF0FC
:10393000BAF994F89630099394F89530089394F86E
:103940006F30079394F97130069394F85B300593C8
:1039500094F868300493D4F87B300393D4F877302C
:103960000293B4F889300193B4F885300093B4F829
:103970008330B4F8872094F86E1094F8C0001DF0DE
:10398000B5FF054688B16F4938683DF08CF93CF0C9
:1039900002F93CF001F994F8C0206D492B463868D3
:1039A0003DF081F92A461E2193E6624938683DF0D0
:1039B0007AF93CF0F0F83CF0EFF894F8C020654953
:1039C00038683DF070F9022384F8263193E606F555
:1039D00087500C3001F0DAF9092384F826311F23CF
:1039E000BCE6082F63D198F80B50F5B9B4F88930CC
:1039F00043B13046FFF7D6FC092884F8260112D1DE
:103A0000242313E64A4D4B4928683DF04CF93CF01D
:103A1000C2F83CF0C1F8B8F8083094F8C0204E491C
:103A200028683DF040F9002579E598F80A30012B27
:103A30002AD13F4DB4F8897028683E4987B13DF0DE
:103A400032F93CF0A8F83CF0A7F894F8C0204349BC
:103A500028683DF028F9072384F8263101255EE522
:103A60003DF021F93CF097F83CF096F894F8C0202E
:103A70003B4928683DF017F905233946304684F85C
:103A800026313BF075FDCEE7022BE7D1284D2949C1
:103A900028683DF008F93CF07EF83CF07DF894F899
:103AA000C020304928683DF0FEF80623D5E5063FE2
:103AB000012F3FF634AD41463046FFF7A5FB0546E2
:103AC00000283FF40DAF1A4F012D3868194923D152
:103AD0003DF0E9F83CF05FF83CF05EF8B6F8A43F42
:103AE00094F8C020204938683DF0DDF80123082112
:103AF0008DF83730B6F8A43F8DF83650ADF8343035
:103B000006F584730B93D6F804310BAA0C93304658
:103B1000FFF7EAFC054602E53DF0C5F83CF03BF84E
:103B20003CF03AF8B6F8A43F94F8C0200F49DAE721
:103B30000C370020130F050872320508B032050853
:103B4000B9210508CC0E050870330508BF330508F8
:103B500038210508343005080634050859340508AD
:103B6000A0340508E33405082B3505085F35050842
:103B7000082F7FF4D4AC0122414630460FB0BDE897
:103B8000F04300F063B8082F7FF4C9AC0022F3E7DC
:103B9000042F7FF4C4ACD8F800301B79002B7FF4DD
:103BA00042AF3046FFF7D8FBD8F80030224D5B8893
:103BB00033BB06F587500C3001F0E8F81F49286840
:103BC0003DF071F83BF0E7FF3BF0E6FF94F8C020D2
:103BD0001B492868F5E6042F7FF4A1ACD8F8003023
:103BE0001A79002A7FF41FAF5B8843B93046FFF78C
:103BF000B3FBEEE4092384F82631382316E50E4D95
:103C0000104928683DF04FF83BF0C5FF3BF0C4FF7A
:103C1000D8F8003094F8C0205B880B4928683DF044
:103C200042F8092384F8263123238DF82C30D8F864
:103C300000305B8895E500BF0C370020130F0508A6
:103C400034300508CC0E0508943505082DE9F043FD
:103C5000CE7A04460F46914687B000F5805566B38C
:103C6000B5F88930A3B1FFF79DFB092885F8260137
:103C700021D124238DF80C30002304930A212046FF
:103C800003AAFFF731FC0646304607B0BDE8F083D3
:103C90005B4E5C4930683DF006F83BF07CFF3BF042
:103CA0007BFFB4F8A43F584900933B8995F8C020A6
:103CB00030683CF0F8FF0026E6E70A89B0F8A43F38
:103CC0009A421ED0B5F8893053B1FFF76BFB092833
:103CD00085F82601EFD1242304968DF80C30CDE72A
:103CE000474E484930683CF0DEFF3BF054FF3BF064
:103CF00053FFB4F8A43F454900933B8995F8C02091
:103D0000D6E700F587500C3001F040F858B1092390
:103D100085F82631222304900A21204603AA8DF833
:103D20000C30FFF7E1FBDFF8D880B5F88930D8F820
:103D300000003449A3B33CF0B6FF3BF02CFF3BF04E
:103D40002BFF95F8C0203249D8F800003CF0ABFFBB
:103D500002210022204685F82611FFF7C5FBBB7A19
:103D60000646022B0AD1B9F1000F07D02046FEF714
:103D70007FFE002120463BF0FBFB85E72149D8F878
:103D800000003CF090FF3BF006FF3BF005FF3B8955
:103D900095F8C0201F49D8F800003CF084FFE8E700
:103DA0003CF081FF3BF0F7FE3BF0F6FE95F8C020BB
:103DB0001949D8F800003CF076FF052385F8263134
:103DC000BB7A022B0AD1B9F1000F07D02046FEF7CB
:103DD0004FFE002120463BF0CBFB6CE70949D8F8A9
:103DE00000003CF060FF3BF0D6FE3BF0D5FE3B8987
:103DF00095F8C0200749D8F800003CF054FFE8E7E8
:103E00000C370020130F0508E23505083736050882
:103E1000343005088B360508B921050808B5074B6D
:103E20004FF44672002118463FF0D8FDFF228276FB
:103E300080F8222180F82A2208BD00BFA80D0020AA
:103E40000B4B9A7E82420DD093F8222182420BD0F6
:103E500093F82A22824209D102224FF4847101FB95
:103E6000023070470022F8E70122F6E70020704791
:103E7000A80D0020FF282DE9F04107460E46904688
:103E800032D099B3A2F11703E32B31D84FF6FF7369
:103E90000C889C422CD08A889A4229D0CA889A429F
:103EA00026D00A899A4223D0FF20FFF7C9FF054692
:103EB00000B32146384617F09FFE044688B94FF4F8
:103EC0008472014628463FF089FD0B4BAF761A6895
:103ED0009B88C5F806206B8101236E61A5F81880C8
:103EE0002B702046BDE8F0812524FAE72224F8E76C
:103EF0002124F6E71924F4E7B9360508FF2837B579
:103F00000C4625D0FFF79CFF054618B34CB99830F6
:103F100000F03CFF05F1600000F038FF204603B0E0
:103F200030BD0378052B03D0082B0AD00220F6E71A
:103F3000002341F28831084A0093983000F044FF92
:103F4000EDE7002341F28831044A00936030F5E741
:103F50002520E4E72D20E2E7DDF8030897F80308C1
:103F6000174B984207D003F13802904203D003F177
:103F7000700290420AD1002300E001234FF48472C2
:103F8000104802FB030070470223F7E703F5847231
:103F90009042F2D003F5A0729042EED003F5BC72CD
:103FA0009042EAD003F504729042EDD003F512720C
:103FB0009042E9D003F520739842E5D00020704785
:103FC000080E0020A80D002013B590F82A00FFF776
:103FD00037FF68B100F16004204600F0D7FE0023EF
:103FE0004FF47A71009320460123024A00F0ECFE60
:103FF00002B010BD97F8030870B5054600F07CFBD1
:104000000646284600F064F92B68A94A23F47F434A
:10401000064023F0070386F001069342F6B200F053
:10402000B2800BD802F17A42934200F0A08002F5F0
:104030007D02934220D086F0010070BD9D4A9342DC
:10404000F9D12879FFF7FCFE04460028F3D0EB797C
:104050000B2B3DD14269B5F805301188994221D129
:104060006B89042B06D10378012B03D1EA6880F811
:104070002030C261012321E0A879FFF7E1FE044668
:104080000028D8D0D03000F081FE04F1600000F0AC
:104090007DFE04F1980000F079FE00232370FF23D9
:1040A000A376C8E7D18899420AD1AD89983000F04B
:1040B0006DFE2946A07E3BF0ECFB00231E43BAE7D1
:1040C00012899A42F9D1A989807E3BF0E3FBF4E79B
:1040D0001B2B01D01D2BAED16169B5F80520488995
:1040E0009042C7D048889042C4D0C888904202D03D
:1040F00009899142E1D11D2B02D1A07E17F06CFD00
:104100006B89022BB6D16269B5F80530D1888B4234
:1041100008D012899A420ED0AD892946A07E3BF084
:10412000B9FBA7E7E8791D2817D1E07B0228A1D1C8
:1041300012899A4205D1EA791D2A13D1227C022ADA
:1041400098D18B42AD89E8D104F1980000F01EFEB1
:104150002946A07E3BF09DFB8CE71B28E8D1E07B45
:104160000128E4E71B2AECD1227C012AE8E7287920
:10417000FFF766FE00283FF45EAF6B79AA7943EA49
:104180000223038357E72879FFF75AFE04460028E5
:104190003FF451AFB5F80520037862B3092B8CD8F2
:1041A000012101FA03F010F4127F0AD110F09000FF
:1041B0001BD18B4281D12070E169A07EFDF71CFBF1
:1041C00058E7002384F82230A384A378052B05D177
:1041D00002212370A07EFDF7AFFB4BE7012B7FF49C
:1041E00049AF082303212370F4E70223A07E237044
:1041F000FDF7A2FB61E7013B082B3FF65EAF01A292
:1042000052F823F029420008BB400008574200083A
:104210008F420008BB40000875420008BF420008FA
:10422000BB4000084542000894F82030807EE169D8
:104230002BB1022300222370FDF7DEFA3DE70122B5
:104240002370F9E78378827C03441A7302230022E7
:1042500003700121BEE78378827C03441A7340F225
:104260000253438020463BF0D3F9024620BB04238F
:104270002370FFE68378827C03441A7340F20113B3
:1042800043803BF0C5F90246B0B90723F0E78378D5
:10429000817CC2181173C2789A4205D1002205238D
:1042A00080F82220828493E701338370DAE700BF2D
:1042B000A0000906A000090702232370C9E783783C
:1042C000827C03441A73002280F82220828488E7CB
:1042D000F0B50368954A23F47F4323F00703934224
:1042E000054691B004D0002080F0010011B0F0BD6F
:1042F0000079FFF7A5FD04460028F4D0EB791D2BCB
:10430000F1D14369B5F805209B889A42EBD16B89BE
:10431000012B04D8A07E17F05FFC0120E4E72A7B84
:10432000012A4CD0022A00F08F80002AF2D1032B00
:10433000F0D10378B5F80D50052BEBD190F8223071
:10434000002BE7D090F82170002FE3D1838CAB4293
:10435000E0D1D03000F01AFD04F1280604F160002D
:1043600000F014FD304600F0A5F9304684F82270C4
:104370000AA93BF01DFB034600B90A9BDDF8392072
:10438000DDF83510A07ECDE908129DF834200792A3
:104390009DF833200692DDF82F2005929DF82E20FF
:1043A00004929DF82D2003929DF82C20CDE9015216
:1043B0000122009200220021FDF768FBAAE7052BED
:1043C000A8D10378052BA5D190F82230002BA1D0DD
:1043D00090F82130022B9DD1B5F80D20838C9A42A4
:1043E00098D1D03000F0D2FC04F1280604F160002E
:1043F00000F0CCFC304600F05DF90023304684F834
:1044000022300AA93BF0D4FA034600B90A9BDDF832
:104410003920DDF83510A07ECDE908129DF8342052
:1044200007929DF833200692DDF82F2005929DF823
:104430002E2004922A7C0392EA7B0292B5F80D208A
:10444000019201220092B6E7022B7FF463AF90F84D
:1044500022306D7B002B3FF45DAFD03000F096FC36
:1044600094F82330BBB1012D06D104F1600000F0B7
:104470008DFC002384F822300026A07E32462B4695
:10448000032184F823603BF087FA2A463146A07E58
:104490003BF084FA3EE7002394F8211084F82230A0
:1044A000012901D0042904D12B460022A07E3BF033
:1044B00073FA94F82130012B31D013F0FD0F7FF403
:1044C00029AF04F12806304600F0F4F830460AA976
:1044D0003BF06EFA034600B90A9BDDF83910DDF8AF
:1044E000356094F82120A07ECDE908619DF8341054
:1044F00007919DF833100691DDF82F1005919DF876
:104500002E1004919DF82D1003919DF82C1002910E
:10451000A18CCDE90051911E4A424A414BE72A46FF
:104520000021A07E3BF039FAF4E600BFA0000907A5
:1045300038B5002405464CF01FF9074B1B681BB922
:104540004CF015F9204638BD93F82A20AA4208BF3E
:104550001C461B68F3E700BF083700202DE97043B5
:10456000044616460D46037B86B023F0180343F03D
:1045700010038161037301460D483BF000FBD4E951
:104580000489217BCDE90489227981F00403C1F3F8
:10459000400101910292226B294600922046324648
:1045A000C3F380033BF0C8F906B0BDE8708300BFD9
:1045B000083700202DE9F0410C4690461E4605467E
:1045C00086B000286FD000296DD04B68002B6AD0D0
:1045D000002A68D08B7BFF2B67D00A7C4FF6FF73D5
:1045E000002A52D0B8F802209A425ED02368002BED
:1045F00057D0A389173B9BB2E32B52D84CF0BCF8A1
:1046000007462B4B1B68002B42D1A07BFFF790FF86
:1046100000283FD101AB04F1100C1A4620686168F4
:10462000083403C264451346F7D1206800211060A6
:10463000382228463FF0D2F901AC05F11C030DF1F8
:10464000140C224603CA624518605960144603F1EF
:104650000803F6D1106818609DF8303085F82460A2
:10466000EB842B7BC5F8348043F008032B73AE80BA
:104670000EB1731E9EB229460D48EE803BF070FAD3
:1046800038464CF074F8002008E0B8F80A20ABE790
:104690009D42B7D138464CF06AF82E2006B0BDE8EE
:1046A000F0812120FAE72220F8E72520F6E700BF75
:1046B0000837002070B50546C8B14CF05DF80646D5
:1046C0000C4B1B682BB92D2430464CF050F820467B
:1046D00070BD9D42F5D12C7B14F0100405D106224B
:1046E00001212846FFF73AFFEEE70224ECE72224F7
:1046F000EDE700BF083700200368764A23F47F43C4
:1047000023F0070393422DE9F04705461BD002F141
:10471000C06202F5403293421BD002F179429342CB
:104720000CD10079FFF704FF40B1B5F80520038DE7
:104730009A4203D013220221FFF710FF002080F0DD
:104740000100BDE8F0878079FFF7F2FE0028F1D183
:10475000F4E7C3791D2B01D01B2BEFD12879FFF78C
:10476000E7FE04460028E9D090F82B20EB79F2B957
:104770001D2BE3D094F82C00B5F80520616BC0B177
:1047800049889142DAD11D2B02D1287917F024FAF9
:104790006A89D2B2012A03D9208DC31E93420AD25C
:1047A0002B2202212046FFF7D9FE0120C7E71B2B51
:1047B000DFE74989E5E7297B94F824C0CF074FEA72
:1047C000910301F002061BD5A380237B43F0010374
:1047D0002373A38826B1217B238141F00201217339
:1047E0009C4564D8E18CFF2901D099425FD30438FD
:1047F0005843E169013A83188B4251D91D22D0E711
:10480000277BF9071BD4E6464FF0010947F0010763
:104810002773A3805FFA8EF1994203D361890B4419
:104820006381D6E709FA0EF8D4E9047147EA08076C
:1048300041EAE871C4E904710EF1010EEAE7B4F847
:1048400006E0A3EB0E0101F03F0101390EF1010971
:104850005FFA81F859FA81F189B23F2984BF47F0A4
:1048600004072773A180217B490705D44FF0010A73
:10487000013BDBB29E4501D34346CFE763450CD3F2
:10488000E18C994209D3D4E904710AFA03F947EAA1
:10489000090741EAE971C4E90471013BDBB2E9E7C8
:1048A0002363236A05F10D0118443FF0A2F8204666
:1048B000A188FFF789FBA288E38CE2809A4205D0A9
:1048C000002E3FF472AFFF2B7FF46FAF0022114632
:1048D00068E700BFA0000601092838B504460FD9D3
:1048E000084D094928683CF0DEF93BF054F93BF0EB
:1048F00053F92246054928683CF0D5F9002038BD17
:104900000420FCE70C370020CC0E0508BF36050854
:104910002DE9F341044690F8028008460D461746FB
:104920001E46FFF7D9FF4044013080281DD9284E8C
:10493000284930683CF0B7F93BF02DF93BF02CF9F1
:1049400028463668A478FFF7C7FF01340319802290
:104950001C243046CDE900241F492A46DBB23CF036
:10496000A2F9204602B0BDE8F0816378AB4212D9CB
:104970002626174F174938683CF095F93BF00BF99C
:104980003BF00AF900962A466378144938683CF0EF
:104990008AF93046E6E7A3782846F554A378013330
:1049A0001E44FFF799FF3946024630463FF021F892
:1049B00028466570FFF790FFA378013318442378E9
:1049C000C0B20133A070E07023700020CAE700BFBE
:1049D0000C370020CC0E0508DA36050843370508E9
:1049E000F8B50C460F4D104F8E18B44201D100207F
:1049F00014E0296814F8013B7B540A2B01F10101F2
:104A0000296001D0F729F0D13846FCF729FA30B1F6
:104A10002B68834203D0012331202B60F8BD012392
:104A20002B60E2E7B89A0020509E00202DE9F04765
:104A3000534E96B0354609AC0FCD0FC42B6806F126
:104A4000140523600EAC0FCD0FC495E80F00DFF8FE
:104A5000488184E80F004B484BF099FE40464BF0EC
:104A600096FE4FF48073484FADF83C30474B3846C4
:104A70000B9309A90EAB0D9303F0BAFE0421022596
:104A8000B6F834A00DEB01000122ADF804A03BF014
:104A900056F9B6F836900022012102A8ADF8089028
:104AA0003BF04DF9368F0122042103A8ADF80C60CC
:104AB0003BF045F90122042104A8354CADF8105013
:104AC0003BF03DF9334B4FF44870C4F8C8344FF015
:104AD0000213C4F8C43403F58033C4F8CC341C2367
:104AE000C4F8B43405F076FE08A8ADF8205000F004
:104AF0006FFB142005F06EFE08A8ADF8205000F002
:104B000057FB232005F066FE08A8ADF8205000F002
:104B10005FFBB92138463BF093FF08A8ADF8205061
:104B200000F046FB002205A81146ADF814A03BF0AA
:104B300006F9002206A81146ADF818903BF0FFF8E0
:104B40000122002107A8ADF81C603BF0F8F8012213
:104B5000002108A8ADF820503BF0F1F8384603F0EA
:104B600081FC00234046C4F8B434C4F8C834C4F807
:104B7000C434C4F8CC344BF00DFE16B0BDE8F08759
:104B8000A0370508243A050800000A50E0707200BA
:104B900000C0035002000100283A050808B5044887
:104BA0004BF0F5FD3EF0CEFDBDE80840FFF73EBFFF
:104BB000243A050801484BF0EABD00BF243A050835
:104BC0000348044A0449121A92103AF0B5BF00BFD4
:104BD0008001000840030008E098002008B5154B4C
:104BE00083F30A8800F030F8FFF7EAFF124B13490D
:104BF0008B4212D30020124B12498B4218D3FCF780
:104C0000ADF8186850F82240586840F82240013248
:104C100098688242F5D30C33EAE70022F8E71C6873
:104C200044F8220001325C68A242F8D30833E4E77A
:104C30000022F8E70000002024C5050830C505085B
:104C400030C5050830C505084FF48041124B134AA2
:104C500070B59A60D3F88820114D42F47002C3F801
:104C60008820104A05F5005491664FF0FF32226605
:104C70000D4A62660222C3F8D020BFF34F8FBFF304
:104C80006F8F4FF44036002004F022FD0020E660D4
:104C900004F002FD2E6170BD00ED00E00000000890
:104CA0000080004400900050F7FF3700014B18606F
:104CB000704700BFC09A0020054B1860054B1B6F62
:104CC00003F00703032B01D14AF0D0BA704700BFAD
:104CD000C89A00200080005018B1034B18600020D3
:104CE00070472220704700BF0C37002008B504F041
:104CF00009FD014B186008BD0C370020024B034929
:104D000018683BF0D0BF00BF0C370020DA37050829
:104D100070B50C4C0C49064620683BF0C4FF04F00B
:104D2000F1FC0546206804F0E1FC3046FFF7E6FFA1
:104D3000284604F0DBFC20680449BDE870403BF0E5
:104D4000B2BF00BF0C370020DC370508DE3705088E
:104D500038B505464BF010FD00230B4A14685CB1D2
:104D6000AC4206D1A96A6BB199624BF000FD0120FB
:104D700007E02346A46AF2E7002DF3D04BF0F7FCDE
:104D8000204638BD1160F0E71037002010B504460A
:104D9000B0B14BF04FF82046FFF7DAFF10B194F8AE
:104DA0002C300BB9002010BD064C2368002BF9D025
:104DB0004BF0E2FC2368013B23604BF0D8FCF1E7A9
:104DC0002220F0E7143700202DE9F04385B0054696
:104DD000914698460E469DF8307009B9002F5CD177
:104DE0002846FFF7D3FF0446002836D185F82C006B
:104DF000686305F081FC864233D94BF0B3F8214655
:104E0000844640F2E7304FF47A720023E6FB0C014F
:104E100009F07AFF4FF0FF32002309F075FF2B46AF
:104E2000E88611462846CDE900441D4A4BF07BFD3B
:104E3000044690B9C5E9089885F82D702E634BF0AB
:104E40009BFC184A136833B31A469B6A002BFBD1AC
:104E500095620023AB624BF08AFC204605B0BDE8AA
:104E6000F08347B12B4631462846CDE900440C4A31
:104E70004BF0FCF8DCE7304603A94BF079F8044628
:104E80000028EAD12B462846CDE90077044A039949
:104E90004BF025FDCCE71560DBE72124DDE700BF03
:104EA000A94E00081037002091F82C3013B50C469D
:104EB00083B98B8ECA8E93420ED243B9CDE90033AB
:104EC00020460B46124A4FF0FF314BF0ECFCA38E0C
:104ED0000133A38602B010BD52B191F82D3093B1C9
:104EE00001230093D1E908232046096BFFF76CFFEB
:104EF000012384F82C30074B1A6801321EBF1A6850
:104F000001321A60E6E708464AF094FFF0E700BF76
:104F1000A94E0008143700202DE9F041154E3368E2
:104F200033B34FF00008144F4BF026FC05463C68A5
:104F300024B92846BDE8F0414BF019BC94F82C3058
:104F4000A3B1336884F82C8013B13368013B33601C
:104F500094F82D3013B92046FFF7FAFE28464BF09F
:104F600006FCD4E9083120469847DDE7A46ADFE76C
:104F7000BDE8F0811437002010370020034B1B6878
:104F8000002B14BF04200120704700BF14370020FD
:104F9000024B1868B0FA80F04009704714370020BF
:104FA00030B5056887B0AB8804461848ADF80C30BA
:104FB0004BF0EDFB0022012103A83AF0C0FE0DF1F9
:104FC0000B0103A83AF0E9FE9DF80B3083F00103D2
:104FD0002B70AB79022B15D14FF0FF330022CDE9B6
:104FE000043304A90A4B009403A800F067F9049B5A
:104FF000009401330CBF04220122054B05A903A82C
:1050000000F0F6F8002007B030BD00BF243A0508D4
:1050100055FC0308002307B5294801934BF0B7FB63
:105020004FF44073012204216846ADF800303AF095
:1050300086FE0122234B0520C3F8442401A94BF02E
:10504000A1FB002839D1204BD3F8F02042F0010217
:10505000C3F8F020D3F8FC2042F08072C3F8FC20A3
:105060001A4AA3F55D431A60019B194A03F5D5233B
:1050700003F2FC43B3FBF2F3164A013B1361022334
:10508000C2F8F0304FF48073C2F804334FF060433D
:10509000114AC3F8B02F114AC3F8802ED3F8002E5E
:1050A00042F48072C3F8002EFF2283F82020D3F848
:1050B000002E22F48072C3F8002E03B05DF804FBCA
:1050C000243A050800D0035000ED00E0FF03004043
:1050D000F8590D00000004E055CEACC509000100F0
:1050E0004FF06043D3F8802E30B5D20715D5012498
:1050F0000B4D8440D5F8FC2042F08072C5F8FC20AE
:10510000D3F8002E2243C3F8002E53F82020002AA3
:10511000F0D003F82010002030BD1120FCE700BFC4
:1051200000ED00E0F8B504460127124D0CB314F071
:1051300001000BD0002024F0010405EBC00216682A
:10514000002EF3D05168C0B2B047EFE722460130DD
:1051500020284FEA520201D0D307F8D507FA00F20F
:105160000F2824EA0204E8D9421E05EBC2021038D7
:10517000E5E7F8BD1837002008B50C484BF007FBF1
:10518000192004F097FA28B1192004F0A1FA192087
:1051900004F082FA1A2004F08DFA28B11A2004F0E3
:1051A00097FA1A2004F078FA002008BD243A05087E
:1051B00048B10122437801789A4030235943034B88
:1051C00000205A5070472220704700BF40D0035043
:1051D00048B10122437801789A4030235943034B68
:1051E00000205A5070472220704700BF40E0035013
:1051F0002DE9F0410D4690461F460446002837D061
:10520000002935D04BF0B8FA23780646FF2B05D09D
:1052100042462046296803F003FE28602B680133CC
:1052200009D12378FF2B06D1124B6078D3F82414D0
:105230003BF09EFC28602A68531C13D00E49069B45
:1052400041F8327001EBC2014B602378FF2B04D090
:1052500001239340094AC2F8243430464BF087FAC0
:10526000002003E030464BF082FA2D20BDE8F081AB
:105270002220FBE700C003501837002000D0035065
:105280000F2838B5054613D84BF076FA01230024D1
:10529000084AAB40C2F82034C2F82434064B43F825
:1052A000354003EBC5035C604BF061FA204638BD26
:1052B0002120FCE700E00350183700202DE9F041E1
:1052C0000D4690461F46044660B359B34BF054FA5E
:1052D00023780646FF2B05D042462046296803F076
:1052E00025FE28602A68531C16D00F4902F10F03CF
:1052F00041F8337001EBC301069B4B602378FF2B11
:1053000005D0012310329340084AC2F824343046B5
:105310004BF02DFA002003E030464BF028FA2D2008
:10532000BDE8F0812220FBE71837002000D00350B1
:1053300008B503F015FD054B00F0553020F0502066
:10534000C3F82004BDE80840FFF7ECBE00E00350BE
:1053500008B503F005FD054B00F0AA3020F0A020B1
:10536000C3F82004BDE80840FFF7DCBE00E00350AE
:1053700013B504460A484BF00AFAA2780421B2FA9F
:1053800082F2237852098DF8043063780DEB010026
:105390008DF805303AF0D3FC002002B010BD00BFFC
:1053A000243A05082DE9F04F9A46564B85B01B78F4
:1053B00006460F461546DDF83C909DF844B0DDF8F2
:1053C0005080002B00F09780072A00F296800E9BF9
:1053D000002B00F09280B9F1000F00F08E80129B3C
:1053E000B3F5006F00F38980012803D1109B002BD7
:1053F00000F08380444B03EB05131B7B002B7ED016
:10540000424C1022002168463EF0E8FA04EB4514B5
:105410001022A7BB394620463EF0E0FA43F21003C3
:105420006380BBF1000F03D1E37843F00303E37023
:10543000364A0E9B02EB451CCCE90193129B690195
:10544000581E9DF84C30C0F30A0003F003039B067E
:1054500043EA001E53582E48012E00EA03004EEA8C
:105460000003CDF800A0535017D0B8F1000F2ED193
:105470009CF8023068F304138CF8023027E0002116
:1054800020463EF0ABFA4FF444736380BBF1000F4B
:10549000CED1E37843F03003C9E713230CF1100EAB
:1054A000CCF80C309CE80F008EE80F006FF0030181
:1054B000DCF81C20109B61F39F02012FCCF81C200C
:1054C000CCF8143003D1CCF81890CCF80430002775
:1054D0000D4A290102EB051342F80180159A28466E
:1054E0005A60694622469F605E7303F0D5FA3846DB
:1054F00005B0BDE8F08F0748FAE70748F8E7074826
:10550000F6E700BF20970020083900200838002067
:105510000F80FFF3028000F0018000F0078000F0B0
:1055200038B5124B05461B78DBB1E0B14BF024F9DE
:105530000F4A00231146147B54B92B6001251A0130
:1055400001EB03131D738C504BF011F9204638BD4D
:105550000133082B02F11002EDD14BF008F9054898
:10556000F5E70548F3E70548F1E700BF209700207D
:1055700008390020048000F0028000F0018000F073
:1055800038B54BF0F9F8002305460B4A147B6CB98B
:105590000133082B02F11002F8D103F029FA074B6E
:1055A00028461C704BF0E3F8204603E028464BF0F9
:1055B000DEF8034838BD00BF0839002020970020DE
:1055C000058000F00D4B10B51B78044693B10728F9
:1055D00012D84BF0D1F80A4B03EB04131A7B2AB113
:1055E00000241C734BF0C3F8204610BD4BF0BFF8ED
:1055F0000448FAE70448F8E70448F6E72097002053
:1056000008390020068000F0028000F0018000F0E0
:10561000154B13B51868002301908DF804304BF03A
:10562000ABF8124B1C7824B14BF0A1F8104802B033
:1056300010BD01221A704BF09AF80E4B01A81C7392
:105640001C7783F82C4083F83C4083F84C4083F867
:105650005C4083F86C4083F87C4008238DF8073069
:1056600003F0EAF92046E2E7E13705082097002039
:10567000038000F008390020F8B50D4D2D7885B174
:10568000072810DC0B4D060105EB0014277B67B1E2
:10569000AB510025069BA560636003F0FDF9284629
:1056A000F8BD0548FCE70548FAE70548F8E700BFFC
:1056B0002097002008390020028000F0018000F0CF
:1056C000078000F00A4A08B512785AB107280BD8AB
:1056D000084A02EB00131B7B43B1002103F09EF943
:1056E000002008BD0448FCE70448FAE70448F8E74E
:1056F0002097002008390020028000F0018000F08F
:10570000078000F00A4A08B512785AB107280BD86A
:10571000084A02EB00131B7B43B1012103F07EF921
:10572000002008BD0448FCE70448FAE70448F8E70D
:105730002097002008390020028000F0018000F04E
:10574000078000F0184B2DE9F0411F6D5B6D1F4085
:1057500000D5FEE701260025144CDFF858803742BB
:1057600018D02368C8F85060A3B1A1682846013159
:105770006268A1609847637B012B0BD150B90C4B39
:1057800003EB45131A7B60F341021A731A7F60F32F
:1057900041021A770135082D4FEA460604F110043C
:1057A000DDD1BDE8F08100BF0000045008390020C1
:1057B00008380020002004502DE9F04F144605461B
:1057C0000E469B46C36B87B001225B6902A96068E5
:1057D0009847EB6B01225B6903A93046984702A802
:1057E0003AF0BDFF074648B10023A37563754FF03B
:1057F000FF33A360002007B0BDE8F08F03A83AF0A4
:10580000BBFF0123A375237E04EBC303DE611F846A
:105810006368B3420ED1206003A83AF0CFFF4FF087
:10582000FF332075A360237D043B022B26D8002381
:10583000A375DFE723681A1A53425341A37503A8DF
:105840003AF0BCFF237D834218BFA77503A83AF046
:1058500097FF074602A83AF093FF874218BF00233C
:1058600003A818BFA3753AF093FF074602A83AF0C1
:105870008FFF87421CBF0023A375D4E703A83AF02B
:105880007FFF80B1EB6B022230465B6904A9984729
:1058900004A83AF084FF0346207D032839D8DFE8C6
:1058A00000F03838040903A8F3E7CC22237E04EB88
:1058B000C3031A8401F0B8FA109B187003A8277E5E
:1058C0003AF052FF04EBC70787F82200237E03A8B3
:1058D00004EBC303B3F8209093F822703AF050FF22
:1058E000804603A83AF054FF8246B8F1000F15D065
:1058F000EB6B022230465B6904A9984704A83AF092
:1059000013FF6075637D6BB90023A3754FF000082A
:1059100038E0227E04EBC2021384CBE703A83AF0FE
:10592000EEFEEEE794F81680B8F1000FEED0B9F174
:10593000000F09D1DFB10123E375637E002B4FD146
:10594000012F42D1677614E06B6C06EB0A025942D4
:1059500086EA020008421CBF0021A175591E0A40B8
:105960009B1A9945D0D8A37D002BE3D1CEE7E37DE8
:1059700043B94FF000084B465246314628463AF0AC
:105980002CFCA060A27D12B123694B4423611A490B
:10599000237E097899422AD901332376BBF1000F7F
:1059A00027D032B3E37D23B3B8F1000F21D1032F09
:1059B0001FD0A1684B1C1CD0109B22460093284688
:1059C0000123FFF7F9FEA07513E095F8343063B9B1
:1059D000EB6A0133CFD1032FCDD10123A376C8E7E2
:1059E000012FCFD0032FC4D1F7E79846C3E7002398
:1059F000A375A07DFFE600BF083805082DE9F04F2C
:105A00000E46984600238BB004464FF0FF311046F7
:105A100017468DF8133001F0F1F9B6F5801F3BD32E
:105A2000B21C53D1E56A6B1C57D12046616A3AF02B
:105A30001AFB0546B31C18BF0123DFF81091019330
:105A4000636A626C0293236805A902FB053AE36B63
:105A500005225B695046984705A83AF01BFF3AF0CB
:105A60003EFF50463AF046FF4FF0000B824601469B
:105A70004B1C05D0636C81EA0A025B42134232D0B0
:105A8000294620463AF0EFFA029BAB424DD0BBF1DB
:105A9000000F4DD10546D3E7314605AA04F10800B1
:105AA0003AF0ABFD0146481C10D0384601F0A6F98B
:105AB0000122394620460DF113033AF0E0FB28B1EC
:105AC0009DF8133088F80030002003E0237C002B81
:105AD000A8D12D200BB0BDE8F08F2368ED1A636CC0
:105AE000B5FBF3F5A6E7484601F088F90DF113037D
