S02B00002F55736572732F6368656E6771692F53696D706C696369747953747564696F2F76365F776F726B7347
S31508000000A80D00204D580008AB2D0408AB2D040898
S31508000010BD490408AB2D0408AB2D0408AB2D040814
S31508000020AB2D0408AB2D0408AB2D0408AB2D040832
S31508000030AB2D0408AB2D040809270408AB2D0408CA
S31508000040AB2D0408AB2D0408AB2D0408AB2D040812
S31508000050AB2D0408AB2D0408AB2D0408AB2D040802
S31508000060AB2D0408AB2D0408AB2D0408B10001081C
S315080000705F6A0408AB2D0408AB2D0408AB2D0408F1
S31508000080AB2D0408AB2D0408AB2D0408AB2D0408D2
S31508000090AB2D0408B5630008AB2D0408AB2D040886
S315080000A0AB2D0408C15F0008A15F0008AB2D04084A
S315080000B0AB2D040805E20208D9EA02087B1B0508ED
S315080000C0771B05084DE20208911B05087F1B0508EA
S315080000D0A9EA0208831B050819EB020881EB020846
S315080000E0AB2D0408AB2D0408AB2D0408AB2D040872
S315080000F09F3E0408AB2D0408AB2D0408AB2D04085D
S31508000100AB2D0408AB2D0408AB2D0408AB2D040851
S31508000110AB2D0408AB2D0408AB2D0408AB2D040841
S31508000120AB2D0408AB2D0408AB2D0408AB2D040831
S31508000130AB2D0408AB2D0408AB2D0408AB2D040821
S31508000140AB2D0408AB2D0408AB2D0408E9400508BF
S3150800015019CC0208AB2D0408651B05086B1B05089E
S31508000160AB2D0408AB2D0408AB2D0408AB2D0408F1
S31508000180F0B5114A114C124E00F00105E3695F07FC
S3150800019013D40DB9334213D103EA00078F4207D1AE
S315080001A00B4A1A40002A0CBF00206FF00100F0BD70
S315080001B0013AEBD16FF00200F9E74FF0FF30F6E7AE
S315080001C06FF00100F3E700BF809698000000035027
S315080001D0020001000B4B70B5D96911F480310DD1BD
S315080001E001244FF48072084E084DF46020462C64B2
S315080001F01A61FFF7C5FF3464EC6070BD6FF001004B
S31508000200FBE700BF00000350001003500020035016
S315080002104FF4803238B50E4B0E4C9A66E56941F6B6
S31508000220713315400122E3630B4B0021DA60022388
S31508000230606121202361FFF7A3FF10B92120FFF792
S315080002409FFF0122054BDA600DB10023E36338BD39
S315080002500090005000000350001003500020035087
S3150800026070B5134C6061E3695B071ED40E4656F8F9
S31508000270043B8D18A361AE420BD104230021212033
S315080002802361FFF77DFF58B9BDE870402120FFF7CD
S3150800029077BF08210846FFF773FF10B104232361CF
S315080002A070BD56F8043BA361E5E74FF0FF30F7E76A
S315080002B0000003502DE9F84315464FF48032184BD9
S315080002C089469A6603F51C33DF690646174041F6E8
S315080002D07132DA63012203F58053DFF84C80DA6065
S315080002E055B9284601220F4BDA601FB10022A3F543
S315080002F00053DA63BDE8F88306F5005404EA0804F7
S31508000300A41BAC4228BF2C46494622463046FFF776
S31508000310A7FF0028E6D12644A1442D1BE0E700BF2D
S31508000320009000500020035000E0FFFF000000008E
S3150800033000000000000000000000000000000000AF
S31508000340013800D0FCE770472DE9F04F93B0CDE9AE
S315080003500A32DDE91C530E9353EC102BCDE9080144
S31508000360104619468DED060B1E9E10F051FE80B103
S31508000370DDE906014FF0FF32C54B10F071FE40B9BA
S31508000380DDE906014FF0FF326FF4801310F04AFEE4
S3150800039070B1DDE908019DED060B0E9B1E96CDE9B1
S315080003A01C53DDE90A3213B0BDE8F04F00F088B9F6
S315080003B00022DDE90601002310F034FE002800F0D3
S315080003C03381DDE906A303F1004BCBF30A5016F49B
S315080003D08063A0F2FF3008BF06250F9310F046FB96
S315080003E09BA3D3E9002310F0ABFB9BA3D3E900231F
S315080003F010F0F0F9CBF31304894644F07F51804698
S315080004000022A44B504641F4401110F0E1F994A3A0
S31508000410D3E9002310F094FB02460B4640464946B2
S3150800042010F0D8F910F026FE044610F01FFB8EA334
S31508000430D3E900238046894610F082FB0022964BBA
S3150800044010F0C8F910F016FE89A3D3E90023074671
S315080004504946404610F074FB80463846894610F0F7
S3150800046005FB85A3D3E9002310F06AFB02460B4679
S315080004704046494610F0ACF902460B46CDE90C2336
S3150800048010F05EFBDDE90C238046894610461946C6
S3150800049010F0A0F90022CDE91001804B40464946EC
S315080004A010F078FC00227E4B10F094F902460B46B9
S315080004B04046494610F06EFC00227A4B10F08AF945
S315080004C002460B464046494610F064FCDDE90C231B
S315080004D08046894600204FF0804110F079F902469F
S315080004E00B464046494610F075F902460B46DDE9CB
S315080004F0100110F04FFC07F2FF3700226A4B10F08C
S3150800050069F900223B0510F01BFB52465B46804604
S31508000510894610F0A5FD002840F08980CDE90C89B0
S3150800052004F16303C72B34BF0427052731051BD500
S3150800053053A3D3E900235046594610F087FD0028F7
S315080005407FD051A3D3E900235046594610F06AFDDF
S31508000550002876D00027A542C6BF2C1B04F1FF351C
S3150800056000253C4646F480660E9B9F422CBF4FF002
S315080005700008A3EB070816F0020903D0002F18BFDE
S315080005804FF000083CB1DDE90C235046594610F0FF
S3150800059001FC82468B46DDE906010022002310F0A5
S315080005A041FD10B10BF100439B46DDE9080126F435
S315080005B00063CDE90183DDE90A324BEC10AB009507
S315080005C000F07EF802465FB3DDE9091316F0200F46
S315080005D000F10105089E0CBF65204520B047DDE9FE
S315080005E008010523002205930A23002CCDE90232CF
S315080005F007F1FF374FEAD473B8BF64422A4601931E
S3150800060004970A9B009444F02BFB0246B9F1000FAD
S3150800061006D00B9BC41A0B9B1A190E9BA34245D8EE
S31508000620104613B0BDE8F08FDDE906ABCDE6002233
S31508000630404649461A4B10F0ADFB013CCDE90C018A
S315080006406EE7002D90D00F9B002B8DD0013D8BE7D8
S31508000650FB799F501344D33FB3C8608B288AC63FA3
S3150800066061436F63A787D23F71A379094F930A4005
S315080006701655B5BBB16B0240EF39FAFE422EE63F7E
S315080006802D431CEBE2361A3F0000000080842E4101
S31508000690FFFFEF7F0000F83F0000E03F00002C401E
S315080006A000002440000018400000F03F2020DDE94B
S315080006B00913089DA8470134ADE700BF00000000F4
S315080006C02DE9F04F5BEC10AB97B0CDE90501DDE9FC
S315080006D02057CDE90723504652465B465946229E87
S315080006E010F096FC70B90323CDE902760193B04B5E
S315080006F00093DDE90501DDE9072344F0D1F917B0D8
S31508000700BDE8F08F4FF0FF326FF48013504659461C
S3150800071010F088FC28B10423CDE902760193A54B95
S31508000720E6E74FF0FF3250465946A34B10F098FCC7
S3150800073068B1A24A06F00403002B08BF0322A04BA7
S315080007401CBF13460422CDE902760192D0E7504633
S3150800075093A3D3E90023594610F082FC38B992A333
S31508000760D3E900235046594610F05CFC68B1DDE930
S315080007700723DDE905014BEC10ABCDE92176209581
S3150800078017B0BDE8F04FFFF7DFBD00220023504643
S31508000790594610F047FC002800F09A805B465246FE
S315080007A00020002110F014F8012382468B46099395
S315080007B016F4806400F08E80092D40F28E800024A5
S315080007C030210EABA5F109020134202C03F8011BD8
S315080007D0A5EB040901D09442F6D15946504610F0CB
S315080007E049FC784B054603EBC90393ED007B8DED79
S315080007F00A7B10F03BF902460B46504659460FF065
S31508000800E7FFDDE90A2310F09BF902460B46CDE91E
S315080008100C2310F057FC804610F018F902460B46D8
S31508000820DDE90C010FF0D4FF02460B46CDE90C2397
S315080008300022654B10F014FC002851D008F101087D
S31508000840404610F003F902460B46DDE90A0110F0AE
S31508000850F3FB10B14FF000080135B9F1000F50D184
S31508000860284610F003F902460B46504659460FF043
S31508000870AFFF0022544B8046894610F0D3FB30B1B7
S31508000880002240464946504B10F0EAFB10B1E807F3
S3150800089000D501350A210EAB1A19202C0AD095FB72
S315080008A0F1F001FB1055303502F8015B01340546BD
S315080008B00028F2D106F00302012A57D1002F55D09D
S315080008C0099A12B916F00C0F00D0013F302245E004
S315080008D009906DE74FF006097FE7A94600247CE7F3
S315080008E00022DDE90C01384B10F09CFB0028B4D13E
S315080008F0B8F1000F02D018F0010FAED008F10108C8
S31508000900ABE70A210EAB2344202C0ED0B8FBF1F03E
S3150800091001FB1082B8F1090F02F1300209F1FF3923
S3150800092004F1010403F8012B11D83021A1440EAAC1
S31508000930202CAFD0A14504F101030AD11C4609F1C8
S3150800094058030DEB03092E2309F8203CA2E780463D
S31508000950DAE7A1541C46EBE71A550134A74205D934
S31508000960202CF9D1CDE902760194C1E6202CF9D0E4
S31508000970099A3AB12D2104F158026A4402F8201C5A
S315080009800134EFE7710704D504F158022B216A44B4
S31508000990F4E73207E6D504F1580220216A44EDE768
S315080009A00000000065CDCD410000000065CDCDC139
S315080009B0C8740508CC740508FFFFEF7FBF740508E7
S315080009C0C4740508D87405080000E03F000000005C
S315080009D02DE9F04F2DED028B002597B01D7003937E
S315080009E0229B074607911D60002800F03C8143784A
S315080009F0047844EA0324837844EA0344C37844EA3F
S31508000A00036463783F2B00F22E81AA4214BF0623A3
S31508000A1008238DF8243009230C958DF82630427961
S31508000A20037908469FEDA48B43EA02234A790434E6
S31508000A30023292008DF825200AAA0092043B9BB246
S31508000A402146007909AA8DED0A8B39F04DF90A9BE2
S31508000A500646049360B1049B23B10C991846C91A3B
S31508000A6043F0DFFE304617B0BDEC028BBDE8F08FD1
S31508000A700B98039DC01A40102870C0B200EB4000C6
S31508000A808F49800051F0A6F88346002800F01081AF
S31508000A902B788DED0E8B1096002B00F0FA803346DE
S31508000AA002960299E279591A8A42B246B04600F28B
S31508000AB0AC8004D202991144994218BF0F91002ABA
S31508000AC040F0AD807A783B7894F802E043EA022356
S31508000AD0BA7894F803C043EA0243FA7808EB480167
S31508000AE043EA026300220BEB810514925A781878C0
S31508000AF085F802E085F803C002F00F03E2798DED70
S31508000B00128B6A7194F906202A710BF821000EAA35
S31508000B106B70204612AB09A937F0D8F88146002831
S31508000B203BD01298149910B1091A43F07AFE039B28
S31508000B301B78F3B100252C462E4604EB44040BEB38
S31508000B408404627A207A40EA0220A27A40EA0240C5
S31508000B50E27A50EA026000F0968043F060FE039B5A
S31508000B6001351B7826726672A672E672ECB29C4252
S31508000B70E3D3584643F053FE0023029A1099891A84
S31508000B80039A1370029B13B1184643F04AFE049B5E
S31508000B904E46002B7FF461AF64E7DDE91232D21AC4
S31508000BA0104647490693059251F014F8C0F3072CEE
S31508000BB085F809C0C0F3074C85F80AC04FEA106CDF
S31508000BC0069B287285F80BC0002865D0059A002A6E
S31508000BD035D185F8069085F80790002B40D1049BFF
S31508000BE00AF1010A33F81820E3795FFA8AF83344E0
S31508000BF0DEB2039B14441B7843453BD90F9B0299ED
S31508000C00E279591A8A427FF654AF511A0EA836F07D
S31508000C10FFFF0E9BE2790293002A3FF453AF079831
S31508000C204378017841EA0321837841EA0341C3788E
S31508000C30029841EA0361314445F0C1FF42E719468B
S31508000C400692059345F0BBFF069A1499059BAA716F
S31508000C50C2F30722EA71C91A184643F0E2FDBEE755
S31508000C601499C91AF8E70B26304617B0BDEC028B63
S31508000C70BDE8F08F229B1099C3F800B0029BC91AF1
S31508000C80002B81D183E70135ECB29C42FFF455AFC6
S31508000C906FE7229B1860DEE63BB114991846C91A1D
S31508000CA043F0BFFD4FF0020941E74FF002093EE766
S31508000CB00226D0E6AFF30080000000000000000026
S31508000CC0D80806080348044B834202D0034B03B1F5
S31508000CD01847704724B3002024B300200000000002
S31508000CE0064B0749C91A891048BF0131491003D074
S31508000CF0044B0BB101481847704700BF24B30020C6
S31508000D0024B300200000000010B5064C237843B930
S31508000D10FFF7D8FF044B13B10448AFF30080012353
S31508000D20237010BD6E98002000000000D01306083E
S31508000D3008B5054B1BB105490548AFF30080BDE86A
S31508000D400840FFF7CDBF00BF00000000C813002011
S31508000D50D0130608A3F5803A704700BF174B002B3F
S31508000D6008BF134B9D46FFF7F5FF00218B460F463C
S31508000D701348144A121A45F03CFF0E4B002B00D0BC
S31508000D8098470D4B002B00D09847002000210400FF
S31508000D900D000D48002802D00C48AFF3008010F073
S31508000DA053FD2000290045F05CFE10F08BFB00BFC8
S31508000DB0000008000000000000000000A80D002048
S31508000DC0A80D002040AA0020000000000000000036
S31508000DD013B5094C237863B9022304200093074A04
S31508000DE04FF4805306490DF0CDF90028A4BF01231E
S31508000DF0237002B010BD00BF70A800206F980020B5
S31508000E004844050830B5154B87B01B780546144687
S31508000E10019103B341F05CFC4FF41B630D22CDF83E
S31508000E200D00CDF81110042002A902938DF80C507C
S31508000E300DF07CF904220DEB020110460DF076F94F
S31508000E40019B21461A0202F4E062C3F30723042039
S31508000E501A430DF06BF907B030BD00BF6FA800202C
S31508000E6030B5144B05461B7885B003F0FF04F3B183
S31508000E70FF2928BFFF210C4641F02AFC04F109028C
S31508000E8013029BB243EA122343F0807343F0B00384
S31508000E900D22CDE900300291042069468DF80C40F8
S31508000EA00DF044F92246294604200DF03FF9204664
S31508000EB005B030BD6FA800200122014B1A7070479B
S31508000EC06FA800201FB541F003FC084B0391CDE93C
S31508000ED001300C22042001A90DF028F904200DF098
S31508000EE083F90028FAD105B05DF804FBB0080002C2
S31508000EF037B5044619F09CF8054600284AD1A36878
S31508000F0043F40033A36046F094FEA368244A43F4EE
S31508000F10A013A360A261257743F0B0FDA368A08063
S31508000F201B030CD4B0F5FA7F09D952F094FF0121BE
S31508000F300546084651F030FF284652F087FF2046FE
S31508000F4019F09EF838BBE06838B31BF0F5F817F0CF
S31508000F500BF917F01DFF49F0DCFE48F04CFA4FF488
S31508000F604173ADF80430FF2301A88DF8063012F05E
S31508000F704BFC00220320114649F034F903210420D2
S31508000F801AF046FA0A2012F0A3F819F031F82046AA
S31508000F9041F0B5FB002003B030BD0248D5E700BFDD
S31508000FA0050403009EAF002008B50449044823F051
S31508000FB039FFBDE8084023F067BF00BF584405085D
S31508000FC01C4505084FF08052014B5A60704700BF18
S31508000FD000ED00E0F8B50E460546D0B1C9B10E4B96
S31508000FE00E4F1968386806F0D3F9044678B906230F
S31508000FF032460B49386806F099FA044638B901238F
S315080010002A460849386806F091FA00B12C7020463D
S31508001010F8BD2124FBE700BF2CAC00204CAC002017
S315080010202C0004003C00040007B5084B1878FF287C
S3150800103002D023F02FFA30B14FF6047301A8ADF8A9
S31508001040043045F09EFC03B05DF804FBAFAF00200A
S3150800105010B50D4C0D4804F0D1FC23780BB123F0E4
S3150800106073FAFF220A4B01211A700022094B2270DB
S315080010709A70152219705970DA701A7100F050FBBF
S31508001080BDE8104000F02CB971A80020E01300203C
S31508001090AFAF002072A8002038B500F077F90446F3
S315080010A000F0CEF9C0B10E4D2B789BB90D4B1B78CD
S315080010B0FF2B11D1022C11D80B4C2279E178A0789C
S315080010C023F018FA38B90121207823F029FA10B943
S315080010D001232B70002038BD0220FCE71D20FAE70B
S315080010E071A80020AFAF002072A80020F0B5054611
S315080010F085B00E4600F04AF95DB3194F3B78FF2BD1
S3150800110029D1022829D8002342F21071154A164817
S31508001110009304F091FC0446A0B901460DF10F03B3
S3150800112000936A792B79286843EA022363F30F014F
S315080011300E4B32461B7823F01FF9044628B10A489D
S3150800114004F05CFC204605B0F0BD9DF80F303B70FE
S31508001150F8E72224F6E70224F4E71D24F2E700BFA5
S31508001160AFAF002029100008E013002072A8002065
S31508001170036837B523F47F43504A23F007039342A5
S31508001180044621D009D8A2F5A022934217D002F529
S315080011908022934273D003B030BD494A93424AD065
S315080011A002F57F029342F6D1464B1B78002BF2D00C
S315080011B0454B1B78FF2BEED100F11E0369E003B007
S315080011C0BDE83040FFF744BF3F4B017B1A78914298
S315080011D0E1D1C27A012ADED1FF223A4D3B481A7084
S315080011E004F00CFC2B784BB123F0AEF908B34FF69C
S315080011F0047301A8ADF8043045F0C3FB607A227A7F
S31508001200012342EA00226168207B00F077F830B1BA
S315080012104FF6047301A8ADF8043045F0B2FB00237D
S315080012208DF80430237B8DF8053001A845F0A9FB1D
S31508001230B1E72870E2E7244D80792B78834205D1FF
S31508001240224804F0DBFBFF232B70A4E700F0BCF870
S315080012500028A0D0A07900F0E1F800289BD0A0795A
S3150800126000F076F830B14FF6047301A8ADF80430F3
S3150800127045F087FB02238DF80430A379D3E7114B99
S315080012801B78002B87D0104B1B78FF2B83D100F1DE
S31508001290160394F90D20E17A601D41F03CFA002806
S315080012A03FF479AF11283FF476AF2D3801287FF641
S315080012B072AF4FF60473ADF80430B6E7A000060027
S315080012C0A000060171A80020AFAF0020E01300209F
S315080012D0024B187880F00100704700BF71A8002003
S315080012E0FF22044B1A701A721A740022024B1A70E3
S315080012F0704700BF77A800208FA8002013B56C465A
S3150800130084E80600104A1178FF2917D0117AFF29B8
S3150800131016D0117CFF2915D1022102F83100009858
S3150800132002EBC102C2F8020000205370A388D380E2
S31508001330064A13780133137002B010BD0021ECE79A
S315080013400121EAE71A20F7E777A800208FA80020EE
S315080013500C4B1A7882420FD01A7A82420ED01A7C27
S3150800136082420DD10222FF2103F83210064A0020DC
S315080013701378013B137070470022F4E70122F2E765
S315080013802D20704777A800208FA80020014B1878D9
S31508001390704700BF8FA800200A4B1A7882420AD0ED
S315080013A01A7A824209D01A7C824208D1022203EBB9
S315080013B0C200023070470022F9E70122F7E7002051
S315080013C0704700BF77A80020064B1A78824207D0DC
S315080013D01A7A824204D01B7C1B1A5842584170471D
S315080013E00120704777A8002070B5044680B1002612
S315080013F0094D15F8023CFF2B05D006222146284642
S3150800140045F0CDFB30B10136032E05F10805F0D1C4
S31508001410002070BD0120FCE779A8002001460022C3
S31508001420064B1878884202D15878012805D001322F
S31508001430032A03F10803F4D10020704777A8002097
S31508001440024B1888003818BF01207047181400206E
S315080014502DE9F04F8E4D90462E7893B03207894687
S315080014609A464FF00004009035D4F30647D4F707A0
S315080014704CD44FF0000B9AF800305F46013B0D93B1
S3150800148006F0040308932B7ACDE901BB00936B6839
S3150800149009936B7803F001030B9395F86430049372
S315080014A095F865300693069A049B13440C9395F8B1
S315080014B05C30039395F85D300593059A039B1344B6
S315080014C00A9306F002030F9306F02003079306F02B
S315080014D0400310937BE04FF00804002705F1090B41
S315080014E0062200990BEB070045F059FB0028BCD0F3
S315080014F006373C2FF4D1002013B0BDE8F08F95F8DD
S31508001500453044F010044B45F5D1B0E795F9023063
S3150800151044F001044345ACDBEDE70AEB07035D78CD
S3150800152093F802900F9B002B36D0A9F10803012BE4
S3150800153032D8089A234644F002041ABB009BAB42F1
S3150800154030D2F81C009A0999504445F028FB002827
S3150800155008BF4FF0010B079B002B00F08580B9F1FF
S31508001560210F40F081800A9B44F020049D42C2DD91
S31508001570039B059AD91903314648514445F00FFB98
S3150800158010B3B8E743F00604009BAB42E3D2009AD7
S315080015906B1E9342DFD1D4E7109B1BB1A9F102035E
S315080015A0012B2ED93006D6D5A9F10603012BD2D8A0
S315080015B04FF00008BA1C44F080046B1E0E92984542
S315080015C03DDB079B002B4FD101353D44EFB20D9B08
S315080015D09F42A2DB16F0060F02D0BBF1000F8AD09D
S315080015E0710602D5019B002B85D0320602D5029BD7
S315080015F0002B80D0264BA4B21888031B58425841AA
S315080016007AE74FF000086B1E0E9344F04004BB1CAB
S315080016100E9A90459FDA03EB0801013102221E4813
S315080016205144119345F0BBFA0028019B08BF0123DA
S3150800163008F1020801935FFA88F8119BE8E711930D
S315080016400E9B102203EB080101311448514445F062
S31508001650A6FA0028029B08BF012308F11008029386
S315080016605FFA88F8119BAAE70B9B002BACD0B9F15F
S31508001670FF0FA9D10C9B44F480749D427FF73BAFC2
S31508001680049B069AD91903310548514476E700BFE9
S3150800169018140020701400205E1400206014002026
S315080016A078140020F8B506460D461746FFF710FED3
S315080016B0B8B1C6B1284642F078FF0D4C6060A0B1BB
S315080016C02A46314645F0A0FA2378257243F00203EC
S315080016D023700FB90020F8BD237843F00403237064
S315080016E0F8E70220F7E72120F5E71920F3E700BF1E
S315080016F01814002010B50446FFF7EAFD50B15CB196
S3150800170000202288054BA3F846201A7842F04002AA
S315080017101A7010BD0220FCE72120FAE718140020F1
S3150800172010B5FFF7D5FDF0B1104C606818B143F05D
S315080017303EF800236360A06D18B143F038F8002323
S31508001740A365206E18B143F032F800232366002003
S31508001750FE23A070207284F84530A4F85C00A4F833
S315080017606400208010BD0220FCE700BF181400208A
S3150800177000234FF0FF320449C818CA5006333C2BE1
S315080017808280F9D1FFF7CCBF21140020034A04490F
S31508001790002808BF1146042023F03CB8D4450508A4
S315080017A0CC45050838B5174B044693F8C020824245
S315080017B0A3F580501BD003F5805292F80422A2426A
S315080017C01BD003F5005393F84833A34217D00E4DA8
S315080017D00E49286842F0A1FB41F017FB41F016FBC1
S315080017E022460B49286842F098FB002038BD0023A2
S315080017F041F2441202FB0300F8E70123F8E702234B
S31508001800F6E700BF8024002050480020DC45050884
S31508001810E14505082DE9F04FFF288FB00D46CDE9C3
S315080018200A32099000F01E84002900F01D840A9BE4
S31508001830002B00F01984199B002B00F01584189BC7
S31508001840002B00F01184AF4EAF49306842F065FBBB
S3150800185041F0DBFA41F0DAFA099AAC49306842F00D
S315080018605CFBAB4B93F8C020A3F58054FF2A2BD022
S3150800187003F5805292F80422FF2A00F09F8003F5B0
S31508001880005393F84833FF2B00F09B80A14930683A
S3150800189042F043FB41F0B9FA41F0B8FA9E49306884
S315080018A042F03BFB9B49306842F037FB41F0ADFA0A
S315080018B041F0ACFA099A9949306842F02EFB1C248B
S315080018C020460FB0BDE8F08F4FF0000941F24412F0
S315080018D002FB09F3E71800213846079345F089F912
S315080018E00021384640F07AFF41F2A8034FF0FF3254
S315080018F0FA5041F2BA0317224FF0000BFA5207F5D5
S315080019008052B2F8A430594603F0F00343F48673C4
S31508001910A2F8A430079B40F24A7203F65800204406
S31508001920C7F854B845F065F941F2BC0307F803B0A7
S31508001930099B07F586563370079B492203F58250A3
S315080019401A302946204445F05FF941F26603FB5CEC
S3150800195041F2C40A089341F268036A4D17F80380F6
S315080019606949286842F0D9FA41F04FFA41F04EFA2F
S31508001970CDF80080089B32786949286842F0CDFA8C
S31508001980079B5A4603EB0A0121445B46307822F04E
S315080019905BFD0446C0B15F49286842F0BEFA41F0D3
S315080019A034FA41F033FA5F493278286842F0B5FADA
S315080019B02D212246384601F025FB81E74FF0010923
S315080019C084E74FF0020981E717F80A309BB93078A7
S315080019D022F0ECFD044670B14E49286842F09DFAA3
S315080019E041F013FA41F012FA4F493278286842F06A
S315080019F094FA2E21DDE70B9B28681B884B4CA7F829
S31508001A00B93F13F0FF0344D13F4942F086FA41F04B
S31508001A10FCF941F0FBF941F2441303FB094303F5D2
S31508001A2086531A784249286842F077FA41F24414F4
S31508001A3041F2D003DFF8F4A00A9A04FB09A4E250A5
S31508001A4041F2D403189A94F8B91FE25041F2D80328
S31508001A50199AE250079B03F5845641F25D0319363D
S31508001A6056443246E05C37F089FD834600286BD041
S31508001A702849286842F051FA41F0C7F941F0C6F9F9
S31508001A802C495B46099A286842F047FA21243021F6
S31508001A908FE7012B0FD11C4942F03FFA41F0B5F907
S31508001AA041F0B4F941F2441303FB094303F58653A5
S31508001AB01A782149B7E7022B0FD1134942F02DFABC
S31508001AC041F0A3F941F0A2F941F2441303FB09439B
S31508001AD003F586531A781949A5E7194942F01DFAFC
S31508001AE041F093F941F092F941F2441303FB09449A
S31508001AF004F5865294F8B93F12781249286842F0DC
S31508001B000CFA93E75048002023460508284605089E
S31508001B1080240020DC4505085D460508784605084A
S31508001B20A846050804470508344705088014002018
S31508001B3063470508DC480508B84705081648050838
S31508001B40664805086B4805080A21304601F02AFD53
S31508001B500646C44904F58654286842F0DEF941F081
S31508001B6054F941F053F933462278BF49286842F0C0
S31508001B70D4F92078FFF716FE00F5805B9BF85D30F8
S31508001B800446022BB94E4DD19BF86730072B00F25D
S31508001B905181DFE813F0080018004F014F01E800F3
S31508001BA04F014F01FB000123AE4980F8D33F286857
S31508001BB042F0B3F941F029F941F028F99BF8C02021
S31508001BC0AB4928682CE0089B3068012B1AD8A9492C
S31508001BD004F5805842F0A1F941F017F941F016F9D9
S31508001BE098F8C020A449306842F097F901222921C3
S31508001BF0204601F007FA002388F86730012384F8A5
S31508001C00D33F0FE0022384F8D33F964942F085F983
S31508001C1041F0FBF841F0FAF89BF8C0209749306884
S31508001C2042F07BF904F5805898F8673088F86830F0
S31508001C3098F85D30012B20D198F86BB03068BBF16D
S31508001C40020F00F02B81BBF1FE0F00F04C81BBF1B7
S31508001C50010F40F05881874942F05FF941F0D5F805
S31508001C6041F0D4F898F8C0208549306842F055F913
S31508001C7088F86CB0002384F8D33F41F2441606FB7B
S31508001C8009A606F5845BBBF80930002B35D10DF1A2
S31508001C90360304930DAB039341F29703F35C41F2C9
S31508001CA05A02029341F26803F35C41F25E01019322
S31508001CB096F8B93F41F25D00009341F29803B25C91
S31508001CC0F35C715C305C01F02BF906F58658044626
S31508001CD0002800F04781654E0F2C306840F02581BA
S31508001CE0644942F01AF941F090F841F08FF898F8F3
S31508001CF000206449306842F010F941F2441606FBA8
S31508001D0009A606F584531A461032B2F8032006F5DA
S31508001D1083510292B3F8112006F586580192B3F85A
S31508001D200D20183100920833B1F80920B3F80330B2
S31508001D30B1F8071098F8000022F04AFB044600287C
S31508001D4000F032815049286842F0E7F841F05DF822
S31508001D5041F05CF84D49234698F80020286842F07F
S31508001D60DCF8312125E6B8F1010F30687FF62FAF90
S31508001D7002233C4984F8D33F42F0CFF841F045F8B6
S31508001D8041F044F89BF8C020414948E7B8F1010FF3
S31508001D9011D9089B012B20D90423324980F8D33F57
S31508001DA0286842F0BAF841F030F841F02FF89BF86D
S31508001DB0C020384905E70122292101F023F9B8F1A5
S31508001DC0010F11D1089B3068022B0DD104F5805BF9
S31508001DD084F8D33F8BF8678017E70122292101F0A1
S31508001DE011F9B8F1020F10D02249286804F5805875
S31508001DF042F093F841F009F841F008F898F8C02045
S31508001E001D49286842F089F8F5E6089B3068012BD9
S31508001E10EAD1042384F8D38F04F58058114988F849
S31508001E20673042F07AF840F0F0FF40F0EFFF98F89C
S31508001E30C020A9E70F4904F58058286842F06DF8D4
S31508001E4040F0E3FF40F0E2FF98F8C0201249286806
S31508001E5042F063F8012384F8D33F002388F86730FB
S31508001E60E0E600BF23460508134905085048002048
S31508001E7049490508664805087C490508BD49050815
S31508001E80B14A05082B4C0508DC450508754D0508BB
S31508001E90F0490508234A0508564A0508089A012AFA
S31508001EA00AD9724942F039F840F0AFFF40F0AEFF68
S31508001EB098F8C0206E49D8E66C49089342F02DF888
S31508001EC040F0A3FF40F0A2FF98F8C02069493068A7
S31508001ED042F023F8089B2A211A46204688F86C30D7
S31508001EE001F090F8C6E6644942F017F840F08DFF15
S31508001EF040F08CFF98F8663098F8C0205F49306843
S31508001F0042F00BF8B4E65949089342F006F840F057
S31508001F107CFF40F07BFF98F8C0205949306841F0B3
S31508001F20FCFF089B88F86B30A4E60A2C0AD14F49B7
S31508001F3041F0F3FF40F069FF40F068FF98F8002091
S31508001F405049D7E6504941F0E8FF40F05EFF40F0BF
S31508001F505DFF4E49234698F80020306841F0DDFFC2
S31508001F60322126E5BDF8343006F58356A6F81F302B
S31508001F70A6F82130BDF836303F492868ABF803305B
S31508001F80ABF8053041F0C9FF40F03FFF40F03EFF97
S31508001F90BBF805303E490093B6F8213098F8002082
S31508001FA0286841F0BAFFA8E641F25B03FF22F15C1C
S31508001FB0099822F035FA044680B13349286841F079
S31508001FC0ACFF40F022FF40F021FF3249234698F843
S31508001FD00020286841F0A1FF3321EAE441F2CC0948
S31508001FE00799079B079A01F586514B4402F6B97281
S31508001FF0083153445244514498F8000001F0F2F96C
S315080020008246A8B12049286841F087FF40F0FDFEC6
S3150800201040F0FCFE534698F800201F49286841F016
S315080020207CFF52462F21384600F0ECFF012447E496
S315080020301149286841F071FF40F0E7FE40F0E6FEDE
S3150800204098F800201549286841F067FF1A9B1BB1CC
S3150800205016F809301A9A137000223846114602F00B
S3150800206007F82DE425242BE4222429E466480508EC
S31508002070F84A05083F4B0508234605088A4B050814
S31508002080CF4B0508874C0508DC450508CD4C0508E7
S31508002090244D0508BF4D0508024E05083D4E0508A6
S315080020A02DE9F047002541F244172E461E4CA4F6AA
S315080020B05809A4F6580841F244120021404644F053
S315080020C098FDFF2384F8683884F8D1384FF0FF3339
S315080020D04FF0010AC4F85038172307FB059284F815
S315080020E0CE6884F84DA8A4F8623802F5805292F8B2
S315080020F0A430002123F00F0343F00C0382F8A43028
S31508002100204640F24A7244F8046C44F072FD554485
S3150800211084F864685146404640F060FB032D3C4411
S31508002120C7D1BDE8F08700BFD81C00202DE9F041D3
S31508002130064688461746FFF735FB434C054698B9C9
S315080021404249206841F0E9FE40F05FFE40F05EFE3D
S3150800215032463F49206841F0E0FE222227212846E0
S31508002160BDE8F04100F04EBF05F5805696F8A4305C
S315080021702068DB0712D518F0010F0FD1334941F05B
S31508002180CCFE40F042FE40F041FE96F8C0203149B0
S31508002190206841F0C2FE3A460B21E0E787B12B4999
S315080021A041F0BBFE40F031FE40F030FE96F8C0200C
S315080021B029493B46206841F0B0FE3A460C21CEE755
S315080021C0264941F0AAFE40F020FE40F01FFE434695
S315080021D096F8C0202249206841F09FFE96F8A41080
S315080021E096F8C00040F098FB074688B11749206862
S315080021F041F093FE40F009FE40F008FE96F8C02034
S3150800220018493B46206841F088FE3A460D21A6E764
S31508002210032196F8C00040F0C3FB074688B10B4976
S31508002220206841F07AFE40F0F0FD40F0EFFD96F8A8
S31508002230C0200D493B46206841F06FFE3A460E2104
S315080022408DE7BDE8F08100BF50480020DC45050851
S315080022506B4E05089A4E0508004F050823460508E3
S31508002260414F0508804F0508C04F05082DE9F04184
S3150800227086B007460E461546FFF794FA0446A8B9EF
S31508002280494D4A49286841F048FE40F0BEFD40F0F5
S31508002290BDFD3A464649286841F03FFE22220E21F6
S315080022A0204606B0BDE8F04100F0ACBEA5B1DFF8A7
S315080022B0F8803E49D8F8000041F02FFE40F0A5FD11
S315080022C040F0A4FD009533463A463A49D8F800004E
S315080022D041F023FE2A46E2E7022E57D0032E22D0EB
S315080022E0012E2FD100F5805696F8B830052B29D146
S315080022F00C23032196F8C00086F8B83040F050FB4E
S315080023000546F8B1284F2949386841F006FE40F0DD
S315080023107CFD40F07BFD2B4696F8C02026493868A0
S3150800232041F0FBFDD6E700F5805696F8B8300C2B41
S315080023300BD0012103AA8DF80C1001F099FE052394
S3150800234086F8B83006B0BDE8F08100F6580240F2CB
S315080023504A7196F8C00040F09FFA05460028EED06C
S31508002360114F1249386841F0D8FD40F04EFD40F053
S315080023704DFD96F8C0202B461049386841F0CDFD32
S315080023802A460F21204600F03DFED8E70723012103
S3150800239000F5805484F8B83084F8BC5003AA8DF848
S315080023A00C1001F065FECDE750480020DC45050815
S315080023B0FB4F050838500508C04F05087950050831
S315080023C02DE9F04F87B00646DDE918BA89461D465D
S315080023D0DDF85480FFF7E6F9044680B9504D5149B7
S315080023E0286841F09AFD40F010FD40F00FFD324696
S315080023F04D49286841F091FD2222112120E000F57F
S31508002400805696F8A5300BB300F6580240F24A718A
S3150800241096F8C00040F040FA0746B8B1404D414929
S31508002420286841F07AFD40F0F0FC40F0EFFC96F8A1
S31508002430C0203E493B46286841F06FFD3A460F21C9
S31508002440204607B0BDE8F04F00F0DCBDB5B1344F0B
S315080024503449386841F061FD40F0D7FC40F0D6FCBD
S315080024602B4696F8C0203249386841F056FD5BEA9B
S315080024700A0A51D0062D4FD02A46BEE7B9F1000FF9
S315080024804AD0274F2B49C4F85488386841F045FD8F
S3150800249040F0BBFC40F0BAFC94F8593894F8581848
S315080024A096F8C02003F00F03CDF8008041EA032315
S315080024B03868214941F031FD94F8592894F858387C
S315080024C002F00F0204F6580943EA0223D4F8541816
S315080024D02A46ADF81430484696F82831CDE90398CF
S315080024E08DF8175040F08FF908218DF8160003AAC9
S315080024F0204601F0BDFD044670B10A49386841F02E
S315080025000CFD40F082FC40F081FC234696F8C02082
S315080025100A49386841F001FD07B0BDE8F08F00BFF1
S3150800252050480020DC450508BF50050879500508C5
S31508002530035105082346050845510508895105082C
S315080025402DE9F0410368B04A23F47F4323F00703DB
S315080025509342044692B000F021832ED802F17F42BE
S31508002560934200F03B830FD802F17F42934200F07A
S31508002570018202F53002934200F0CC82002080F0FE
S31508002580010012B0BDE8F081A04A934248D002F596
S3150800259040329342F2D10079FFF704F9002840F05F
S315080025A0A1829B4D9B49286841F0B7FC40F02DFC61
S315080025B040F02CFC2279984942E0984A934200F070
S315080025C0458413D802F17E42934200F0CE8302F589
S315080025D02D029342D2D10079FFF7E4F80028CDD036
S315080025E0637900F5805080F85B30C7E78C4A9342E0
S315080025F000F0CD8102F1FC729342BFD1844D85492A
S31508002600286841F08AFC40F000FC40F0FFFBA37903
S315080026108449009363792279286841F07EFCADE706
S315080026200079FFF7BFF8074670B9794D79492868E8
S3150800263041F073FC40F0E9FB40F0E8FB22797A4967
S31508002640286841F06AFC99E7B4F8052000F580553A
S3150800265093B2A5F8C220B5F881209A4203D3B5F8FB
S315080026607F209A4277D96A4E7049306841F055FC06
S3150800267040F0CBFB40F0CAFBB4F80510B5F87F3044
S3150800268095F8C0200191B5F8811000913068684925
S3150800269041F043FC95F8C630A3BB5D4E63493068EC
S315080026A041F03BFC40F0B1FB40F0B0FB95F8C02090
S315080026B06049306841F031FCB5F893C0B5F88B3005
S315080026C0B5F88120B5F87F1095F8C000CDF808C098
S315080026D0B5F891C0CDF804C0B5F88DC0CDF800C0E6
S315080026E021F076FE002869D05049306841F015FC83
S315080026F040F08BFB40F08AFB95F8C0204E493068C5
S3150800270041F00BFC012385F8C630E37A002B59D03B
S3150800271095F8B830002B40F0388195F8C0001BF0CA
S31508002720B7FE3B4E0446002850D005284ED03949FE
S31508002730306841F0F2FB40F068FB40F067FB95F823
S31508002740C0203E49306841F0E8FB2246052138465C
S3150800275000F058FC12E7B5F88B20B4F807309A4217
S3150800276014D02B4E3149306841F0D7FB40F04DFB71
S3150800277040F04CFBB4F80710B5F88B3095F8C0203C
S3150800278000912F49306841F0C8FB83E7B5F88D20E2
S31508002790B4F809309A42B5D01D4E2449306841F044
S315080027A0BCFB40F032FB40F031FBB4F80910B5F839
S315080027B08D3095F8C02000912249E3E795F8C63098
S315080027C0002BA2D1012385F8C630D7E6012795F854
S315080027D0C04085F8B8702046FEF7E4FF0546A8BB5A
S315080027E00C49306841F099FB40F00FFB40F00EFBB6
S315080027F022461549306841F090FB222227212846B7
S3150800280000F000FCC1E000BFA0005902A0000602CB
S3150800281050480020DC450508BF560508A0005905A4
S31508002820A0000906B1590508D051050866480508EB
S31508002830345205084753050891530508F25305080D
S31508002840B3520508F75205082B54050800F58054BD
S3150800285094F97220394694F86C3094F8C0000092C6
S31508002860002221F011FF074680B1BC49306841F0CB
S3150800287054FB40F0CAFA40F0C9FA94F8C020B849A7
S31508002880306841F04AFB3A462821B8E794F8C00078
S3150800289021F0EAFE074688B1B049306841F03DFBB1
S315080028A040F0B3FA40F0B2FA94F8C020AD493B467E
S315080028B0306841F032FB3A462C21A0E794F86DC007
S315080028C094F85D3094F8702094F86E1094F8C0006F
S315080028D0CDF834C094F864C0CDF830C094F865C01B
S315080028E0CDF82CC094F86AC0CDF828C094F863C017
S315080028F0CDF824C005F5845C0CF1190CCDF820C080
S3150800290094F85CC0CDF81CC094F869C0CDE9057C84
S3150800291094F86270049794F86170039794F85F705E
S31508002920029794F86070019794F85E70009721F00A
S31508002930C7FE074688B18949306841F0EEFA40F08B
S3150800294064FA40F063FA94F8C02087493B46306839
S3150800295041F0E3FA3A462B2151E78449306841F0C1
S31508002960DCFA40F052FA40F051FA94F8C020804957
S31508002970306868E20079FEF715FF00283FF4FEADDF
S31508002980012300F5805080F8C5300120F7E500796D
S31508002990FEF708FF064658B9764D7049286841F093
S315080029A0BCFA40F032FA40F031FA2279724947E629
S315080029B000F5805595F8C000237983427FF4DEAD93
S315080029C0B4F80540BCB16B4F6449386841F0A5FAC4
S315080029D040F01BFA40F01AFA95F8C02067493868A3
S315080029E041F09BFA95F8B830032B3FF4C7AD224661
S315080029F007213046ACE695F8B830012B1FD0022BDC
S31508002A007FF4BCAD304600F07DFB95F8A530002B71
S31508002A1046D0B5F8AE30002B42D1564C4F49206807
S31508002A2041F07BFA40F0F1F940F0F0F995F8C02052
S31508002A305349206841F071FA0122092114E0D5F8BA
S31508002A40A8104B1C12D14B4C4449206841F065FA3A
S31508002A5040F0DBF940F0DAF995F8C02049492068DA
S31508002A6041F05BFA012206213046C9E6022385F8C1
S31508002A70B8301BF01DFD0446002886D03D4F374967
S31508002A80386841F04AFA40F0C0F940F0BFF995F8C5
S31508002A90C0203D49386841F040FA22460821E3E75C
S31508002AA006F58551B5F88F2095F8C0000C3101F070
S31508002AB0A5FF044690B12F4F2849386841F02DFAF2
S31508002AC040F0A3F940F0A2F995F8C0202F49234613
S31508002AD0386841F022FA22460A21C5E7032385F819
S31508002AE0B83052E700F5855600F58555284F0C365F
S31508002AF0183504F1090802224146384644F04FF8D1
S31508002B0010B9B4F8053033800236AE4207F1020731
S31508002B10F1D133E50079FEF745FE054658B9154D5E
S31508002B200E49286841F0F9F940F06FF940F06EF95E
S31508002B302279184984E50222174804F10A0144F06B
S31508002B402EF800287FF41AADD4F8052005F5805331
S31508002B502846C3F8A82000F093FA0FE5DC450508D7
S31508002B605454050885540508C05405082346050825
S31508002B7000550508504800202F55050896550508A4
S31508002B8030560508C3550508EE5505088556050847
S31508002B9028AF00202157050834AF00200079FEF73A
S31508002BA001FE58B9C04DC149286841F0B6F940F050
S31508002BB02CF940F02BF92279BD4941E50421231D62
S31508002BC00F9300F5805393F85D20022A04BF627ABA
S31508002BD083F829210FAA01F04BFAD6E60079FEF709
S31508002BE0E1FDB14F054658B9B049386841F095F945
S31508002BF040F00BF940F00AF92279AE49386820E529
S31508002C0000F080FAA37B05F5805685F8C83F94F84E
S31508002C10243005F5865185F8CF3F94F8213005F61E
S31508002C20B97285F8D03F94F82230083185F8D13F3B
S31508002C3094F8233085F8D23FB6F8C230A5F8D43FC9
S31508002C40E37F85F8CE3FA37F85F8CD3F237F85F8C0
S31508002C50CB3F637F85F8CC3F637C85F8CA3F237CEE
S31508002C6085F8C93F637B85F8C73F237B85F8C63F50
S31508002C70E37A85F8C53FD4F81230C5F8BB3FD4F8D7
S31508002C801630C5F8BF3F638BA5F8C33F96F85E308C
S31508002C9096F8C000019396F85D30009305F6BB736D
S31508002CA000F00CFC044698B18049386841F035F9C3
S31508002CB040F0ABF840F0AAF896F8C0207E492346C3
S31508002CC0386841F02AF922462F21284600F09AF959
S31508002CD07A49386841F021F940F097F840F096F8BB
S31508002CE096F8C0207649386841F017F996F8964064
S31508002CF0B6F88330B6F8872096F86E1096F8C000B6
S31508002D00099496F89540089496F86F40079496F9B2
S31508002D107140069496F85B40059496F868400494CA
S31508002D20D6F87B400394D6F877400294B6F88940E3
S31508002D300194B6F88540009421F020FD0446002849
S31508002D403FF423AE5949386841F0E7F840F05DF89A
S31508002D5040F05CF896F8C0205A492346386841F096
S31508002D60DCF822461E212846F2E40079FEF71AFD11
S31508002D70064600283FF402AC4B4F5049386841F0EC
S31508002D80CCF840F042F840F041F822794E493868CC
S31508002D9041F0C3F84FF6FF73B6F8A42F06F5805531
S31508002DA09A4215D195F82631063B012B38D80523CA
S31508002DB0424985F82631386841F0AFF840F025F8E1
S31508002DC040F024F895F8C0204049386841F0A5F845
S31508002DD095F82631063B012B22D895F8E8300133C1
S31508002DE0DBB20A2B85F8E83022D900214FF6FF73AB
S31508002DF085F8E8103046A6F8A43F3FF0EFFC052317
S31508002E002E4985F82631386841F087F83FF0FDFFEE
S31508002E103FF0FCFF95F8C0202C49386841F07DF852
S31508002E200123062130460F948DF843300FAAD2E6C7
S31508002E302249386841F071F83FF0E7FF3FF0E6FFB6
S31508002E4022792349386841F068F89EE50079FEF74B
S31508002E50A9FC054600283FF491AB05F5805393F885
S31508002E602631114E063B012B3068144912D941F020
S31508002E7054F83FF0CAFF3FF0C9FF22791549306878
S31508002E8041F04BF80023072128460F948DF843306C
S31508002E900FAAA0E641F041F83FF0B7FF3FF0B6FFB2
S31508002EA022790D4964E500BF50480020DC45050835
S31508002EB07C570508E7570508024E05082346050806
S31508002EC03D4E0508485805088F580508C95805088D
S31508002ED0FC580508385905086C5905081FB50B46EE
S31508002EE0032810D8DFE800F002111313094C2068F4
S31508002EF0616801AA03C2218901AC1180128803CC3A
S31508002F001A811860596004B010BD034CEFE7034CF2
S31508002F10EDE700BF8B5B0508315A05083C5A0508E2
S31508002F202DE9F7439DF82C400F46DDE90D969DF8EF
S31508002F3028108DF803409DF830408DF800208DF854
S31508002F4001308DF802108DF80440B9F1000F50D009
S31508002F50002E4ED0022A4ED0032B4ED001284CD03C
S31508002F60012905D10623A9F80030262333801FE05E
S31508002F70012A04D1022904BF00238DF80230DFF8A4
S31508002F8080800024454605226946404643F007FEF0
S31508002F9038BB04EBC4042B195A799979B3F807306E
S31508002FA042EA0122FF2FA9F800209AB2338003D102
S31508002FB0002003B0BDE8F083B9F80030B7EE047A14
S31508002FC007EE903AF8EEE77A67EE877AFCEEE77A4C
S31508002FD017EE903A9BB203F11301B1FBF3F31344D6
S31508002FE0C4E70134B4F5A27F08F10908CBD12D2036
S31508002FF0DFE72120DDE70A20DBE70F20D9E700BF5E
S31508003000475A05082DE9F0410446194F0E4615465C
S3150800301038686CB9174940F080FF3FF0F6FE3FF07C
S31508003020F5FE2A4638681449BDE8F04140F075BFF8
S3150800303004F580540F49D4F8D88040F06EFF3FF06D
S31508003040E4FE3FF0E3FE2B4694F8C0200B493868AF
S3150800305040F063FFB8F1000F07D02A4631464346D1
S3150800306094F8C000BDE8F0411847BDE8F08100BFFC
S3150800307050480020DC450508955B0508C55B050832
S31508003080F7B500F5805595F82571044687BB95F880
S31508003090243100F587560C3623B1304602F0AEFCD3
S315080030A085F8247100233046009340F6B83123464C
S315080030B0104A02F0C1FC0646B8B10F4F0F493868EE
S315080030C040F02BFF3FF0A1FE3FF0A0FE95F8C02090
S315080030D033460B49386840F020FF32460221204625
S315080030E003B0BDE8F040FFF78DBF012385F8243112
S315080030F003B0F0BDB927040850480020DC45050890
S31508003100F25B0508F8B5054600F587500C3002F065
S3150800311075FC05F580560446B0B10D4F0D49386863
S3150800312040F0FBFE3FF071FE3FF070FE96F8C020BF
S3150800313023460949386840F0F0FE22462846BDE88D
S31508003140F8400421FFF75EBFA6F82401F8BD00BFCA
S3150800315050480020DC4505082D5C050870B5044676
S315080031600D460F2900F20681DFE811F0150110005F
S315080031702400340044005400640074008400940061
S31508003180A400B400C400D400E400F400824D8349CE
S31508003190286840F0C2FE3FF038FE3FF037FE0123B4
S315080031A004F5805494F8C0207D492868BDE870402D
S315080031B040F0B3BE784D7949286804F5805440F04C
S315080031C0ACFE3FF022FE3FF021FE022394F8C02019
S315080031D07449EAE7704D7449286804F5805440F04C
S315080031E09CFE3FF012FE3FF011FE032394F8C02028
S315080031F06E49DAE7684D6949286804F5805440F055
S315080032008CFE3FF002FE3FF001FE042394F8C02036
S315080032106749CAE7604D6149286804F5805440F05B
S315080032207CFE3FF0F2FD3FF0F1FD052394F8C02047
S315080032306049BAE7584D5949286804F5805440F062
S315080032406CFE3FF0E2FD3FF0E1FD062394F8C02056
S315080032505949AAE7504D5149286804F5805440F069
S315080032605CFE3FF0D2FD3FF0D1FD072394F8C02065
S3150800327052499AE7484D4949286804F5805440F070
S315080032804CFE3FF0C2FD3FF0C1FD082394F8C02074
S315080032904B498AE7404D4149286804F5805440F077
S315080032A03CFE3FF0B2FD3FF0B1FD092394F8C02083
S315080032B044497AE7384D3949286804F5805440F07E
S315080032C02CFE3FF0A2FD3FF0A1FD0A2394F8C02092
S315080032D03D496AE7304D3149286804F5805440F085
S315080032E01CFE3FF092FD3FF091FD0B2394F8C020A1
S315080032F036495AE7284D2949286804F5805440F08C
S315080033000CFE3FF082FD3FF081FD0C2394F8C020AF
S315080033102F494AE7204D2149286804F5805440F092
S31508003320FCFD3FF072FD3FF071FD0D2394F8C020BF
S3150800333028493AE7184D1949286804F5805440F099
S31508003340ECFD3FF062FD3FF061FD0E2394F8C020CE
S3150800335021492AE7104D1149286804F5805440F0A0
S31508003360DCFD3FF052FD3FF051FD0F2394F8C020DD
S315080033701A491AE7084E0949306804F5805440F09E
S31508003380CCFD3FF042FD3FF041FD2B4694F8C020AE
S31508003390134930680AE770BD50480020DC45050827
S315080033A06B5C05089F5C050823460508DA5C05087A
S315080033B0195D05086E5D0508A75D0508E45D050845
S315080033C0245E0508565E05089B5E0508D45E05085A
S315080033D03A5F0508935F0508E35F05083F6005083F
S315080033E07D6005082DE9F0410646174698460D46C4
S315080033F0C9B10B68BBB1084633F08CFA044688B1EC
S31508003400284D2949286840F088FD3FF0FEFC3FF02A
S31508003410FDFC234632462549286840F07EFD2046B5
S31508003420BDE8F081286028462DF0E4FD044660B129
S315080034301C4D1D49286840F070FD3FF0E6FC3FF042
S31508003440E5FC234632461A49E6E7414628462DF06A
S315080034501DFF044660B1134D1349286840F05DFD11
S315080034603FF0D3FC3FF0D2FC234632461149D3E75E
S315080034707B78002BD3D0284633F086FA05460028F9
S31508003480CDD0084C0849206840F047FD3FF0BDFC08
S315080034903FF0BCFC20682B463246074940F03DFD0C
S315080034A02C46BCE750480020DC450508AE600508F8
S315080034B0E66005081C610508596105082DE9F84309
S315080034C00E4605461178304699469DF820709DF8B7
S315080034D024802DF0DDFD044688B12C4E2C49306839
S315080034E040F01BFD3FF091FC3FF090FC23462A4636
S315080034F02849306840F011FD2046BDE8F883012FC1
S3150800350002D0022F18BFFF27B8F1010F04D0B8F177
S31508003510020F18BF4FF0FF084246394630462DF0D5
S31508003520C7FD044660B1194E1949306840F0F5FCEC
S315080035303FF06BFC3FF06AFC23462A461649D8E75B
S31508003540494630462DF0D6FD044660B10F4E104967
S31508003550306840F0E2FC3FF058FC3FF057FC234649
S315080035602A460E49C5E7304635F0F2FF04460028DC
S31508003570C2D0064E0649306840F0CFFC3FF045FC05
S315080035803FF044FC23462A460549B2E75048002046
S31508003590DC45050891610508C96105080F6205083B
S315080035A05062050838B5044688B103460144002030
S315080035B08B421AD0002213F8014B44FA02F5ED07A4
S315080035C002F1010248BF0130082AF6D1F0E7074D9B
S315080035D00749286840F0A1FC3FF017FC3FF016FCAD
S315080035E00449286840F099FC204638BD5048002018
S315080035F0DC4505088E6205082DE9F04F04460027CC
S3150800360097B000F5847303930893D0F8043100F556
S315080036108055ADF8243000F6580304930A93D0F881
S31508003620543812AEADF82C3008AB0E930AAB0F9394
S31508003630431C059310930378ADF846708DF8443013
S3150800364095F828318DF8453000F6AC730FCB07C6D0
S31508003650337004F586560836012130460EAA36F030
S3150800366003FD804601462046FFF778FDB8F1000FB6
S3150800367022D0B8F1030FDFF83C9000F021830B4904
S31508003680D9F8000040F049FC3FF0BFFB3FF0BEFB15
S3150800369095F8C02043460649D9F8000040F03DFC9D
S315080036A042463A212046FFF7ADFC6EE2DC450508A6
S315080036B0D268050850480020002304F6D677384615
S315080036C0069307933FF069FB95F85E904146B9F17A
S315080036D0FF0918BF4FF0010930464A4607AB2DF0DF
S315080036E0A5FF804601462046FFF738FDB8F1000FD2
S315080036F040F09B814146384604F6DA7307AA01F082
S31508003700CBFE8346002800F0A281DFF87C83D949E6
S31508003710D8F8000040F001FC3FF077FB3FF076FB5D
S315080037205B4695F8C020D449D8F8000040F0F5FB70
S315080037304FF0000895F85E30FF2B2CD000210222AE
S31508003740304607AB2DF072FF824601462046FFF74A
S3150800375005FDBAF1000F40F07D810121384604F6D7
S31508003760DA7307AA01F098FE8246002800F09C81C9
S31508003770DFF814B3BF49DBF8000040F0CEFB3FF09A
S3150800378044FB3FF043FB534695F8C020BB49DBF8A2
S31508003790000040F0C2FB4A46022106AB30462DF037
S315080037A045FF824601462046FFF7D8FC04F58055BA
S315080037B0BAF1000F40F07B810221384604F6DA732D
S315080037C006AA01F069FE8246002800F08081DFF82B
S315080037D0B8B2A849DBF8000040F09FFB3FF015FBA4
S315080037E03FF014FB534695F8C020A549DBF80000C6
S315080037F040F093FB95F85E30FF2B2CD00222304622
S31508003800114606AB2DF012FF824601462046FFF709
S31508003810A5FCBAF1000F40F05D810321384604F695
S31508003820DA7306AA01F038FE8246002800F06281A3
S31508003830DFF854B28F49DBF8000040F06EFB3FF02A
S31508003840E4FA3FF0E3FA534695F8C0208D49DBF8D1
S31508003850000040F062FB4A46002106AB30462DF0D8
S315080038608DFC824601462046FFF778FC04F5805B0E
S31508003870BAF1000F40F041810421384604F6DA73A4
S3150800388006AA01F009FE8246002800F044817E4D12
S315080038907849286840F041FB3FF0B7FA3FF0B6FA9E
S315080038A053469BF8C0207949286840F036FB9BF8B8
S315080038B05E30FF2B29D000210222304606AB2DF0C0
S315080038C05DFC824601462046FFF748FCBAF1000F28
S315080038D040F024810521384604F6DA7306AA01F079
S315080038E0DBFD8246002800F02781674D614928687C
S315080038F040F013FB3FF089FA3FF088FA53469BF8ED
S31508003900C0206349286840F008FB03238DF830304F
S31508003910DBF8733030460CA9CDF831302DF00EFCAB
S31508003920824678B1584D5349286840F0F6FA3FF078
S315080039306CFA3FF06BFA53469BF8C0205549286845
S3150800394040F0EBFA4A46012106AB30462DF06EFEF2
S31508003950824601462046FFF701FC04F58055BAF178
S31508003960000F40F059810621384604F6DA7306AA94
S3150800397001F092FD8246002800F0E180DFF808B1E8
S315080039803C49DBF8000040F0C8FA3FF03EFA3FF049
S315080039903DFA534695F8C0203F49DBF8000040F051
S315080039A0BCFA94F8B92F95F85D30022A33D1022B68
S315080039B031D195F89830013B012B2CD803214A4682
S315080039C0304606AB2DF032FE824601462046FFF70A
S315080039D0C5FBBAF1000F40F032810721384604F6DC
S315080039E0DA7306AA01F058FD8246002800F0C58061
S315080039F0DFF894B01F49DBF8000040F08EFA3FF07C
S31508003A0004FA3FF003FA534695F8C0202349DBF839
S31508003A10000040F082FA95F85D30012B00F0BA807C
S31508003A20B8F1000F00F0B180ABE0DFF85CB01149E7
S31508003A30DBF8000040F071FA3FF0E7F93FF0E6F9ED
S31508003A40434695F8C0201649DBF800006EE64FF0AD
S31508003A5001086FE6DFF830B00649DBF8000040F0F1
S31508003A605CFA3FF0D2F93FF0D1F9534695F8C020F9
S31508003A700C498CE6DC450508D76205085563050838
S31508003A80E56305086B6405085048002003650508CA
S31508003A9092650508336605087C66050844670508C7
S31508003AA0166305089D6305084FF0010873E6DFF8FD
S31508003AB0B0B2A849DBF8000040F02FFA3FF0A5F9AC
S31508003AC03FF0A4F9534695F8C020A3498EE64FF077
S31508003AD001088FE6DFF888B29E49DBF8000040F05F
S31508003AE01CFA3FF092F93FF091F9534695F8C02039
S31508003AF09A49ACE64FF00108ADE6994D9549286814
S31508003B0040F00BFA3FF081F93FF080F953469BF8F5
S31508003B10C0209449C8E64FF00108C8E6904D8D4983
S31508003B20286840F0FAF93FF070F93FF06FF953460C
S31508003B309BF8C0208C49E5E64FF00108E5E6079BAF
S31508003B408DF830000CA93046CDF831302DF0F6FA54
S31508003B50824601462046FFF701FBBAF1000F42D123
S31508003B6094F8B92F95F85D30022A08D1022B06D1B0
S31508003B7095F89830013B012B5ED995F85D30012BFD
S31508003B8006D0D5F8D060002E77D117B0BDE8F08FF3
S31508003B904FF001084A460121304606AB2DF0EEFAF1
S31508003BA0814601462046FFF7D9FAB9F1000F56D1EA
S31508003BB00921384604F6DA7306AA01F06DFC814637
S31508003BC00028DED0664E6349306840F0A6F93FF01B
S31508003BD01CF93FF01BF94B4695F8C020634930683D
S31508003BE040F09BF91CE7DFF878815A49D8F80000BD
S31508003BF040F093F93FF009F93FF008F953469BF86E
S31508003C00C0205B49D8F8000040F087F994F8B93F1E
S31508003C10022B9BF85D30A8E7DFF844B14D49DBF885
S31508003C20000040F07AF93FF0F0F83FF0EFF853461D
S31508003C3095F8C0204F49B0E64FF00108BEE6DFF818
S31508003C4020B14449DBF8000040F067F93FF0DDF8A1
S31508003C503FF0DCF8534695F8C0204749D7E6404E72
S31508003C603C49306840F059F93FF0CFF83FF0CEF8BC
S31508003C704B4695F8C0204149B1E7237804F6DA7235
S31508003C8085F82C31631CC5F83031D4F80431C5F8F1
S31508003C903431039BC5F83831D4F85438C5F83C316B
S31508003CA0049BC5F840310023019304F589530C336E
S31508003CB00093B4F8A41F3B4695F8C000B04764E7E4
S31508003CC095F8C030394630460DAACDE90C778DF8FF
S31508003CD030302DF0B7FA064601462046FFF73EFA81
S31508003CE036BB2749D9F8000040F017F93FF08DF8A0
S31508003CF03FF08CF895F8C0202249D9F8000040F02A
S31508003D000CF9D5F8D43013B131460CA898471C499C
S31508003D10D9F8000040F001F93FF077F83FF076F85F
S31508003D2095F8C0201849D9F8000040F0F6F82CE7B5
S31508003D300849D9F8000040F0F0F83FF066F83FF07F
S31508003D4065F8334695F8C0201049D9F8000040F0C8
S31508003D50E4F8DCE7DC45050828640508B7640508C7
S31508003D60504800204D650508E5650508BD67050846
S31508003D70C06605080567050883670508F767050827
S31508003D80234605082C680508A36805085968050828
S31508003D902DE9F04F0446CB790A68D0F8A80F85B00C
S31508003DA004F5847804F58056EBB1118902F1130500
S31508003DB0C1F30B01A4F8A41F117C86F82811577BC0
S31508003DC092F80EA092F8119010B90421C4F80411C3
S31508003DD0D4F8041101F5847020440831C4F8A80FFA
S31508003DE0C4F8041109E0517A02F10C0586F8281185
S31508003DF0977992F807A092F80A904FF0000B83F093
S31508003E0001030093414696F82931D4F8A80F3EF0ED
S31508003E102FFFD4F8042102F5847222445FFA8BF34B
S31508003E204B4529D3A2EB0802012FC4F80421274CDD
S31508003E3011D00F2F46D0002F46D02549206840F0D4
S31508003E406CF83EF0E2FF3EF0E1FF96F8C02021490B
S31508003E50206840F062F800251F49206840F05DF8A8
S31508003E603EF0D3FF3EF0D2FF1C49206840F055F8DB
S31508003E70284605B0BDE8F08F294611F8030BBAF1BC
S31508003E800F0F00F0030002F1010310D160F07F006C
S31508003E9010702278A8786D7804EB020C01328CF841
S31508003EA001500BF1010B22700D181A46B6E7107077
S31508003EB0AA781846039142F0A7FE0346AA78039902
S31508003EC01344E6E70125C7E70225C5E75048002061
S31508003ED0DC4505080F690508234605083F690508F6
S31508003EE073B5044650F0BCF805464FF0D7FB0C4EA8
S31508003EF004F580540B49C4F8E000306840F00DF82A
S31508003F003EF083FF3EF082FF0095D4F8E03094F847
S31508003F10C0200549306840F000F802B070BD00BF07
S31508003F2050480020234605085169050838B500F5AC
S31508003F3080540546002194F86E2094F8C00020F0BD
S31508003F4055FC80B9154D164928683FF0E6FF3EF046
S31508003F505CFF3EF05BFF94F8C020124928683FF0EA
S31508003F60DCFF042038BD252815D105F587500B4DF3
S31508003F700C3001F043FD0A4928683FF0CEFF3EF0B9
S31508003F8044FF3EF043FF94F8C020074928683FF0F5
S31508003F90C4FF0220E6E70920E4E700BF50480020F6
S31508003FA0234605088E690508D4690508F8B500F59D
S31508003FB08054054694F86E1094F8C00020F0CAFBA9
S31508003FC0D4F8C830254EBBB105F58650083032F016
S31508003FD0A1FC074680B1224930683FF09EFF3EF0BB
S31508003FE014FF3EF013FF3B4694F8C0201D49306885
S31508003FF03FF093FF0120F8BD41F244120021284604
S3150800400042F0F7FD184930683FF087FF3EF0FDFEA5
S315080040103EF0FCFE94F8C020144930683FF07DFF5E
S31508004020FF2384F8C0304FF0FF33C4F8A8301723B5
S31508004030A4F8BA30B4F8A43040F24A7203F0F00398
S3150800404043F48673A4F8A430002405F658002146E4
S31508004050C5F8544842F0CDFD2046CCE7504800202C
S31508004060DC4505080A6A050823460508446A050862
S315080040702DE9F0430F46904606468FB0B8B9B84CBE
S31508004080B84920683FF049FF3EF0BFFE3EF0BEFE4D
S31508004090FF22B54920683FF040FF222235213046ED
S315080040A0FEF7B0FF222528460FB0BDE8F0830A299F
S315080040B000F5805421D1AA4D00F587500C3001F047
S315080040C09DFCA84928683FF028FF3EF09EFE3EF07A
S315080040D09DFE94F8C020A54928683FF01EFF0923D5
S315080040E084F826313046D8F8042098F80010FEF7F0
S315080040F089FF0025C7E017469846092F4FF00105A6
S3150800410040F0C180002194F86E2094F8C00020F099
S315080041106DFB054690B9924D954928683FF0FDFE1E
S315080041203EF073FE3EF072FE286894F8C02091496E
S315080041303FF0F3FE082584F8265138E241F20C03D5
S31508004140984205D041F21203984201D025281BD186
S3150800415006F587500C3001F051FC3046FFF726FF74
S315080041600546002840F00A837D4E814930683FF0B5
S31508004170D4FE3EF04AFE3EF049FE94F8C0207E4941
S3150800418030683FF0CAFED6E7DFF8D4817549D8F81B
S3150800419000003FF0C2FE3EF038FE3EF037FE2B46EA
S315080041A094F8C0207549D8F800003FF0B6FE2323DE
S315080041B084F826718DF82C300C9586E0002F7FF454
S315080041C072AF674D6A4928683FF0A7FE3EF01DFEAC
S315080041D03EF01CFE94F8C020694928683FF09DFE11
S315080041E0012384F82631E2E1012F7FF45CAF98F8C9
S315080041F00030002B62D05A4F5D4938683FF08DFE7B
S315080042003EF003FE3EF002FE94F8C0205D49386891
S315080042103FF083FE022294F8A530A4F82621002B4D
S315080042203FF469AF40F24A7194F8C00006F65802A6
S315080042303EF032FB0546A0B14A4938683FF06DFEAC
S315080042403EF0E3FD3EF0E2FD94F8C0204E492B46D1
S3150800425038683FF062FE2A460F213046FEF7D2FE46
S3150800426021E7434938683FF058FE3EF0CEFD3EF060
S31508004270CDFD94F8C020454938683FF04EFE4FF012
S3150800428000080227012594F82631082B3FF60BAFC4
S3150800429001A252F823F000BFBD410008E941000819
S315080042A0D142000899430008194700086B450008E1
S315080042B0F94600080F4700085F470008092384F8F5
S315080042C0263136230C978DF82C300A210BAAE2E109
S315080042D0022F7FF4E8AE94F8C53043B9092384F871
S315080042E026312C238DF82C3001230C93EDE7012180
S315080042F094F86E2094F8C00020F078FA40BB00903D
S3150800430006F58750334640F6B831214A0C3001F09D
S3150800431093FB0546B8B9124E012194F8C00000F087
S31508004320B1FB134930683FF0F8FD3EF06EFD3EF0F4
S315080043306DFD94F8C020174930683FF0EEFD032361
S3150800434084F82631AFE6092384F82631212331E79C
S31508004350092384F8263120230C908DF82C30B4E7F5
S3150800436050480020DC450508676A05089F6A050865
S3150800437023460508CB6A0508FA6A05082E6B050860
S31508004380696B0508D469050879500508946B050812
S3150800439055280408CD6B0508042F7FF484AED8F899
S315080043A00030C54F5D88002D60D14FF059FE81461B
S315080043B04FF074F9D8F80030C4F8DC00D3F80720B9
S315080043C0BE49C6F8AC2FDA7A386886F8B02F9A89CB
S315080043D0A6F8B12FDA89A6F8B32F1A8AA6F8B52F48
S315080043E05B8AA6F8B73F3FF098FD3EF00EFD3EF01B
S315080043F00DFD94F8C020B24938683FF08EFDAF49EC
S3150800440038683FF08AFD3EF000FD3EF0FFFCB6F846
S31508004410B73FAC490693B6F8B53F0593B6F8B33F30
S31508004420049396F8B03F0393B6F8B13F0293D6F8D3
S31508004430AC3FCDE90093D4F8DC3094F8C020386856
S315080044403FF06BFD9D4938683FF067FD3EF0DDFCA7
S315080044503EF0DCFC9C4994F8C02038683FF05DFDCE
S31508004460294630463EF0BAF9052369E79749386880
S315080044703FF053FD3EF0C9FC3EF0C8FCD8F80030CA
S3150800448094F8C0205B88924938683FF046FD94F856
S3150800449027310133DBB2022B84F827315BD88B49ED
S315080044A038683FF03AFD3EF0B0FC3EF0AFFC94F8B9
S315080044B0C020884938683FF030FD94F89630099353
S315080044C094F89530089394F86F30079394F97130FF
S315080044D0069394F85B30059394F868300493D4F8FF
S315080044E07B300393D4F877300293B4F8893001937C
S315080044F0B4F885300093B4F88330B4F8872094F87C
S315080045006E1094F8C00020F039F9054688B16F4955
S3150800451038683FF002FD3EF078FC3EF077FC94F8F0
S31508004520C0206D492B4638683FF0F7FC2A461E2105
S3150800453093E6624938683FF0F0FC3EF066FC3EF0D0
S3150800454065FC94F8C020654938683FF0E6FC02230C
S3150800455084F8263193E606F587500C3001F04EFABA
S31508004560092384F826311F23BCE6082F63D198F85F
S315080045700B50F5B9B4F8893043B13046FFF7D6FC8D
S31508004580092884F8260112D1242313E64A4D4B49FB
S3150800459028683FF0C2FC3EF038FC3EF037FCB8F81D
S315080045A0083094F8C0204E4928683FF0B6FC00252C
S315080045B079E598F80A30012B2AD13F4DB4F889706D
S315080045C028683E4987B13FF0A8FC3EF01EFC3EF045
S315080045D01DFC94F8C020434928683FF09EFC072339
S315080045E084F8263101255EE53FF097FC3EF00DFC88
S315080045F03EF00CFC94F8C0203B4928683FF08DFC3F
S3150800460005233946304684F826313EF0E7F8CEE7EA
S31508004610022BE7D1284D294928683FF07EFC3EF059
S31508004620F4FB3EF0F3FB94F8C020304928683FF0CD
S3150800463074FC0623D5E5063F012F3FF634AD414607
S315080046403046FFF7A5FB054600283FF40DAF1A4F85
S31508004650012D3868194923D13FF05FFC3EF0D5FBA0
S315080046603EF0D4FBB6F8A43F94F8C0202049386839
S315080046703FF053FC012308218DF83730B6F8A43FE4
S315080046808DF83650ADF8343006F584730B93D6F8AA
S3150800469004310BAA0C933046FFF7EAFC054602E5FF
S315080046A03FF03BFC3EF0B1FB3EF0B0FBB6F8A43F52
S315080046B094F8C0200F49DAE7504800202346050839
S315080046C0126C0508506C0508C9580508DC4505082C
S315080046D0106D05085F6D050848580508D469050872
S315080046E0A66D0508F96D0508406E0508836E050870
S315080046F0CB6E0508FF6E0508082F7FF4D4AC01229F
S31508004700414630460FB0BDE8F04300F063B8082FC5
S315080047107FF4C9AC0022F3E7042F7FF4C4ACD8F8C1
S3150800472000301B79002B7FF442AF3046FFF7D8FBE9
S31508004730D8F80030224D5B8833BB06F587500C301D
S3150800474001F05CF91F4928683FF0E7FB3EF05DFB86
S315080047503EF05CFB94F8C0201B492868F5E6042F58
S315080047607FF4A1ACD8F800301A79002A7FF41FAF7D
S315080047705B8843B93046FFF7B3FBEEE4092384F8B8
S315080047802631382316E50E4D104928683FF0C5FB3B
S315080047903EF03BFB3EF03AFBD8F8003094F8C020D8
S315080047A05B880B4928683FF0B8FB092384F8263153
S315080047B023238DF82C30D8F800305B8895E500BFA8
S315080047C05048002023460508D4690508DC45050835
S315080047D0346F05082DE9F043CE7A04460F46914614
S315080047E087B000F5805566B3B5F88930A3B1FFF7F1
S315080047F09DFB092885F8260121D124238DF80C3044
S31508004800002304930A21204603AAFFF731FC064633
S31508004810304607B0BDE8F0835B4E5C4930683FF030
S315080048207CFB3EF0F2FA3EF0F1FAB4F8A43F5849A0
S3150800483000933B8995F8C02030683FF06EFB002650
S31508004840E6E70A89B0F8A43F9A421ED0B5F889303F
S3150800485053B1FFF76BFB092885F82601EFD124230E
S3150800486004968DF80C30CDE7474E484930683FF03E
S3150800487054FB3EF0CAFA3EF0C9FAB4F8A43F4549DB
S3150800488000933B8995F8C020D6E700F587500C3091
S3150800489001F0B4F858B1092385F82631222304908B
S315080048A00A21204603AA8DF80C30FFF7E1FBDFF852
S315080048B0D880B5F88930D8F800003449A3B33FF05A
S315080048C02CFB3EF0A2FA3EF0A1FA95F8C020324938
S315080048D0D8F800003FF021FB02210022204685F887
S315080048E02611FFF7C5FBBB7A0646022B0AD1B9F19A
S315080048F0000F07D02046FEF77FFE002120463DF038
S315080049006DFF85E72149D8F800003FF006FB3EF029
S315080049107CFA3EF07BFA3B8995F8C0201F49D8F807
S3150800492000003FF0FAFAE8E73FF0F7FA3EF06DFAD2
S315080049303EF06CFA95F8C0201949D8F800003FF007
S31508004940ECFA052385F82631BB7A022B0AD1B9F190
S31508004950000F07D02046FEF74FFE002120463DF007
S315080049603DFF6CE70949D8F800003FF0D6FA3EF05B
S315080049704CFA3EF04BFA3B8995F8C0200749D8F81F
S3150800498000003FF0CAFAE8E7504800202346050829
S31508004990826F0508D76F0508D46905082B700508C6
S315080049A0C958050808B5074B4FF446720021184642
S315080049B042F01FF9FF22827680F8222180F82A2207
S315080049C008BD00BFA80D00200B4B9A7E82420DD071
S315080049D093F8222182420BD093F82A22824209D1E7
S315080049E002224FF4847101FB023070470022F8E777
S315080049F00122F6E700207047A80D0020FF282DE9C0
S31508004A00F04107460E46904632D099B3A2F11703F5
S31508004A10E32B31D84FF6FF730C889C422CD08A883A
S31508004A209A4229D0CA889A4226D00A899A4223D01D
S31508004A30FF20FFF7C9FF054600B32146384619F09F
S31508004A4071FD044688B94FF484720146284642F03F
S31508004A50D0F80B4BAF761A689B88C5F806206B8191
S31508004A6001236E61A5F818802B702046BDE8F081F9
S31508004A702524FAE72224F8E72124F6E71924F4E79F
S31508004A8059700508FF2837B50C4625D0FFF79CFF57
S31508004A90054618B34CB9983000F0B0FF05F1600030
S31508004AA000F0ACFF204603B030BD0378052B03D0D9
S31508004AB0082B0AD00220F6E7002341F28831084A7B
S31508004AC00093983000F0B8FFEDE7002341F28831F3
S31508004AD0044A00936030F5E72520E4E72D20E2E755
S31508004AE0512B04080B2B0408174B984207D003F1E7
S31508004AF03802904203D003F1700290420AD1002393
S31508004B0000E001234FF48472104802FB030070474B
S31508004B100223F7E703F584729042F2D003F5A072F8
S31508004B209042EED003F5BC729042EAD003F50472C7
S31508004B309042EDD003F512729042E9D003F5207346
S31508004B409842E5D000207047080E0020A80D0020E6
S31508004B5013B590F82A00FFF737FF68B100F1600433
S31508004B60204600F04BFF00234FF47A71009320464D
S31508004B700123024A00F060FF02B010BD0B2B0408A7
S31508004B8070B5054600F07CFB0646284600F064F939
S31508004B902B68A94A23F47F43064023F0070386F0CF
S31508004BA001069342F6B200F0B2800BD802F17A42BF
S31508004BB0934200F0A08002F57D02934220D086F051
S31508004BC0010070BD9D4A9342F9D12879FFF7FCFE92
S31508004BD004460028F3D0EB790B2B3DD14269B5F892
S31508004BE005301188994221D16B89042B06D10378A7
S31508004BF0012B03D1EA6880F82030C261012321E045
S31508004C00A879FFF7E1FE04460028D8D0D03000F096
S31508004C10F5FE04F1600000F0F1FE04F1980000F0E2
S31508004C20EDFE00232370FF23A376C8E7D1889942B7
S31508004C300AD1AD89983000F0E1FE2946A07E3DF004
S31508004C4062FF00231E43BAE712899A42F9D1A9895D
S31508004C50807E3DF059FFF4E71B2B01D01D2BAED10A
S31508004C606169B5F8052048899042C7D048889042BE
S31508004C70C4D0C888904202D009899142E1D11D2B3F
S31508004C8002D1A07E19F03EFC6B89022BB6D162696F
S31508004C90B5F80530D1888B4208D012899A420ED0D1
S31508004CA0AD892946A07E3DF02FFFA7E7E8791D28A4
S31508004CB017D1E07B0228A1D112899A4205D1EA7957
S31508004CC01D2A13D1227C022A98D18B42AD89E8D1BC
S31508004CD004F1980000F092FE2946A07E3DF013FFED
S31508004CE08CE71B28E8D1E07B0128E4E71B2AECD1F6
S31508004CF0227C012AE8E72879FFF766FE00283FF4B8
S31508004D005EAF6B79AA7943EA0223038357E72879CA
S31508004D10FFF75AFE044600283FF451AFB5F80520C0
S31508004D20037862B3092B8CD8012101FA03F010F439
S31508004D30127F0AD110F090001BD18B4281D12070CE
S31508004D40E169A07EFDF7F2F958E7002384F82230DE
S31508004D50A384A378052B05D102212370A07EFDF735
S31508004D6085FA4BE7012B7FF449AF0823032123700B
S31508004D70F4E70223A07E2370FDF778FA61E7013B8A
S31508004D80082B3FF65EAF01A252F823F0B14D00089A
S31508004D90434C0008DF4D0008174E0008434C000836
S31508004DA0FD4D0008474E0008434C0008CD4D00084D
S31508004DB094F82030807EE1692BB10223002223700B
S31508004DC0FDF7B4F93DE701222370F9E78378827C81
S31508004DD003441A730223002203700121BEE7837875
S31508004DE0827C03441A7340F20253438020463DF006
S31508004DF049FD024620BB04232370FFE68378827CA4
S31508004E0003441A7340F2011343803DF03BFD02460A
S31508004E10B0B90723F0E78378817CC2181173C2788A
S31508004E209A4205D10022052380F82220828493E73E
S31508004E3001338370DAE700BFA0000906A00009075E
S31508004E4002232370C9E78378827C03441A730022FD
S31508004E5080F82220828488E7F0B50368954A23F40F
S31508004E607F4323F007039342054691B004D0002000
S31508004E7080F0010011B0F0BD0079FFF7A5FD0446EA
S31508004E800028F4D0EB791D2BF1D14369B5F805203C
S31508004E909B889A42EBD16B89012B04D8A07E19F026
S31508004EA031FB0120E4E72A7B012A4CD0022A00F0D4
S31508004EB08F80002AF2D1032BF0D10378B5F80D5074
S31508004EC0052BEBD190F82230002BE7D090F8217013
S31508004ED0002FE3D1838CAB42E0D1D03000F08EFDB9
S31508004EE004F1280604F1600000F088FD304600F061
S31508004EF0A5F9304684F822700AA93DF093FE0346C8
S31508004F0000B90A9BDDF83920DDF83510A07ECDE919
S31508004F1008129DF8342007929DF833200692DDF892
S31508004F202F2005929DF82E2004929DF82D2003929D
S31508004F309DF82C20CDE90152012200920022002181
S31508004F40FDF73EFAAAE7052BA8D10378052BA5D1CC
S31508004F5090F82230002BA1D090F82130022B9DD159
S31508004F60B5F80D20838C9A4298D1D03000F046FDD2
S31508004F7004F1280604F1600000F040FD304600F018
S31508004F805DF90023304684F822300AA93DF04AFE2E
S31508004F90034600B90A9BDDF83920DDF83510A07EF6
S31508004FA0CDE908129DF8342007929DF83320069221
S31508004FB0DDF82F2005929DF82E2004922A7C039274
S31508004FC0EA7B0292B5F80D20019201220092B6E71B
S31508004FD0022B7FF463AF90F822306D7B002B3FF4F1
S31508004FE05DAFD03000F00AFD94F82330BBB1012D37
S31508004FF006D104F1600000F001FD002384F8223098
S315080050000026A07E32462B46032184F823603DF015
S31508005010FDFD2A463146A07E3DF0FAFD3EE7002317
S3150800502094F8211084F82230012901D0042904D1EA
S315080050302B460022A07E3DF0E9FD94F82130012B95
S3150800504031D013F0FD0F7FF429AF04F1280630465E
S3150800505000F0F4F830460AA93DF0E4FD034600B92D
S315080050600A9BDDF83910DDF8356094F82120A07E1A
S31508005070CDE908619DF8341007919DF83310069123
S31508005080DDF82F1005919DF82E1004919DF82D102E
S3150800509003919DF82C100291A18CCDE90051911E27
S315080050A04A424A414BE72A460021A07E3DF0AFFD21
S315080050B0F4E600BFA000090738B5002405464EF0FF
S315080050C0D3FE074B1B681BB94EF0C9FE204638BDF8
S315080050D093F82A20AA4208BF1C461B68F3E700BFBC
S315080050E04C4800202DE97043044616460D46037BBE
S315080050F086B023F0180343F0100381610373014659
S315080051000D483DF076FED4E90489217BCDE9048972
S31508005110227981F00403C1F3400101910292226BC6
S315080051202946009220463246C3F380033DF03EFDF1
S3150800513006B0BDE8708300BF4C4800202DE9F04159
S315080051400C4690461E46054686B000286FD00029B4
S315080051506DD04B68002B6AD0002A68D08B7BFF2B5A
S3150800516067D00A7C4FF6FF73002A52D0B8F802209F
S315080051709A425ED02368002B57D0A389173B9BB26F
S31508005180E32B52D84EF070FE07462B4B1B68002BBC
S3150800519042D1A07BFFF790FF00283FD101AB04F175
S315080051A0100C1A4620686168083403C26445134621
S315080051B0F7D12068002110603822284641F019FDF1
S315080051C001AC05F11C030DF1140C224603CA624515
S315080051D018605960144603F10803F6D11068186080
S315080051E09DF8303085F82460EB842B7BC5F8348035
S315080051F043F008032B73AE800EB1731E9EB2294688
S315080052000D48EE803DF0E6FD38464EF028FE0020BB
S3150800521008E0B8F80A20ABE79D42B7D138464EF009
S315080052201EFE2E2006B0BDE8F0812120FAE72220D6
S31508005230F8E72520F6E700BF4C48002070B505467C
S31508005240C8B14EF011FE06460C4B1B682BB92D242F
S3150800525030464EF004FE204670BD9D42F5D12C7BAB
S3150800526014F0100405D1062201212846FFF73AFF5B
S31508005270EEE70224ECE72224EDE700BF4C480020C5
S315080052800368764A23F47F4323F0070393422DE904
S31508005290F04705461BD002F1C06202F54032934240
S315080052A01BD002F1794293420CD10079FFF704FF33
S315080052B040B1B5F80520038D9A4203D01322022186
S315080052C0FFF710FF002080F00100BDE8F087807925
S315080052D0FFF7F2FE0028F1D1F4E7C3791D2B01D0C0
S315080052E01B2BEFD12879FFF7E7FE04460028E9D003
S315080052F090F82B20EB79F2B91D2BE3D094F82C000B
S31508005300B5F80520616BC0B149889142DAD11D2BE9
S3150800531002D1287919F0F6F86A89D2B2012A03D996
S31508005320208DC31E93420AD22B2202212046FFF764
S31508005330D9FE0120C7E71B2BDFE74989E5E7297B6B
S3150800534094F824C0CF074FEA910301F002061BD553
S31508005350A380237B43F001032373A38826B1217B13
S31508005360238141F0020121739C4564D8E18CFF2911
S3150800537001D099425FD304385843E169013A83184A
S315080053808B4251D91D22D0E7277BF9071BD4E64665
S315080053904FF0010947F001072773A3805FFA8EF1E2
S315080053A0994203D361890B446381D6E709FA0EF85B
S315080053B0D4E9047147EA080741EAE871C4E90471C7
S315080053C00EF1010EEAE7B4F806E0A3EB0E0101F0D0
S315080053D03F0101390EF101095FFA81F859FA81F1A5
S315080053E089B23F2984BF47F004072773A180217B30
S315080053F0490705D44FF0010A013BDBB29E4501D3AC
S315080054004346CFE763450CD3E18C994209D3D4E9E7
S3150800541004710AFA03F947EA090741EAE971C4E996
S315080054200471013BDBB2E9E72363236A05F10D0149
S31508005430184441F0E9FB2046A188FFF789FBA288BA
S31508005440E38CE2809A4205D0002E3FF472AFFF2B20
S315080054507FF46FAF0022114668E700BFA00006017F
S31508005460092838B504460FD9084D094928683EF079
S3150800547054FD3DF0CAFC3DF0C9FC224605492868A2
S315080054803EF04BFD002038BD0420FCE750480020C4
S31508005490DC4505085F7005082DE9F341044690F8D8
S315080054A0028008460D4617461E46FFF7D9FF4044B8
S315080054B0013080281DD9284E284930683EF02DFD38
S315080054C03DF0A3FC3DF0A2FC28463668A478FFF719
S315080054D0C7FF0134031980221C243046CDE9002475
S315080054E01F492A46DBB23EF018FD204602B0BDE849
S315080054F0F0816378AB4212D92626174F17493868C8
