:020000040800F2
:10000000A80D002031580008E3390408E33904083A
:10001000F5550408E3390408E3390408E339040812
:10002000E3390408E3390408E3390408E339040830
:10003000E3390408E33904083D330408E3390408CC
:10004000E3390408E3390408E3390408E339040810
:10005000E3390408E3390408E3390408E339040800
:10006000E3390408E3390408E33904082D030108DF
:1000700097760408E3390408E3390408E3390408EF
:10008000E3390408E3390408E3390408E3390408D0
:10009000E3390408BD630008E3390408E3390408C0
:1000A000E3390408C95F0008A95F0008E3390408C0
:1000B000E339040839EE02080DF70208EF290508B4
:1000C000EB29050881EE0208052A0508F329050831
:1000D000DDF60208F72905084DF70208B5F7020812
:1000E000E3390408E3390408E3390408E339040870
:1000F000D74A0408E3390408E3390408E33904085B
:10010000E3390408E3390408E3390408E33904084F
:10011000E3390408E3390408E3390408E33904083F
:10012000E3390408E3390408E3390408E33904082F
:10013000E3390408E3390408E3390408E33904081F
:10014000E3390408E3390408E33904085D4F05087E
:100150004DD80208E3390408D9290508DF29050824
:10016000E3390408E3390408E3390408E3390408EF
:10018000F0B5114A114C124E00F00105E3695F070A
:1001900013D40DB9334213D103EA00078F4207D1BC
:1001A0000B4A1A40002A0CBF00206FF00100F0BD7E
:1001B000013AEBD16FF00200F9E74FF0FF30F6E7BC
:1001C0006FF00100F3E700BF809698000000035035
:1001D000020001000B4B70B5D96911F480310DD1CB
:1001E00001244FF48072084E084DF46020462C64C0
:1001F0001A61FFF7C5FF3464EC6070BD6FF0010059
:10020000FBE700BF00000350001003500020035024
:100210004FF4803238B50E4B0E4C9A66E56941F6C4
:10022000713315400122E3630B4B0021DA60022396
:10023000606121202361FFF7A3FF10B92120FFF7A0
:100240009FFF0122054BDA600DB10023E36338BD47
:100250000090005000000350001003500020035095
:1002600070B5134C6061E3695B071ED40E4656F807
:10027000043B8D18A361AE420BD104230021212041
:100280002361FFF77DFF58B9BDE870402120FFF7DB
:1002900077BF08210846FFF773FF10B104232361DD
:1002A00070BD56F8043BA361E5E74FF0FF30F7E778
:1002B000000003502DE9F84315464FF48032184BE7
:1002C00089469A6603F51C33DF690646174041F6F6
:1002D0007132DA63012203F58053DFF84C80DA6073
:1002E00055B9284601220F4BDA601FB10022A3F551
:1002F0000053DA63BDE8F88306F5005404EA080405
:10030000A41BAC4228BF2C46494622463046FFF784
:10031000A7FF0028E6D12644A1442D1BE0E700BF3B
:10032000009000500020035000E0FFFF000000009C
:1003300000000000000000000000000000000000BD
:10034000013800D0FCE770472DE9F04F93B0CDE9BC
:100350000A32DDE91C530E9353EC102BCDE9080152
:10036000104619468DED060B1E9E11F005FC80B15E
:10037000DDE906014FF0FF32C54B11F025FC40B915
:10038000DDE906014FF0FF326FF4801311F0FEFB40
:1003900070B1DDE908019DED060B0E9B1E96CDE9BF
:1003A0001C53DDE90A3213B0BDE8F04F00F088B904
:1003B0000022DDE90601002311F0E8FB002800F02F
:1003C0003381DDE906A303F1004BCBF30A5016F4A9
:1003D0008063A0F2FF3008BF06250F9311F0FAF8F2
:1003E0009BA3D3E9002311F05FF99BA3D3E900237A
:1003F00010F0A4FFCBF31304894644F07F518046EC
:100400000022A44B504641F4401110F095FF94A3F4
:10041000D3E9002311F048F902460B46404649460D
:1004200010F08CFF11F0DAFB044611F0D3F88EA324
:10043000D3E900238046894611F036F90022964B15
:1004400010F07CFF11F0CAFB89A3D3E90023074613
:100450004946404611F028F980463846894611F051
:10046000B9F885A3D3E9002311F01EF902460B4623
:100470004046494610F060FF02460B46CDE90C238A
:1004800011F012F9DDE90C23804689461046194621
:1004900010F054FF0022CDE91001804B4046494640
:1004A00011F02CFA00227E4B10F048FF02460B465A
:1004B0004046494611F022FA00227A4B10F03EFFE6
:1004C00002460B464046494611F018FADDE90C2376
:1004D0008046894600204FF0804110F02DFF0246F3
:1004E0000B464046494610F029FF02460B46DDE91F
:1004F000100111F003FA07F2FF3700226A4B10F0E7
:100500001DFF00223B0511F0CFF852465B468046A6
:10051000894611F059FB002840F08980CDE90C890B
:1005200004F16303C72B34BF0427052731051BD50E
:1005300053A3D3E900235046594611F03BFB002852
:100540007FD051A3D3E900235046594611F01EFB3A
:10055000002876D00027A542C6BF2C1B04F1FF352A
:1005600000253C4646F480660E9B9F422CBF4FF010
:100570000008A3EB070816F0020903D0002F18BFEC
:100580004FF000083CB1DDE90C235046594611F00C
:10059000B5F982468B46DDE906010022002311F001
:1005A000F5FA10B10BF100439B46DDE9080126F492
:1005B0000063CDE90183DDE90A324BEC10AB009515
:1005C00000F07EF802465FB3DDE9091316F0200F54
:1005D00000F10105089E0CBF65204520B047DDE90C
:1005E00008010523002205930A23002CCDE90232DD
:1005F00007F1FF374FEAD473B8BF64422A4601932C
:1006000004970A9B009445F047F90246B9F1000FA0
:1006100006D00B9BC41A0B9B1A190E9BA34245D8FC
:10062000104613B0BDE8F08FDDE906ABCDE6002241
:10063000404649461A4B11F061F9013CCDE90C01E5
:100640006EE7002D90D00F9B002B8DD0013D8BE7E6
:10065000FB799F501344D33FB3C8608B288AC63FB1
:1006600061436F63A787D23F71A379094F930A4013
:100670001655B5BBB16B0240EF39FAFE422EE63F8C
:100680002D431CEBE2361A3F0000000080842E410F
:10069000FFFFEF7F0000F83F0000E03F00002C402C
:1006A00000002440000018400000F03F2020DDE959
:1006B0000913089DA8470134ADE700BF0000000002
:1006C0002DE9F04F5BEC10AB97B0CDE90501DDE90A
:1006D0002057CDE90723504652465B465946229E95
:1006E00011F04AFA70B90323CDE902760193B04BB9
:1006F0000093DDE90501DDE9072344F0EDFF17B0C4
:10070000BDE8F08F4FF0FF326FF48013504659462A
:1007100011F03CFA28B10423CDE902760193A54BF0
:10072000E6E74FF0FF3250465946A34B11F04CFA22
:1007300068B1A24A06F00403002B08BF0322A04BB5
:100740001CBF13460422CDE902760192D0E7504641
:1007500093A3D3E90023594611F036FA38B992A38E
:10076000D3E900235046594611F010FA68B1DDE98B
:100770000723DDE905014BEC10ABCDE9217620958F
:1007800017B0BDE8F04FFFF7DFBD00220023504651
:10079000594611F0FBF9002800F09A805B4652465A
:1007A0000020002110F0C8FD012382468B460993EA
:1007B00016F4806400F08E80092D40F28E800024B3
:1007C00030210EABA5F109020134202C03F8011BE6
:1007D000A5EB040901D09442F6D15946504611F0D8
:1007E000FDF9784B054603EBC90393ED007B8DEDD6
:1007F0000A7B10F0EFFE02460B465046594610F0B9
:100800009BFDDDE90A2310F04FFF02460B46CDE9C0
:100810000C2311F00BFA804610F0CCFE02460B467A
:10082000DDE90C0110F088FD02460B46CDE90C23F2
:100830000022654B11F0C8F9002851D008F10108D9
:10084000404610F0B7FE02460B46DDE90A0111F002
:10085000A7F910B14FF000080135B9F1000F50D1E0
:10086000284610F0B7FE02460B465046594610F097
:1008700063FD0022544B8046894611F087F930B160
:10088000002240464946504B11F09EF910B1E8074E
:1008900000D501350A210EAB1A19202C0AD095FB80
:1008A000F1F001FB1055303502F8015B01340546CB
:1008B0000028F2D106F00302012A57D1002F55D0AB
:1008C000099A12B916F00C0F00D0013F302245E012
:1008D00009906DE74FF006097FE7A94600247CE701
:1008E0000022DDE90C01384B11F050F90028B4D199
:1008F000B8F1000F02D018F0010FAED008F10108D6
:10090000ABE70A210EAB2344202C0ED0B8FBF1F04C
:1009100001FB1082B8F1090F02F1300209F1FF3931
:1009200004F1010403F8012B11D83021A1440EAACF
:10093000202CAFD0A14504F101030AD11C4609F1D6
:1009400058030DEB03092E2309F8203CA2E780464B
:10095000DAE7A1541C46EBE71A550134A74205D942
:10096000202CF9D1CDE902760194C1E6202CF9D0F2
:10097000099A3AB12D2104F158026A4402F8201C68
:100980000134EFE7710704D504F158022B216A44C2
:10099000F4E73207E6D504F1580220216A44EDE776
:1009A0000000000065CDCD410000000065CDCDC147
:1009B0002483050828830508FFFFEF7F1B830508B4
:1009C00020830508308305080000E03F0000000098
:1009D0002DE9F04F2DED028B002597B01D7003938C
:1009E000229B074607911D60002800F03C81437858
:1009F000047844EA0324837844EA0344C37844EA4D
:100A0000036463783F2B00F22E81AA4214BF0623B1
:100A100008238DF8243009230C958DF8263042796F
:100A2000037908469FEDA48B43EA02234A790434F4
:100A3000023292008DF825200AAA0092043B9BB254
:100A40002146007909AA8DED0A8B39F067FF0A9BD0
:100A50000646049360B1049B23B10C991846C91A49
:100A600044F0FBFC304617B0BDEC028BBDE8F08FC4
:100A70000B98039DC01A40102870C0B200EB4000D4
:100A80008F49800051F0E0FF8346002800F010817C
:100A90002B788DED0E8B1096002B00F0FA803346EC
:100AA00002960299E279591A8A42B246B04600F299
:100AB000AC8004D202991144994218BF0F91002AC8
:100AC00040F0AD807A783B7894F802E043EA022364
:100AD000BA7894F803C043EA0243FA7808EB480175
:100AE00043EA026300220BEB810514925A781878CE
:100AF00085F802E085F803C002F00F03E2798DED7E
:100B0000128B6A7194F906202A710BF821000EAA43
:100B10006B70204612AB09A937F0F2FE814600281F
:100B20003BD01298149910B1091A44F096FC039B1B
:100B30001B78F3B100252C462E4604EB44040BEB46
:100B40008404627A207A40EA0220A27A40EA0240D3
:100B5000E27A50EA026000F0968044F07CFC039B4D
:100B600001351B7826726672A672E672ECB29C4260
:100B7000E3D3584644F06FFC0023029A1099891A77
:100B8000039A1370029B13B1184644F066FC049B51
:100B90004E46002B7FF461AF64E7DDE91232D21AD2
:100BA000104647490693059251F04EFFC0F3072CBB
:100BB00085F809C0C0F3074C85F80AC04FEA106CED
:100BC000069B287285F80BC0002865D0059A002A7C
:100BD00035D185F8069085F80790002B40D1049B0D
:100BE0000AF1010A33F81820E3795FFA8AF83344EE
:100BF000DEB2039B14441B7843453BD90F9B0299FB
:100C0000E279591A8A427FF654AF511A0EA837F08A
:100C100019FE0E9BE2790293002A3FF453AF079826
:100C20004378017841EA0321837841EA0341C3789C
:100C3000029841EA0361314446F004FE42E7194656
:100C40000692059346F0FEFD069A1499059BAA713B
:100C5000C2F30722EA71C91A184644F0FEFBBEE748
:100C60001499C91AF8E70B26304617B0BDEC028B71
:100C7000BDE8F08F229B1099C3F800B0029BC91AFF
:100C8000002B81D183E70135ECB29C42FFF455AFD4
:100C90006FE7229B1860DEE63BB114991846C91A2B
:100CA00044F0DBFB4FF0020941E74FF002093EE759
:100CB0000226D0E6AFF30080000000000000000034
:100CC000281C06080348044B834202D0034B03B19F
:100CD0001847704748A2002048A2002000000000EA
:100CE000064B0749C91A891048BF0131491003D082
:100CF000044B0BB101481847704700BF48A20020C1
:100D000048A200200000000010B5064C237843B92B
:100D1000FFF7D8FF044B13B10448AFF30080012361
:100D2000237010BD52870020000000002027060815
:100D300008B5054B1BB105490548AFF30080BDE878
:100D40000840FFF7CDBF00BF00000000C81300201F
:100D500020270608A3F5803A704700BF174B002BE9
:100D600008BF134B9D46FFF7F5FF00218B460F464A
:100D70001348144A121A46F07FFD0E4B002B00D088
:100D800098470D4B002B00D098470020002104000D
:100D90000D000D48002802D00C48AFF3008011F080
:100DA00007FB2000290046F078FC11F03FF900BF56
:100DB000000008000000000000000000A80D002056
:100DC000A80D002060990020000000000000000035
:100DD00013B5094C237863B9022304200093074A12
:100DE0004FF4805306490DF0D1F90028A4BF012328
:100DF000237002B010BD00BF54970020538700201D
:100E0000A852050830B5154B87B01B780546144627
:100E1000019103B342F076FA4FF41B630D22CDF833
:100E20000D00CDF81110042002A902938DF80C508A
:100E30000DF080F904220DEB020110460DF07AF955
:100E4000019B21461A0202F4E062C3F30723042047
:100E50001A430DF06FF907B030BD00BF5397002063
:100E600030B5144B05461B7885B003F0FF04F3B191
:100E7000FF2928BFFF210C4642F044FA04F1090281
:100E800013029BB243EA122343F0807343F0B00392
:100E90000D22CDE900300291042069468DF80C4006
:100EA0000DF048F92246294604200DF043F920466A
:100EB00005B030BD539700200122014B1A707047D6
:100EC000539700201FB542F01DFA084B0391CDE95E
:100ED00001300C22042001A90DF02CF904200DF0A2
:100EE00087F90028FAD105B05DF804FBB0080002CC
:100EF00037B5044619F050FE054600284AD1A368CC
:100F000043F40033A36047F0E1FCA368244A43F4B0
:100F1000A013A360A261257744F0CCFBA368A08056
:100F20001B030CD4B0F5FA7F09D953F0CEFE012192
:100F30000546084652F06AFE284653F0C1FE204698
:100F400019F052FE38BBE06838B31BF0A9FE17F069
:100F5000BFFE18F0D1FC4AF0EEFD49F099F840F2DE
:100F60000443ADF80430FF2301A88DF8063013F0D8
:100F7000FFF90022032011464AF03AF80321042029
:100F80001AF0FAFF0A2012F057FE19F0E5FD20468C
:100F900042F0CFF9002003B030BD0248D5E700BFD2
:100FA00005040300C29E002008B50449044824F04B
:100FB00053FDBDE8084024F081BD00BFB8520508CC
:100FC0007C5305084FF08052014B5A60704700BFB8
:100FD00000ED00E0F8B50E460546D0B1C9B10E4BA4
:100FE0000E4F1968386806F0D7F9044678B9062319
:100FF00032460B49386806F09DFA044638B9012399
:101000002A460849386806F095FA00B12C70204647
:10101000F8BD2124FBE700BF4C9B00206C9B002007
:101020002C0004003C00040007B5084B1878FF288A
:1010300002D024F049F830B14FF6047301A8ADF89E
:10104000043046F0BAFA03B05DF804FBD39E0020EA
:1010500010B50D4C0D4804F0C3FC23780BB124F0FF
:101060008DF8FF220A4B01211A700022094B2270D1
:101070009A70152219705970DA701A7100F050FBCD
:10108000BDE8104000F02CB955970020E013002077
:10109000D39E00205697002038B500F077F904461B
:1010A00000F0CEF9C0B10E4D2B789BB90D4B1B78DB
:1010B000FF2B11D1022C11D80B4C2279E178A078AA
:1010C00024F032F838B90121207824F043F810B91F
:1010D00001232B70002038BD0220FCE71D20FAE719
:1010E00055970020D39E002056970020F0B5054666
:1010F00085B00E4600F04AF95DB3194F3B78FF2BDF
:1011000029D1022829D8002342F21071154A164825
:10111000009304F083FC0446A0B901460DF10F03CF
:1011200000936A792B79286843EA022363F30F015D
:101130000E4B32461B7823F01DFF044628B10A48A7
:1011400004F04EFC204605B0F0BD9DF80F303B701A
:10115000F8E72224F6E70224F4E71D24F2E700BFB3
:10116000D39E002029100008E0130020569700208D
:10117000036837B523F47F43504A23F007039342B3
:10118000044621D009D8A2F5A022934217D002F537
:101190008022934273D003B030BD494A93424AD073
:1011A00002F57F029342F6D1464B1B78002BF2D01A
:1011B000454B1B78FF2BEED100F11E0369E003B015
:1011C000BDE83040FFF744BF3F4B017B1A789142A6
:1011D000E1D1C27A012ADED1FF223A4D3B481A7092
:1011E00004F0FEFB2B784BB123F0C8FF08B34FF699
:1011F000047301A8ADF8043046F0DFF9607A227A72
:10120000012342EA00226168207B00F077F830B1C8
:101210004FF6047301A8ADF8043046F0CEF9002370
:101220008DF80430237B8DF8053001A846F0C5F910
:10123000B1E72870E2E7244D80792B78834205D10D
:10124000224804F0CDFBFF232B70A4E700F0BCF88C
:101250000028A0D0A07900F0E1F800289BD0A07968
:1012600000F076F830B14FF6047301A8ADF8043001
:1012700046F0A3F902238DF80430A379D3E7114B8C
:101280001B78002B87D0104B1B78FF2B83D100F1EC
:10129000160394F90D20E17A601D42F058F80028F9
:1012A0003FF479AF11283FF476AF2D3801287FF64F
:1012B00072AF4FF60473ADF80430B6E7A000060035
:1012C000A000060155970020D39E0020E0130020C7
:1012D000024B187880F00100704700BF559700203E
:1012E000FF22044B1A701A721A740022024B1A70F1
:1012F000704700BF5B9700207397002013B56C46C2
:1013000084E80600104A1178FF2917D0117AFF29C6
:1013100016D0117CFF2915D1022102F83100009866
:1013200002EBC102C2F8020000205370A388D380F0
:10133000064A13780133137002B010BD0021ECE7A8
:101340000121EAE71A20F7E75B9700207397002056
:101350000C4B1A7882420FD01A7A82420ED01A7C35
:1013600082420DD10222FF2103F83210064A0020EA
:101370001378013B137070470022F4E70122F2E773
:101380002D2070475B97002073970020014B187841
:10139000704700BF739700200A4B1A7882420AD028
:1013A0001A7A824209D01A7C824208D1022203EBC7
:1013B000C200023070470022F9E70122F7E700205F
:1013C000704700BF5B970020064B1A78824207D017
:1013D0001A7A824204D01B7C1B1A5842584170472B
:1013E000012070475B97002070B5044680B100264D
:1013F000094D15F8023CFF2B05D006222146284650
:1014000046F010FA30B10136032E05F10805F0D18F
:10141000002070BD0120FCE75D97002001460022FE
:10142000064B1878884202D15878012805D001323D
:10143000032A03F10803F4D1002070475B970020D2
:10144000024B1888003818BF01207047181400207C
:101450002DE9F04F8E4D90462E7893B03207894695
:101460009A464FF00004009035D4F30647D4F707AE
:101470004CD44FF0000B9AF800305F46013B0D93BF
:1014800006F0040308932B7ACDE901BB00936B6847
:1014900009936B7803F001030B9395F86430049380
:1014A00095F865300693069A049B13440C9395F8BF
:1014B0005C30039395F85D300593059A039B1344C4
:1014C0000A9306F002030F9306F02003079306F039
:1014D000400310937BE04FF00804002705F1090B4F
:1014E000062200990BEB070046F09CF90028BCD0BF
:1014F00006373C2FF4D1002013B0BDE8F08F95F8EB
:10150000453044F010044B45F5D1B0E795F9023071
:1015100044F001044345ACDBEDE70AEB07035D78DB
:1015200093F802900F9B002B36D0A9F10803012BF2
:1015300032D8089A234644F002041ABB009BAB42FF
:1015400030D2F81C009A0999504446F06BF90028F3
:1015500008BF4FF0010B079B002B00F08580B9F10D
:10156000210F40F081800A9B44F020049D42C2DD9F
:10157000039B059AD91903314648514446F052F964
:1015800010B3B8E743F00604009BAB42E3D2009AE5
:101590006B1E9342DFD1D4E7109B1BB1A9F102036C
:1015A000012B2ED93006D6D5A9F10603012BD2D8AE
:1015B0004FF00008BA1C44F080046B1E0E92984550
:1015C0003DDB079B002B4FD101353D44EFB20D9B16
:1015D0009F42A2DB16F0060F02D0BBF1000F8AD0AB
:1015E000710602D5019B002B85D0320602D5029BE5
:1015F000002B80D0264BA4B21888031B58425841B8
:101600007AE74FF000086B1E0E9344F04004BB1CB9
:101610000E9A90459FDA03EB0801013102221E4821
:101620005144119346F0FEF80028019B08BF0123A6
:1016300008F1020801935FFA88F8119BE8E711931B
:101640000E9B102203EB080101311448514446F06F
:10165000E9F80028029B08BF012308F11008029353
:101660005FFA88F8119BAAE70B9B002BACD0B9F16D
:10167000FF0FA9D10C9B44F480749D427FF73BAFD0
:10168000049B069AD91903310548514476E700BFF7
:1016900018140020701400205E1400206014002034
:1016A00078140020F8B506460D461746FFF710FEE1
:1016B000B8B1C6B1284643F094FD0D4C6060A0B1AE
:1016C0002A46314646F0E3F82378257243F00203B8
:1016D00023700FB90020F8BD237843F00403237072
:1016E000F8E70220F7E72120F5E71920F3E700BF2C
:1016F0001814002010B50446FFF7EAFD50B15CB1A4
:1017000000202288054BA3F846201A7842F04002B8
:101710001A7010BD0220FCE72120FAE718140020FF
:1017200010B5FFF7D5FDF0B1104C606818B143F06B
:101730005AFE00236360A06D18B143F054FE0023ED
:10174000A365206E18B143F04EFE002323660020EF
:10175000FE23A070207284F84530A4F85C00A4F841
:101760006400208010BD0220FCE700BF1814002098
:1017700000234FF0FF320449C818CA5006333C2BEF
:101780008280F9D1FFF7CCBF21140020034A04491D
:10179000002808BF1146042023F056BE3454050823
:1017A0002C54050838B5134B044693F8C0208242E8
:1017B000A3F5805015D003F5805393F80432A3426B
:1017C00015D00D4D0D49286843F0C3F942F039F9A1
:1017D00042F038F922460A49286843F0BAF9002055
:1017E00038BD002341F2441202FB0300F8E7012355
:1017F000F8E700BF802400200C3700203C54050887
:10180000415405082DE9F04FFF288FB00D46CDE972
:101810000A32099000F01A84002900F019840A9B0A
:10182000002B00F01584199B002B00F01184189BED
:10183000002B00F00D84AC4EAC49306843F089F9C0
:1018400042F0FFF842F0FEF8099AA949306843F0E7
:1018500080F9A84B93F8C020A3F58054FF2A24D028
:1018600003F5805393F80432FF2B00F09880A249CF
:10187000306843F06EF942F0E4F842F0E3F89F4933
:10188000306843F066F99C49306843F062F942F0F1
:10189000D8F842F0D7F8099A9949306843F059F9D5
:1018A0001C2420460FB0BDE8F08F002341F2441203
:1018B0000793079B00215343E7183846089345F0E8
:1018C000DBFF0021384641F0A5FD41F2A8034FF0AF
:1018D000FF32FA5041F2BA0317224FF0000BFA52CE
:1018E00007F58052B2F8A430594603F0F00343F4F0
:1018F0008673A2F8A430089B40F24A7203F658009F
:101900002044C7F854B845F0B7FF41F2BC0307F8CC
:1019100003B0099B07F586563370089B492203F5EF
:1019200082501A302946204445F0B1FF41F2660347
:1019300017F803A041F2680341F2C4096A4D17F891
:1019400003806A49286843F004F942F07AF842F0CB
:1019500079F8CDF80080534632786A49286843F018
:10196000F8F8089B5A4603EB090121445B4630789E
:1019700023F084FB0446A0B15F49286843F0E9F8EE
:1019800042F05FF842F05EF85F493278286843F031
:10199000E0F82D212246384601F026FB81E701239D
:1019A00084E717F809309BB9307823F019FC044616
:1019B00070B15149286843F0CCF842F042F842F047
:1019C00041F852493278286843F0C3F82E21E1E704
:1019D0000B9B28681B884E4CA7F8B93F13F0FF03F8
:1019E00046D1424943F0B5F842F02BF842F02AF8CC
:1019F00041F24413079A474903FB024303F5865318
:101A00001A78286843F0A5F841F24414079BDFF8E0
:101A100000910A9A04FB039441F2D003E25041F290
:101A2000D403189A94F8B91FE25041F2D803199AD6
:101A3000E250089B03F5845641F25D0319364E448B
:101A40003246E05C38F0B4FB834600286ED02A4969
:101A5000286843F07EF841F0F4FF41F0F3FF2E498F
:101A60005B46099A286843F074F82124302191E7F5
:101A7000012B10D11D4943F06CF841F0E2FF41F019
:101A8000E1FF41F24413079A244903FB024303F5A3
:101A900086531A78B5E7022B10D1144943F059F850
:101AA00041F0CFFF41F0CEFF41F24413079A1C49A9
:101AB00003FB024303F586531A78A2E7194943F062
:101AC00048F841F0BEFF41F0BDFF41F24413079AD0
:101AD000154903FB024404F5865294F8B93F127885
:101AE000286843F036F88FE70C3700208354050848
:101AF00088540508802400203C540508BD5405087E
:101B0000D854050808550508645505089455050876
:101B100080140020C35505083C57050818560508D1
:101B200076560508C6560508CB5605080A213046E4
:101B300001F02AFD0646C54904F58654286843F09D
:101B400008F841F07EFF41F07DFF33462278C0491E
:101B5000286842F0FEFF2078FFF724FE00F5805B46
:101B60009BF85D300446022BBA4E4DD19BF867308E
:101B7000072B00F25381DFE813F008001800510131
:101B80005101EA0051015101FD000123AF4980F8E4
:101B9000D33F286842F0DDFF41F053FF41F052FF90
:101BA0009BF8C020AC4928682CE0BAF1010F3068DE
:101BB0001AD8AA4904F5805842F0CBFF41F041FF02
:101BC00041F040FF98F8C020A549306842F0C1FFBD
:101BD00001222921204601F007FA002388F8673006
:101BE000012384F8D33F0FE0022384F8D33F9749C1
:101BF00042F0AFFF41F025FF41F024FF9BF8C020E9
:101C00009849306842F0A5FF04F5805898F867308D
:101C100088F8683098F85D30012B20D198F86BB0C7
:101C20003068BBF1020F00F02D81BBF1FE0F00F018
:101C30004E81BBF1010F40F05A81884942F089FF83
:101C400041F0FFFE41F0FEFE98F8C0208649306862
:101C500042F07FFF88F86CB0002384F8D33F41F254
:101C60004416079B06FB039606F5845ABAF809301A
:101C7000002B35D10DF1360304930DAB039341F2E4
:101C80009703F35C41F25A02029341F26803F35C5A
:101C900041F25E01019396F8B93F41F25D00009375
:101CA00041F29803B25CF35C715C305C01F02AF99C
:101CB00006F586580446002800F04881654E0F2C32
:101CC000306840F02681654942F043FF41F0B9FE9B
:101CD00041F0B8FE98F800206449306842F039FFBE
:101CE00041F24416079B06FB039606F584531A46F9
:101CF0001032B2F8032006F583510292B3F8112096
:101D000006F586580192B3F80D2018310092083379
:101D1000B1F80920B3F80330B1F8071098F80000C3
:101D200023F054F90446002800F032815049286815
:101D300042F00FFF41F085FE41F084FE4D492346FD
:101D400098F80020286842F004FF312122E6B8F11B
:101D5000010F30687FF62DAF02233C4984F8D33F52
:101D600042F0F7FE41F06DFE41F06CFE9BF8C020A2
:101D7000414946E7B8F1010F11D9BAF1010F20D955
:101D80000423324980F8D33F286842F0E2FE41F054
:101D900058FE41F057FE9BF8C020384903E7012266
:101DA000292101F021F9B8F1010F11D1BAF1020F87
:101DB00030680DD104F5805B84F8D3AF8BF8678071
:101DC00015E70122292101F00FF9B8F1020F10D017
:101DD0002249286804F5805842F0BBFE41F031FEEC
:101DE00041F030FE98F8C0201D49286842F0B1FE4D
:101DF000F3E6BAF1010F3068EAD1042384F8D38FF7
:101E000004F58058114988F8673042F0A2FE41F08D
:101E100018FE41F017FE98F8C020A9E70F4904F515
:101E20008058286842F095FE41F00BFE41F00AFE12
:101E300098F8C0201249286842F08BFE012384F8EC
:101E4000D33F002388F86730DEE600BF83540508DF
:101E5000735705080C370020A9570508C656050812
:101E6000DC5705081D580508115905088B5A050847
:101E70003C540508D55B05085058050883580508EB
:101E8000B6580508BAF1010F0AD9724942F061FE4D
:101E900041F0D7FD41F0D6FD98F8C0206E49D6E656
:101EA0006C490A9342F055FE41F0CBFD41F0CAFD6A
:101EB00098F8C0206949306842F04BFE0A9B2A21FD
:101EC0001A46204688F86C3001F08EF8C4E6644962
:101ED00042F03FFE41F0B5FD41F0B4FD98F86630A8
:101EE00098F8C0205F49306842F033FEB2E65949A5
:101EF0000A9342F02EFE41F0A4FD41F0A3FD98F8B4
:101F0000C0205949306842F024FE0A9B88F86B30A3
:101F1000A2E60A2C0AD14F4942F01BFE41F091FD86
:101F200041F090FD98F800205049D6E6504942F023
:101F300010FE41F086FD41F085FD4E49234698F89C
:101F40000020306842F005FE322123E5BDF8343030
:101F500006F58356A6F81F30A6F82130BDF83630B6
:101F60003F492868AAF80330AAF8053042F0F1FD8D
:101F700041F067FD41F066FDBAF805303E49009337
:101F8000B6F8213098F80020286842F0E2FDA7E674
:101F900041F25B03FF22F15C099823F03FF804460D
:101FA00080B13349286842F0D4FD41F04AFD41F048
:101FB00049FD3249234698F80020286842F0C9FDBF
:101FC0003321E7E441F2CC0A0899089B089A01F50D
:101FD0008651534402F6B97208314B444A4449448D
:101FE00098F8000001F0F0F98146A8B1204928686E
:101FF00042F0AFFD41F025FD41F024FD4B4698F83D
:1020000000201F49286842F0A4FD4A462F21384687
:1020100000F0EAFF012444E41149286842F099FDE8
:1020200041F00FFD41F00EFD98F800201549286899
:1020300042F08FFD1A9B1BB116F80A301A9A1370E2
:1020400000223846114602F005F82AE4252428E447
:10205000222426E4C6560508585905089F59050844
:1020600083540508EA5905082F5A0508E75A050858
:102070003C5405082D5B0508845B05081F5C0508BA
:10208000625C05089D5C05082DE9F047002541F2DA
:1020900044182F461D4CA4F65809A4F6580A41F2DC
:1020A00044120021504645F0E7FBFF2384F86838CE
:1020B00084F8D1384FF0FF330126C4F85038172385
:1020C00008FB059284F8CE7884F84D68A4F862384D
:1020D00002F5805292F8A430002123F00F0343F060
:1020E0000C0382F8A430204640F24A7244F8047C83
:1020F00045F0C2FB84F864783146504641F08AF9D5
:1021000044440DB1BDE8F0873546C6E7D81C002031
:102110002DE9F041064688461746FFF743FB434C3E
:10212000054698B94249206842F013FD41F089FC08
:1021300041F088FC32463F49206842F00AFD2222E5
:1021400027212846BDE8F04100F04EBF05F5805636
:1021500096F8A4302068DB0712D518F0010F0FD1D4
:10216000334942F0F6FC41F06CFC41F06BFC96F810
:10217000C0203149206842F0ECFC3A460B21E0E7F0
:1021800087B12B4942F0E5FC41F05BFC41F05AFC81
:1021900096F8C02029493B46206842F0DAFC3A46CE
:1021A0000C21CEE7264942F0D4FC41F04AFC41F034
:1021B00049FC434696F8C0202249206842F0C9FCF9
:1021C00096F8A41096F8C00041F0C2F9074688B10D
:1021D0001749206842F0BDFC41F033FC41F032FC6D
:1021E00096F8C02018493B46206842F0B2FC3A46B7
:1021F0000D21A6E7032196F8C00041F0EDF907464E
:1022000088B10B49206842F0A4FC41F01AFC41F06F
:1022100019FC96F8C0200D493B46206842F099FC15
:102220003A460E218DE7BDE8F08100BF0C37002053
:102230003C540508CB5C0508FA5C0508605D0508A0
:1022400083540508A15D0508E05D0508205E0508CA
:102250002DE9F04186B007460E461546FFF7A2FA73
:102260000446A8B9494D4A49286842F072FC41F039
:10227000E8FB41F0E7FB3A464649286842F069FC32
:1022800022220E21204606B0BDE8F04100F0ACBE8F
:10229000A5B1DFF8F8803E49D8F8000042F059FCBB
:1022A00041F0CFFB41F0CEFB009533463A463A4928
:1022B000D8F8000042F04DFC2A46E2E7022E57D043
:1022C000032E22D0012E2FD100F5805696F8B8307B
:1022D000052B29D10C23032196F8C00086F8B830CD
:1022E00041F07AF90546F8B1284F2949386842F09B
:1022F00030FC41F0A6FB41F0A5FB2B4696F8C02030
:102300002649386842F025FCD6E700F5805696F855
:10231000B8300C2B0BD0012103AA8DF80C1001F062
:1023200099FE052386F8B83006B0BDE8F08100F6C6
:10233000580240F24A7196F8C00041F0C9F80546CB
:102340000028EED0114F1249386842F002FC41F0EB
:1023500078FB41F077FB96F8C0202B46104938688F
:1023600042F0F7FB2A460F21204600F03DFED8E759
:102370000723012100F5805484F8B83084F8BC505C
:1023800003AA8DF80C1001F065FECDE70C37002094
:102390003C5405085B5E0508985E0508205E05084C
:1023A000D95E05082DE9F04F87B00646DDE918BA79
:1023B00089461D46DDF85480FFF7F4F9044680B9DC
:1023C000504D5149286842F0C4FB41F03AFB41F0BE
:1023D00039FB32464D49286842F0BBFB22221121CD
:1023E00020E000F5805696F8A5300BB300F65802B1
:1023F00040F24A7196F8C00041F06AF80746B8B159
:10240000404D4149286842F0A4FB41F01AFB41F0DD
:1024100019FB96F8C0203E493B46286842F099FBDC
:102420003A460F21204607B0BDE8F04F00F0DCBD72
:10243000B5B1344F3449386842F08BFB41F001FBB1
:1024400041F000FB2B4696F8C0203249386842F034
:1024500080FB5BEA0A0A51D0062D4FD02A46BEE720
:10246000B9F1000F4AD0274F2B49C4F85488386877
:1024700042F06FFB41F0E5FA41F0E4FA94F8593884
:1024800094F8581896F8C02003F00F03CDF8008098
:1024900041EA03233868214942F05BFB94F859284C
:1024A00094F8583802F00F0204F6580943EA022360
:1024B000D4F854182A46ADF81430484696F8283116
:1024C000CDE903988DF8175040F0B9FF08218DF839
:1024D000160003AA204601F0BDFD044670B10A496A
:1024E000386842F036FB41F0ACFA41F0ABFA2346D3
:1024F00096F8C0200A49386842F02BFB07B0BDE8C7
:10250000F08F00BF0C3700203C5405081F5F050802
:10251000D95E0508635F050883540508A55F0508B3
:10252000E95F05082DE9F0410368B04A23F47F43D1
:1025300023F007039342044692B000F021832ED883
:1025400002F17F42934200F03B830FD802F17F42B9
:10255000934200F0018202F53002934200F0CC82F7
:10256000002080F0010012B0BDE8F081A04A934243
:1025700048D002F540329342F2D10079FFF712F9C8
:10258000002840F0A1829B4D9B49286842F0E1FA67
:1025900041F057FA41F056FA2279984942E0984AB8
:1025A000934200F0458413D802F17E42934200F03A
:1025B000CE8302F52D029342D2D10079FFF7F2F8D3
:1025C0000028CDD0637900F5805080F85B30C7E7F4
:1025D0008C4A934200F0CD8102F1FC729342BFD14C
:1025E000844D8549286842F0B4FA41F02AFA41F056
:1025F00029FAA3798449009363792279286842F003
:10260000A8FAADE70079FFF7CDF8074670B9794D24
:102610007949286842F09DFA41F013FA41F012FA24
:1026200022797A49286842F094FA99E7B4F80520AB
:1026300000F5805593B2A5F8C220B5F881209A42E2
:1026400003D3B5F87F209A4277D96A4E7049306833
:1026500042F07FFA41F0F5F941F0F4F9B4F80510D1
:10266000B5F87F3095F8C0200191B5F88110009140
:102670003068684942F06DFA95F8C630A3BB5D4EEC
:102680006349306842F065FA41F0DBF941F0DAF96C
:1026900095F8C0206049306842F05BFAB5F893C005
:1026A000B5F88B30B5F88120B5F87F1095F8C000EB
:1026B000CDF808C0B5F891C0CDF804C0B5F88DC00C
:1026C000CDF800C022F082FC002869D05049306863
:1026D00042F03FFA41F0B5F941F0B4F995F8C02065
:1026E0004E49306842F035FA012385F8C630E37A66
:1026F000002B59D095F8B830002B40F0388195F870
:10270000C0001CF079FC3B4E0446002850D0052840
:102710004ED03949306842F01CFA41F092F941F04C
:1027200091F995F8C0203E49306842F012FA2246ED
:102730000521384600F058FC12E7B5F88B20B4F8B4
:1027400007309A4214D02B4E3149306842F001FADA
:1027500041F077F941F076F9B4F80710B5F88B300D
:1027600095F8C02000912F49306842F0F2F983E7D4
:10277000B5F88D20B4F809309A42B5D01D4E2449E1
:10278000306842F0E6F941F05CF941F05BF9B4F8E9
:102790000910B5F88D3095F8C02000912249E3E783
:1027A00095F8C630002BA2D1012385F8C630D7E6B4
:1027B000012795F8C04085F8B8702046FEF7F2FF73
:1027C0000546A8BB0C49306842F0C3F941F039F91D
:1027D00041F038F922461549306842F0BAF9222210
:1027E0002721284600F000FCC1E000BFA0005902EC
:1027F000A00006020C3700203C5405081F650508A0
:10280000A0005905A00009061168050830600508F8
:10281000C656050894600508A7610508F16105081A
:102820005262050813610508576105088B620508A7
:1028300000F5805494F97220394694F86C3094F87D
:10284000C0000092002222F039FD074680B1BC4949
:10285000306842F07EF941F0F4F841F0F3F894F872
:10286000C020B849306842F074F93A462821B8E7E8
:1028700094F8C00022F012FD074688B1B0493068D4
:1028800042F067F941F0DDF841F0DCF894F8C0203F
:10289000AD493B46306842F05CF93A462C21A0E74E
:1028A00094F86DC094F85D3094F8702094F86E1030
:1028B00094F8C000CDF834C094F864C0CDF830C0AE
:1028C00094F865C0CDF82CC094F86AC0CDF828C043
:1028D00094F863C0CDF824C005F5845C0CF1190CA4
:1028E000CDF820C094F85CC0CDF81CC094F869C045
:1028F000CDE9057C94F86270049794F861700397B1
:1029000094F85F70029794F86070019794F85E7085
:10291000009722F0EFFC074688B18949306842F001
:1029200018F941F08EF841F08DF894F8C0208749ED
:102930003B46306842F00DF93A462B2151E7844975
:10294000306842F006F941F07CF841F07BF894F8E9
:10295000C0208049306868E20079FEF723FF002834
:102960003FF4FEAD012300F5805080F8C530012012
:10297000F7E50079FEF716FF064658B9764D70491F
:10298000286842F0E6F841F05CF841F05BF8227903
:10299000724947E600F5805595F8C00023798342D7
:1029A0007FF4DEADB4F80540BCB16B4F64493868C4
:1029B00042F0CFF841F045F841F044F895F8C020D6
:1029C0006749386842F0C5F895F8B830032B3FF4F2
:1029D000C7AD224607213046ACE695F8B830012B4A
:1029E0001FD0022B7FF4BCAD304600F07DFB95F884
:1029F000A530002B46D0B5F8AE30002B42D1564C56
:102A00004F49206842F0A5F841F01BF841F01AF850
:102A100095F8C0205349206842F09BF80122092113
:102A200014E0D5F8A8104B1C12D14B4C4449206837
:102A300042F08FF841F005F841F004F895F8C02015
:102A40004949206842F085F8012206213046C9E64E
:102A5000022385F8B8301CF0DFFA0446002886D03F
:102A60003D4F3749386842F074F840F0EAFF40F0D3
:102A7000E9FF95F8C0203D49386842F06AF82246DF
:102A80000821E3E706F58551B5F88F2095F8C000D9
:102A90000C3101F0A5FF044690B12F4F284938684A
:102AA00042F057F840F0CDFF40F0CCFF95F8C02041
:102AB0002F492346386842F04CF822460A21C5E7E0
:102AC000032385F8B83052E700F5855600F58555A3
:102AD000284F0C36183504F10908022241463846C1
:102AE00044F0A0FE10B9B4F8053033800236AE428F
:102AF00007F10207F1D133E50079FEF753FE0546F1
:102B000058B9154D0E49286842F023F840F099FF56
:102B100040F098FF2279184984E50222174804F111
:102B20000A0144F07FFE00287FF41AADD4F8052096
:102B300005F580532846C3F8A82000F093FA0FE566
:102B40003C540508B4620508E562050820630508E1
:102B500083540508606305080C3700208F6305085F
:102B6000F663050890640508236405084E640508AB
:102B7000E56405084C9E002081650508589E0020EC
:102B80000079FEF70FFE58B9C04DC149286841F0E1
:102B9000E0FF40F056FF40F055FF2279BD4941E586
:102BA0000421231D0F9300F5805393F85D20022A22
:102BB00004BF627A83F829210FAA01F04BFAD6E606
:102BC0000079FEF7EFFDB14F054658B9B0493868B6
:102BD00041F0BFFF40F035FF40F034FF2279AE49AD
:102BE000386820E500F080FAA37B05F5805685F86B
:102BF000C83F94F8243005F5865185F8CF3F94F806
:102C0000213005F6B97285F8D03F94F822300831AA
:102C100085F8D13F94F8233085F8D23FB6F8C2301A
:102C2000A5F8D43FE37F85F8CE3FA37F85F8CD3F5D
:102C3000237F85F8CB3F637F85F8CC3F637C85F8A5
:102C4000CA3F237C85F8C93F637B85F8C73F237B58
:102C500085F8C63FE37A85F8C53FD4F81230C5F849
:102C6000BB3FD4F81630C5F8BF3F638BA5F8C33F10
:102C700096F85E3096F8C000019396F85D300093A8
:102C800005F6BB7300F00CFC044698B18049386827
:102C900041F05FFF40F0D5FE40F0D4FE96F8C02032
:102CA0007E492346386841F054FF22462F212846AA
:102CB00000F09AF97A49386841F04BFF40F0C1FEC4
:102CC00040F0C0FE96F8C0207649386841F041FFD8
:102CD00096F89640B6F88330B6F8872096F86E10CE
:102CE00096F8C000099496F89540089496F86F40BD
:102CF000079496F97140069496F85B40059496F80F
:102D000068400494D6F87B400394D6F87740029448
:102D1000B6F889400194B6F88540009422F048FB4B
:102D2000044600283FF423AE5949386841F011FFAA
:102D300040F087FE40F086FE96F8C0205A492346B0
:102D4000386841F006FF22461E212846F2E4007949
:102D5000FEF728FD064600283FF402AC4B4F5049D1
:102D6000386841F0F6FE40F06CFE40F06BFE2279D0
:102D70004E49386841F0EDFE4FF6FF73B6F8A42FC8
:102D800006F580559A4215D195F82631063B012B60
:102D900038D80523424985F82631386841F0D9FEF4
:102DA00040F04FFE40F04EFE95F8C0204049386894
:102DB00041F0CFFE95F82631063B012B22D895F83D
:102DC000E8300133DBB20A2B85F8E83022D9002144
:102DD0004FF6FF7385F8E8103046A6F8A43F40F0A0
:102DE00019FB05232E4985F82631386841F0B1FEDC
:102DF00040F027FE40F026FE95F8C0202C493868A8
:102E000041F0A7FE0123062130460F948DF8433090
:102E10000FAAD2E62249386841F09BFE40F011FE2D
:102E200040F010FE22792349386841F092FE9EE579
:102E30000079FEF7B7FC054600283FF491AB05F595
:102E4000805393F82631114E063B012B306814490C
:102E500012D941F07EFE40F0F4FD40F0F3FD2279FE
:102E60001549306841F075FE0023072128460F946C
:102E70008DF843300FAAA0E641F06BFE40F0E1FD73
:102E800040F0E0FD22790D4964E500BF0C370020D9
:102E90003C540508DC65050847660508625C0508C2
:102EA000835405089D5C0508A8660508EF660508BB
:102EB000296705085C67050898670508CC67050859
:102EC0001FB50B46032810D8DFE800F002111313DA
:102ED000094C2068616801AA03C2218901AC1180F4
:102EE000128803CC1A811860596004B010BD034CDD
:102EF000EFE7034CEDE700BFEB69050891680508B3
:102F00009C6805082DE9F7439DF82C400F46DDE944
:102F10000D969DF828108DF803409DF830408DF8EF
:102F200000208DF801308DF802108DF80440B9F1C1
:102F3000000F50D0002E4ED0022A4ED0032B4ED080
:102F400001284CD0012905D10623A9F800302623F9
:102F500033801FE0012A04D1022904BF00238DF829
:102F60000230DFF88080002445460522694640464D
:102F700044F058FC38BB04EBC4042B195A799979F6
:102F8000B3F8073042EA0122FF2FA9F800209AB2D5
:102F9000338003D1002003B0BDE8F083B9F80030DE
:102FA000B7EE047A07EE903AF8EEE77A67EE877AA2
:102FB000FCEEE77A17EE903A9BB203F11301B1FBF6
:102FC000F3F31344C4E70134B4F5A27F08F1090810
:102FD000CBD12D20DFE72120DDE70A20DBE70F2022
:102FE000D9E700BFA76805082DE9F0410446194F4D
:102FF0000E46154638686CB9174941F0AAFD40F0F5
:1030000020FD40F01FFD2A4638681449BDE8F04114
:1030100041F09FBD04F580540F49D4F8D88041F0A9
:1030200098FD40F00EFD40F00DFD2B4694F8C020B9
:103030000B49386841F08DFDB8F1000F07D02A46E2
:103040003146434694F8C000BDE8F0411847BDE85A
:10305000F08100BF0C3700203C540508F5690508D5
:10306000256A0508F7B500F5805595F825710446E1
:1030700087BB95F8243100F587560C3623B13046CE
:1030800002F0AEFC85F8247100233046009340F630
:10309000B8312346104A02F0C1FC0646B8B10F4FC2
:1030A0000F49386841F055FD40F0CBFC40F0CAFCB8
:1030B00095F8C02033460B49386841F04AFD324646
:1030C0000221204603B0BDE8F040FFF78DBF012389
:1030D00085F8243103B0F0BDF13304080C3700202B
:1030E0003C540508526A0508F8B5054600F58750B6
:1030F0000C3002F075FC05F580560446B0B10D4F5A
:103100000D49386841F025FD40F09BFC40F09AFCE9
:1031100096F8C02023460949386841F01AFD224636
:103120002846BDE8F8400421FFF75EBFA6F8240159
:10313000F8BD00BF0C3700203C5405088D6A050817
:1031400070B504460D460F2900F20681DFE811F044
:103150001501100024003400440054006400740081
:1031600084009400A400B400C400D400E400F4007F
:10317000824D8349286841F0ECFC40F062FC40F04D
:1031800061FC012304F5805494F8C0207D4928682F
:10319000BDE8704041F0DDBC784D7949286804F500
:1031A000805441F0D6FC40F04CFC40F04BFC022334
:1031B00094F8C0207449EAE7704D7449286804F512
:1031C000805441F0C6FC40F03CFC40F03BFC032343
:1031D00094F8C0206E49DAE7684D6949286804F51B
:1031E000805441F0B6FC40F02CFC40F02BFC042352
:1031F00094F8C0206749CAE7604D6149286804F522
:10320000805441F0A6FC40F01CFC40F01BFC052360
:1032100094F8C0206049BAE7584D5949286804F528
:10322000805441F096FC40F00CFC40F00BFC06236F
:1032300094F8C0205949AAE7504D5149286804F52F
:10324000805441F086FC40F0FCFB40F0FBFB072380
:1032500094F8C02052499AE7484D4949286804F536
:10326000805441F076FC40F0ECFB40F0EBFB08238F
:1032700094F8C0204B498AE7404D4149286804F53D
:10328000805441F066FC40F0DCFB40F0DBFB09239E
:1032900094F8C02044497AE7384D3949286804F544
:1032A000805441F056FC40F0CCFB40F0CBFB0A23AD
:1032B00094F8C0203D496AE7304D3149286804F54B
:1032C000805441F046FC40F0BCFB40F0BBFB0B23BC
:1032D00094F8C02036495AE7284D2949286804F552
:1032E000805441F036FC40F0ACFB40F0ABFB0C23CB
:1032F00094F8C0202F494AE7204D2149286804F559
:10330000805441F026FC40F09CFB40F09BFB0D23D9
:1033100094F8C02028493AE7184D1949286804F55F
:10332000805441F016FC40F08CFB40F08BFB0E23E8
:1033300094F8C02021492AE7104D1149286804F566
:10334000805441F006FC40F07CFB40F07BFB0F23F7
:1033500094F8C0201A491AE7084E0949306804F564
:10336000805441F0F6FB40F06CFB40F06BFB2B46C9
:1033700094F8C020134930680AE770BD0C3700206C
:103380003C540508CB6A0508FF6A05088354050804
:103390003A6B0508796B0508CE6B0508076C0508C4
:1033A000446C0508846C0508B66C0508FB6C0508C0
:1033B000346D05089A6D0508F36D0508436E050820
:1033C0009F6E0508DD6E05082DE9F041064617469B
:1033D00098460D46C9B10B68BBB1084634F0B4F845
:1033E000044688B1284D2949286841F0B2FB40F0D5
:1033F00028FB40F027FB234632462549286841F048
:10340000A8FB2046BDE8F081286028462EF00CFC81
:10341000044660B11C4D1D49286841F09AFB40F0FC
:1034200010FB40F00FFB234632461A49E6E74146BF
:1034300028462EF045FD044660B1134D1349286817
:1034400041F087FB40F0FDFA40F0FCFA234632469B
:103450001149D3E77B78002BD3D0284634F0AEF85F
:1034600005460028CDD0084C0849206841F071FB82
:1034700040F0E7FA40F0E6FA20682B46324607496A
:1034800041F067FB2C46BCE70C3700203C54050894
:103490000E6F0508466F05087C6F0508B96F0508B3
:1034A0002DE9F8430E4605461178304699469DF8B9
:1034B00020709DF824802EF005FC044688B12C4E27
:1034C0002C49306841F045FB40F0BBFA40F0BAFAB5
:1034D00023462A462849306841F03BFB2046BDE898
:1034E000F883012F02D0022F18BFFF27B8F1010F78
:1034F00004D0B8F1020F18BF4FF0FF08424639461A
:1035000030462EF0EFFB044660B1194E1949306881
:1035100041F01FFB40F095FA40F094FA23462A460A
:103520001649D8E7494630462EF0FEFB044660B106
:103530000F4E1049306841F00CFB40F082FA40F029
:1035400081FA23462A460E49C5E7304636F01AFE70
:1035500004460028C2D0064E0649306841F0F9FA08
:1035600040F06FFA40F06EFA23462A460549B2E76A
:103570000C3700203C540508F16F05082970050838
:103580006F700508B070050838B5044688B1034669
:10359000014400208B421AD0002213F8014B44FA58
:1035A00002F5ED0702F1010248BF0130082AF6D109
:1035B000F0E7074D0749286841F0CBFA40F041FA9F
:1035C00040F040FA0449286841F0C3FA204638BD6B
:1035D0000C3700203C540508EE7005082DE9F04F2B
:1035E0000446002797B000F5847303930893D0F83E
:1035F000043100F58055ADF8243000F658030493EB
:103600000A93D0F8543812AEADF82C3008AB0E93B4
:103610000AAB0F93431C059310930378ADF84670E3
:103620008DF8443095F828318DF8453000F6AC73AC
:103630000FCB07C6337004F5865608360121304695
:103640000EAA37F02BFB804601462046FFF778FD97
:10365000B8F1000F22D0B8F1030FDFF83C9000F072
:1036600021830B49D9F8000041F073FA40F0E9F9E1
:1036700040F0E8F995F8C02043460649D9F8000023
:1036800041F067FA42463A212046FFF7ADFC6EE270
:103690003C540508327705080C370020002304F657
:1036A000D67738460693079340F093F995F85E90E5
:1036B0004146B9F1FF0918BF4FF0010930464A46AB
:1036C00007AB2EF0CDFD804601462046FFF738FDC2
:1036D000B8F1000F40F09B814146384604F6DA739A
:1036E00007AA01F0CBFE8346002800F0A281DFF894
:1036F0007C83D949D8F8000041F02BFA40F0A1F9B9
:1037000040F0A0F95B4695F8C020D449D8F80000F5
:1037100041F01FFA4FF0000895F85E30FF2B2CD0D7
:1037200000210222304607AB2EF09AFD8246014668
:103730002046FFF705FDBAF1000F40F07D81012121
:10374000384604F6DA7307AA01F098FE824600288C
:1037500000F09C81DFF814B3BF49DBF8000041F0B2
:10376000F8F940F06EF940F06DF9534695F8C02035
:10377000BB49DBF8000041F0ECF94A46022106ABF8
:1037800030462EF06DFD824601462046FFF7D8FCFC
:1037900004F58055BAF1000F40F07B8102213846D4
:1037A00004F6DA7306AA01F069FE8246002800F0EA
:1037B0008081DFF8B8B2A849DBF8000041F0C9F910
:1037C00040F03FF940F03EF9534695F8C020A54936
:1037D000DBF8000041F0BDF995F85E30FF2B2CD0EE
:1037E00002223046114606AB2EF03AFD82460146D3
:1037F0002046FFF7A5FCBAF1000F40F05D810321E0
:10380000384604F6DA7306AA01F038FE824600282C
:1038100000F06281DFF854B28F49DBF8000041F01C
:1038200098F940F00EF940F00DF9534695F8C02094
:103830008D49DBF8000041F08CF94A46002106ABC7
:1038400030462EF0B5FA824601462046FFF778FC56
:1038500004F5805BBAF1000F40F041810421384645
:1038600004F6DA7306AA01F009FE8246002800F089
:1038700044817E4D7849286841F06BF940F0E1F8C9
:1038800040F0E0F853469BF8C0207949286841F0A1
:1038900060F99BF85E30FF2B29D0002102223046D0
:1038A00006AB2EF085FA824601462046FFF748FC1B
:1038B000BAF1000F40F024810521384604F6DA738E
:1038C00006AA01F0DBFD8246002800F02781674D43
:1038D0006149286841F03DF940F0B3F840F0B2F892
:1038E00053469BF8C0206349286841F032F903230E
:1038F0008DF83030DBF8733030460CA9CDF831301C
:103900002EF036FA824678B1584D5349286841F076
:1039100020F940F096F840F095F853469BF8C02007
:103920005549286841F015F94A46012106AB304651
:103930002EF096FC824601462046FFF701FC04F576
:103940008055BAF1000F40F059810621384604F63F
:10395000DA7306AA01F092FD8246002800F0E180A9
:10396000DFF808B13C49DBF8000041F0F2F840F024
:1039700068F840F067F8534695F8C0203F49DBF8F7
:10398000000041F0E6F894F8B92F95F85D30022A6E
:1039900033D1022B31D195F89830013B012B2CD833
:1039A00003214A46304606AB2EF05AFC82460146B9
:1039B0002046FFF7C5FBBAF1000F40F03281072126
:1039C000384604F6DA7306AA01F058FD824600284C
:1039D00000F0C580DFF894B01F49DBF8000041F02B
:1039E000B8F840F02EF840F02DF8534695F8C02076
:1039F0002349DBF8000041F0ACF895F85D30012B6D
:103A000000F0BA80B8F1000F00F0B180ABE0DFF851
:103A10005CB01149DBF8000041F09BF840F011F870
:103A200040F010F8434695F8C0201649DBF8000036
:103A30006EE64FF001086FE6DFF830B00649DBF8BC
:103A4000000041F086F83FF0FCFF3FF0FBFF5346DB
:103A500095F8C0200C498CE63C54050837710508E0
:103A6000B571050845720508CB7205080C370020B2
:103A700063730508F273050893740508DC74050880
:103A8000A475050876710508FD7105084FF0010859
:103A900073E6DFF8B0B2A849DBF8000041F059F84E
:103AA0003FF0CFFF3FF0CEFF534695F8C020A3492B
:103AB0008EE64FF001088FE6DFF888B29E49DBF80A
:103AC000000041F046F83FF0BCFF3FF0BBFF53461B
:103AD00095F8C0209A49ACE64FF00108ADE6994D43
:103AE0009549286841F035F83FF0ABFF3FF0AAFF59
:103AF00053469BF8C0209449C8E64FF00108C8E639
:103B0000904D8D49286841F024F83FF09AFF3FF02E
:103B100099FF53469BF8C0208C49E5E64FF0010819
:103B2000E5E6079B8DF830000CA93046CDF8313022
:103B30002EF01EF9824601462046FFF701FBBAF13E
:103B4000000F42D194F8B92F95F85D30022A08D1C0
:103B5000022B06D195F89830013B012B5ED995F8E0
:103B60005D30012B06D0D5F8D060002E77D117B08C
:103B7000BDE8F08F4FF001084A460121304606AB00
:103B80002EF016F9814601462046FFF7D9FAB9F121
:103B9000000F56D10921384604F6DA7306AA01F05F
:103BA0006DFC81460028DED0664E6349306840F0E7
:103BB000D0FF3FF046FF3FF045FF4B4695F8C02051
:103BC0006349306840F0C5FF1CE7DFF878815A4947
:103BD000D8F8000040F0BDFF3FF033FF3FF032FF68
:103BE00053469BF8C0205B49D8F8000040F0B1FF75
:103BF00094F8B93F022B9BF85D30A8E7DFF844B199
:103C00004D49DBF8000040F0A4FF3FF01AFF3FF001
:103C100019FF534695F8C0204F49B0E64FF0010810
:103C2000BEE6DFF820B14449DBF8000040F091FF28
:103C30003FF007FF3FF006FF534695F8C020474985
:103C4000D7E6404E3C49306840F083FF3FF0F9FE34
:103C50003FF0F8FE4B4695F8C0204149B1E7237884
:103C600004F6DA7285F82C31631CC5F83031D4F8CB
:103C70000431C5F83431039BC5F83831D4F85438D1
:103C8000C5F83C31049BC5F840310023019304F58D
:103C900089530C330093B4F8A41F3B4695F8C00039
:103CA000B04764E795F8C030394630460DAACDE9F3
:103CB0000C778DF830302EF0DFF8064601462046AE
:103CC000FFF73EFA36BB2749D9F8000040F041FF24
:103CD0003FF0B7FE3FF0B6FE95F8C0202249D9F874
:103CE000000040F036FFD5F8D43013B131460CA8AF
:103CF00098471C49D9F8000040F02BFF3FF0A1FE87
:103D00003FF0A0FE95F8C0201849D9F8000040F017
:103D100020FF2CE70849D9F8000040F01AFF3FF0D7
:103D200090FE3FF08FFE334695F8C0201049D9F839
:103D3000000040F00EFFDCE73C54050888720508DF
:103D4000177305080C370020AD7305084574050886
:103D50001D7605082075050865750508E3750508D5
:103D600057760508835405088C76050803770508FF
:103D7000B97605082DE9F04F0446CB790A68D0F8EA
:103D8000A80F85B004F5847804F58056EBB111894D
:103D900002F11305C1F30B01A4F8A41F117C86F8EE
:103DA0002811577B92F80EA092F8119010B90421B7
:103DB000C4F80411D4F8041101F5847020440831CA
:103DC000C4F8A80FC4F8041109E0517A02F10C05F7
:103DD00086F82811977992F807A092F80A904FF088
:103DE000000B83F001030093414696F82931D4F883
:103DF000A80F3FF059FDD4F8042102F58472224443
:103E00005FFA8BF34B4529D3A2EB0802012FC4F8CC
:103E10000421274C11D00F2F46D0002F46D0254922
:103E2000206840F096FE3FF00CFE3FF00BFE96F847
:103E3000C0202149206840F08CFE00251F492068E1
:103E400040F087FE3FF0FDFD3FF0FCFD1C4920687F
:103E500040F07FFE284605B0BDE8F08F294611F8F6
:103E6000030BBAF10F0F00F0030002F1010310D1B0
:103E700060F07F0010702278A8786D7804EB020C57
:103E800001328CF801500BF1010B22700D181A460B
:103E9000B6E71070AA781846039143F0F8FC034681
:103EA000AA7803991344E6E70125C7E70225C5E789
:103EB0000C3700203C5405086F770508835405082B
:103EC0009F77050873B5044651F004F8054650F095
:103ED0001FFB0C4E04F580540B49C4F8E000306819
:103EE00040F037FE3FF0ADFD3FF0ACFD0095D4F85B
:103EF000E03094F8C0200549306840F02AFE02B056
:103F000070BD00BF0C37002083540508B177050849
:103F100038B500F580540546002194F86E2094F8D9
:103F2000C00021F07DFA80B9154D1649286840F08F
:103F300010FE3FF086FD3FF085FD94F8C020124949
:103F4000286840F006FE042038BD252815D105F567
:103F500087500B4D0C3001F043FD0A49286840F0B2
:103F6000F8FD3FF06EFD3FF06DFD94F8C02007496D
:103F7000286840F0EEFD0220E6E70920E4E700BFF4
:103F80000C37002083540508EE77050834780508BF
:103F9000F8B500F58054054694F86E1094F8C0000A
:103FA00021F0F2F9D4F8C830254EBBB105F58650A2
:103FB000083033F0C9FA074680B12249306840F032
:103FC000C8FD3FF03EFD3FF03DFD3B4694F8C0206C
:103FD0001D49306840F0BDFD0120F8BD41F244129A
:103FE0000021284643F048FC1849306840F0B1FDF4
:103FF0003FF027FD3FF026FD94F8C02014493068BB
:1040000040F0A7FDFF2384F8C0304FF0FF33C4F821
:10401000A8301723A4F8BA30B4F8A43040F24A729A
:1040200003F0F00343F48673A4F8A430002405F6EB
:1040300058002146C5F8544843F01EFC2046CCE702
:104040000C3700203C5405086A780508835405089D
:10405000A47805082DE9F0430F46904606468FB038
:10406000B8B9B84CB849206840F073FD3FF0E9FC9E
:104070003FF0E8FCFF22B549206840F06AFD2222AB
:1040800035213046FEF7B0FF222528460FB0BDE8A7
:10409000F0830A2900F5805421D1AA4D00F58750FC
:1040A0000C3001F09DFCA849286840F052FD3FF01B
:1040B000C8FC3FF0C7FC94F8C020A549286840F030
:1040C00048FD092384F826313046D8F8042098F8B2
:1040D0000010FEF789FF0025C7E017469846092F14
:1040E0004FF0010540F0C180002194F86E2094F853
:1040F000C00021F095F9054690B9924D9549286880
:1041000040F027FD3FF09DFC3FF09CFC286894F8B0
:10411000C020914940F01DFD082584F8265138E261
:1041200041F20C03984205D041F21203984201D0AB
:1041300025281BD106F587500C3001F051FC304684
:10414000FFF726FF0546002840F00A837D4E81498F
:10415000306840F0FEFC3FF074FC3FF073FC94F8D4
:10416000C0207E49306840F0F4FCD6E7DFF8D48107
:104170007549D8F8000040F0ECFC3FF062FC3FF0DD
:1041800061FC2B4694F8C0207549D8F8000040F037
:10419000E0FC232384F826718DF82C300C9586E002
:1041A000002F7FF472AF674D6A49286840F0D1FC58
:1041B0003FF047FC3FF046FC94F8C020694928686E
:1041C00040F0C7FC012384F82631E2E1012F7FF49F
:1041D0005CAF98F80030002B62D05A4F5D493868C8
:1041E00040F0B7FC3FF02DFC3FF02CFC94F8C020D1
:1041F0005D49386840F0ADFC022294F8A530A4F87F
:104200002621002B3FF469AF40F24A7194F8C000B8
:1042100006F658023FF05CF90546A0B14A493868F5
:1042200040F097FC3FF00DFC3FF00CFC94F8C020F0
:104230004E492B46386840F08CFC2A460F21304608
:10424000FEF7D2FE21E74349386840F082FC3FF098
:10425000F8FB3FF0F7FB94F8C0204549386840F080
:1042600078FC4FF000080227012594F82631082B2E
:104270003FF60BAF01A252F823F000BFA1410008A6
:10428000CD410008B54200087D430008FD46000806
:104290004F450008DD460008F34600084347000884
:1042A000092384F8263136230C978DF82C300A2107
:1042B0000BAAE2E1022F7FF4E8AE94F8C53043B9CF
:1042C000092384F826312C238DF82C3001230C93FC
:1042D000EDE7012194F86E2094F8C00021F0A0F8D9
:1042E00040BB009006F58750334640F6B831214A6E
:1042F0000C3001F093FB0546B8B9124E012194F839
:10430000C00000F0B1FB1349306840F022FC3FF0E0
:1043100098FB3FF097FB94F8C0201749306840F0B5
:1043200018FC032384F82631AFE6092384F82631EC
:10433000212331E7092384F8263120230C908DF8BE
:104340002C30B4E70C3700203C540508C77805082A
:10435000FF780508835405082B7905085A79050864
:104360008E790508C979050834780508D95E0508ED
:10437000F47905088D3404082D7A0508042F7FF49C
:1043800084AED8F80030C54F5D88002D60D150F064
:10439000A1FD814650F0BCF8D8F80030C4F8DC002C
:1043A000D3F80720BE49C6F8AC2FDA7A386886F809
:1043B000B02F9A89A6F8B12FDA89A6F8B32F1A8AF6
:1043C000A6F8B52F5B8AA6F8B73F40F0C2FB3FF0D6
:1043D00038FB3FF037FB94F8C020B249386840F012
:1043E000B8FBAF49386840F0B4FB3FF02AFB3FF020
:1043F00029FBB6F8B73FAC490693B6F8B53F05932D
:10440000B6F8B33F049396F8B03F0393B6F8B13FC4
:104410000293D6F8AC3FCDE90093D4F8DC3094F8A1
:10442000C020386840F095FB9D49386840F091FB0A
:104430003FF007FB3FF006FB9C4994F8C02038682A
:1044400040F087FB294630463EF0E4FF052369E74C
:104450009749386840F07DFB3FF0F3FA3FF0F2FAFD
:10446000D8F8003094F8C0205B889249386840F052
:1044700070FB94F827310133DBB2022B84F827312B
:104480005BD88B49386840F064FB3FF0DAFA3FF0C4
:10449000D9FA94F8C0208849386840F05AFB94F85B
:1044A0009630099394F89530089394F86F300793F9
:1044B00094F97130069394F85B30059394F8683062
:1044C0000493D4F87B300393D4F877300293B4F894
:1044D00089300193B4F885300093B4F88330B4F890
:1044E000872094F86E1094F8C00020F061FF054614
:1044F00088B16F49386840F02CFB3FF0A2FA3FF0DA
:10450000A1FA94F8C0206D492B46386840F021FB91
:104510002A461E2193E66249386840F01AFB3FF0B4
:1045200090FA3FF08FFA94F8C0206549386840F05F
:1045300010FB022384F8263193E606F587500C30F1
:1045400001F04EFA092384F826311F23BCE6082F18
:1045500063D198F80B50F5B9B4F8893043B13046BF
:10456000FFF7D6FC092884F8260112D1242313E68C
:104570004A4D4B49286840F0ECFA3FF062FA3FF0B0
:1045800061FAB8F8083094F8C0204E49286840F025
:10459000E0FA002579E598F80A30012B2AD13F4D41
:1045A000B4F8897028683E4987B140F0D2FA3FF0EC
:1045B00048FA3FF047FA94F8C0204349286840F091
:1045C000C8FA072384F8263101255EE540F0C1FAD8
:1045D0003FF037FA3FF036FA94F8C0203B4928689C
:1045E00040F0B7FA05233946304684F826313EF0CC
:1045F00011FFCEE7022BE7D1284D2949286840F06A
:10460000A8FA3FF01EFA3FF01DFA94F8C020304996
:10461000286840F09EFA0623D5E5063F012F3FF6B5
:1046200034AD41463046FFF7A5FB054600283FF470
:104630000DAF1A4F012D3868194923D140F089FA7E
:104640003FF0FFF93FF0FEF9B6F8A43F94F8C02020
:104650002049386840F07DFA012308218DF8373071
:10466000B6F8A43F8DF83650ADF8343006F58473B3
:104670000B93D6F804310BAA0C933046FFF7EAFCF3
:10468000054602E540F065FA3FF0DBF93FF0DAF964
:10469000B6F8A43F94F8C0200F49DAE70C370020A1
:1046A00083540508727A0508B07A05082967050859
:1046B0003C540508707B0508BF7B0508A866050803
:1046C00034780508067C0508597C0508A07C050897
:1046D000E37C05082B7D05085F7D0508082F7FF426
:1046E000D4AC0122414630460FB0BDE8F04300F0A3
:1046F00063B8082F7FF4C9AC0022F3E7042F7FF4DE
:10470000C4ACD8F800301B79002B7FF442AF3046A0
:10471000FFF7D8FBD8F80030224D5B8833BB06F595
:1047200087500C3001F05CF91F49286840F011FAFD
:104730003FF087F93FF086F994F8C0201B492868BC
:10474000F5E6042F7FF4A1ACD8F800301A79002ADE
:104750007FF41FAF5B8843B93046FFF7B3FBEEE44D
:10476000092384F82631382316E50E4D10492868B0
:1047700040F0EFF93FF065F93FF064F9D8F8003008
:1047800094F8C0205B880B49286840F0E2F90923BF
:1047900084F8263123238DF82C30D8F800305B883C
:1047A00095E500BF0C3700208354050834780508D0
:1047B0003C540508947D05082DE9F043CE7A044663
:1047C0000F46914687B000F5805566B3B5F889303D
:1047D000A3B1FFF79DFB092885F8260121D12423E9
:1047E0008DF80C30002304930A21204603AAFFF71A
:1047F00031FC0646304607B0BDE8F0835B4E5C49AD
:10480000306840F0A6F93FF01CF93FF01BF9B4F80E
:10481000A43F584900933B8995F8C020306840F088
:1048200098F90026E6E70A89B0F8A43F9A421ED01C
:10483000B5F8893053B1FFF76BFB092885F82601DD
:10484000EFD1242304968DF80C30CDE7474E48492C
:10485000306840F07EF93FF0F4F83FF0F3F8B4F838
:10486000A43F454900933B8995F8C020D6E700F561
:1048700087500C3001F0B4F858B1092385F826317F
:10488000222304900A21204603AA8DF80C30FFF75A
:10489000E1FBDFF8D880B5F88930D8F8000034495A
:1048A000A3B340F056F93FF0CCF83FF0CBF895F8C1
:1048B000C0203249D8F8000040F04BF90221002214
:1048C000204685F82611FFF7C5FBBB7A0646022B6A
:1048D0000AD1B9F1000F07D02046FEF77FFE002174
:1048E00020463EF097FD85E72149D8F8000040F0CA
:1048F00030F93FF0A6F83FF0A5F83B8995F8C020C5
:104900001F49D8F8000040F024F9E8E740F021F909
:104910003FF097F83FF096F895F8C0201949D8F87D
:10492000000040F016F9052385F82631BB7A022BEA
:104930000AD1B9F1000F07D02046FEF74FFE002143
:1049400020463EF067FD6CE70949D8F8000040F0CA
:1049500000F93FF076F83FF075F83B8995F8C020F4
:104960000749D8F8000040F0F4F8E8E70C370020D9
:1049700083540508E27D0508377E0508347805086C
:104980008B7E05082967050808B5074B4FF446726A
:104990000021184642F070FFFF22827680F8222123
:1049A00080F82A2208BD00BFA80D00200B4B9A7E7C
:1049B00082420DD093F8222182420BD093F82A2212
:1049C000824209D102224FF4847101FB0230704708
:1049D0000022F8E70122F6E700207047A80D00202A
:1049E000FF282DE9F04107460E46904632D099B394
:1049F000A2F11703E32B31D84FF6FF730C889C42CA
:104A00002CD08A889A4229D0CA889A4226D00A890C
:104A10009A4223D0FF20FFF7C9FF054600B3214685
:104A200038461AF033FB044688B94FF484720146C5
:104A3000284642F021FF0B4BAF761A689B88C5F8D9
:104A400006206B8101236E61A5F818802B7020462B
:104A5000BDE8F0812524FAE72224F8E72124F6E7CF
:104A60001924F4E7B97E0508FF2837B50C4625D090
:104A7000FFF79CFF054618B34CB9983000F0B0FF23
:104A800005F1600000F0ACFF204603B030BD0378B4
:104A9000052B03D0082B0AD00220F6E7002341F2B1
:104AA0008831084A0093983000F0B8FFEDE7002302
:104AB00041F28831044A00936030F5E72520E4E7AD
:104AC0002D20E2E78937040843370408174B984242
:104AD00007D003F13802904203D003F170029042F4
:104AE0000AD1002300E001234FF48472104802FB36
:104AF000030070470223F7E703F584729042F2D077
:104B000003F5A0729042EED003F5BC729042EAD059
:104B100003F504729042EDD003F512729042E9D091
:104B200003F520739842E5D000207047080E00205E
:104B3000A80D002013B590F82A00FFF737FF68B1E1
:104B400000F16004204600F04BFF00234FF47A711F
:104B5000009320460123024A00F060FF02B010BD1E
:104B60004337040870B5054600F07CFB064628462E
:104B700000F064F92B68A94A23F47F43064023F030
:104B8000070386F001069342F6B200F0B2800BD81C
:104B900002F17A42934200F0A08002F57D02934236
:104BA00020D086F0010070BD9D4A9342F9D128794A
:104BB000FFF7FCFE04460028F3D0EB790B2B3DD128
:104BC0004269B5F805301188994221D16B89042BCF
:104BD00006D10378012B03D1EA6880F82030C26146
:104BE000012321E0A879FFF7E1FE04460028D8D090
:104BF000D03000F0F5FE04F1600000F0F1FE04F1A9
:104C0000980000F0EDFE00232370FF23A376C8E791
:104C1000D18899420AD1AD89983000F0E1FE294649
:104C2000A07E3EF08CFD00231E43BAE712899A4213
:104C3000F9D1A989807E3EF083FDF4E71B2B01D0DA
:104C40001D2BAED16169B5F8052048899042C7D0C7
:104C500048889042C4D0C888904202D009899142C5
:104C6000E1D11D2B02D1A07E1AF000FA6B89022B34
:104C7000B6D16269B5F80530D1888B4208D0128967
:104C80009A420ED0AD892946A07E3EF059FDA7E795
:104C9000E8791D2817D1E07B0228A1D112899A4218
:104CA00005D1EA791D2A13D1227C022A98D18B42A0
:104CB000AD89E8D104F1980000F092FE2946A07E6B
:104CC0003EF03DFD8CE71B28E8D1E07B0128E4E7BE
:104CD0001B2AECD1227C012AE8E72879FFF766FE3F
:104CE00000283FF45EAF6B79AA7943EA022303837D
:104CF00057E72879FFF75AFE044600283FF451AFE2
:104D0000B5F80520037862B3092B8CD8012101FA8C
:104D100003F010F4127F0AD110F090001BD18B42E7
:104D200081D12070E169A07EFDF7F2F958E70023F8
:104D300084F82230A384A378052B05D102212370A7
:104D4000A07EFDF785FA4BE7012B7FF449AF0823DE
:104D500003212370F4E70223A07E2370FDF778FA85
:104D600061E7013B082B3FF65EAF01A252F823F04A
:104D7000954D0008274C0008C34D0008FB4D000866
:104D8000274C0008E14D00082B4E0008274C000876
:104D9000B14D000894F82030807EE1692BB10223E8
:104DA00000222370FDF7B4F93DE701222370F9E7F3
:104DB0008378827C03441A7302230022037001214A
:104DC000BEE78378827C03441A7340F20253438027
:104DD00020463EF073FB024620BB04232370FFE60F
:104DE0008378827C03441A7340F2011343803EF0BF
:104DF00065FB0246B0B90723F0E78378817CC218CF
:104E00001173C2789A4205D10022052380F822202E
:104E1000828493E701338370DAE700BFA0000906BC
:104E2000A000090702232370C9E78378827C03442A
:104E30001A73002280F82220828488E7F0B5036884
:104E4000954A23F47F4323F007039342054691B02C
:104E500004D0002080F0010011B0F0BD0079FFF710
:104E6000A5FD04460028F4D0EB791D2BF1D1436950
:104E7000B5F805209B889A42EBD16B89012B04D8A9
:104E8000A07E1AF0F3F80120E4E72A7B012A4CD037
:104E9000022A00F08F80002AF2D1032BF0D1037890
:104EA000B5F80D50052BEBD190F82230002BE7D050
:104EB00090F82170002FE3D1838CAB42E0D1D03049
:104EC00000F08EFD04F1280604F1600000F088FD7A
:104ED000304600F0A5F9304684F822700AA93EF069
:104EE000BDFC034600B90A9BDDF83920DDF835101A
:104EF000A07ECDE908129DF8342007929DF833205A
:104F00000692DDF82F2005929DF82E2004929DF840
:104F10002D2003929DF82C20CDE901520122009210
:104F200000220021FDF73EFAAAE7052BA8D103785D
:104F3000052BA5D190F82230002BA1D090F821307C
:104F4000022B9DD1B5F80D20838C9A4298D1D03098
:104F500000F046FD04F1280604F1600000F040FD79
:104F6000304600F05DF90023304684F822300AA96B
:104F70003EF074FC034600B90A9BDDF83920DDF8E9
:104F80003510A07ECDE908129DF8342007929DF8D7
:104F900033200692DDF82F2005929DF82E200492F2
:104FA0002A7C0392EA7B0292B5F80D20019201223D
:104FB0000092B6E7022B7FF463AF90F822306D7B4E
:104FC000002B3FF45DAFD03000F00AFD94F82330A1
:104FD000BBB1012D06D104F1600000F001FD0023FA
:104FE00084F822300026A07E32462B46032184F826
:104FF00023603EF027FC2A463146A07E3EF024FC8A
:105000003EE7002394F8211084F82230012901D0D2
:10501000042904D12B460022A07E3EF013FC94F814
:105020002130012B31D013F0FD0F7FF429AF04F1B3
:105030002806304600F0F4F830460AA93EF00EFC8F
:10504000034600B90A9BDDF83910DDF8356094F8A5
:105050002120A07ECDE908619DF8341007919DF8CC
:1050600033100691DDF82F1005919DF82E10049154
:105070009DF82D1003919DF82C100291A18CCDE983
:105080000051911E4A424A414BE72A460021A07E28
:105090003EF0D9FBF4E600BFA000090738B50024B4
:1050A00005464FF01BFE074B1B681BB94FF011FE66
:1050B000204638BD93F82A20AA4208BF1C461B6828
:1050C000F3E700BF083700202DE970430446164679
:1050D0000D46037B86B023F0180343F01003816173
:1050E000037301460D483EF0A0FCD4E90489217BFE
:1050F000CDE90489227981F00403C1F340010191D3
:105100000292226B2946009220463246C3F3800366
:105110003EF068FB06B0BDE8708300BF0837002092
:105120002DE9F0410C4690461E46054686B0002803
:105130006FD000296DD04B68002B6AD0002A68D050
:105140008B7BFF2B67D00A7C4FF6FF73002A52D06F
:10515000B8F802209A425ED02368002B57D0A3896A
:10516000173B9BB2E32B52D84FF0B8FD07462B4BB1
:105170001B68002B42D1A07BFFF790FF00283FD196
:1051800001AB04F1100C1A4620686168083403C2B0
:1051900064451346F7D12068002110603822284664
:1051A00042F06AFB01AC05F11C030DF1140C224620
:1051B00003CA624518605960144603F10803F6D12A
:1051C000106818609DF8303085F82460EB842B7BE4
:1051D000C5F8348043F008032B73AE800EB1731E04
:1051E0009EB229460D48EE803EF010FC38464FF046
:1051F00070FD002008E0B8F80A20ABE79D42B7D167
:1052000038464FF066FD2E2006B0BDE8F081212023
:10521000FAE72220F8E72520F6E700BF083700204C
:1052200070B50546C8B14FF059FD06460C4B1B68DA
:105230002BB92D2430464FF04CFD204670BD9D42C9
:10524000F5D12C7B14F0100405D10622012128464B
:10525000FFF73AFFEEE70224ECE72224EDE700BF78
:10526000083700200368764A23F47F4323F00703BE
:1052700093422DE9F04705461BD002F1C06202F5CA
:10528000403293421BD002F1794293420CD1007913
:10529000FFF704FF40B1B5F80520038D9A4203D013
:1052A00013220221FFF710FF002080F00100BDE86B
:1052B000F0878079FFF7F2FE0028F1D1F4E7C37997
:1052C0001D2B01D01B2BEFD12879FFF7E7FE0446F9
:1052D0000028E9D090F82B20EB79F2B91D2BE3D010
:1052E00094F82C00B5F80520616BC0B14988914253
:1052F000DAD11D2B02D1287919F0B8FE6A89D2B211
:10530000012A03D9208DC31E93420AD22B220221E7
:105310002046FFF7D9FE0120C7E71B2BDFE74989AD
:10532000E5E7297B94F824C0CF074FEA910301F009
:1053300002061BD5A380237B43F001032373A388BC
:1053400026B1217B238141F0020121739C4564D861
:10535000E18CFF2901D099425FD304385843E169B9
:10536000013A83188B4251D91D22D0E7277BF907D8
:105370001BD4E6464FF0010947F001072773A380CD
:105380005FFA8EF1994203D361890B446381D6E7BA
:1053900009FA0EF8D4E9047147EA080741EAE8710E
:1053A000C4E904710EF1010EEAE7B4F806E0A3EBDC
:1053B0000E0101F03F0101390EF101095FFA81F898
:1053C00059FA81F189B23F2984BF47F00407277356
:1053D000A180217B490705D44FF0010A013BDBB2D4
:1053E0009E4501D34346CFE763450CD3E18C9942F8
:1053F00009D3D4E904710AFA03F947EA090741EA33
:10540000E971C4E90471013BDBB2E9E72363236A74
:1054100005F10D01184442F03AFA2046A188FFF741
:1054200089FBA288E38CE2809A4205D0002E3FF4EB
:1054300072AFFF2B7FF46FAF0022114668E700BF09
:10544000A0000601092838B504460FD9084D0949BE
:1054500028683FF07EFB3EF0F4FA3EF0F3FA224675
:10546000054928683FF075FB002038BD0420FCE7A3
:105470000C3700203C540508BF7E05082DE9F34198
:10548000044690F8028008460D4617461E46FFF770
:10549000D9FF4044013080281DD9284E2849306862
:1054A0003FF057FB3EF0CDFA3EF0CCFA2846366886
:1054B000A478FFF7C7FF0134031980221C2430466B
:1054C000CDE900241F492A46DBB23FF042FB2046CB
:1054D00002B0BDE8F0816378AB4212D92626174F9F
:1054E000174938683FF035FB3EF0ABFA3EF0AAFAB8
:1054F00000962A466378144938683FF02AFB304604
:10550000E6E7A3782846F554A37801331E44FFF755
:1055100099FF39460246304642F0B9F9284665708F
:10552000FFF790FFA378013318442378C0B201330A
:10553000A070E07023700020CAE700BF0C37002085
:105540003C540508DA7E0508437F05082DE9F0473D
:105550009946C37804460E46174633BB304D314951
:1055600028683FF0F6FA3EF06CFA3EF06BFA1B2327
:1055700032462D4928683FF0ECFA4FF01B0863785B
:10558000092B10D9264D274928683FF0E2FA3EF052
:1055900058FA3EF057FA26233246244928683FF04D
:1055A000D8FA4FF02608002525E04FF00008E6E77E
:1055B00017F805A05046FFF745FF5645024617D19C
:1055C000691C4846394442F062F92378012B04D91A
:1055D000013B23704046BDE8F08700213846E27861
:1055E00042F04AF9002323706370A370E370F1E77F
:1055F00001321544EDB2E378AB42D9D8084C0949E1
:1056000020683FF0A6FA3EF01CFA3EF01BFA324644
:10561000074920683FF09DFA4FF00108DAE700BF24
:105620000C3700203C5405089F7F0508D97F0508EA
:10563000F97F0508F8B50C460F4D104F8E18B4428F
:1056400001D1002014E0296814F8013B7B540A2B97
:1056500001F10101296001D0F729F0D13846FBF7AB
:10566000FFFB30B12B68834203D0012331202B6034
:10567000F8BD01232B60E2E7389B0020D49E002078
:105680002DE9F047534E96B0354609AC0FCD0FC407
:105690002B6806F1140523600EAC0FCD0FC495E8FE
:1056A0000F00DFF8488184E80F004B484FF021FBE2
:1056B00040464FF01EFB4FF48073484FADF83C302E
:1056C000474B38460B9309A90EAB0D9303F0CCFE64
:1056D00004210225B6F834A00DEB01000122ADF83B
:1056E00004A03EF082FAB6F836900022012102A80A
:1056F000ADF808903EF079FA368F0122042103A814
:10570000ADF80C603EF071FA0122042104A8354C7A
:10571000ADF810503EF069FA334B4FF44870C4F8BE
:10572000C8344FF00213C4F8C43403F58033C4F80E
:10573000CC341C23C4F8B43405F088FE08A8ADF8B6
:10574000205000F081FB142005F080FE08A8ADF881
:10575000205000F069FB232005F078FE08A8ADF882
:10576000205000F071FBB92138463FF0BFF808A87F
:10577000ADF8205000F058FB002205A81146ADF806
:1057800014A03EF032FA002206A81146ADF8189097
:105790003EF02BFA0122002107A8ADF81C603EF074
:1057A00024FA0122002108A8ADF820503EF01DFA8D
:1057B000384603F093FC00234046C4F8B434C4F8E0
:1057C000C834C4F8C434C4F8CC344FF095FA16B0D9
:1057D000BDE8F087188005089882050800000A5087
:1057E000E070720000C00350020001009C820508B6
:1057F00008B504484FF07DFA41F0F1FEBDE80840DD
:10580000FFF73EBF9882050801484FF072BA00BF0B
:10581000988205080348044A0449121A92103EF07F
:10582000E1B800BF80010008400300086099002033
:1058300008B5154B83F30A8800F030F8FFF7EAFF4C
:10584000124B13498B4212D30020124B12498B4248
:1058500018D3FBF783FA186850F82240586840F8CC
:105860002240013298688242F5D30C33EAE70022E5
:10587000F8E71C6844F8220001325C68A242F8D3C1
:105880000833E4E70022F8E7000000202827060894
:105890003427060834270608342706084FF48041C9
:1058A000124B134A70B59A60D3F88820114D42F418
:1058B0007002C3F88820104A05F5005491664FF035
:1058C000FF3222660D4A62660222C3F8D020BFF37F
:1058D0004F8FBFF36F8F4FF44036002004F034FD3C
:1058E0000020E66004F014FD2E6170BD00ED00E0C4
:1058F000000000080080004400900050F7FF3700CF
:10590000014B1860704700BF409B0020054B18609A
:10591000054B1B6F03F00703032B01D14DF058BF5C
:10592000704700BF489B00200080005018B1034B17
:105930001860002070472220704700BF0C370020FD
:1059400008B504F01BFD014B186008BD0C370020A2
:10595000024B034918683FF0FCB800BF0C37002029
:1059600086C1050870B50C4C0C49064620683FF00E
:10597000F0F804F003FD0546206804F0F3FC30461F
:10598000FFF7E6FF284604F0EDFC20680449BDE877
:1059900070403FF0DEB800BF0C3700205280050891
:1059A0005480050838B505464FF098F900230B4A96
:1059B00014685CB1AC4206D1A96A6BB199624FF030
:1059C00088F9012007E02346A46AF2E7002DF3D00E
:1059D0004FF07FF9204638BD1160F0E71037002006
:1059E00010B50446B0B14EF0D7FC2046FFF7DAFF01
:1059F00010B194F82C300BB9002010BD064C236870
:105A0000002BF9D04FF06AF92368013B23604FF077
:105A100060F9F1E72220F0E7143700202DE9F04388
:105A200085B00546914698460E469DF8307009B9F6
:105A3000002F5CD12846FFF7D3FF0446002836D15B
:105A400085F82C00686305F093FC864233D94EF04C
:105A50003BFD2146844640F2E7304FF47A72002342
:105A6000E6FB0C010CF052F94FF0FF3200230CF072
:105A70004DF92B46E88611462846CDE900441D4ADB
:105A80004FF003FA044690B9C5E9089885F82D70DF
:105A90002E634FF023F9184A136833B31A469B6AF2
:105AA000002BFBD195620023AB624FF012F9204628
:105AB00005B0BDE8F08347B12B4631462846CDE915
:105AC00000440C4A4EF084FDDCE7304603A94EF05A
:105AD00001FD04460028EAD12B462846CDE900778F
:105AE000044A03994FF0ADF9CCE71560DBE72124B8
