S02B00002F55736572732F6368656E6771692F53696D706C696369747953747564696F2F76365F776F726B7347
S31508000000A80D0020995B00083F3104083F31040819
S31508000010514D04083F3104083F3104083F310408B4
S315080000203F3104083F3104083F3104083F310408D2
S315080000303F3104083F3104089D2A04083F3104086B
S315080000403F3104083F3104083F3104083F310408B2
S315080000503F3104083F3104083F3104083F310408A2
S315080000603F3104083F3104083F310408F10601080E
S31508000070F36D04083F3104083F3104083F31040892
S315080000803F3104083F3104083F3104083F31040872
S315080000903F310408016700083F3104083F3104086E
S315080000A03F3104080D630008ED6200083F3104087B
S315080000B03F31040899E502086DEE0208FF1E05089F
S315080000C0FB1E0508E1E50208151F0508031F0508BC
S315080000D03DEE0208071F0508ADEE020815EF0208F7
S315080000E03F3104083F3104083F3104083F31040812
S315080000F0334204083F3104083F3104083F310408FD
S315080001003F3104083F3104083F3104083F310408F1
S315080001103F3104083F3104083F3104083F310408E1
S315080001203F3104083F3104083F3104083F310408D1
S315080001303F3104083F3104083F3104083F310408C1
S315080001403F3104083F3104083F3104086D4405086F
S31508000150ADCF02083F310408E91E0508EF1E050861
S315080001603F3104083F3104083F3104083F31040891
S31508000180F0B5114A114C124E00F00105E3695F07FC
S3150800019013D40DB9334213D103EA00078F4207D1AE
S315080001A00B4A1A40002A0CBF00206FF00100F0BD70
S315080001B0013AEBD16FF00200F9E74FF0FF30F6E7AE
S315080001C06FF00100F3E700BF809698000000035027
S315080001D0020001000B4B70B5D96911F480310DD1BD
S315080001E001244FF48072084E084DF46020462C64B2
S315080001F01A61FFF7C5FF3464EC6070BD6FF001004B
S31508000200FBE700BF00000350001003500020035016
S315080002104FF4803238B50E4B0E4C9A66E56941F6B6
S31508000220713315400122E3630B4B0021DA60022388
S31508000230606121202361FFF7A3FF10B92120FFF792
S315080002409FFF0122054BDA600DB10023E36338BD39
S315080002500090005000000350001003500020035087
S3150800026070B5134C6061E3695B071ED40E4656F8F9
S31508000270043B8D18A361AE420BD104230021212033
S315080002802361FFF77DFF58B9BDE870402120FFF7CD
S3150800029077BF08210846FFF773FF10B104232361CF
S315080002A070BD56F8043BA361E5E74FF0FF30F7E76A
S315080002B0000003502DE9F84315464FF48032184BD9
S315080002C089469A6603F51C33DF690646174041F6E8
S315080002D07132DA63012203F58053DFF84C80DA6065
S315080002E055B9284601220F4BDA601FB10022A3F543
S315080002F00053DA63BDE8F88306F5005404EA0804F7
S31508000300A41BAC4228BF2C46494622463046FFF776
S31508000310A7FF0028E6D12644A1442D1BE0E700BF2D
S31508000320009000500020035000E0FFFF000000008E
S3150800033000000000000000000000000000000000AF
S31508000340013800D0FCE770472DE9F04F93B0CDE9AE
S315080003500A32DDE91C530E9353EC102BCDE9080144
S31508000360104619468DED060B1E9E11F01BF880B13E
S31508000370DDE906014FF0FF32C54B11F03BF840B9F5
S31508000380DDE906014FF0FF326FF4801311F014F81F
S3150800039070B1DDE908019DED060B0E9B1E96CDE9B1
S315080003A01C53DDE90A3213B0BDE8F04F00F088B9F6
S315080003B00022DDE90601002310F0FEFF002800F008
S315080003C03381DDE906A303F1004BCBF30A5016F49B
S315080003D08063A0F2FF3008BF06250F9310F010FDCA
S315080003E09BA3D3E9002310F075FD9BA3D3E9002353
S315080003F010F0BAFBCBF31304894644F07F518046CC
S315080004000022A44B504641F4401110F0ABFB94A3D4
S31508000410D3E9002310F05EFD02460B4640464946E6
S3150800042010F0A2FB10F0F0FF044610F0E9FC8EA3D2
S31508000430D3E900238046894610F04CFD0022964BEE
S3150800044010F092FB10F0E0FF89A3D3E900230746DA
S315080004504946404610F03EFD80463846894610F02B
S31508000460CFFC85A3D3E9002310F034FD02460B46E2
S315080004704046494610F076FB02460B46CDE90C236A
S3150800048010F028FDDDE90C238046894610461946FA
S3150800049010F06AFB0022CDE91001804B4046494620
S315080004A010F042FE00227E4B10F05EFB02460B4621
S315080004B04046494610F038FE00227A4B10F054FBAD
S315080004C002460B464046494610F02EFEDDE90C234F
S315080004D08046894600204FF0804110F043FB0246D3
S315080004E00B464046494610F03FFB02460B46DDE9FF
S315080004F0100110F019FE07F2FF3700226A4B10F0C0
S3150800050033FB00223B0510F0E5FC52465B4680466D
S31508000510894610F06FFF002840F08980CDE90C89E4
S3150800052004F16303C72B34BF0427052731051BD500
S3150800053053A3D3E900235046594610F051FF00282B
S315080005407FD051A3D3E900235046594610F034FF13
S31508000550002876D00027A542C6BF2C1B04F1FF351C
S3150800056000253C4646F480660E9B9F422CBF4FF002
S315080005700008A3EB070816F0020903D0002F18BFDE
S315080005804FF000083CB1DDE90C235046594610F0FF
S31508000590CBFD82468B46DDE906010022002310F0DA
S315080005A00BFF10B10BF100439B46DDE9080126F469
S315080005B00063CDE90183DDE90A324BEC10AB009507
S315080005C000F07EF802465FB3DDE9091316F0200F46
S315080005D000F10105089E0CBF65204520B047DDE9FE
S315080005E008010523002205930A23002CCDE90232CF
S315080005F007F1FF374FEAD473B8BF64422A4601931E
S3150800060004970A9B009444F0F5FC0246B9F1000FE2
S3150800061006D00B9BC41A0B9B1A190E9BA34245D8EE
S31508000620104613B0BDE8F08FDDE906ABCDE6002233
S31508000630404649461A4B10F077FD013CCDE90C01BE
S315080006406EE7002D90D00F9B002B8DD0013D8BE7D8
S31508000650FB799F501344D33FB3C8608B288AC63FA3
S3150800066061436F63A787D23F71A379094F930A4005
S315080006701655B5BBB16B0240EF39FAFE422EE63F7E
S315080006802D431CEBE2361A3F0000000080842E4101
S31508000690FFFFEF7F0000F83F0000E03F00002C401E
S315080006A000002440000018400000F03F2020DDE94B
S315080006B00913089DA8470134ADE700BF00000000F4
S315080006C02DE9F04F5BEC10AB97B0CDE90501DDE9FC
S315080006D02057CDE90723504652465B465946229E87
S315080006E010F060FE70B90323CDE902760193B04B92
S315080006F00093DDE90501DDE9072344F09BFB17B00C
S31508000700BDE8F08F4FF0FF326FF48013504659461C
S3150800071010F052FE28B10423CDE902760193A54BC9
S31508000720E6E74FF0FF3250465946A34B10F062FEFB
S3150800073068B1A24A06F00403002B08BF0322A04BA7
S315080007401CBF13460422CDE902760192D0E7504633
S3150800075093A3D3E90023594610F04CFE38B992A367
S31508000760D3E900235046594610F026FE68B1DDE964
S315080007700723DDE905014BEC10ABCDE92176209581
S3150800078017B0BDE8F04FFFF7DFBD00220023504643
S31508000790594610F011FE002800F09A805B46524632
S315080007A00020002110F0DEF9012382468B460993CA
S315080007B016F4806400F08E80092D40F28E800024A5
S315080007C030210EABA5F109020134202C03F8011BD8
S315080007D0A5EB040901D09442F6D15946504610F0CB
S315080007E013FE784B054603EBC90393ED007B8DEDAD
S315080007F00A7B10F005FB02460B465046594610F098
S31508000800B1F9DDE90A2310F065FB02460B46CDE98E
S315080008100C2310F021FE804610F0E2FA02460B4641
S31508000820DDE90C0110F09EF902460B46CDE90C23D2
S315080008300022654B10F0DEFD002851D008F10108B2
S31508000840404610F0CDFA02460B46DDE90A0110F0E3
S31508000850BDFD10B14FF000080135B9F1000F50D1B8
S31508000860284610F0CDFA02460B465046594610F077
S3150800087079F90022544B8046894610F09DFD30B127
S31508000880002240464946504B10F0B4FD10B1E80727
S3150800089000D501350A210EAB1A19202C0AD095FB72
S315080008A0F1F001FB1055303502F8015B01340546BD
S315080008B00028F2D106F00302012A57D1002F55D09D
S315080008C0099A12B916F00C0F00D0013F302245E004
S315080008D009906DE74FF006097FE7A94600247CE7F3
S315080008E00022DDE90C01384B10F066FD0028B4D172
S315080008F0B8F1000F02D018F0010FAED008F10108C8
S31508000900ABE70A210EAB2344202C0ED0B8FBF1F03E
S3150800091001FB1082B8F1090F02F1300209F1FF3923
S3150800092004F1010403F8012B11D83021A1440EAAC1
S31508000930202CAFD0A14504F101030AD11C4609F1C8
S3150800094058030DEB03092E2309F8203CA2E780463D
S31508000950DAE7A1541C46EBE71A550134A74205D934
S31508000960202CF9D1CDE902760194C1E6202CF9D0E4
S31508000970099A3AB12D2104F158026A4402F8201C5A
S315080009800134EFE7710704D504F158022B216A44B4
S31508000990F4E73207E6D504F1580220216A44EDE768
S315080009A00000000065CDCD410000000065CDCDC139
S315080009B00479050808790508FFFFEF7FFB78050825
S315080009C000790508107905080000E03F00000000DE
S315080009D02DE9F04F2DED028B002597B01D7003937E
S315080009E0229B074607911D60002800F03C8143784A
S315080009F0047844EA0324837844EA0344C37844EA3F
S31508000A00036463783F2B00F22E81AA4214BF0623A3
S31508000A1008238DF8243009230C958DF82630427961
S31508000A20037908469FEDA48B43EA02234A790434E6
S31508000A30023292008DF825200AAA0092043B9BB246
S31508000A402146007909AA8DED0A8B39F017FB0A9B16
S31508000A500646049360B1049B23B10C991846C91A3B
S31508000A6044F0A9F8304617B0BDEC028BBDE8F08F0C
S31508000A700B98039DC01A40102870C0B200EB4000C6
S31508000A808F49800051F068FA8346002800F01081EB
S31508000A902B788DED0E8B1096002B00F0FA803346DE
S31508000AA002960299E279591A8A42B246B04600F28B
S31508000AB0AC8004D202991144994218BF0F91002ABA
S31508000AC040F0AD807A783B7894F802E043EA022356
S31508000AD0BA7894F803C043EA0243FA7808EB480167
S31508000AE043EA026300220BEB810514925A781878C0
S31508000AF085F802E085F803C002F00F03E2798DED70
S31508000B00128B6A7194F906202A710BF821000EAA35
S31508000B106B70204612AB09A937F0A2FA8146002865
S31508000B203BD01298149910B1091A44F044F8039B63
S31508000B301B78F3B100252C462E4604EB44040BEB38
S31508000B408404627A207A40EA0220A27A40EA0240C5
S31508000B50E27A50EA026000F0968044F02AF8039B95
S31508000B6001351B7826726672A672E672ECB29C4252
S31508000B70E3D3584644F01DF80023029A1099891ABF
S31508000B80039A1370029B13B1184644F014F8049B99
S31508000B904E46002B7FF461AF64E7DDE91232D21AC4
S31508000BA0104647490693059251F0D6F9C0F3072C2B
S31508000BB085F809C0C0F3074C85F80AC04FEA106CDF
S31508000BC0069B287285F80BC0002865D0059A002A6E
S31508000BD035D185F8069085F80790002B40D1049BFF
S31508000BE00AF1010A33F81820E3795FFA8AF83344E0
S31508000BF0DEB2039B14441B7843453BD90F9B0299ED
S31508000C00E279591A8A427FF654AF511A0EA837F07C
S31508000C10C9F90E9BE2790293002A3FF453AF07986D
S31508000C204378017841EA0321837841EA0341C3788E
S31508000C30029841EA0361314446F08BF942E71946C6
S31508000C400692059346F085F9069A1499059BAA71AA
S31508000C50C2F30722EA71C91A184643F0ACFFBEE789
S31508000C601499C91AF8E70B26304617B0BDEC028B63
S31508000C70BDE8F08F229B1099C3F800B0029BC91AF1
S31508000C80002B81D183E70135ECB29C42FFF455AFC6
S31508000C906FE7229B1860DEE63BB114991846C91A1D
S31508000CA043F089FF4FF0020941E74FF002093EE79A
S31508000CB00226D0E6AFF30080000000000000000026
S31508000CC02C0806080348044B834202D0034B03B1A1
S31508000CD018477047E4C20020E4C200200000000064
S31508000CE0064B0749C91A891048BF0131491003D074
S31508000CF0044B0BB101481847704700BFE4C20020F7
S31508000D00E4C200200000000010B5064C237843B961
S31508000D10FFF7D8FF044B13B10448AFF30080012353
S31508000D20237010BD26A80020000000002413060822
S31508000D3008B5054B1BB105490548AFF30080BDE86A
S31508000D400840FFF7CDBF00BF00000000D014002008
S31508000D5024130608A3F5803A704700BF174B002BEB
S31508000D6008BF134B9D46FFF7F5FF00218B460F463C
S31508000D701348144A121A46F006F90E4B002B00D0F7
S31508000D8098470D4B002B00D09847002000210400FF
S31508000D900D000D48002802D00C48AFF3008010F073
S31508000DA01DFF2000290046F026F810F055FD00BF6B
S31508000DB0000008000000000000000000A80D002048
S31508000DC0A80D002000BA0020000000000000000066
S31508000DD013B5094C237863B9022304200093074A04
S31508000DE04FF4805306490DF073FB0028A4BF012376
S31508000DF0237002B010BD00BF28B8002027A8002025
S31508000E00C847050830B5154B87B01B780546144604
S31508000E10019103B341F026FE4FF41B630D22CDF872
S31508000E200D00CDF81110042002A902938DF80C507C
S31508000E300DF022FB04220DEB020110460DF01CFBFF
S31508000E40019B21461A0202F4E062C3F30723042039
S31508000E501A430DF011FB07B030BD00BF27B80020BC
S31508000E6030B5144B05461B7885B003F0FF04F3B183
S31508000E70FF2928BFFF210C4641F0F4FD04F10902C1
S31508000E8013029BB243EA122343F0807343F0B00384
S31508000E900D22CDE900300291042069468DF80C40F8
S31508000EA00DF0EAFA2246294604200DF0E5FA204616
S31508000EB005B030BD27B800200122014B1A707047D3
S31508000EC027B800201FB541F0CDFD084B0391CDE9A9
S31508000ED001300C22042001A90DF0CEFA04200DF0F1
S31508000EE029FB0028FAD105B05DF804FBB00800021A
S31508000EF037B5044619F066FA054600284AD1A368AC
S31508000F0043F40033A36047F056F8A368244A43F431
S31508000F10A013A360A261257743F07AFFA368A08097
S31508000F201B030CD4B0F5FA7F09D953F056F9012101
S31508000F300546084652F0F2F8284653F049F9204685
S31508000F4019F068FA38BBE06838B31BF0BFFA17F037
S31508000F50D5FA18F0E7F84AF09EF848F00EFC40F289
S31508000F600443ADF80430FF2301A88DF8063012F0CB
S31508000F7015FE00220420114649F0F6FA0321042042
S31508000F801AF010FC0A2012F06DFA19F0FBF9204647
S31508000F9041F07FFD002003B030BD0248D5E700BF11
S31508000FA0050403005EBF002008B50449044824F080
S31508000FB003F9BDE8084024F031B900BFD847050851
S31508000FC09C4805084FF08052014B5A60704700BF95
S31508000FD000ED00E0F8B50E460546D0B1C9B10E4B96
S31508000FE00E4F1968386806F079FB044678B9062367
S31508000FF032460B49386806F03FFC044638B90123E7
S315080010002A460849386806F037FC00B12C70204695
S31508001010F8BD2124FBE700BFECBB00200CBC002078
S315080010202C0004003C00040007B5084B1878FF287C
S3150800103002D023F0F9FB30B14FF6047301A8ADF8DE
S31508001040043045F068FE03B05DF804FB6FBF00206E
S3150800105010B50D4C0D4804F077FE23780BB123F03C
S315080010603DFCFF220A4B01211A700022094B22700F
S315080010709A70152219705970DA701A7100F03EFBD1
S31508001080BDE8104000F02CB929B80020E81400206B
S315080010906FBF00202AB8002038B500F06BF9044667
S315080010A000F0BCF9C0B10E4D2B789BB90D4B1B78DF
S315080010B0FF2B11D1032C11D80B4C2279E178A0789B
S315080010C023F0E2FB38B90121207823F0F3FB10B9AD
S315080010D001232B70002038BD0220FCE71D20FAE70B
S315080010E029B800206FBF00202AB80020F0B50546B1
S315080010F085B00E4600F03EF95DB3194F3B78FF2BDD
S3150800110029D1032829D8002342F21071154A164816
S31508001110009304F037FE0446A0B901460DF10F030B
S3150800112000936A792B79286843EA022363F30F014F
S315080011300E4B32461B7823F0E9FA044628B10A48D2
S3150800114004F002FE204605B0F0BD9DF80F303B7056
S31508001150F8E72224F6E70224F4E71D24F2E700BFA5
S315080011606FBF002029100008E81400202AB80020C4
S31508001170036837B523F47F43504A23F007039342A5
S31508001180044621D009D8A2F5A022934217D002F529
S315080011908022934273D003B030BD494A93424AD065
S315080011A002F57F029342F6D1464B1B78002BF2D00C
S315080011B0454B1B78FF2BEED100F11E0369E003B007
S315080011C0BDE83040FFF744BF3F4B017B1A78914298
S315080011D0E1D1C27A012ADED1FF223A4D3B481A7084
S315080011E004F0B2FD2B784BB123F078FB08B34FF629
S315080011F0047301A8ADF8043045F08DFD607A227AB3
S31508001200012342EA00226168207B00F077F830B1BA
S315080012104FF6047301A8ADF8043045F07CFD0023B1
S315080012208DF80430237B8DF8053001A845F073FD51
S31508001230B1E72870E2E7244D80792B78834205D1FF
S31508001240224804F081FDFF232B70A4E700F0AAF8DA
S315080012500028A0D0A07900F0CFF800289BD0A0796C
S3150800126000F070F830B14FF6047301A8ADF80430F9
S3150800127045F051FD02238DF80430A379D3E7114BCD
S315080012801B78002B87D0104B1B78FF2B83D100F1DE
S31508001290160394F90D20E17A601D41F006FC00283A
S315080012A03FF479AF11283FF476AF2D3801287FF641
S315080012B072AF4FF60473ADF80430B6E7A000060027
S315080012C0A000060129B800206FBF0020E8140020FE
S315080012D0024B187880F00100704700BF29B800203B
S315080012E0FF22044B1A701A721A741A760022024BDD
S315080012F01A7070472FB800204FB8002073B56C4697
S3150800130084E8060000220D4911F8326001EBC20597
S31508001310FF2E0ED101F832000098094AC5F80200DE
S3150800132000206B70A388EB8013780133137002B02A
S3150800133070BD0132042AE7D11A20F8E72FB8002039
S315080013404FB800200023094A12F83310814208D109
S31508001350FF2102F83310064A00201378013B137068
S3150800136070470133042BEFD12D2070472FB800208A
S315080013704FB80020014B1878704700BF4FB80020BF
S31508001380002210B5064911F83240D300844202D132
S31508001390981C084410BD0132042AF4D10020F9E74C
S315080013A02FB800200023064A12F83310814204D0D1
S315080013B00133042BF8D1002070470120704700BF85
S315080013C02FB8002070B5044680B10026094D15F8DF
S315080013D0023CFF2B05D006222146284645F0A9FDEA
S315080013E030B10136042E05F10805F0D1002070BD94
S315080013F00120FCE731B8002001460022064B187888
S31508001400884202D15878012805D00132042A03F10E
S315080014100803F4D1002070472FB80020024B188823
S31508001420003818BF01207047201500202DE9F04F1D
S315080014308E4D90462E7893B0320789469A464FF0DD
S315080014400004009035D4F30647D4F7074CD44FF080
S31508001450000B9AF800305F46013B0D9306F0040333
S3150800146008932B7ACDE901BB00936B6809936B78D7
S3150800147003F001030B9395F86430049395F86530EF
S315080014800693069A049B13440C9395F85C300393D1
S3150800149095F85D300593059A039B13440A9306F065
S315080014A002030F9306F02003079306F040031093F8
S315080014B07BE04FF00804002705F1090B0622009986
S315080014C00BEB070045F035FD0028BCD006373C2F4E
S315080014D0F4D1002013B0BDE8F08F95F8453044F0FC
S315080014E010044B45F5D1B0E795F9023044F00104F4
S315080014F04345ACDBEDE70AEB07035D7893F802900A
S315080015000F9B002B36D0A9F10803012B32D8089A75
S31508001510234644F002041ABB009BAB4230D2F81CA7
S31508001520009A0999504445F004FD002808BF4FF079
S31508001530010B079B002B00F08580B9F1210F40F0C5
S3150800154081800A9B44F020049D42C2DD039B059AD4
S31508001550D91903314648514445F0EBFC10B3B8E7B6
S3150800156043F00604009BAB42E3D2009A6B1E9342FB
S31508001570DFD1D4E7109B1BB1A9F10203012B2ED9A9
S315080015803006D6D5A9F10603012BD2D84FF00008AC
S31508001590BA1C44F080046B1E0E9298453DDB079BEF
S315080015A0002B4FD101353D44EFB20D9B9F42A2DB84
S315080015B016F0060F02D0BBF1000F8AD0710602D5CD
S315080015C0019B002B85D0320602D5029B002B80D0CA
S315080015D0264BA4B21888031B584258417AE74FF0A5
S315080015E000086B1E0E9344F04004BB1C0E9A9045EF
S315080015F09FDA03EB0801013102221E485144119378
S3150800160045F097FC0028019B08BF012308F1020852
S3150800161001935FFA88F8119BE8E711930E9B102255
S3150800162003EB080101311448514445F082FC0028B7
S31508001630029B08BF012308F1100802935FFA88F895
S31508001640119BAAE70B9B002BACD0B9F1FF0FA9D1D0
S315080016500C9B44F480749D427FF73BAF049B069A2B
S31508001660D91903310548514476E700BF20150020F3
S3150800167078150020661500206815002080150020C2
S31508001680F8B506460D461746FFF722FEB8B1C6B1AD
S31508001690284643F054F90D4C6060A0B12A463146FD
S315080016A045F07CFC2378257243F0020323700FB9BA
S315080016B00020F8BD237843F004032370F8E70220DE
S315080016C0F7E72120F5E71920F3E700BF20150020EA
S315080016D010B50446FFF7FCFD50B15CB10020228826
S315080016E0054BA3F846201A7842F040021A7010BD3E
S315080016F00220FCE72120FAE72015002010B5FFF7A5
S31508001700E7FDF0B1104C606818B143F01AFA0023EF
S315080017106360A06D18B143F014FA0023A365206E28
S3150800172018B143F00EFA002323660020FE23A070AA
S31508001730207284F84530A4F85C00A4F86400208080
S3150800174010BD0220FCE700BF2015002000234FF043
S31508001750FF320449C818CA5006333C2B8280F9D197
S31508001760FFF7CCBF29150020034A0449002808BF03
S315080017701146042023F018BA544905084C490508AF
S31508001780002241F2441138B504460E4801FB02F323
S31508001790C55CA54202D10C48184438BD0132042A5A
S315080017A0F4D10A4D0A49286842F081FD41F0F7FC58
S315080017B041F0F6FC22460749286842F078FD0020E9
S315080017C0EBE700BF48260020881500209C5A002019
S315080017D05C490508614905082DE9F04FFF288FB0D7
S315080017E00D46CDE90A32099000F01284002900F06E
S315080017F011840A9B002B00F00D84199B002B00F026
S315080018000984189B002B00F00584A94CA949206877
S3150800181042F04DFD41F0C3FC41F0C2FC099AA649CD
S31508001820206842F044FD4FF0000941F24413A34AF0
S3150800183003FB09F10791515CFF2977D1A04C079B5F
S3150800184041F244121F190021384645F09CFB00213D
S31508001850384641F08DF941F2A8034FF0FF32FA50AD
S3150800186041F2BA0317224FF0000BFA5207F58052DD
S31508001870B2F8A430594603F0F00343F48673A2F88D
S31508001880A430079B40F24A7203F658002044C7F872
S3150800189054B845F078FB41F2BC0307F803B0099B3E
S315080018A007F586563370079B492203F582501A308E
S315080018B02946204445F072FB41F26603FB5C41F27F
S315080018C0C40A089341F26803794D17F803807949E9
S315080018D0286842F0ECFC41F062FC41F061FCCDF86E
S315080018E00080089B32787749286842F0E0FC079B1D
S315080018F05A4603EB0A0121445B46307822F06EFF14
S315080019000446002836D07049286842F0D0FC41F0D9
S3150800191046FC41F045FC6D493278286842F0C7FC20
S315080019202D212246384601F043FB1FE009F1010943
S31508001930B9F1040F7FF47CAF6349206842F0B7FC25
S3150800194041F02DFC41F02CFC6149206842F0AFFCC7
S315080019505D49206842F0ABFC41F021FC41F020FCD7
S315080019602068099A5B4942F0A2FC1C2420460FB065
S31508001970BDE8F08F17F80A309BB9307822F0E0FFFF
S31508001980044670B15049286842F091FC41F007FCC2
S3150800199041F006FC50493278286842F088FC2E212E
S315080019A0BFE70B9B28681B88454CA7F8B93F13F07F
S315080019B0FF0344D13F4942F07AFC41F0F0FB41F085
S315080019C0EFFB41F2441303FB094303F586531A78E8
S315080019D04249286842F06BFC41F2441441F2D003B4
S315080019E0DFF8DCA00A9A04FB09A4E25041F2D4030A
S315080019F0189A94F8B91FE25041F2D803199AE2509E
S31508001A00079B03F5845641F25D0319365644324660
S31508001A10E05C37F07DFF834600286BD02A492868AA
S31508001A2042F045FC41F0BBFB41F0BAFB2C495B4652
S31508001A30099A286842F03BFC2124302171E7012BE2
S31508001A400FD11C4942F033FC41F0A9FB41F0A8FB39
S31508001A5041F2441303FB094303F586531A782149D7
S31508001A60B7E7022B0FD1134942F021FC41F097FB4F
S31508001A7041F096FB41F2441303FB094303F58653F1
S31508001A801A781949A5E7194942F011FC41F087FB74
S31508001A9041F086FB41F2441303FB094404F58652E0
S31508001AA094F8B93F12781249286842F000FC93E787
S31508001AB09C5A0020A3490508A8490508482600207D
S31508001AC088150020DD4905085C490508844A05088B
S31508001AD0394A0508544A0508B44A0508E34A050878
S31508001AE05C4C0508384B0508964B0508E64B050877
S31508001AF0EB4B05080A21304601F02AFD0646C44983
S31508001B0004F58654286842F0D2FB41F048FB41F0C0
S31508001B1047FB33462278BF49286842F0C8FB20783D
S31508001B20FFF72EFE00F5805B9BF85D300446022B1E
S31508001B30B94E4DD19BF86730072B00F25181DFE88B
S31508001B4013F0080018004F014F01E8004F014F013C
S31508001B50FB000123AE4980F8D33F286842F0A7FB73
S31508001B6041F01DFB41F01CFB9BF8C020AB492868DF
S31508001B702CE0089B3068012B1AD8A94904F580582F
S31508001B8042F095FB41F00BFB41F00AFB98F8C020A8
S31508001B90A449306842F08BFB01222921204601F036
S31508001BA007FA002388F86730012384F8D33F0FE04B
S31508001BB0022384F8D33F964942F079FB41F0EFFAC5
S31508001BC041F0EEFA9BF8C0209749306842F06FFB67
S31508001BD004F5805898F8673088F8683098F85D30CA
S31508001BE0012B20D198F86BB03068BBF1020F00F0DA
S31508001BF02B81BBF1FE0F00F04C81BBF1010F40F0C9
S31508001C005881874942F053FB41F0C9FA41F0C8FAB6
S31508001C1098F8C0208549306842F049FB88F86CB0CE
S31508001C20002384F8D33F41F2441606FB09A606F5BD
S31508001C30845BBBF80930002B35D10DF136030493CC
S31508001C400DAB039341F29703F35C41F25A020293F8
S31508001C5041F26803F35C41F25E01019396F8B93FDD
S31508001C6041F25D00009341F29803B25CF35C715C4B
S31508001C70305C01F02BF906F586580446002800F07A
S31508001C804781654E0F2C306840F02581644942F043
S31508001C900EFB41F084FA41F083FA98F80020644973
S31508001CA0306842F004FB41F2441606FB09A606F525
S31508001CB084531A461032B2F8032006F5835102926D
S31508001CC0B3F8112006F586580192B3F80D2018319D
S31508001CD000920833B1F80920B3F80330B1F80710B9
S31508001CE098F8000022F03EFD0446002800F03281F4
S31508001CF05049286842F0DBFA41F051FA41F050FAAF
S31508001D004D49234698F80020286842F0D0FA312138
S31508001D1007E6B8F1010F30687FF62FAF02233C497A
S31508001D2084F8D33F42F0C3FA41F039FA41F038FA61
S31508001D309BF8C020414948E7B8F1010F11D9089B23
S31508001D40012B20D90423324980F8D33F286842F072
S31508001D50AEFA41F024FA41F023FA9BF8C02038493C
S31508001D6005E70122292101F023F9B8F1010F11D164
S31508001D70089B3068022B0DD104F5805B84F8D33FAD
S31508001D808BF8678017E70122292101F011F9B8F1CC
S31508001D90020F10D02249286804F5805842F087FAC5
S31508001DA041F0FDF941F0FCF998F8C0201D49286872
S31508001DB042F07DFAF5E6089B3068012BEAD1042348
S31508001DC084F8D38F04F58058114988F8673042F0B3
S31508001DD06EFA41F0E4F941F0E3F998F8C020A9E772
S31508001DE00F4904F58058286842F061FA41F0D7F99E
S31508001DF041F0D6F998F8C0201249286842F057FAF7
S31508001E00012384F8D33F002388F86730E0E600BF53
S31508001E10A3490508934C05089C5A0020C94C050897
S31508001E20E64B0508FC4C05083D4D0508314E0508EE
S31508001E30AB4F05085C490508F5500508704D0508BF
S31508001E40A34D0508D64D0508089A012A0AD97249EC
S31508001E5042F02DFA41F0A3F941F0A2F998F8C02012
S31508001E606E49D8E66C49089342F021FA41F097F991
S31508001E7041F096F998F8C0206949306842F017FA97
S31508001E80089B2A211A46204688F86C3001F090F8FB
S31508001E90C6E6644942F00BFA41F081F941F080F94F
S31508001EA098F8663098F8C0205F49306842F0FFF924
S31508001EB0B4E65949089342F0FAF941F070F941F04D
S31508001EC06FF998F8C0205949306842F0F0F9089B34
S31508001ED088F86B30A4E60A2C0AD14F4942F0E7F994
S31508001EE041F05DF941F05CF998F800205049D7E6D1
S31508001EF0504942F0DCF941F052F941F051F94E49A6
S31508001F00234698F80020306842F0D1F9322108E5D6
S31508001F10BDF8343006F58356A6F81F30A6F82130EA
S31508001F20BDF836303F492868ABF80330ABF80530C2
S31508001F3042F0BDF941F033F941F032F9BBF805300A
S31508001F403E490093B6F8213098F80020286842F0F8
S31508001F50AEF9A8E641F25B03FF22F15C099822F08C
S31508001F6029FC044680B13349286842F0A0F941F0BB
S31508001F7016F941F015F93249234698F800202868E1
S31508001F8042F095F93321CCE441F2CC090799079B35
S31508001F90079A01F586514B4402F6B9720831534443
S31508001FA05244514498F8000001F0F2F98246A8B16B
S31508001FB02049286842F07BF941F0F1F841F0F0F841
S31508001FC0534698F800201F49286842F070F952468F
S31508001FD02F21384600F0ECFF0124C7E41149286890
S31508001FE042F065F941F0DBF841F0DAF898F800209C
S31508001FF01549286842F05BF91A9B1BB116F8093097
S315080020001A9A137000223846114602F007F8ADE412
S315080020102524ABE42224A9E4E64B0508784E0508F6
S31508002020BF4E0508A34905080A4F05084F4F05087E
S31508002030075005085C4905084D500508A4500508D1
S315080020403F51050882510508BD5105082DE9F0479D
S31508002050002541F244172E461E4CA4F65809A4F64C
S31508002060580841F244120021404644F08CFFFF23F1
S3150800207084F8683884F8D1384FF0FF334FF0010AF6
S31508002080C4F85038172307FB059284F8CE6884F8FD
S315080020904DA8A4F8623802F5805292F8A4300021BF
S315080020A023F00F0343F00C0382F8A430204640F2D5
S315080020B04A7244F8046C44F066FF554484F8646830
S315080020C05146404640F054FD042D3C44C7D1BDE876
S315080020D0F08700BFE01D00202DE9F041064688463E
S315080020E01746FFF74DFB434C054698B94249206809
S315080020F042F0DDF841F053F841F052F832463F49D4
S31508002100206842F0D4F8222227212846BDE8F0416B
S3150800211000F04EBF05F5805696F8A4302068DB0718
S3150800212012D518F0010F0FD1334942F0C0F841F02B
S3150800213036F841F035F896F8C0203149206842F063
S31508002140B6F83A460B21E0E787B12B4942F0AFF8DB
S3150800215041F025F841F024F896F8C02029493B4675
S31508002160206842F0A4F83A460C21CEE7264942F008
S315080021709EF841F014F841F013F8434696F8C0204B
S315080021802249206842F093F896F8A41096F8C00001
S3150800219040F08CFD074688B11749206842F087F859
S315080021A040F0FDFF40F0FCFF96F8C02018493B467A
S315080021B0206842F07CF83A460D21A6E7032196F8F6
S315080021C0C00040F0B7FD074688B10B49206842F0C9
S315080021D06EF840F0E4FF40F0E3FF96F8C0200D49A2
S315080021E03B46206842F063F83A460E218DE7BDE883
S315080021F0F08100BF9C5A00205C490508EB51050890
S315080022001A52050880520508A3490508C15205084F
S3150800221000530508405305082DE9F04186B00746E6
S315080022200E461546FFF7ACFA0446A8B9494D4A4981
S31508002230286842F03CF840F0B2FF40F0B1FF3A4659
S315080022404649286842F033F822220E21204606B075
S31508002250BDE8F04100F0ACBEA5B1DFF8F8803E4914
S31508002260D8F8000042F023F840F099FF40F098FFB4
S31508002270009533463A463A49D8F8000042F017F82E
S315080022802A46E2E7022E57D0032E22D0012E2FD15E
S3150800229000F5805696F8B830052B29D10C23032172
S315080022A096F8C00086F8B83040F044FD0546F8B107
S315080022B0284F2949386841F0FAFF40F070FF40F08E
S315080022C06FFF2B4696F8C0202649386841F0EFFF85
S315080022D0D6E700F5805696F8B8300C2B0BD00121BE
S315080022E003AA8DF80C1001F099FE052386F8B8307C
S315080022F006B0BDE8F08100F6580240F24A7196F839
S31508002300C00040F093FC05460028EED0114F124954
S31508002310386841F0CCFF40F042FF40F041FF96F8A4
S31508002320C0202B461049386841F0C1FF2A460F21C4
S31508002330204600F03DFED8E70723012100F580542A
S3150800234084F8B83084F8BC5003AA8DF80C1001F054
S3150800235065FECDE79C5A00205C4905087B530508B5
S31508002360B853050840530508F95305082DE9F04FF9
S3150800237087B00646DDE918BA89461D46DDF8548059
S31508002380FFF7FEF9044680B9504D5149286841F0D7
S315080023908EFF40F004FF40F003FF32464D4928689F
S315080023A041F085FF2222112120E000F5805696F89B
S315080023B0A5300BB300F6580240F24A7196F8C000F1
S315080023C040F034FC0746B8B1404D4149286841F011
S315080023D06EFF40F0E4FE40F0E3FE96F8C0203E496A
S315080023E03B46286841F063FF3A460F21204607B06E
S315080023F0BDE8F04F00F0DCBDB5B1344F344938685C
S3150800240041F055FF40F0CBFE40F0CAFE2B4696F849
S31508002410C0203249386841F04AFF5BEA0A0A51D0BF
S31508002420062D4FD02A46BEE7B9F1000F4AD0274FEE
S315080024302B49C4F85488386841F039FF40F0AFFE9C
S3150800244040F0AEFE94F8593894F8581896F8C0201B
S3150800245003F00F03CDF8008041EA032338682149C9
S3150800246041F025FF94F8592894F8583802F00F02DD
S3150800247004F6580943EA0223D4F854182A46ADF854
S315080024801430484696F82831CDE903988DF8175048
S3150800249040F083FB08218DF8160003AA204601F0B8
S315080024A0BDFD044670B10A49386841F000FF40F0A6
S315080024B076FE40F075FE234696F8C0200A4938682D
S315080024C041F0F5FE07B0BDE8F08F00BF9C5A00202A
S315080024D05C4905083F540508F9530508835405085F
S315080024E0A3490508C5540508095505082DE9F0410D
S315080024F00368B04A23F47F4323F007039342044654
S3150800250092B000F021832ED802F17F42934200F068
S315080025103B830FD802F17F42934200F0018202F515
S315080025203002934200F0CC82002080F0010012B005
S31508002530BDE8F081A04A934248D002F54032934262
S31508002540F2D10079FFF71CF9002840F0A1829B4DD3
S315080025509B49286841F0ABFE40F021FE40F020FE82
S315080025602279984942E0984A934200F0458413D864
S3150800257002F17E42934200F0CE8302F52D02934289
S31508002580D2D10079FFF7FCF80028CDD0637900F5A1
S31508002590805080F85B30C7E78C4A934200F0CD81C3
S315080025A002F1FC729342BFD1844D8549286841F0F7
S315080025B07EFE40F0F4FD40F0F3FDA37984490093D4
S315080025C063792279286841F072FEADE70079FFF752
S315080025D0D7F8074670B9794D7949286841F067FEFA
S315080025E040F0DDFD40F0DCFD22797A49286841F0AB
S315080025F05EFE99E7B4F8052000F5805593B2A5F874
S31508002600C220B5F881209A4203D3B5F87F209A42B2
S3150800261077D96A4E7049306841F049FE40F0BFFDEF
S3150800262040F0BEFDB4F80510B5F87F3095F8C02027
S315080026300191B5F8811000913068684941F037FE7C
S3150800264095F8C630A3BB5D4E6349306841F02FFE4E
S3150800265040F0A5FD40F0A4FD95F8C020604930681B
S3150800266041F025FEB5F893C0B5F88B30B5F8812052
S31508002670B5F87F1095F8C000CDF808C0B5F891C038
S31508002680CDF804C0B5F88DC0CDF800C022F06AF8C0
S31508002690002869D05049306841F009FE40F07FFDB6
S315080026A040F07EFD95F8C0204E49306841F0FFFDA8
S315080026B0012385F8C630E37A002B59D095F8B8304F
S315080026C0002B40F0388195F8C0001CF0ABF83B4E63
S315080026D00446002850D005284ED03949306841F0C4
S315080026E0E6FD40F05CFD40F05BFD95F8C0203E49F4
S315080026F0306841F0DCFD22460521384600F058FCDA
S3150800270012E7B5F88B20B4F807309A4214D02B4E4E
S315080027103149306841F0CBFD40F041FD40F040FDC5
S31508002720B4F80710B5F88B3095F8C02000912F49FA
S31508002730306841F0BCFD83E7B5F88D20B4F8093060
S315080027409A42B5D01D4E2449306841F0B0FD40F09C
S3150800275026FD40F025FDB4F80910B5F88D3095F83A
S31508002760C02000912249E3E795F8C630002BA2D194
S31508002770012385F8C630D7E6012795F8C04085F8C5
S31508002780B8702046FEF7FCFF0546A8BB0C49306822
S3150800279041F08DFD40F003FD40F002FD224615494B
S315080027A0306841F084FD22222721284600F000FCEB
S315080027B0C1E000BFA0005902A00006029C5A0020F2
S315080027C05C4905083F5A0508A0005905A0000906F6
S315080027D0315D050850550508E64B0508B45505084A
S315080027E0C7560508115705087257050833560508D0
S315080027F077560508AB57050800F5805494F97220FA
S31508002800394694F86C3094F8C0000092002222F001
S3150800281005F9074680B1BC49306841F048FD40F0EB
S31508002820BEFC40F0BDFC94F8C020B849306841F0C1
S315080028303EFD3A462821B8E794F8C00022F0DEF8B3
S31508002840074688B1B049306841F031FD40F0A7FC31
S3150800285040F0A6FC94F8C020AD493B46306841F0EC
S3150800286026FD3A462C21A0E794F86DC094F85D3011
S3150800287094F8702094F86E1094F8C000CDF834C01F
S3150800288094F864C0CDF830C094F865C0CDF82CC073
S3150800289094F86AC0CDF828C094F863C0CDF824C06F
S315080028A005F5845C0CF1190CCDF820C094F85CC0D1
S315080028B0CDF81CC094F869C0CDE9057C94F862701F
S315080028C0049794F86170039794F85F70029794F8E8
S315080028D06070019794F85E70009722F0BBF807467F
S315080028E088B18949306841F0E2FC40F058FC40F074
S315080028F057FC94F8C02087493B46306841F0D7FC1E
S315080029003A462B2151E78449306841F0D0FC40F023
S3150800291046FC40F045FC94F8C0208049306868E2DF
S315080029200079FEF72DFF00283FF4FEAD012300F5E0
S31508002930805080F8C5300120F7E50079FEF720FFC2
S31508002940064658B9764D7049286841F0B0FC40F003
S3150800295026FC40F025FC2279724947E600F58055A9
S3150800296095F8C000237983427FF4DEADB4F80540BC
S31508002970BCB16B4F6449386841F099FC40F00FFCD4
S3150800298040F00EFC95F8C0206749386841F08FFC86
S3150800299095F8B830032B3FF4C7AD224607213046D9
S315080029A0ACE695F8B830012B1FD0022B7FF4BCADEE
S315080029B0304600F07DFB95F8A530002B46D0B5F8DB
S315080029C0AE30002B42D1564C4F49206841F06FFC7F
S315080029D040F0E5FB40F0E4FB95F8C0205349206839
S315080029E041F065FC0122092114E0D5F8A8104B1C1A
S315080029F012D14B4C4449206841F059FC40F0CFFBBA
S31508002A0040F0CEFB95F8C0204949206841F04FFCBC
S31508002A10012206213046C9E6022385F8B8301BF0A4
S31508002A2011FF0446002886D03D4F3749386841F0E3
S31508002A303EFC40F0B4FB40F0B3FB95F8C0203D499E
S31508002A40386841F034FC22460821E3E706F585514B
S31508002A50B5F88F2095F8C0000C3101F0A3FF0446A5
S31508002A6090B12F4F2849386841F021FC40F097FB78
S31508002A7040F096FB95F8C0202F492346386841F068
S31508002A8016FC22460A21C5E7032385F8B83052E723
S31508002A9000F5855600F58555284F0C36183504F18E
S31508002AA0090802224146384644F043FA10B9B4F8F8
S31508002AB0053033800236AE4207F10207F1D133E51D
S31508002AC00079FEF75DFE054658B9154D0E4928688A
S31508002AD041F0EDFB40F063FB40F062FB22791849B8
S31508002AE084E50222174804F10A0144F022FA002874
S31508002AF07FF41AADD4F8052005F580532846C3F8A7
S31508002B00A82000F093FA0FE55C490508D457050894
S31508002B100558050840580508A349050880580508BA
S31508002B209C5A0020AF58050816590508B0590508DB
S31508002B30435905086E590508055A0508E8BE0020D8
S31508002B40A15A0508F4BE00200079FEF719FE58B907
S31508002B50C04DC149286841F0AAFB40F020FB40F06F
S31508002B601FFB2279BD4941E50421231D0F9300F57A
S31508002B70805393F85D20022A04BF627A83F82921DC
S31508002B800FAA01F04BFAD6E60079FEF7F9FDB14F28
S31508002B90054658B9B049386841F089FB40F0FFFA54
S31508002BA040F0FEFA2279AE49386820E500F080FA4E
S31508002BB0A37B05F5805685F8C83F94F8243005F5BB
S31508002BC0865185F8CF3F94F8213005F6B97285F815
S31508002BD0D03F94F82230083185F8D13F94F8233055
S31508002BE085F8D23FB6F8C230A5F8D43FE37F85F81A
S31508002BF0CE3FA37F85F8CD3F237F85F8CB3F637F04
S31508002C0085F8CC3F637C85F8CA3F237C85F8C93FA5
S31508002C10637B85F8C73F237B85F8C63FE37A85F84B
S31508002C20C53FD4F81230C5F8BB3FD4F81630C5F8FE
S31508002C30BF3F638BA5F8C33F96F85E3096F8C00091
S31508002C40019396F85D30009305F6BB7300F00CFC13
S31508002C50044698B18049386841F029FB40F09FFA4C
S31508002C6040F09EFA96F8C0207E492346386841F01F
S31508002C701EFB22462F21284600F09AF97A49386821
S31508002C8041F015FB40F08BFA40F08AFA96F8C0201E
S31508002C907649386841F00BFB96F89640B6F88330CB
S31508002CA0B6F8872096F86E1096F8C000099496F83C
S31508002CB09540089496F86F40079496F971400694E3
S31508002CC096F85B40059496F868400494D6F87B40DD
S31508002CD00394D6F877400294B6F889400194B6F87A
S31508002CE08540009421F014FF044600283FF423AEE3
S31508002CF05949386841F0DBFA40F051FA40F050FA89
S31508002D0096F8C0205A492346386841F0D0FA224638
S31508002D101E212846F2E40079FEF732FD0646002811
S31508002D203FF402AC4B4F5049386841F0C0FA40F0C6
S31508002D3036FA40F035FA22794E49386841F0B7FA42
S31508002D404FF6FF73B6F8A42F06F580559A4215D1AB
S31508002D5095F82631063B012B38D80523424985F8D4
S31508002D602631386841F0A3FA40F019FA40F018FA0B
S31508002D7095F8C0204049386841F099FA95F8263107
S31508002D80063B012B22D895F8E8300133DBB20A2B33
S31508002D9085F8E83022D900214FF6FF7385F8E81048
S31508002DA03046A6F8A43F3FF0E3FE05232E4985F8F2
S31508002DB02631386841F07BFA40F0F1F940F0F0F935
S31508002DC095F8C0202C49386841F071FA012306218C
S31508002DD030460F948DF843300FAAD2E62249386858
S31508002DE041F065FA40F0DBF940F0DAF92279234937
S31508002DF0386841F05CFA9EE50079FEF7C1FC0546A5
S31508002E0000283FF491AB05F5805393F82631114E0F
S31508002E10063B012B3068144912D941F048FA40F0B4
S31508002E20BEF940F0BDF922791549306841F03FFAFC
S31508002E300023072128460F948DF843300FAAA0E6F1
S31508002E4041F035FA40F0ABF940F0AAF922790D497C
S31508002E5064E500BF9C5A00205C490508FC5A050831
S31508002E60675B050882510508A3490508BD51050891
S31508002E70C85B05080F5C0508495C05087C5C050805
S31508002E80B85C0508EC5C05081FB50B46032810D886
S31508002E90DFE800F002111313094C2068616801AAE3
S31508002EA003C2218901AC1180128803CC1A811860EB
S31508002EB0596004B010BD034CEFE7034CEDE700BFC3
S31508002EC00B5F0508B15D0508BC5D05082DE9F743EC
S31508002ED09DF82C400F46DDE90D969DF828108DF8D3
S31508002EE003409DF830408DF800208DF801308DF8AC
S31508002EF002108DF80440B9F1000F50D0002E4ED0C4
S31508002F00022A4ED0032B4ED001284CD0012905D1D8
S31508002F100623A9F80030262333801FE0012A04D1AE
S31508002F20022904BF00238DF80230DFF880800024D0
S31508002F30454605226946404643F0FBFF38BB04EB8D
S31508002F40C4042B195A799979B3F8073042EA012251
S31508002F50FF2FA9F800209AB2338003D1002003B0CE
S31508002F60BDE8F083B9F80030B7EE047A07EE903A78
S31508002F70F8EEE77A67EE877AFCEEE77A17EE903A8C
S31508002F809BB203F11301B1FBF3F31344C4E7013415
S31508002F90B4F5A27F08F10908CBD12D20DFE721205F
S31508002FA0DDE70A20DBE70F20D9E700BFC75D050884
S31508002FB02DE9F0410446194F0E46154638686CB996
S31508002FC0174941F074F940F0EAF840F0E9F82A4662
S31508002FD038681449BDE8F04141F069B904F58054F0
S31508002FE00F49D4F8D88041F062F940F0D8F840F09B
S31508002FF0D7F82B4694F8C0200B49386841F057F9A2
S31508003000B8F1000F07D02A463146434694F8C00067
S31508003010BDE8F0411847BDE8F08100BF9C5A002082
S315080030205C490508155F0508455F0508F7B500F50D
S31508003030805595F82571044687BB95F8243100F527
S3150800304087560C3623B1304602F07EFE85F8247189
S3150800305000233046009340F6B8312346104A02F062
S3150800306091FE0646B8B10F4F0F49386841F01FF96F
S3150800307040F095F840F094F895F8C02033460B498F
S31508003080386841F014F932460221204603B0BDE8FB
S31508003090F040FFF78DBF012385F8243103B0F0BD5A
S315080030A04D2B04089C5A00205C490508725F0508E8
S315080030B0F8B5054600F587500C3002F045FE05F5D3
S315080030C080560446B0B10D4F0D49386841F0EFF807
S315080030D040F065F840F064F896F8C02023460949A0
S315080030E0386841F0E4F822462846BDE8F84004214D
S315080030F0FFF75EBFA6F82401F8BD00BF9C5A002062
S315080031005C490508AD5F050870B504460D460F29EC
S3150800311000F20681DFE811F01501100024003400E2
S31508003120440054006400740084009400A400B400B1
S31508003130C400D400E400F400824D8349286841F0B5
S31508003140B6F840F02CF840F02BF8012304F580542B
S3150800315094F8C0207D492868BDE8704041F0A7B8BA
S31508003160784D7949286804F5805441F0A0F840F074
S3150800317016F840F015F8022394F8C0207449EAE7D7
S31508003180704D7449286804F5805441F090F840F071
S3150800319006F840F005F8032394F8C0206E49DAE7EC
S315080031A0684D6949286804F5805441F080F83FF075
S315080031B0F6FF3FF0F5FF042394F8C0206749CAE7F5
S315080031C0604D6149286804F5805441F070F83FF075
S315080031D0E6FF3FF0E5FF052394F8C0206049BAE70B
S315080031E0584D5949286804F5805441F060F83FF075
S315080031F0D6FF3FF0D5FF062394F8C0205949AAE721
S31508003200504D5149286804F5805441F050F83FF074
S31508003210C6FF3FF0C5FF072394F8C02052499AE736
S31508003220484D4949286804F5805441F040F83FF074
S31508003230B6FF3FF0B5FF082394F8C0204B498AE74C
S31508003240404D4149286804F5805441F030F83FF074
S31508003250A6FF3FF0A5FF092394F8C02044497AE762
S31508003260384D3949286804F5805441F020F83FF074
S3150800327096FF3FF095FF0A2394F8C0203D496AE778
S31508003280304D3149286804F5805441F010F83FF074
S3150800329086FF3FF085FF0B2394F8C02036495AE78E
S315080032A0284D2949286804F5805441F000F83FF074
S315080032B076FF3FF075FF0C2394F8C0202F494AE7A4
S315080032C0204D2149286804F5805440F0F0FF3FF06E
S315080032D066FF3FF065FF0D2394F8C02028493AE7BA
S315080032E0184D1949286804F5805440F0E0FF3FF06E
S315080032F056FF3FF055FF0E2394F8C02021492AE7D0
S31508003300104D1149286804F5805440F0D0FF3FF06D
S3150800331046FF3FF045FF0F2394F8C0201A491AE7E5
S31508003320084E0949306804F5805440F0C0FF3FF064
S3150800333036FF3FF035FF2B4694F8C0201349306816
S315080033400AE770BD9C5A00205C490508EB5F050832
S315080033501F600508A34905085A600508996005080D
S31508003360EE6005082761050864610508A46105087B
S31508003370D66105081B62050854620508BA62050885
S315080033801363050863630508BF630508FD6305083D
S315080033902DE9F0410646174698460D46C9B10B6811
S315080033A0BBB1084633F080FC044688B1284D29494C
S315080033B0286840F07CFF3FF0F2FE3FF0F1FE23461E
S315080033C032462549286840F072FF2046BDE8F0815C
S315080033D0286028462DF0D8FF044660B11C4D1D49CB
S315080033E0286840F064FF3FF0DAFE3FF0D9FE234636
S315080033F032461A49E6E7414628462EF011F90446B0
S3150800340060B1134D1349286840F051FF3FF0C7FEDD
S315080034103FF0C6FE234632461149D3E77B78002B98
S31508003420D3D0284633F07AFC05460028CDD0084C80
S315080034300849206840F03BFF3FF0B1FE3FF0B0FE80
S3150800344020682B463246074940F031FF2C46BCE738
S315080034509C5A00205C4905082E6405086664050820
S315080034609C640508D96405082DE9F8430E46054607
S315080034701178304699469DF820709DF824802DF0E5
S31508003480D1FF044688B12C4E2C49306840F00FFF16
S315080034903FF085FE3FF084FE23462A4628493068D9
S315080034A040F005FF2046BDE8F883012F02D0022F21
S315080034B018BFFF27B8F1010F04D0B8F1020F18BFE3
S315080034C04FF0FF084246394630462DF0BBFF04460A
S315080034D060B1194E1949306840F0E9FE3FF05FFEC9
S315080034E03FF05EFE23462A461649D8E74946304647
S315080034F02DF0CAFF044660B10F4E1049306840F0FF
S31508003500D6FE3FF04CFE3FF04BFE23462A460E49B8
S31508003510C5E7304636F0E6F904460028C2D0064E1E
S315080035200649306840F0C3FE3FF039FE3FF038FEEA
S3150800353023462A460549B2E79C5A00205C490508F5
S3150800354011650508496505088F650508D0650508EC
S3150800355038B5044688B10346014400208B421AD088
S31508003560002213F8014B44FA02F5ED0702F10102B5
S3150800357048BF0130082AF6D1F0E7074D0749286801
S3150800358040F095FE3FF00BFE3FF00AFE044928681E
S3150800359040F08DFE204638BD9C5A00205C4905083F
S315080035A00E6605082DE9F04F0446002797B000F58A
S315080035B0847303930893D0F8043100F58055ADF869
S315080035C0243000F6580304930A93D0F8543812AE00
S315080035D0ADF82C3008AB0E930AAB0F93431C05933A
S315080035E010930378ADF846708DF8443095F8283175
S315080035F08DF8453000F6AC730FCB07C6337004F56B
S3150800360086560836012130460EAA36F0F7FE804661
S3150800361001462046FFF778FDB8F1000F22D0B8F131
S31508003620030FDFF83C9000F021830B49D9F800001E
S3150800363040F03DFE3FF0B3FD3FF0B2FD95F8C020E7
S3150800364043460649D9F8000040F031FE42463A2181
S315080036502046FFF7ADFC6EE25C490508526C05088A
S315080036609C5A0020002304F6D6773846069307931B
S315080036703FF05DFD95F85E904146B9F1FF0918BF28
S315080036804FF0010930464A4607AB2EF099F98046B5
S3150800369001462046FFF738FDB8F1000F40F09B8140
S315080036A04146384604F6DA7307AA01F0CDFE83468A
S315080036B0002800F0A281DFF87C83D949D8F80000F9
S315080036C040F0F5FD3FF06BFD3FF06AFD5B4695F86F
S315080036D0C020D449D8F8000040F0E9FD4FF00008B2
S315080036E095F85E30FF2B2CD000210222304607AB1E
S315080036F02EF066F9824601462046FFF705FDBAF127
S31508003700000F40F07D810121384604F6DA7307AAD6
S3150800371001F09AFE8246002800F09C81DFF814B377
S31508003720BF49DBF8000040F0C2FD3FF038FD3FF02E
S3150800373037FD534695F8C020BB49DBF8000040F03A
S31508003740B6FD4A46022106AB30462EF039F98246C6
S3150800375001462046FFF7D8FC04F58055BAF1000F5C
S3150800376040F07B810221384604F6DA7306AA01F096
S315080037706BFE8246002800F08081DFF8B8B2A849BF
S31508003780DBF8000040F093FD3FF009FD3FF008FD2F
S31508003790534695F8C020A549DBF8000040F087FDA0
S315080037A095F85E30FF2B2CD002223046114606AB28
S315080037B02EF006F9824601462046FFF7A5FCBAF127
S315080037C0000F40F05D810321384604F6DA7306AA35
S315080037D001F03AFE8246002800F06281DFF854B212
S315080037E08F49DBF8000040F062FD3FF0D8FC3FF05F
S315080037F0D7FC534695F8C0208D49DBF8000040F009
S3150800380056FD4A46002106AB30462DF081FE82461B
S3150800381001462046FFF778FC04F5805BBAF1000FF5
S3150800382040F041810421384604F6DA7306AA01F00D
S315080038300BFE8246002800F044817E4D78492868B0
S3150800384040F035FD3FF0ABFC3FF0AAFC53469BF831
S31508003850C0207949286840F02AFD9BF85E30FF2B86
S3150800386029D000210222304606AB2DF051FE8246B1
S3150800387001462046FFF748FCBAF1000F40F02481C4
S315080038800521384604F6DA7306AA01F0DDFD8246FC
S31508003890002800F02781674D6149286840F007FD38
S315080038A03FF07DFC3FF07CFC53469BF8C020634903
S315080038B0286840F0FCFC03238DF83030DBF87330C1
S315080038C030460CA9CDF831302DF002FE824678B18B
S315080038D0584D5349286840F0EAFC3FF060FC3FF039
S315080038E05FFC53469BF8C0205549286840F0DFFC2A
S315080038F04A46012106AB30462EF062F8824601465A
S315080039002046FFF701FC04F58055BAF1000F40F098
S3150800391059810621384604F6DA7306AA01F094FDA1
S315080039208246002800F0E180DFF808B13C49DBF860
S31508003930000040F0BCFC3FF032FC3FF031FC53463F
S3150800394095F8C0203F49DBF8000040F0B0FC94F839
S31508003950B92F95F85D30022A33D1022B31D195F86B
S315080039609830013B012B2CD803214A46304606AB3A
S315080039702EF026F8824601462046FFF7C5FBBAF127
S31508003980000F40F032810721384604F6DA7306AA9A
S3150800399001F05AFD8246002800F0C580DFF894B091
S315080039A01F49DBF8000040F082FC3FF0F8FB3FF0CF
S315080039B0F7FB534695F8C0202349DBF8000040F092
S315080039C076FC95F85D30012B00F0BA80B8F1000F4F
S315080039D000F0B180ABE0DFF85CB01149DBF800001D
S315080039E040F065FC3FF0DBFB3FF0DAFB434695F819
S315080039F0C0201649DBF800006EE64FF001086FE6B6
S31508003A00DFF830B00649DBF8000040F050FC3FF024
S31508003A10C6FB3FF0C5FB534695F8C0200C498CE61B
S31508003A205C49050857660508D566050865670508EB
S31508003A30EB6705089C5A0020836805081269050883
S31508003A40B3690508FC690508C46A05089666050889
S31508003A501D6705084FF0010873E6DFF8B0B2A849FC
S31508003A60DBF8000040F023FC3FF099FB3FF098FBA1
S31508003A70534695F8C020A3498EE64FF001088FE615
S31508003A80DFF888B29E49DBF8000040F010FC3FF0F2
S31508003A9086FB3FF085FB534695F8C0209A49ACE66D
S31508003AA04FF00108ADE6994D9549286840F0FFFBAF
S31508003AB03FF075FB3FF074FB53469BF8C0209449D2
S31508003AC0C8E64FF00108C8E6904D8D49286840F0D1
S31508003AD0EEFB3FF064FB3FF063FB53469BF8C020C8
S31508003AE08C49E5E64FF00108E5E6079B8DF83000BE
S31508003AF00CA93046CDF831302DF0EAFC8246014655
S31508003B002046FFF701FBBAF1000F42D194F8B92F0E
S31508003B1095F85D30022A08D1022B06D195F898301F
S31508003B20013B012B5ED995F85D30012B06D0D5F8FF
S31508003B30D060002E77D117B0BDE8F08F4FF001089E
S31508003B404A460121304606AB2DF0E2FC8146014685
S31508003B502046FFF7D9FAB9F1000F56D109213846A0
S31508003B6004F6DA7306AA01F06FFC81460028DED057
S31508003B70664E6349306840F09AFB3FF010FB3FF011
S31508003B800FFB4B4695F8C0206349306840F08FFB21
S31508003B901CE7DFF878815A49D8F8000040F087FB1F
S31508003BA03FF0FDFA3FF0FCFA53469BF8C0205B490C
S31508003BB0D8F8000040F07BFB94F8B93F022B9BF83D
S31508003BC05D30A8E7DFF844B14D49DBF8000040F066
S31508003BD06EFB3FF0E4FA3FF0E3FA534695F8C0204F
S31508003BE04F49B0E64FF00108BEE6DFF820B1444978
S31508003BF0DBF8000040F05BFB3FF0D1FA3FF0D0FA6B
S31508003C00534695F8C0204749D7E6404E3C493068A8
S31508003C1040F04DFB3FF0C3FA3FF0C2FA4B4695F829
S31508003C20C0204149B1E7237804F6DA7285F82C31C9
S31508003C30631CC5F83031D4F80431C5F83431039B18
S31508003C40C5F83831D4F85438C5F83C31049BC5F862
S31508003C5040310023019304F589530C330093B4F8DB
S31508003C60A41F3B4695F8C000B04764E795F8C030F6
S31508003C70394630460DAACDE90C778DF830302DF04F
S31508003C80ABFC064601462046FFF73EFA36BB2749F7
S31508003C90D9F8000040F00BFB3FF081FA3FF080FABC
S31508003CA095F8C0202249D9F8000040F000FBD5F865
S31508003CB0D43013B131460CA898471C49D9F80000EE
S31508003CC040F0F5FA3FF06BFA3FF06AFA95F8C02033
S31508003CD01849D9F8000040F0EAFA2CE70849D9F85B
S31508003CE0000040F0E4FA3FF05AFA3FF059FA33463A
S31508003CF095F8C0201049D9F8000040F0D8FADCE75A
S31508003D005C490508A8670508376805089C5A002015
S31508003D10CD680508656905083D6B0508406A05080C
S31508003D20856A0508036B0508776B0508A349050826
S31508003D30AC6B0508236C0508D96B05082DE9F04F0F
S31508003D400446CB790A68D0F8A80F85B004F58478BC
S31508003D5004F58056EBB1118902F11305C1F30B0185
S31508003D60A4F8A41F117C86F82811577B92F80EA098
S31508003D7092F8119010B90421C4F80411D4F804116A
S31508003D8001F5847020440831C4F8A80FC4F804115A
S31508003D9009E0517A02F10C0586F82811977992F80C
S31508003DA007A092F80A904FF0000B83F001030093E6
S31508003DB0414696F82931D4F8A80F3FF023F9D4F8EC
S31508003DC0042102F5847222445FFA8BF34B4529D30A
S31508003DD0A2EB0802012FC4F80421274C11D00F2F9B
S31508003DE046D0002F46D02549206840F060FA3FF0BB
S31508003DF0D6F93FF0D5F996F8C0202149206840F059
S31508003E0056FA00251F49206840F051FA3FF0C7F9D5
S31508003E103FF0C6F91C49206840F049FA284605B023
S31508003E20BDE8F08F294611F8030BBAF10F0F00F021
S31508003E30030002F1010310D160F07F0010702278B0
S31508003E40A8786D7804EB020C01328CF801500BF15E
S31508003E50010B22700D181A46B6E71070AA78184694
S31508003E60039143F09BF80346AA7803991344E6E7BF
S31508003E700125C7E70225C5E79C5A00205C490508C5
S31508003E808F6C0508A3490508BF6C050873B5044679
S31508003E9050F0A8FA05464FF0C3FD0C4E04F58054C1
S31508003EA00B49C4F8E000306840F001FA3FF077F9B2
S31508003EB03FF076F90095D4F8E03094F8C02005492B
S31508003EC0306840F0F4F902B070BD00BF9C5A00207B
S31508003ED0A3490508D16C050838B500F58054054690
S31508003EE0002194F86E2094F8C00020F049FE80B9AD
S31508003EF0154D1649286840F0DAF93FF050F93FF0B9
S31508003F004FF994F8C0201249286840F0D0F90420E7
S31508003F1038BD252815D105F587500B4D0C3001F015
S31508003F2013FF0A49286840F0C2F93FF038F93FF014
S31508003F3037F994F8C0200749286840F0B8F90220F4
S31508003F40E6E70920E4E700BF9C5A0020A3490508D4
S31508003F500E6D0508546D0508F8B500F5805405463C
S31508003F6094F86E1094F8C00020F0BEFDD4F8C8305E
S31508003F70254EBBB105F58650083032F095FE07464A
S31508003F8080B12249306840F092F93FF008F93FF0D5
S31508003F9007F93B4694F8C0201D49306840F087F978
S31508003FA00120F8BD41F244120021284642F0EBFFF9
S31508003FB01849306840F07BF93FF0F1F83FF0F0F827
S31508003FC094F8C0201449306840F071F9FF2384F84A
S31508003FD0C0304FF0FF33C4F8A8301723A4F8BA301E
S31508003FE0B4F8A43040F24A7203F0F00343F486733F
S31508003FF0A4F8A430002405F658002146C5F854480C
S3150800400042F0C1FF2046CCE79C5A00205C490508CF
S315080040108A6D0508A3490508C46D05082DE9F0430E
S315080040200F46904606468FB0B8B9B84CB8492068CE
S3150800403040F03DF93FF0B3F83FF0B2F8FF22B5493A
S31508004040206840F034F9222235213046FEF7B0FFC9
S31508004050222528460FB0BDE8F0830A2900F58054CA
S3150800406021D1AA4D00F587500C3001F06DFEA84904
S31508004070286840F01CF93FF092F83FF091F894F860
S31508004080C020A549286840F012F9092384F826318A
S315080040903046D8F8042098F80010FEF789FF002566
S315080040A0C7E017469846092F4FF0010540F0C18032
S315080040B0002194F86E2094F8C00020F061FD0546B2
S315080040C090B9924D9549286840F0F1F83FF067F8A5
S315080040D03FF066F8286894F8C020914940F0E7F860
S315080040E0082584F8265138E241F20C03984205D097
S315080040F041F21203984201D025281BD106F58750B4
S315080041000C3001F021FE3046FFF726FF0546002851
S3150800411040F00A837D4E8149306840F0C8F83FF088
S315080041203EF83FF03DF894F8C0207E49306840F0EC
S31508004130BEF8D6E7DFF8D4817549D8F8000040F014
S31508004140B6F83FF02CF83FF02BF82B4694F8C02031
S315080041507549D8F8000040F0AAF8232384F8267198
S315080041608DF82C300C9586E0002F7FF472AF674DE2
S315080041706A49286840F09BF83FF011F83FF010F8BC
S3150800418094F8C0206949286840F091F8012384F81A
S315080041902631E2E1012F7FF45CAF98F80030002B5E
S315080041A062D05A4F5D49386840F081F83EF0F7FF13
S315080041B03EF0F6FF94F8C0205D49386840F077F87D
S315080041C0022294F8A530A4F82621002B3FF469AF03
S315080041D040F24A7194F8C00006F658023EF026FDF1
S315080041E00546A0B14A49386840F061F83EF0D7FF65
S315080041F03EF0D6FF94F8C0204E492B46386840F06A
S3150800420056F82A460F213046FEF7D2FE21E74349E3
S31508004210386840F04CF83EF0C2FF3EF0C1FF94F813
S31508004220C0204549386840F042F84FF00008022798
S31508004230012594F82631082B3FF60BAF01A252F858
S3150800424023F000BF69410008954100087D42000837
S3150800425045430008C546000817450008A546000856
S31508004260BB4600080B470008092384F82631362385
S315080042700C978DF82C300A210BAAE2E1022F7FF465
S31508004280E8AE94F8C53043B9092384F826312C23BF
S315080042908DF82C3001230C93EDE7012194F86E205C
S315080042A094F8C00020F06CFC40BB009006F58750DF
S315080042B0334640F6B831214A0C3001F063FD054615
S315080042C0B8B9124E012194F8C00000F0AFFB1349AB
S315080042D030683FF0ECFF3EF062FF3EF061FF94F875
S315080042E0C020174930683FF0E2FF032384F82631DF
S315080042F0AFE6092384F82631212331E7092384F818
S31508004300263120230C908DF82C30B4E79C5A0020D7
S315080043105C490508E76D05081F6E0508A3490508E9
S315080043204B6E05087A6E0508AE6E0508E96E050837
S31508004330546D0508F9530508146F0508E92B040898
S315080043404D6F0508042F7FF484AED8F80030C54FAA
S315080043505D88002D60D150F045F881464FF060FB2E
S31508004360D8F80030C4F8DC00D3F80720BE49C6F8F0
S31508004370AC2FDA7A386886F8B02F9A89A6F8B12F62
S31508004380DA89A6F8B32F1A8AA6F8B52F5B8AA6F893
S31508004390B73F3FF08CFF3EF002FF3EF001FF94F876
S315080043A0C020B24938683FF082FFAF4938683FF00D
S315080043B07EFF3EF0F4FE3EF0F3FEB6F8B73FAC499A
S315080043C00693B6F8B53F0593B6F8B33F049396F847
S315080043D0B03F0393B6F8B13F0293D6F8AC3FCDE9A8
S315080043E00093D4F8DC3094F8C02038683FF05FFFBB
S315080043F09D4938683FF05BFF3EF0D1FE3EF0D0FEA7
S315080044009C4994F8C02038683FF051FF2946304649
S315080044103EF0AEFB052369E7974938683FF047FF4A
S315080044203EF0BDFE3EF0BCFED8F8003094F8C02041
S315080044305B88924938683FF03AFF94F82731013390
S31508004440DBB2022B84F827315BD88B4938683FF0FA
S315080044502EFF3EF0A4FE3EF0A3FE94F8C020884945
S3150800446038683FF024FF94F89630099394F895300D
S31508004470089394F86F30079394F97130069394F87B
S315080044805B30059394F868300493D4F87B30039333
S31508004490D4F877300293B4F889300193B4F88530AC
S315080044A00093B4F88330B4F8872094F86E1094F823
S315080044B0C00020F02DFB054688B16F4938683FF0EB
S315080044C0F6FE3EF06CFE3EF06BFE94F8C0206D4999
S315080044D02B4638683FF0EBFE2A461E2193E66249D2
S315080044E038683FF0E4FE3EF05AFE3EF059FE94F876
S315080044F0C020654938683FF0DAFE022384F8263181
S3150800450093E606F587500C3001F01EFC092384F863
S3150800451026311F23BCE6082F63D198F80B50F5B94E
S31508004520B4F8893043B13046FFF7D6FC092884F839
S31508004530260112D1242313E64A4D4B4928683FF039
S31508004540B6FE3EF02CFE3EF02BFEB8F8083094F886
S31508004550C0204E4928683FF0AAFE002579E598F85C
S315080045600A30012B2AD13F4DB4F8897028683E4994
S3150800457087B13FF09CFE3EF012FE3EF011FE94F825
S31508004580C020434928683FF092FE072384F8263165
S3150800459001255EE53FF08BFE3EF001FE3EF000FE93
S315080045A094F8C0203B4928683FF081FE0523394628
S315080045B0304684F826313EF0DBFACEE7022BE7D107
S315080045C0284D294928683FF072FE3EF0E8FD3EF086
S315080045D0E7FD94F8C020304928683FF068FE0623B6
S315080045E0D5E5063F012F3FF634AD41463046FFF785
S315080045F0A5FB054600283FF40DAF1A4F012D386874
S31508004600194923D13FF053FE3EF0C9FD3EF0C8FDDF
S31508004610B6F8A43F94F8C020204938683FF047FE12
S31508004620012308218DF83730B6F8A43F8DF83650A7
S31508004630ADF8343006F584730B93D6F804310BAA1B
S315080046400C933046FFF7EAFC054602E53FF02FFEDD
S315080046503EF0A5FD3EF0A4FDB6F8A43F94F8C020B0
S315080046600F49DAE79C5A0020A3490508926F050806
S31508004670D06F0508495C05085C490508907005086F
S31508004680DF700508C85B0508546D0508267105081E
S3150800469079710508C0710508037205084B7205088B
S315080046A07F720508082F7FF4D4AC012241463046B4
S315080046B00FB0BDE8F04300F063B8082F7FF4C9AC2B
S315080046C00022F3E7042F7FF4C4ACD8F800301B7936
S315080046D0002B7FF442AF3046FFF7D8FBD8F80030FE
S315080046E0224D5B8833BB06F587500C3001F02CFB56
S315080046F01F4928683FF0DBFD3EF051FD3EF050FDB6
S3150800470094F8C0201B492868F5E6042F7FF4A1AC6D
S31508004710D8F800301A79002A7FF41FAF5B8843B9AE
S315080047203046FFF7B3FBEEE4092384F82631382335
S3150800473016E50E4D104928683FF0B9FD3EF02FFDED
S315080047403EF02EFDD8F8003094F8C0205B880B495F
S3150800475028683FF0ACFD092384F8263123238DF819
S315080047602C30D8F800305B8895E500BF9C5A0020AD
S31508004770A3490508546D05085C490508B47205087F
S315080047802DE9F043CE7A04460F46914687B000F5E8
S31508004790805566B3B5F88930A3B1FFF79DFB0928A4
S315080047A085F8260121D124238DF80C3000230493A3
S315080047B00A21204603AAFFF731FC0646304607B011
S315080047C0BDE8F0835B4E5C4930683FF070FD3EF013
S315080047D0E6FC3EF0E5FCB4F8A43F584900933B8953
S315080047E095F8C02030683FF062FD0026E6E70A89A2
S315080047F0B0F8A43F9A421ED0B5F8893053B1FFF7F6
S315080048006BFB092885F82601EFD1242304968DF839
S315080048100C30CDE7474E484930683FF048FD3EF03A
S31508004820BEFC3EF0BDFCB4F8A43F454900933B8965
S3150800483095F8C020D6E700F587500C3001F084FAC9
S3150800484058B1092385F82631222304900A212046E7
S3150800485003AA8DF80C30FFF7E1FBDFF8D880B5F82E
S315080048608930D8F800003449A3B33FF020FD3EF064
S3150800487096FC3EF095FC95F8C0203249D8F8000021
S315080048803FF015FD02210022204685F82611FFF784
S31508004890C5FBBB7A0646022B0AD1B9F1000F07D031
S315080048A02046FEF77FFE002120463EF061F985E7A7
S315080048B02149D8F800003FF0FAFC3EF070FC3EF0C3
S315080048C06FFC3B8995F8C0201F49D8F800003FF0D7
S315080048D0EEFCE8E73FF0EBFC3EF061FC3EF060FCE6
S315080048E095F8C0201949D8F800003FF0E0FC0523E8
S315080048F085F82631BB7A022B0AD1B9F1000F07D009
S315080049002046FEF74FFE002120463EF031F96CE7BF
S315080049100949D8F800003FF0CAFC3EF040FC3EF0DA
S315080049203FFC3B8995F8C0200749D8F800003FF0BE
S31508004930BEFCE8E79C5A0020A3490508027305084F
S3150800494057730508546D0508AB730508495C0508D7
S3150800495008B5084B4FF484620021184642F013FB51
S31508004960FF22827680F8222180F82A2280F83223D4
S3150800497008BD00BFA80D0020094900220B4610B546
S315080049808C7E844204D14FF4847101FB023010BD41
S315080049900132042A01F58471F2D10020F7E700BF3D
S315080049A0A80D0020FF282DE9F04107460E4690463F
S315080049B032D099B3A2F11703E32B31D84FF6FF7320
S315080049C00C889C422CD08A889A4229D0CA889A4256
S315080049D026D00A899A4223D0FF20FFF7CDFF054645
S315080049E000B32146384619F067FF044688B94FF4E4
S315080049F084720146284642F0C6FA0B4BAF761A680F
S31508004A009B88C5F806206B8101236E61A5F818807E
S31508004A102B702046BDE8F0812524FAE72224F8E722
S31508004A202124F6E71924F4E7D9730508FF2837B5D2
S31508004A300C4625D0FFF7A0FF054618B34CB99830A9
S31508004A4001F082F905F1600001F07EF9204603B015
S31508004A5030BD0378052B03D0082B0AD00220F6E7D1
S31508004A60002341F28831084A0093983001F08AF908
S31508004A70EDE7002341F28831044A00936030F5E7F8
S31508004A802520E4E72D20E2E7E52E04089F2E0408FA
S31508004A90164B30B59842A3F1600206D003F13801EF
S31508004AA0884202D07033984218D1002411E02B4670
S31508004AB003F5B475A8420C460BD003F5D075A84289
S31508004AC007D003F5847503F5EC73984201F10101EB
S31508004AD007D14FF4847303FB042030BD134601212C
S31508004AE0E6E70429E3D10020F7E700BF080E002017
S31508004AF013B590F82A00FFF73FFF68B100F160048C
S31508004B00204601F021F900234FF47A7100932046DC
S31508004B100123024A01F036F902B010BD9F2E04089F
S31508004B2070B5054600F07CFB0646284600F064F999
S31508004B302B68A94A23F47F43064023F0070386F02F
S31508004B4001069342F6B200F0B2800BD802F17A421F
S31508004B50934200F0A08002F57D02934220D086F0B1
S31508004B60010070BD9D4A9342F9D12879FFF704FFE9
S31508004B7004460028F3D0EB790B2B3DD14269B5F8F2
S31508004B8005301188994221D16B89042B06D1037807
S31508004B90012B03D1EA6880F82030C261012321E0A5
S31508004BA0A879FFF7E9FE04460028D8D0D03001F0EE
S31508004BB0CBF804F1600001F0C7F804F1980001F0A1
S31508004BC0C3F800232370FF23A376C8E7D188994248
S31508004BD00AD1AD89983001F0B7F82946A07E3EF093
S31508004BE05CF900231E43BAE712899A42F9D1A989CA
S31508004BF0807E3EF053F9F4E71B2B01D01D2BAED176
S31508004C006169B5F8052048899042C7D0488890421E
S31508004C10C4D0C888904202D009899142E1D11D2B9F
S31508004C2002D1A07E19F038FE6B89022BB6D16269D3
S31508004C30B5F80530D1888B4208D012899A420ED031
S31508004C40AD892946A07E3EF029F9A7E7E8791D280F
S31508004C5017D1E07B0228A1D112899A4205D1EA79B7
S31508004C601D2A13D1227C022A98D18B42AD89E8D11C
S31508004C7004F1980001F068F82946A07E3EF00DF987
S31508004C808CE71B28E8D1E07B0128E4E71B2AECD156
S31508004C90227C012AE8E72879FFF76EFE00283FF410
S31508004CA05EAF6B79AA7943EA0223038357E728792B
S31508004CB0FFF762FE044600283FF451AFB5F8052019
S31508004CC0037862B3092B8CD8012101FA03F010F49A
S31508004CD0127F0AD110F090001BD18B4281D120702F
S31508004CE0E169A07EFDF7F8F958E7002384F8223039
S31508004CF0A384A378052B05D102212370A07EFDF796
S31508004D008BFA4BE7012B7FF449AF08230321237065
S31508004D10F4E70223A07E2370FDF77EFA61E7013BE4
S31508004D20082B3FF65EAF01A252F823F0514D00085A
S31508004D30E34B00087F4D0008B74D0008E34B000819
S31508004D409D4D0008E74D0008E34B00086D4D00082F
S31508004D5094F82030807EE1692BB10223002223706B
S31508004D60FDF7BAF93DE701222370F9E78378827CDB
S31508004D7003441A730223002203700121BEE78378D5
S31508004D80827C03441A7340F20253438020463DF066
S31508004D9043FF024620BB04232370FFE68378827C08
S31508004DA003441A7340F2011343803DF035FF02466F
S31508004DB0B0B90723F0E78378817CC2181173C278EB
S31508004DC09A4205D10022052380F82220828493E79F
S31508004DD001338370DAE700BFA0000906A0000907BF
S31508004DE002232370C9E78378827C03441A7300225E
S31508004DF080F82220828488E7F0B50368954A23F470
S31508004E007F4323F007039342054691B004D0002060
S31508004E1080F0010011B0F0BD0079FFF7ADFD044642
S31508004E200028F4D0EB791D2BF1D14369B5F805209C
S31508004E309B889A42EBD16B89012B04D8A07E19F086
S31508004E402BFD0120E4E72A7B012A4CD0022A00F038
S31508004E508F80002AF2D1032BF0D10378B5F80D50D4
S31508004E60052BEBD190F82230002BE7D090F8217073
S31508004E70002FE3D1838CAB42E0D1D03000F064FF41
S31508004E8004F1280604F1600000F05EFF304600F0E9
S31508004E90A5F9304684F822700AA93EF08DF8034633
S31508004EA000B90A9BDDF83920DDF83510A07ECDE97A
S31508004EB008129DF8342007929DF833200692DDF8F3
S31508004EC02F2005929DF82E2004929DF82D200392FE
S31508004ED09DF82C20CDE901520122009200220021E2
S31508004EE0FDF744FAAAE7052BA8D10378052BA5D127
S31508004EF090F82230002BA1D090F82130022B9DD1BA
S31508004F00B5F80D20838C9A4298D1D03000F01CFF5A
S31508004F1004F1280604F1600000F016FF304600F0A0
S31508004F205DF90023304684F822300AA93EF044F899
S31508004F30034600B90A9BDDF83920DDF83510A07E56
S31508004F40CDE908129DF8342007929DF83320069281
S31508004F50DDF82F2005929DF82E2004922A7C0392D4
S31508004F60EA7B0292B5F80D20019201220092B6E77B
S31508004F70022B7FF463AF90F822306D7B002B3FF451
S31508004F805DAFD03000F0E0FE94F82330BBB1012DC0
S31508004F9006D104F1600000F0D7FE002384F8223021
S31508004FA00026A07E32462B46032184F823603DF076
S31508004FB0F7FF2A463146A07E3DF0F4FF3EE7002380
S31508004FC094F8211084F82230012901D0042904D14B
S31508004FD02B460022A07E3DF0E3FF94F82130012BFA
S31508004FE031D013F0FD0F7FF429AF04F128063046BF
S31508004FF000F0F4F830460AA93DF0DEFF034600B992
S315080050000A9BDDF83910DDF8356094F82120A07E7A
S31508005010CDE908619DF8341007919DF83310069183
S31508005020DDF82F1005919DF82E1004919DF82D108E
S3150800503003919DF82C100291A18CCDE90051911E87
S315080050404A424A414BE72A460021A07E3DF0A9FF85
S31508005050F4E600BFA000090738B5002405464FF05E
S31508005060C5F8074B1B681BB94FF0BBF8204638BD7F
S3150800507093F82A20AA4208BF1C461B68F3E700BF1C
S31508005080985A00202DE97043044616460D46037BC0
S3150800509086B023F0180343F01003816103730146B9
S315080050A00D483EF070F8D4E90489217BCDE90489DE
S315080050B0227981F00403C1F3400101910292226B27
S315080050C02946009220463246C3F380033DF038FF56
S315080050D006B0BDE8708300BF985A00202DE9F0415C
S315080050E00C4690461E46054686B000286FD0002915
S315080050F06DD04B68002B6AD0002A68D08B7BFF2BBB
S3150800510067D00A7C4FF6FF73002A52D0B8F80220FF
S315080051109A425ED02368002B57D0A389173B9BB2CF
S31508005120E32B52D84FF062F807462B4B1B68002B2F
S3150800513042D1A07BFFF790FF00283FD101AB04F1D5
S31508005140100C1A4620686168083403C26445134681
S31508005150F7D12068002110603822284641F013FF55
S3150800516001AC05F11C030DF1140C224603CA624575
S3150800517018605960144603F10803F6D110681860E0
S315080051809DF8303085F82460EB842B7BC5F8348095
S3150800519043F008032B73AE800EB1731E9EB22946E8
S315080051A00D48EE803DF0E0FF38464FF01AF8002033
S315080051B008E0B8F80A20ABE79D42B7D138464FF069
S315080051C010F82E2006B0BDE8F0812120FAE722204B
S315080051D0F8E72520F6E700BF985A002070B505467F
S315080051E0C8B14FF003F806460C4B1B682BB92D24A3
S315080051F030464EF0F6FF204670BD9D42F5D12C7B19
S3150800520014F0100405D1062201212846FFF73AFFBB
S31508005210EEE70224ECE72224EDE700BF985A0020C7
S315080052200368764A23F47F4323F0070393422DE964
S31508005230F04705461BD002F1C06202F540329342A0
S315080052401BD002F1794293420CD10079FFF704FF93
S3150800525040B1B5F80520038D9A4203D013220221E6
S31508005260FFF710FF002080F00100BDE8F087807985
S31508005270FFF7F2FE0028F1D1F4E7C3791D2B01D020
S315080052801B2BEFD12879FFF7E7FE04460028E9D063
S3150800529090F82B20EB79F2B91D2BE3D094F82C006B
S315080052A0B5F80520616BC0B149889142DAD11D2B4A
S315080052B002D1287919F0F0FA6A89D2B2012A03D9FB
S315080052C0208DC31E93420AD22B2202212046FFF7C5
S315080052D0D9FE0120C7E71B2BDFE74989E5E7297BCC
S315080052E094F824C0CF074FEA910301F002061BD5B4
S315080052F0A380237B43F001032373A38826B1217B74
S31508005300238141F0020121739C4564D8E18CFF2971
S3150800531001D099425FD304385843E169013A8318AA
S315080053208B4251D91D22D0E7277BF9071BD4E646C5
S315080053304FF0010947F001072773A3805FFA8EF142
S31508005340994203D361890B446381D6E709FA0EF8BB
S31508005350D4E9047147EA080741EAE871C4E9047127
S315080053600EF1010EEAE7B4F806E0A3EB0E0101F030
S315080053703F0101390EF101095FFA81F859FA81F105
S3150800538089B23F2984BF47F004072773A180217B90
S31508005390490705D44FF0010A013BDBB29E4501D30C
S315080053A04346CFE763450CD3E18C994209D3D4E948
S315080053B004710AFA03F947EA090741EAE971C4E9F7
S315080053C00471013BDBB2E9E72363236A05F10D01AA
S315080053D0184441F0E3FD2046A188FFF789FBA2881F
S315080053E0E38CE2809A4205D0002E3FF472AFFF2B81
S315080053F07FF46FAF0022114668E700BFA0000601E0
S31508005400092838B5044615D90B4D0C4928683EF0CD
S315080054104EFF3DF0C4FE3DF0C3FE2246084928680B
S315080054203EF045FF074B2246054918683EF03FFF08
S31508005430002038BD0420FCE79C5A00205C4905087A
S31508005440DF730508346700202DE9F341044690F818
S31508005450028008460D4617461E46FFF7D1FF404410
S31508005460013080282FD9344E344930683EF01FFF6A
S315080054703DF095FE3DF094FE2846D6F80080A678C5
S31508005480FFF7BEFF0136831980271C262A462C49BA
S315080054904046DBB2CDE900763EF009FF294B2846A7
S315080054A0D3F80080A478FFF7ABFF013403192A4626
S315080054B04046CDE900762249DBB23EF0F8FE30469A
S315080054C002B0BDE8F0816378AB4219D926261A4F97
S315080054D01A4938683EF0EBFE3DF061FE3DF060FE8D
S315080054E000962A466378184938683EF0E0FE154863
S315080054F000962A466378144900683EF0D8FEDEE72F
