:020000040800F2
:10000000A80D002031580008772E0408772E040828
:10001000894A0408772E0408772E0408772E0408EE
:10002000772E0408772E0408772E0408772E04080C
:10003000772E0408772E0408D5270408772E0408A5
:10004000772E0408772E0408772E0408772E0408EC
:10005000772E0408772E0408772E0408772E0408DC
:10006000772E0408772E0408772E0408A5000108CF
:100070002B6B0408772E0408772E0408772E0408CB
:10008000772E0408772E0408772E0408772E0408AC
:10009000772E040899630008772E0408772E040849
:1000A000772E0408A55F0008855F0008772E0408F6
:1000B000772E0408D1E20208A5EB0208191E0508F4
:1000C000151E050819E302082F1E05081D1E050848
:1000D00075EB0208211E0508E5EB02084DEC02084D
:1000E000772E0408772E0408772E0408772E04084C
:1000F0006B3F0408772E0408772E0408772E040837
:10010000772E0408772E0408772E0408772E04082B
:10011000772E0408772E0408772E0408772E04081B
:10012000772E0408772E0408772E0408772E04080B
:10013000772E0408772E0408772E0408772E0408FB
:10014000772E0408772E0408772E040889430508C3
:10015000E5CC0208772E0408031E0508091E0508D1
:10016000772E0408772E0408772E0408772E0408CB
:10018000F0B5114A114C124E00F00105E3695F070A
:1001900013D40DB9334213D103EA00078F4207D1BC
:1001A0000B4A1A40002A0CBF00206FF00100F0BD7E
:1001B000013AEBD16FF00200F9E74FF0FF30F6E7BC
:1001C0006FF00100F3E700BF809698000000035035
:1001D000020001000B4B70B5D96911F480310DD1CB
:1001E00001244FF48072084E084DF46020462C64C0
:1001F0001A61FFF7C5FF3464EC6070BD6FF0010059
:10020000FBE700BF00000350001003500020035024
:100210004FF4803238B50E4B0E4C9A66E56941F6C4
:10022000713315400122E3630B4B0021DA60022396
:10023000606121202361FFF7A3FF10B92120FFF7A0
:100240009FFF0122054BDA600DB10023E36338BD47
:100250000090005000000350001003500020035095
:1002600070B5134C6061E3695B071ED40E4656F807
:10027000043B8D18A361AE420BD104230021212041
:100280002361FFF77DFF58B9BDE870402120FFF7DB
:1002900077BF08210846FFF773FF10B104232361DD
:1002A00070BD56F8043BA361E5E74FF0FF30F7E778
:1002B000000003502DE9F84315464FF48032184BE7
:1002C00089469A6603F51C33DF690646174041F6F6
:1002D0007132DA63012203F58053DFF84C80DA6073
:1002E00055B9284601220F4BDA601FB10022A3F551
:1002F0000053DA63BDE8F88306F5005404EA080405
:10030000A41BAC4228BF2C46494622463046FFF784
:10031000A7FF0028E6D12644A1442D1BE0E700BF3B
:10032000009000500020035000E0FFFF000000009C
:1003300000000000000000000000000000000000BD
:10034000013800D0FCE770472DE9F04F93B0CDE9BC
:100350000A32DDE91C530E9353EC102BCDE9080152
:10036000104619468DED060B1E9E10F051FE80B111
:10037000DDE906014FF0FF32C54B10F071FE40B9C8
:10038000DDE906014FF0FF326FF4801310F04AFEF2
:1003900070B1DDE908019DED060B0E9B1E96CDE9BF
:1003A0001C53DDE90A3213B0BDE8F04F00F088B904
:1003B0000022DDE90601002310F034FE002800F0E1
:1003C0003381DDE906A303F1004BCBF30A5016F4A9
:1003D0008063A0F2FF3008BF06250F9310F046FBA4
:1003E0009BA3D3E9002310F0ABFB9BA3D3E900232D
:1003F00010F0F0F9CBF31304894644F07F518046A6
:100400000022A44B504641F4401110F0E1F994A3AE
:10041000D3E9002310F094FB02460B4640464946C0
:1004200010F0D8F910F026FE044610F01FFB8EA342
:10043000D3E900238046894610F082FB0022964BC8
:1004400010F0C8F910F016FE89A3D3E9002307467F
:100450004946404610F074FB80463846894610F005
:1004600005FB85A3D3E9002310F06AFB02460B4687
:100470004046494610F0ACF902460B46CDE90C2344
:1004800010F05EFBDDE90C238046894610461946D4
:1004900010F0A0F90022CDE91001804B40464946FA
:1004A00010F078FC00227E4B10F094F902460B46C7
:1004B0004046494610F06EFC00227A4B10F08AF953
:1004C00002460B464046494610F064FCDDE90C2329
:1004D0008046894600204FF0804110F079F90246AD
:1004E0000B464046494610F075F902460B46DDE9D9
:1004F000100110F04FFC07F2FF3700226A4B10F09A
:1005000069F900223B0510F01BFB52465B46804612
:10051000894610F0A5FD002840F08980CDE90C89BE
:1005200004F16303C72B34BF0427052731051BD50E
:1005300053A3D3E900235046594610F087FD002805
:100540007FD051A3D3E900235046594610F06AFDED
:10055000002876D00027A542C6BF2C1B04F1FF352A
:1005600000253C4646F480660E9B9F422CBF4FF010
:100570000008A3EB070816F0020903D0002F18BFEC
:100580004FF000083CB1DDE90C235046594610F00D
:1005900001FC82468B46DDE906010022002310F0B3
:1005A00041FD10B10BF100439B46DDE9080126F443
:1005B0000063CDE90183DDE90A324BEC10AB009515
:1005C00000F07EF802465FB3DDE9091316F0200F54
:1005D00000F10105089E0CBF65204520B047DDE90C
:1005E00008010523002205930A23002CCDE90232DD
:1005F00007F1FF374FEAD473B8BF64422A4601932C
:1006000004970A9B009444F091FB0246B9F1000F55
:1006100006D00B9BC41A0B9B1A190E9BA34245D8FC
:10062000104613B0BDE8F08FDDE906ABCDE6002241
:10063000404649461A4B10F0ADFB013CCDE90C0198
:100640006EE7002D90D00F9B002B8DD0013D8BE7E6
:10065000FB799F501344D33FB3C8608B288AC63FB1
:1006600061436F63A787D23F71A379094F930A4013
:100670001655B5BBB16B0240EF39FAFE422EE63F8C
:100680002D431CEBE2361A3F0000000080842E410F
:10069000FFFFEF7F0000F83F0000E03F00002C402C
:1006A00000002440000018400000F03F2020DDE959
:1006B0000913089DA8470134ADE700BF0000000002
:1006C0002DE9F04F5BEC10AB97B0CDE90501DDE90A
:1006D0002057CDE90723504652465B465946229E95
:1006E00010F096FC70B90323CDE902760193B04B6C
:1006F0000093DDE90501DDE9072344F037FA17B07F
:10070000BDE8F08F4FF0FF326FF48013504659462A
:1007100010F088FC28B10423CDE902760193A54BA3
:10072000E6E74FF0FF3250465946A34B10F098FCD5
:1007300068B1A24A06F00403002B08BF0322A04BB5
:100740001CBF13460422CDE902760192D0E7504641
:1007500093A3D3E90023594610F082FC38B992A341
:10076000D3E900235046594610F05CFC68B1DDE93E
:100770000723DDE905014BEC10ABCDE9217620958F
:1007800017B0BDE8F04FFFF7DFBD00220023504651
:10079000594610F047FC002800F09A805B4652460C
:1007A0000020002110F014F8012382468B460993A3
:1007B00016F4806400F08E80092D40F28E800024B3
:1007C00030210EABA5F109020134202C03F8011BE6
:1007D000A5EB040901D09442F6D15946504610F0D9
:1007E00049FC784B054603EBC90393ED007B8DED87
:1007F0000A7B10F03BF902460B46504659460FF073
:10080000E7FFDDE90A2310F09BF902460B46CDE92C
:100810000C2310F057FC804610F018F902460B46E6
:10082000DDE90C010FF0D4FF02460B46CDE90C23A5
:100830000022654B10F014FC002851D008F101088B
:10084000404610F003F902460B46DDE90A0110F0BC
:10085000F3FB10B14FF000080135B9F1000F50D192
:10086000284610F003F902460B46504659460FF051
:10087000AFFF0022544B8046894610F0D3FB30B1C5
:10088000002240464946504B10F0EAFB10B1E80701
:1008900000D501350A210EAB1A19202C0AD095FB80
:1008A000F1F001FB1055303502F8015B01340546CB
:1008B0000028F2D106F00302012A57D1002F55D0AB
:1008C000099A12B916F00C0F00D0013F302245E012
:1008D00009906DE74FF006097FE7A94600247CE701
:1008E0000022DDE90C01384B10F09CFB0028B4D14C
:1008F000B8F1000F02D018F0010FAED008F10108D6
:10090000ABE70A210EAB2344202C0ED0B8FBF1F04C
:1009100001FB1082B8F1090F02F1300209F1FF3931
:1009200004F1010403F8012B11D83021A1440EAACF
:10093000202CAFD0A14504F101030AD11C4609F1D6
:1009400058030DEB03092E2309F8203CA2E780464B
:10095000DAE7A1541C46EBE71A550134A74205D942
:10096000202CF9D1CDE902760194C1E6202CF9D0F2
:10097000099A3AB12D2104F158026A4402F8201C68
:100980000134EFE7710704D504F158022B216A44C2
:10099000F4E73207E6D504F1580220216A44EDE776
:1009A0000000000065CDCD410000000065CDCDC147
:1009B000687705086C770508FFFFEF7F5F7705080C
:1009C00064770508787705080000E03F0000000024
:1009D0002DE9F04F2DED028B002597B01D7003938C
:1009E000229B074607911D60002800F03C81437858
:1009F000047844EA0324837844EA0344C37844EA4D
:100A0000036463783F2B00F22E81AA4214BF0623B1
:100A100008238DF8243009230C958DF8263042796F
:100A2000037908469FEDA48B43EA02234A790434F4
:100A3000023292008DF825200AAA0092043B9BB254
:100A40002146007909AA8DED0A8B39F0B3F90A9B8A
:100A50000646049360B1049B23B10C991846C91A49
:100A600043F045FF304617B0BDEC028BBDE8F08F78
:100A70000B98039DC01A40102870C0B200EB4000D4
:100A80008F49800051F0F5F98346002800F010816D
:100A90002B788DED0E8B1096002B00F0FA803346EC
:100AA00002960299E279591A8A42B246B04600F299
:100AB000AC8004D202991144994218BF0F91002AC8
:100AC00040F0AD807A783B7894F802E043EA022364
:100AD000BA7894F803C043EA0243FA7808EB480175
:100AE00043EA026300220BEB810514925A781878CE
:100AF00085F802E085F803C002F00F03E2798DED7E
:100B0000128B6A7194F906202A710BF821000EAA43
:100B10006B70204612AB09A937F03EF981460028D8
:100B20003BD01298149910B1091A43F0E0FE039BD0
:100B30001B78F3B100252C462E4604EB44040BEB46
:100B40008404627A207A40EA0220A27A40EA0240D3
:100B5000E27A50EA026000F0968043F0C6FE039B02
:100B600001351B7826726672A672E672ECB29C4260
:100B7000E3D3584643F0B9FE0023029A1099891A2C
:100B8000039A1370029B13B1184643F0B0FE049B06
:100B90004E46002B7FF461AF64E7DDE91232D21AD2
:100BA000104647490693059251F063F9C0F3072CAC
:100BB00085F809C0C0F3074C85F80AC04FEA106CED
:100BC000069B287285F80BC0002865D0059A002A7C
:100BD00035D185F8069085F80790002B40D1049B0D
:100BE0000AF1010A33F81820E3795FFA8AF83344EE
:100BF000DEB2039B14441B7843453BD90F9B0299FB
:100C0000E279591A8A427FF654AF511A0EA837F08A
:100C100065F80E9BE2790293002A3FF453AF0798E0
:100C20004378017841EA0321837841EA0341C3789C
:100C3000029841EA0361314446F027F842E7194639
:100C40000692059346F021F8069A1499059BAA711D
:100C5000C2F30722EA71C91A184643F048FEBEE7FC
:100C60001499C91AF8E70B26304617B0BDEC028B71
:100C7000BDE8F08F229B1099C3F800B0029BC91AFF
:100C8000002B81D183E70135ECB29C42FFF455AFD4
:100C90006FE7229B1860DEE63BB114991846C91A2B
:100CA00043F025FE4FF0020941E74FF002093EE70D
:100CB0000226D0E6AFF30080000000000000000034
:100CC0009C0B06080348044B834202D0034B03B13C
:100CD00018477047C4A10020C4A1002000000000F4
:100CE000064B0749C91A891048BF0131491003D082
:100CF000044B0BB101481847704700BFC4A1002046
:100D0000C4A100200000000010B5064C237843B9B0
:100D1000FFF7D8FF044B13B10448AFF30080012361
:100D2000237010BD168700200000000094160608EE
:100D300008B5054B1BB105490548AFF30080BDE878
:100D40000840FFF7CDBF00BF00000000C81300201F
:100D500094160608A3F5803A704700BF174B002B86
:100D600008BF134B9D46FFF7F5FF00218B460F464A
:100D70001348144A121A45F0A2FF0E4B002B00D064
:100D800098470D4B002B00D098470020002104000D
:100D90000D000D48002802D00C48AFF3008010F081
:100DA00053FD2000290045F0C2FE10F08BFB00BF70
:100DB000000008000000000000000000A80D002056
:100DC000A80D0020E09800200000000000000000B6
:100DD00013B5094C237863B9022304200093074A12
:100DE0004FF4805306490DF0BFF90028A4BF01233A
:100DF000237002B010BD00BF189700201787002095
:100E0000E846050830B5154B87B01B7805461446F3
:100E1000019103B341F0C2FC4FF41B630D22CDF8E6
:100E20000D00CDF81110042002A902938DF80C508A
:100E30000DF06EF904220DEB020110460DF068F979
:100E4000019B21461A0202F4E062C3F30723042047
:100E50001A430DF05DF907B030BD00BF17970020B1
:100E600030B5144B05461B7885B003F0FF04F3B191
:100E7000FF2928BFFF210C4641F090FC04F1090234
:100E800013029BB243EA122343F0807343F0B00392
:100E90000D22CDE900300291042069468DF80C4006
:100EA0000DF036F92246294604200DF031F920468E
:100EB00005B030BD179700200122014B1A70704712
:100EC000179700201FB541F069FC084B0391CDE94D
:100ED00001300C22042001A90DF01AF904200DF0B4
:100EE00075F90028FAD105B05DF804FBB0080002DE
:100EF00037B5044619F09CF8054600284AD1A36886
:100F000043F40033A36046F0FAFEA368244A43F496
:100F1000A013A360A261257743F016FEA368A0800A
:100F20001B030CD4B0F5FA7F09D953F0E4F8012182
:100F30000546084652F080F8284653F0D7F8204678
:100F400019F09EF838BBE06838B31BF0F5F817F0DD
:100F50000BF917F01DFF4AF007F848F0B2FA40F21B
:100F60000443ADF80430FF2301A88DF8063012F0D9
:100F70004BFC00220320114649F053FA03210420C0
:100F80001AF046FA0A2012F0A3F819F031F82046B8
:100F900041F01BFC002003B030BD0248D5E700BF84
:100FA000050403003E9E002008B50449044823F0D0
:100FB0009FFFBDE8084023F0CDBF00BFF8460508FD
:100FC000BC4705084FF08052014B5A60704700BF84
:100FD00000ED00E0F8B50E460546D0B1C9B10E4BA4
:100FE0000E4F1968386806F0C5F9044678B906232B
:100FF00032460B49386806F08BFA044638B90123AB
:101000002A460849386806F083FA00B12C70204659
:10101000F8BD2124FBE700BFCC9A0020EC9A002009
:101020002C0004003C00040007B5084B1878FF288A
:1010300002D023F095FA30B14FF6047301A8ADF851
:10104000043045F004FD03B05DF804FB4F9E002022
:1010500010B50D4C0D4804F0C3FC23780BB123F000
:10106000D9FAFF220A4B01211A700022094B227083
:101070009A70152219705970DA701A7100F050FBCD
:10108000BDE8104000F02CB919970020E0130020B3
:101090004F9E00201A97002038B500F077F90446DB
:1010A00000F0CEF9C0B10E4D2B789BB90D4B1B78DB
:1010B000FF2B11D1022C11D80B4C2279E178A078AA
:1010C00023F07EFA38B90121207823F08FFA10B985
:1010D00001232B70002038BD0220FCE71D20FAE719
:1010E000199700204F9E00201A970020F0B5054662
:1010F00085B00E4600F04AF95DB3194F3B78FF2BDF
:1011000029D1022829D8002342F21071154A164825
:10111000009304F083FC0446A0B901460DF10F03CF
:1011200000936A792B79286843EA022363F30F015D
:101130000E4B32461B7823F069F9044628B10A4861
:1011400004F04EFC204605B0F0BD9DF80F303B701A
:10115000F8E72224F6E70224F4E71D24F2E700BFB3
:101160004F9E002029100008E01300201A9700204D
:10117000036837B523F47F43504A23F007039342B3
:10118000044621D009D8A2F5A022934217D002F537
:101190008022934273D003B030BD494A93424AD073
:1011A00002F57F029342F6D1464B1B78002BF2D01A
:1011B000454B1B78FF2BEED100F11E0369E003B015
:1011C000BDE83040FFF744BF3F4B017B1A789142A6
:1011D000E1D1C27A012ADED1FF223A4D3B481A7092
:1011E00004F0FEFB2B784BB123F014FA08B34FF652
:1011F000047301A8ADF8043045F029FC607A227A26
:10120000012342EA00226168207B00F077F830B1C8
:101210004FF6047301A8ADF8043045F018FC002324
:101220008DF80430237B8DF8053001A845F00FFCC4
:10123000B1E72870E2E7244D80792B78834205D10D
:10124000224804F0CDFBFF232B70A4E700F0BCF88C
:101250000028A0D0A07900F0E1F800289BD0A07968
:1012600000F076F830B14FF6047301A8ADF8043001
:1012700045F0EDFB02238DF80430A379D3E7114B41
:101280001B78002B87D0104B1B78FF2B83D100F1EC
:10129000160394F90D20E17A601D41F0A2FA0028AE
:1012A0003FF479AF11283FF476AF2D3801287FF64F
:1012B00072AF4FF60473ADF80430B6E7A000060035
:1012C000A0000601199700204F9E0020E013002087
:1012D000024B187880F00100704700BF199700207A
:1012E000FF22044B1A701A721A740022024B1A70F1
:1012F000704700BF1F9700203797002013B56C463A
:1013000084E80600104A1178FF2917D0117AFF29C6
:1013100016D0117CFF2915D1022102F83100009866
:1013200002EBC102C2F8020000205370A388D380F0
:10133000064A13780133137002B010BD0021ECE7A8
:101340000121EAE71A20F7E71F97002037970020CE
:101350000C4B1A7882420FD01A7A82420ED01A7C35
:1013600082420DD10222FF2103F83210064A0020EA
:101370001378013B137070470022F4E70122F2E773
:101380002D2070471F97002037970020014B1878B9
:10139000704700BF379700200A4B1A7882420AD064
:1013A0001A7A824209D01A7C824208D1022203EBC7
:1013B000C200023070470022F9E70122F7E700205F
:1013C000704700BF1F970020064B1A78824207D053
:1013D0001A7A824204D01B7C1B1A5842584170472B
:1013E000012070471F97002070B5044680B1002689
:1013F000094D15F8023CFF2B05D006222146284650
:1014000045F033FC30B10136032E05F10805F0D16B
:10141000002070BD0120FCE721970020014600223A
:10142000064B1878884202D15878012805D001323D
:10143000032A03F10803F4D1002070471F9700200E
:10144000024B1888003818BF01207047181400207C
:101450002DE9F04F8E4D90462E7893B03207894695
:101460009A464FF00004009035D4F30647D4F707AE
:101470004CD44FF0000B9AF800305F46013B0D93BF
:1014800006F0040308932B7ACDE901BB00936B6847
:1014900009936B7803F001030B9395F86430049380
:1014A00095F865300693069A049B13440C9395F8BF
:1014B0005C30039395F85D300593059A039B1344C4
:1014C0000A9306F002030F9306F02003079306F039
:1014D000400310937BE04FF00804002705F1090B4F
:1014E000062200990BEB070045F0BFFB0028BCD09B
:1014F00006373C2FF4D1002013B0BDE8F08F95F8EB
:10150000453044F010044B45F5D1B0E795F9023071
:1015100044F001044345ACDBEDE70AEB07035D78DB
:1015200093F802900F9B002B36D0A9F10803012BF2
:1015300032D8089A234644F002041ABB009BAB42FF
:1015400030D2F81C009A0999504445F08EFB0028CF
:1015500008BF4FF0010B079B002B00F08580B9F10D
:10156000210F40F081800A9B44F020049D42C2DD9F
:10157000039B059AD91903314648514445F075FB40
:1015800010B3B8E743F00604009BAB42E3D2009AE5
:101590006B1E9342DFD1D4E7109B1BB1A9F102036C
:1015A000012B2ED93006D6D5A9F10603012BD2D8AE
:1015B0004FF00008BA1C44F080046B1E0E92984550
:1015C0003DDB079B002B4FD101353D44EFB20D9B16
:1015D0009F42A2DB16F0060F02D0BBF1000F8AD0AB
:1015E000710602D5019B002B85D0320602D5029BE5
:1015F000002B80D0264BA4B21888031B58425841B8
:101600007AE74FF000086B1E0E9344F04004BB1CB9
:101610000E9A90459FDA03EB0801013102221E4821
:101620005144119345F021FB0028019B08BF012381
:1016300008F1020801935FFA88F8119BE8E711931B
:101640000E9B102203EB080101311448514445F070
:101650000CFB0028029B08BF012308F1100802932D
:101660005FFA88F8119BAAE70B9B002BACD0B9F16D
:10167000FF0FA9D10C9B44F480749D427FF73BAFD0
:10168000049B069AD91903310548514476E700BFF7
:1016900018140020701400205E1400206014002034
:1016A00078140020F8B506460D461746FFF710FEE1
:1016B000B8B1C6B1284642F0DEFF0D4C6060A0B163
:1016C0002A46314645F006FB2378257243F0020393
:1016D00023700FB90020F8BD237843F00403237072
:1016E000F8E70220F7E72120F5E71920F3E700BF2C
:1016F0001814002010B50446FFF7EAFD50B15CB1A4
:1017000000202288054BA3F846201A7842F04002B8
:101710001A7010BD0220FCE72120FAE718140020FF
:1017200010B5FFF7D5FDF0B1104C606818B143F06B
:10173000A4F800236360A06D18B143F09EF8002365
:10174000A365206E18B143F098F8002323660020AB
:10175000FE23A070207284F84530A4F85C00A4F841
:101760006400208010BD0220FCE700BF1814002098
:1017700000234FF0FF320449C818CA5006333C2BEF
:101780008280F9D1FFF7CCBF21140020034A04491D
:10179000002808BF1146042023F0A2B874480508A9
:1017A0006C48050838B5134B044693F8C0208242B4
:1017B000A3F5805015D003F5805393F80432A3426B
:1017C00015D00D4D0D49286842F00DFC41F083FB0A
:1017D00041F082FB22460A49286842F004FC0020BE
:1017E00038BD002341F2441202FB0300F8E7012355
:1017F000F8E700BF802400200C3700207C48050853
:10180000814805082DE9F04FFF288FB00D46CDE93E
:101810000A32099000F01A84002900F019840A9B0A
:10182000002B00F01584199B002B00F01184189BED
:10183000002B00F00D84AC4EAC49306842F0D3FB75
:1018400041F049FB41F048FB099AA949306842F050
:10185000CAFBA84B93F8C020A3F58054FF2A24D0DC
:1018600003F5805393F80432FF2B00F09880A249CF
:10187000306842F0B8FB41F02EFB41F02DFB9F4950
:10188000306842F0B0FB9C49306842F0ACFB41F05C
:1018900022FB41F021FB099A9949306842F0A3FBF1
:1018A0001C2420460FB0BDE8F08F002341F2441203
:1018B0000793079B00215343E7183846089345F0E8
:1018C000FEF90021384640F0EFFF41F2A8034FF047
:1018D000FF32FA5041F2BA0317224FF0000BFA52CE
:1018E00007F58052B2F8A430594603F0F00343F4F0
:1018F0008673A2F8A430089B40F24A7203F658009F
:101900002044C7F854B845F0DAF941F2BC0307F8AF
:1019100003B0099B07F586563370089B492203F5EF
:1019200082501A302946204445F0D4F941F266032A
:1019300017F803A041F2680341F2C4096A4D17F891
:1019400003806A49286842F04EFB41F0C4FA41F036
:10195000C3FACDF80080534632786A49286842F0CD
:1019600042FB089B5A4603EB090121445B46307851
:1019700022F0D0FD0446A0B15F49286842F033FB55
:1019800041F0A9FA41F0A8FA5F493278286842F09C
:101990002AFB2D212246384601F026FB81E7012350
:1019A00084E717F809309BB9307822F065FE0446C9
:1019B00070B15149286842F016FB41F08CFA41F0B1
:1019C0008BFA52493278286842F00DFB2E21E1E76C
:1019D0000B9B28681B884E4CA7F8B93F13F0FF03F8
:1019E00046D1424942F0FFFA41F075FA41F074FAEB
:1019F00041F24413079A474903FB024303F5865318
:101A00001A78286842F0EFFA41F24414079BDFF895
:101A100000910A9A04FB039441F2D003E25041F290
:101A2000D403189A94F8B91FE25041F2D803199AD6
:101A3000E250089B03F5845641F25D0319364E448B
:101A40003246E05C37F000FE834600286ED02A491B
:101A5000286842F0C8FA41F03EFA41F03DFA2E49BA
:101A60005B46099A286842F0BEFA2124302191E7AA
:101A7000012B10D11D4942F0B6FA41F02CFA41F089
:101A80002BFA41F24413079A244903FB024303F55E
:101A900086531A78B5E7022B10D1144942F0A3FA05
:101AA00041F019FA41F018FA41F24413079A1C491F
:101AB00003FB024303F586531A78A2E7194942F063
:101AC00092FA41F008FA41F007FA41F24413079AFA
:101AD000154903FB024404F5865294F8B93F127885
:101AE000286842F080FA8FE70C370020C3480508C9
:101AF000C8480508802400207C480508FD480508E2
:101B00001849050848490508A4490508D4490508A5
:101B100080140020034A05087C4B0508584A050834
:101B2000B64A0508064B05080B4B05080A21304646
:101B300001F02AFD0646C54904F58654286842F09E
:101B400052FA41F0C8F941F0C7F933462278C0494A
:101B5000286842F048FA2078FFF724FE00F5805B01
:101B60009BF85D300446022BBA4E4DD19BF867308E
:101B7000072B00F25381DFE813F008001800510131
:101B80005101EA0051015101FD000123AF4980F8E4
:101B9000D33F286842F027FA41F09DF941F09CF9C3
:101BA0009BF8C020AC4928682CE0BAF1010F3068DE
:101BB0001AD8AA4904F5805842F015FA41F08BF979
:101BC00041F08AF998F8C020A549306842F00BFA34
:101BD00001222921204601F007FA002388F8673006
:101BE000012384F8D33F0FE0022384F8D33F9749C1
:101BF00042F0F9F941F06FF941F06EF99BF8C0201D
:101C00009849306842F0EFF904F5805898F8673049
:101C100088F8683098F85D30012B20D198F86BB0C7
:101C20003068BBF1020F00F02D81BBF1FE0F00F018
:101C30004E81BBF1010F40F05A81884942F0D3F93F
:101C400041F049F941F048F998F8C02086493068D8
:101C500042F0C9F988F86CB0002384F8D33F41F210
:101C60004416079B06FB039606F5845ABAF809301A
:101C7000002B35D10DF1360304930DAB039341F2E4
:101C80009703F35C41F25A02029341F26803F35C5A
:101C900041F25E01019396F8B93F41F25D00009375
:101CA00041F29803B25CF35C715C305C01F02AF99C
:101CB00006F586580446002800F04881654E0F2C32
:101CC000306840F02681654942F08DF941F003F912
:101CD00041F002F998F800206449306842F083F935
:101CE00041F24416079B06FB039606F584531A46F9
:101CF0001032B2F8032006F583510292B3F8112096
:101D000006F586580192B3F80D2018310092083379
:101D1000B1F80920B3F80330B1F8071098F80000C3
:101D200022F0A0FB0446002800F0328150492868C8
:101D300042F059F941F0CFF841F0CEF84D49234631
:101D400098F80020286842F04EF9312122E6B8F1D7
:101D5000010F30687FF62DAF02233C4984F8D33F52
:101D600042F041F941F0B7F841F0B6F89BF8C020D5
:101D7000414946E7B8F1010F11D9BAF1010F20D955
:101D80000423324980F8D33F286842F02CF941F00F
:101D9000A2F841F0A1F89BF8C020384903E70122DE
:101DA000292101F021F9B8F1010F11D1BAF1020F87
:101DB00030680DD104F5805B84F8D3AF8BF8678071
:101DC00015E70122292101F00FF9B8F1020F10D017
:101DD0002249286804F5805842F005F941F07BF863
:101DE00041F07AF898F8C0201D49286842F0FBF8C5
:101DF000F3E6BAF1010F3068EAD1042384F8D38FF7
:101E000004F58058114988F8673042F0ECF841F049
:101E100062F841F061F898F8C020A9E70F4904F58D
:101E20008058286842F0DFF841F055F841F054F846
:101E300098F8C0201249286842F0D5F8012384F8A8
:101E4000D33F002388F86730DEE600BFC3480508AB
:101E5000B34B05080C370020E94B0508064B050875
:101E60001C4C05085D4C0508514D0508CB4E050876
:101E70007C48050815500508904C0508C34C05081A
:101E8000F64C0508BAF1010F0AD9724942F0ABF8D5
:101E900041F021F841F020F898F8C0206E49D6E6CC
:101EA0006C490A9342F09FF841F015F841F014F89C
:101EB00098F8C0206949306842F095F80A9B2A21B9
:101EC0001A46204688F86C3001F08EF8C4E6644962
:101ED00042F089F840F0FFFF40F0FEFF98F86630CE
:101EE00098F8C0205F49306842F07DF8B2E6594961
:101EF0000A9342F078F840F0EEFF40F0EDFF98F8DA
:101F0000C0205949306842F06EF80A9B88F86B305F
:101F1000A2E60A2C0AD14F4942F065F840F0DBFFF7
:101F200040F0DAFF98F800205049D6E6504942F0D8
:101F30005AF840F0D0FF40F0CFFF4E49234698F8C2
:101F40000020306842F04FF8322123E5BDF83430EC
:101F500006F58356A6F81F30A6F82130BDF83630B6
:101F60003F492868AAF80330AAF8053042F03BF848
:101F700040F0B1FF40F0B0FFBAF805303E490093A1
:101F8000B6F8213098F80020286842F02CF8A7E62F
:101F900041F25B03FF22F15C099822F08BFA0446C0
:101FA00080B13349286842F01EF840F094FF40F0B9
:101FB00093FF3249234698F80020286842F013F82E
:101FC0003321E7E441F2CC0A0899089B089A01F50D
:101FD0008651534402F6B97208314B444A4449448D
:101FE00098F8000001F0F0F98146A8B1204928686E
:101FF00041F0F9FF40F06FFF40F06EFF4B4698F85C
:1020000000201F49286841F0EEFF4A462F2138463C
:1020100000F0EAFF012444E41149286841F0E3FF9D
:1020200040F059FF40F058FF98F800201549286803
:1020300041F0D9FF1A9B1BB116F80A301A9A137097
:1020400000223846114602F005F82AE4252428E447
:10205000222426E4064B0508984D0508DF4D0508A7
:10206000C34805082A4E05086F4E0508274F050886
:102070007C4805086D4F0508C44F05085F500508EA
:10208000A2500508DD5005082DE9F047002541F272
:1020900044182F461D4CA4F65809A4F6580A41F2DC
:1020A00044120021504644F00AFEFF2384F86838A9
:1020B00084F8D1384FF0FF330126C4F85038172385
:1020C00008FB059284F8CE7884F84D68A4F862384D
:1020D00002F5805292F8A430002123F00F0343F060
:1020E0000C0382F8A430204640F24A7244F8047C83
:1020F00044F0E5FD84F864783146504640F0D4FB66
:1021000044440DB1BDE8F0873546C6E7D81C002031
:102110002DE9F041064688461746FFF743FB434C3E
:10212000054698B94249206841F05DFF40F0D3FE72
:1021300040F0D2FE32463F49206841F054FF22224F
:1021400027212846BDE8F04100F04EBF05F5805636
:1021500096F8A4302068DB0712D518F0010F0FD1D4
:10216000334941F040FF40F0B6FE40F0B5FE96F82E
:10217000C0203149206841F036FF3A460B21E0E7A4
:1021800087B12B4941F02FFF40F0A5FE40F0A4FE9F
:1021900096F8C02029493B46206841F024FF3A4682
:1021A0000C21CEE7264941F01EFF40F094FE40F09E
:1021B00093FE434696F8C0202249206841F013FF61
:1021C00096F8A41096F8C00040F00CFC074688B1C1
:1021D0001749206841F007FF40F07DFE40F07CFE8B
:1021E00096F8C02018493B46206841F0FCFE3A466C
:1021F0000D21A6E7032196F8C00040F037FC074602
:1022000088B10B49206841F0EEFE40F064FE40F0DA
:1022100063FE96F8C0200D493B46206841F0E3FE7E
:102220003A460E218DE7BDE8F08100BF0C37002053
:102230007C4805080B5105083A510508A0510508CE
:10224000C3480508E15105082052050860520508F9
:102250002DE9F04186B007460E461546FFF7A2FA73
:102260000446A8B9494D4A49286841F0BCFE40F0EF
:1022700032FE40F031FE3A464649286841F0B3FE4E
:1022800022220E21204606B0BDE8F04100F0ACBE8F
:10229000A5B1DFF8F8803E49D8F8000041F0A3FE70
:1022A00040F019FE40F018FE009533463A463A4990
:1022B000D8F8000041F097FE2A46E2E7022E57D0F8
:1022C000032E22D0012E2FD100F5805696F8B8307B
:1022D000052B29D10C23032196F8C00086F8B830CD
:1022E00040F0C4FB0546F8B1284F2949386841F051
:1022F0007AFE40F0F0FD40F0EFFD2B4696F8C0204E
:102300002649386841F06FFED6E700F5805696F80A
:10231000B8300C2B0BD0012103AA8DF80C1001F062
:1023200099FE052386F8B83006B0BDE8F08100F6C6
:10233000580240F24A7196F8C00040F013FB05467F
:102340000028EED0114F1249386841F04CFE40F0A1
:10235000C2FD40F0C1FD96F8C0202B4610493868F8
:1023600041F041FE2A460F21204600F03DFED8E70D
:102370000723012100F5805484F8B83084F8BC505C
:1023800003AA8DF80C1001F065FECDE70C37002094
:102390007C4805089B520508D8520508605205087C
:1023A000195305082DE9F04F87B00646DDE918BA44
:1023B00089461D46DDF85480FFF7F4F9044680B9DC
:1023C000504D5149286841F00EFE40F084FD40F028
:1023D00083FD32464D49286841F005FE2222112135
:1023E00020E000F5805696F8A5300BB300F65802B1
:1023F00040F24A7196F8C00040F0B4FA0746B8B10E
:10240000404D4149286841F0EEFD40F064FD40F048
:1024100063FD96F8C0203E493B46286841F0E3FD45
:102420003A460F21204607B0BDE8F04F00F0DCBD72
:10243000B5B1344F3449386841F0D5FD40F04BFD1B
:1024400040F04AFD2B4696F8C0203249386841F0EA
:10245000CAFD5BEA0A0A51D0062D4FD02A46BEE7D4
:10246000B9F1000F4AD0274F2B49C4F85488386877
:1024700041F0B9FD40F02FFD40F02EFD94F85938A1
:1024800094F8581896F8C02003F00F03CDF8008098
:1024900041EA03233868214941F0A5FD94F8592801
:1024A00094F8583802F00F0204F6580943EA022360
:1024B000D4F854182A46ADF81430484696F8283116
:1024C000CDE903988DF8175040F003FA08218DF8F4
:1024D000160003AA204601F0BDFD044670B10A496A
:1024E000386841F080FD40F0F6FC40F0F5FC2346F2
:1024F00096F8C0200A49386841F075FD07B0BDE87C
:10250000F08F00BF0C3700207C4805085F5305089A
:1025100019530508A3530508C3480508E5530508E2
:10252000295405082DE9F0410368B04A23F47F439C
:1025300023F007039342044692B000F021832ED883
:1025400002F17F42934200F03B830FD802F17F42B9
:10255000934200F0018202F53002934200F0CC82F7
:10256000002080F0010012B0BDE8F081A04A934243
:1025700048D002F540329342F2D10079FFF712F9C8
:10258000002840F0A1829B4D9B49286841F02BFD1B
:1025900040F0A1FC40F0A0FC2279984942E0984A22
:1025A000934200F0458413D802F17E42934200F03A
:1025B000CE8302F52D029342D2D10079FFF7F2F8D3
:1025C0000028CDD0637900F5805080F85B30C7E7F4
:1025D0008C4A934200F0CD8102F1FC729342BFD14C
:1025E000844D8549286841F0FEFC40F074FC40F0C1
:1025F00073FCA3798449009363792279286841F0B8
:10260000F2FCADE70079FFF7CDF8074670B9794DD8
:102610007949286841F0E7FC40F05DFC40F05CFC43
:1026200022797A49286841F0DEFC99E7B4F8052060
:1026300000F5805593B2A5F8C220B5F881209A42E2
:1026400003D3B5F87F209A4277D96A4E7049306833
:1026500041F0C9FC40F03FFC40F03EFCB4F80510EE
:10266000B5F87F3095F8C0200191B5F88110009140
:102670003068684941F0B7FC95F8C630A3BB5D4EA1
:102680006349306841F0AFFC40F025FC40F024FC89
:1026900095F8C0206049306841F0A5FCB5F893C0BA
:1026A000B5F88B30B5F88120B5F87F1095F8C000EB
:1026B000CDF808C0B5F891C0CDF804C0B5F88DC00C
:1026C000CDF800C021F0CEFE002869D05049306816
:1026D00041F089FC40F0FFFB40F0FEFB95F8C02084
:1026E0004E49306841F07FFC012385F8C630E37A1B
:1026F000002B59D095F8B830002B40F0388195F870
:10270000C0001BF0C5FE3B4E0446002850D00528F3
:102710004ED03949306841F066FC40F0DCFB40F0B7
:10272000DBFB95F8C0203E49306841F05CFC224656
:102730000521384600F058FC12E7B5F88B20B4F8B4
:1027400007309A4214D02B4E3149306841F04BFC8F
:1027500040F0C1FB40F0C0FBB4F80710B5F88B3077
:1027600095F8C02000912F49306841F03CFC83E788
:10277000B5F88D20B4F809309A42B5D01D4E2449E1
:10278000306841F030FC40F0A6FB40F0A5FBB4F807
:102790000910B5F88D3095F8C02000912249E3E783
:1027A00095F8C630002BA2D1012385F8C630D7E6B4
:1027B000012795F8C04085F8B8702046FEF7F2FF73
:1027C0000546A8BB0C49306841F00DFC40F083FB86
:1027D00040F082FB22461549306841F004FC222279
:1027E0002721284600F000FCC1E000BFA0005902EC
:1027F000A00006020C3700207C4805085F59050838
:10280000A0005905A0000906515C05087054050890
:10281000064B0508D4540508E75505083156050848
:10282000925605085355050897550508CB560508D7
:1028300000F5805494F97220394694F86C3094F87D
:10284000C0000092002221F085FF074680B1BC49FC
:10285000306841F0C8FB40F03EFB40F03DFB94F88F
:10286000C020B849306841F0BEFB3A462821B8E79D
:1028700094F8C00021F05EFF074688B1B049306887
:1028800041F0B1FB40F027FB40F026FB94F8C0205C
:10289000AD493B46306841F0A6FB3A462C21A0E703
:1028A00094F86DC094F85D3094F8702094F86E1030
:1028B00094F8C000CDF834C094F864C0CDF830C0AE
:1028C00094F865C0CDF82CC094F86AC0CDF828C043
:1028D00094F863C0CDF824C005F5845C0CF1190CA4
:1028E000CDF820C094F85CC0CDF81CC094F869C045
:1028F000CDE9057C94F86270049794F861700397B1
:1029000094F85F70029794F86070019794F85E7085
:10291000009721F03BFF074688B18949306841F0B4
:1029200062FB40F0D8FA40F0D7FA94F8C02087490B
:102930003B46306841F057FB3A462B2151E784492A
:10294000306841F050FB40F0C6FA40F0C5FA94F808
:10295000C0208049306868E20079FEF723FF002834
:102960003FF4FEAD012300F5805080F8C530012012
:10297000F7E50079FEF716FF064658B9764D70491F
:10298000286841F030FB40F0A6FA40F0A5FA227921
:10299000724947E600F5805595F8C00023798342D7
:1029A0007FF4DEADB4F80540BCB16B4F64493868C4
:1029B00041F019FB40F08FFA40F08EFA95F8C020F4
:1029C0006749386841F00FFB95F8B830032B3FF4A6
:1029D000C7AD224607213046ACE695F8B830012B4A
:1029E0001FD0022B7FF4BCAD304600F07DFB95F884
:1029F000A530002B46D0B5F8AE30002B42D1564C56
:102A00004F49206841F0EFFA40F065FA40F064FA6F
:102A100095F8C0205349206841F0E5FA01220921C8
:102A200014E0D5F8A8104B1C12D14B4C4449206837
:102A300041F0D9FA40F04FFA40F04EFA95F8C02034
:102A40004949206841F0CFFA012206213046C9E603
:102A5000022385F8B8301BF02BFD0446002886D0F1
:102A60003D4F3749386841F0BEFA40F034FA40F043
:102A700033FA95F8C0203D49386841F0B4FA22464F
:102A80000821E3E706F58551B5F88F2095F8C000D9
:102A90000C3101F0A5FF044690B12F4F284938684A
:102AA00041F0A1FA40F017FA40F016FA95F8C0206C
:102AB0002F492346386841F096FA22460A21C5E795
:102AC000032385F8B83052E700F5855600F58555A3
:102AD000284F0C36183504F10908022241463846C1
:102AE00044F0C3F810B9B4F8053033800236AE4272
:102AF00007F10207F1D133E50079FEF753FE0546F1
:102B000058B9154D0E49286841F06DFA40F0E3F9C7
:102B100040F0E2F92279184984E50222174804F1CD
:102B20000A0144F0A2F800287FF41AADD4F8052079
:102B300005F580532846C3F8A82000F093FA0FE566
:102B40007C480508F4560508255705086057050810
:102B5000C3480508A05705080C370020CF570508C3
:102B600036580508D0580508635805088E580508DA
:102B700025590508C89D0020C1590508D49D00208D
:102B80000079FEF70FFE58B9C04DC149286841F0E1
:102B90002AFA40F0A0F940F09FF92279BD4941E5B9
:102BA0000421231D0F9300F5805393F85D20022A22
:102BB00004BF627A83F829210FAA01F04BFAD6E606
:102BC0000079FEF7EFFDB14F054658B9B0493868B6
:102BD00041F009FA40F07FF940F07EF92279AE49E0
:102BE000386820E500F080FAA37B05F5805685F86B
:102BF000C83F94F8243005F5865185F8CF3F94F806
:102C0000213005F6B97285F8D03F94F822300831AA
:102C100085F8D13F94F8233085F8D23FB6F8C2301A
:102C2000A5F8D43FE37F85F8CE3FA37F85F8CD3F5D
:102C3000237F85F8CB3F637F85F8CC3F637C85F8A5
:102C4000CA3F237C85F8C93F637B85F8C73F237B58
:102C500085F8C63FE37A85F8C53FD4F81230C5F849
:102C6000BB3FD4F81630C5F8BF3F638BA5F8C33F10
:102C700096F85E3096F8C000019396F85D300093A8
:102C800005F6BB7300F00CFC044698B18049386827
:102C900041F0A9F940F01FF940F01EF996F8C02064
:102CA0007E492346386841F09EF922462F21284666
:102CB00000F09AF97A49386841F095F940F00BF93B
:102CC00040F00AF996F8C0207649386841F08BF94F
:102CD00096F89640B6F88330B6F8872096F86E10CE
:102CE00096F8C000099496F89540089496F86F40BD
:102CF000079496F97140069496F85B40059496F80F
:102D000068400494D6F87B400394D6F87740029448
:102D1000B6F889400194B6F88540009421F094FDFE
:102D2000044600283FF423AE5949386841F05BF966
:102D300040F0D1F840F0D0F896F8C0205A49234628
:102D4000386841F050F922461E212846F2E4007905
:102D5000FEF728FD064600283FF402AC4B4F5049D1
:102D6000386841F040F940F0B6F840F0B5F8227903
:102D70004E49386841F037F94FF6FF73B6F8A42F83
:102D800006F580559A4215D195F82631063B012B60
:102D900038D80523424985F82631386841F023F9AF
:102DA00040F099F840F098F895F8C020404938680C
:102DB00041F019F995F82631063B012B22D895F8F8
:102DC000E8300133DBB20A2B85F8E83022D9002144
:102DD0004FF6FF7385F8E8103046A6F8A43F3FF0A1
:102DE00063FD05232E4985F82631386841F0FBF84C
:102DF00040F071F840F070F895F8C0202C49386820
:102E000041F0F1F80123062130460F948DF843304C
:102E10000FAAD2E62249386841F0E5F840F05BF8A5
:102E200040F05AF822792349386841F0DCF89EE5F1
:102E30000079FEF7B7FC054600283FF491AB05F595
:102E4000805393F82631114E063B012B306814490C
:102E500012D941F0C8F840F03EF840F03DF8227930
:102E60001549306841F0BFF80023072128460F9428
:102E70008DF843300FAAA0E641F0B5F840F02BF8EA
:102E800040F02AF822790D4964E500BF0C37002094
:102E90007C4805081C5A0508875A0508A2500508F1
:102EA000C3480508DD500508E85A05082F5B0508EA
:102EB000695B05089C5B0508D85B05080C5C050888
:102EC0001FB50B46032810D8DFE800F002111313DA
:102ED000094C2068616801AA03C2218901AC1180F4
:102EE000128803CC1A811860596004B010BD034CDD
:102EF000EFE7034CEDE700BF2B5E0508D15C05084A
:102F0000DC5C05082DE9F7439DF82C400F46DDE910
:102F10000D969DF828108DF803409DF830408DF8EF
:102F200000208DF801308DF802108DF80440B9F1C1
:102F3000000F50D0002E4ED0022A4ED0032B4ED080
:102F400001284CD0012905D10623A9F800302623F9
:102F500033801FE0012A04D1022904BF00238DF829
:102F60000230DFF88080002445460522694640464D
:102F700043F07BFE38BB04EBC4042B195A799979D2
:102F8000B3F8073042EA0122FF2FA9F800209AB2D5
:102F9000338003D1002003B0BDE8F083B9F80030DE
:102FA000B7EE047A07EE903AF8EEE77A67EE877AA2
:102FB000FCEEE77A17EE903A9BB203F11301B1FBF6
:102FC000F3F31344C4E70134B4F5A27F08F1090810
:102FD000CBD12D20DFE72120DDE70A20DBE70F2022
:102FE000D9E700BFE75C05082DE9F0410446194F19
:102FF0000E46154638686CB9174940F0F4FF3FF0AB
:103000006AFF3FF069FF2A4638681449BDE8F0417D
:1030100040F0E9BF04F580540F49D4F8D88040F05F
:10302000E2FF3FF058FF3FF057FF2B4694F8C020D7
:103030000B49386840F0D7FFB8F1000F07D02A4697
:103040003146434694F8C000BDE8F0411847BDE85A
:10305000F08100BF0C3700207C480508355E05086C
:10306000655E0508F7B500F5805595F825710446AD
:1030700087BB95F8243100F587560C3623B13046CE
:1030800002F0AEFC85F8247100233046009340F630
:10309000B8312346104A02F0C1FC0646B8B10F4FC2
:1030A0000F49386840F09FFF3FF015FF3FF014FFD5
:1030B00095F8C02033460B49386840F094FF3246FB
:1030C0000221204603B0BDE8F040FFF78DBF012389
:1030D00085F8243103B0F0BD852804080C370020A2
:1030E0007C480508925E0508F8B5054600F587504E
:1030F0000C3002F075FC05F580560446B0B10D4F5A
:103100000D49386840F06FFF3FF0E5FE3FF0E4FE08
:1031100096F8C02023460949386840F064FF2246EB
:103120002846BDE8F8400421FFF75EBFA6F8240159
:10313000F8BD00BF0C3700207C480508CD5E0508AF
:1031400070B504460D460F2900F20681DFE811F044
:103150001501100024003400440054006400740081
:1031600084009400A400B400C400D400E400F4007F
:10317000824D8349286840F036FF3FF0ACFE3FF0B7
:10318000ABFE012304F5805494F8C0207D492868E3
:10319000BDE8704040F027BF784D7949286804F5B4
:1031A000805440F020FF3FF096FE3FF095FE022352
:1031B00094F8C0207449EAE7704D7449286804F512
:1031C000805440F010FF3FF086FE3FF085FE032361
:1031D00094F8C0206E49DAE7684D6949286804F51B
:1031E000805440F000FF3FF076FE3FF075FE042370
:1031F00094F8C0206749CAE7604D6149286804F522
:10320000805440F0F0FE3FF066FE3FF065FE05237F
:1032100094F8C0206049BAE7584D5949286804F528
:10322000805440F0E0FE3FF056FE3FF055FE06238E
:1032300094F8C0205949AAE7504D5149286804F52F
:10324000805440F0D0FE3FF046FE3FF045FE07239D
:1032500094F8C02052499AE7484D4949286804F536
:10326000805440F0C0FE3FF036FE3FF035FE0823AC
:1032700094F8C0204B498AE7404D4149286804F53D
:10328000805440F0B0FE3FF026FE3FF025FE0923BB
:1032900094F8C02044497AE7384D3949286804F544
:1032A000805440F0A0FE3FF016FE3FF015FE0A23CA
:1032B00094F8C0203D496AE7304D3149286804F54B
:1032C000805440F090FE3FF006FE3FF005FE0B23D9
:1032D00094F8C02036495AE7284D2949286804F552
:1032E000805440F080FE3FF0F6FD3FF0F5FD0C23EA
:1032F00094F8C0202F494AE7204D2149286804F559
:10330000805440F070FE3FF0E6FD3FF0E5FD0D23F8
:1033100094F8C02028493AE7184D1949286804F55F
:10332000805440F060FE3FF0D6FD3FF0D5FD0E2307
:1033300094F8C02021492AE7104D1149286804F566
:10334000805440F050FE3FF0C6FD3FF0C5FD0F2316
:1033500094F8C0201A491AE7084E0949306804F564
:10336000805440F040FE3FF0B6FD3FF0B5FD2B46E7
:1033700094F8C020134930680AE770BD0C3700206C
:103380007C4805080B5F05083F5F0508C348050832
:103390007A5F0508B95F05080E60050847600508F3
:1033A00084600508C4600508F66005083B610508EF
:1033B00074610508DA61050833620508836205084F
:1033C000DF6205081D6305082DE9F0410646174632
:1033D00098460D46C9B10B68BBB1084633F000FBF7
:1033E000044688B1284D2949286840F0FCFD3FF08B
:1033F00072FD3FF071FD234632462549286840F0B2
:10340000F2FD2046BDE8F081286028462DF058FEE8
:10341000044660B11C4D1D49286840F0E4FD3FF0B2
:103420005AFD3FF059FD234632461A49E6E7414628
:1034300028462DF091FF044660B1134D13492868CA
:1034400040F0D1FD3FF047FD3FF046FD23463246B8
:103450001149D3E77B78002BD3D0284633F0FAFA12
:1034600005460028CDD0084C0849206840F0BBFD37
:103470003FF031FD3FF030FD20682B4632460749D2
:1034800040F0B1FD2C46BCE70C3700207C48050815
:103490004E63050886630508BC630508F9630508E3
:1034A0002DE9F8430E4605461178304699469DF8B9
:1034B00020709DF824802DF051FE044688B12C4EDA
:1034C0002C49306840F08FFD3FF005FD3FF004FDD2
:1034D00023462A462849306840F085FD2046BDE84D
:1034E000F883012F02D0022F18BFFF27B8F1010F78
:1034F00004D0B8F1020F18BF4FF0FF08424639461A
:1035000030462DF03BFE044660B1194E1949306833
:1035100040F069FD3FF0DFFC3FF0DEFC23462A4629
:103520001649D8E7494630462DF04AFE044660B1B8
:103530000F4E1049306840F056FD3FF0CCFC3FF094
:10354000CBFC23462A460E49C5E7304636F066F8DE
:1035500004460028C2D0064E0649306840F043FDBC
:103560003FF0B9FC3FF0B8FC23462A460549B2E7D4
:103570000C3700207C48050831640508696405089B
:10358000AF640508F064050838B5044688B1034601
:10359000014400208B421AD0002213F8014B44FA58
:1035A00002F5ED0702F1010248BF0130082AF6D109
:1035B000F0E7074D0749286840F015FD3FF08BFC08
:1035C0003FF08AFC0449286840F00DFD204638BDD4
:1035D0000C3700207C4805082E6505082DE9F04FC2
:1035E0000446002797B000F5847303930893D0F83E
:1035F000043100F58055ADF8243000F658030493EB
:103600000A93D0F8543812AEADF82C3008AB0E93B4
:103610000AAB0F93431C059310930378ADF84670E3
:103620008DF8443095F828318DF8453000F6AC73AC
:103630000FCB07C6337004F5865608360121304695
:103640000EAA36F077FD804601462046FFF778FD4A
:10365000B8F1000F22D0B8F1030FDFF83C9000F072
:1036600021830B49D9F8000040F0BDFC3FF033FC4A
:103670003FF032FC95F8C02043460649D9F80000D7
:1036800040F0B1FC42463A212046FFF7ADFC6EE225
:103690007C480508726B05080C370020002304F6EF
:1036A000D6773846069307933FF0DDFB95F85E909A
:1036B0004146B9F1FF0918BF4FF0010930464A46AB
:1036C00007AB2EF019F8804601462046FFF738FD7B
:1036D000B8F1000F40F09B814146384604F6DA739A
:1036E00007AA01F0CBFE8346002800F0A281DFF894
:1036F0007C83D949D8F8000040F075FC3FF0EBFB23
:103700003FF0EAFB5B4695F8C020D449D8F80000AA
:1037100040F069FC4FF0000895F85E30FF2B2CD08C
:1037200000210222304607AB2DF0E6FF824601461B
:103730002046FFF705FDBAF1000F40F07D81012121
:10374000384604F6DA7307AA01F098FE824600288C
:1037500000F09C81DFF814B3BF49DBF8000040F0B3
:1037600042FC3FF0B8FB3FF0B7FB534695F8C02052
:10377000BB49DBF8000040F036FC4A46022106ABAC
:1037800030462DF0B9FF824601462046FFF7D8FCAF
:1037900004F58055BAF1000F40F07B8102213846D4
:1037A00004F6DA7306AA01F069FE8246002800F0EA
:1037B0008081DFF8B8B2A849DBF8000040F013FCC4
:1037C0003FF089FB3FF088FB534695F8C020A549A0
:1037D000DBF8000040F007FC95F85E30FF2B2CD0A2
:1037E00002223046114606AB2DF086FF8246014686
:1037F0002046FFF7A5FCBAF1000F40F05D810321E0
:10380000384604F6DA7306AA01F038FE824600282C
:1038100000F06281DFF854B28F49DBF8000040F01D
:10382000E2FB3FF058FB3FF057FB534695F8C020B2
:103830008D49DBF8000040F0D6FB4A46002106AB7C
:1038400030462DF001FD824601462046FFF778FC08
:1038500004F5805BBAF1000F40F041810421384645
:1038600004F6DA7306AA01F009FE8246002800F089
:1038700044817E4D7849286840F0B5FB3FF02BFB32
:103880003FF02AFB53469BF8C0207949286840F056
:10389000AAFB9BF85E30FF2B29D000210222304684
:1038A00006AB2DF0D1FC824601462046FFF748FCCE
:1038B000BAF1000F40F024810521384604F6DA738E
:1038C00006AA01F0DBFD8246002800F02781674D43
:1038D0006149286840F087FB3FF0FDFA3FF0FCFAB1
:1038E00053469BF8C0206349286840F07CFB0323C3
:1038F0008DF83030DBF8733030460CA9CDF831301C
:103900002DF082FC824678B1584D5349286840F02A
:103910006AFB3FF0E0FA3FF0DFFA53469BF8C02025
:103920005549286840F05FFB4A46012106AB304606
:103930002DF0E2FE824601462046FFF701FC04F529
:103940008055BAF1000F40F059810621384604F63F
:10395000DA7306AA01F092FD8246002800F0E180A9
:10396000DFF808B13C49DBF8000040F03CFB3FF0D9
:10397000B2FA3FF0B1FA534695F8C0203F49DBF860
:10398000000040F030FB94F8B92F95F85D30022A22
:1039900033D1022B31D195F89830013B012B2CD833
:1039A00003214A46304606AB2DF0A6FE824601466C
:1039B0002046FFF7C5FBBAF1000F40F03281072126
:1039C000384604F6DA7306AA01F058FD824600284C
:1039D00000F0C580DFF894B01F49DBF8000040F02C
:1039E00002FB3FF078FA3FF077FA534695F8C02093
:1039F0002349DBF8000040F0F6FA95F85D30012B22
:103A000000F0BA80B8F1000F00F0B180ABE0DFF851
:103A10005CB01149DBF8000040F0E5FA3FF05BFADA
:103A20003FF05AFA434695F8C0201649DBF80000EB
:103A30006EE64FF001086FE6DFF830B00649DBF8BC
:103A4000000040F0D0FA3FF046FA3FF045FA534606
:103A500095F8C0200C498CE67C4805087765050878
:103A6000F5650508856605080B6705080C37002015
:103A7000A367050832680508D36805081C690508AE
:103A8000E4690508B66505083D6605084FF00108BC
:103A900073E6DFF8B0B2A849DBF8000040F0A3FA03
:103AA0003FF019FA3FF018FA534695F8C020A349A1
:103AB0008EE64FF001088FE6DFF888B29E49DBF80A
:103AC000000040F090FA3FF006FA3FF005FA534646
:103AD00095F8C0209A49ACE64FF00108ADE6994D43
:103AE0009549286840F07FFA3FF0F5F93FF0F4F986
:103AF00053469BF8C0209449C8E64FF00108C8E639
:103B0000904D8D49286840F06EFA3FF0E4F93FF09F
:103B1000E3F953469BF8C0208C49E5E64FF00108D5
:103B2000E5E6079B8DF830000CA93046CDF8313022
:103B30002DF06AFB824601462046FFF701FBBAF1F1
:103B4000000F42D194F8B92F95F85D30022A08D1C0
:103B5000022B06D195F89830013B012B5ED995F8E0
:103B60005D30012B06D0D5F8D060002E77D117B08C
:103B7000BDE8F08F4FF001084A460121304606AB00
:103B80002DF062FB814601462046FFF7D9FAB9F1D4
:103B9000000F56D10921384604F6DA7306AA01F05F
:103BA0006DFC81460028DED0664E6349306840F0E7
:103BB0001AFA3FF090F93FF08FF94B4695F8C02084
:103BC0006349306840F00FFA1CE7DFF878815A4902
:103BD000D8F8000040F007FA3FF07DF93FF07CF99B
:103BE00053469BF8C0205B49D8F8000040F0FBF931
:103BF00094F8B93F022B9BF85D30A8E7DFF844B199
:103C00004D49DBF8000040F0EEF93FF064F93FF079
:103C100063F9534695F8C0204F49B0E64FF00108CC
:103C2000BEE6DFF820B14449DBF8000040F0DBF9E4
:103C30003FF051F93FF050F9534695F8C0204749FD
:103C4000D7E6404E3C49306840F0CDF93FF043F9AB
:103C50003FF042F94B4695F8C0204149B1E723783F
:103C600004F6DA7285F82C31631CC5F83031D4F8CB
:103C70000431C5F83431039BC5F83831D4F85438D1
:103C8000C5F83C31049BC5F840310023019304F58D
:103C900089530C330093B4F8A41F3B4695F8C00039
:103CA000B04764E795F8C030394630460DAACDE9F3
:103CB0000C778DF830302DF02BFB06460146204660
:103CC000FFF73EFA36BB2749D9F8000040F08BF9E0
:103CD0003FF001F93FF000F995F8C0202249D9F8EA
:103CE000000040F080F9D5F8D43013B131460CA86B
:103CF00098471C49D9F8000040F075F93FF0EBF8FF
:103D00003FF0EAF895F8C0201849D9F8000040F0D3
:103D10006AF92CE70849D9F8000040F064F93FF04F
:103D2000DAF83FF0D9F8334695F8C0201049D9F8B1
:103D3000000040F058F9DCE77C480508C866050833
:103D4000576705080C370020ED67050885680508EA
:103D50005D6A050860690508A5690508236A050804
:103D6000976A0508C3480508CC6A0508436B05082F
:103D7000F96A05082DE9F04F0446CB790A68D0F8B6
:103D8000A80F85B004F5847804F58056EBB111894D
:103D900002F11305C1F30B01A4F8A41F117C86F8EE
:103DA0002811577B92F80EA092F8119010B90421B7
:103DB000C4F80411D4F8041101F5847020440831CA
:103DC000C4F8A80FC4F8041109E0517A02F10C05F7
:103DD00086F82811977992F807A092F80A904FF088
:103DE000000B83F001030093414696F82931D4F883
:103DF000A80F3EF0A3FFD4F8042102F584722244F8
:103E00005FFA8BF34B4529D3A2EB0802012FC4F8CC
:103E10000421274C11D00F2F46D0002F46D0254922
:103E2000206840F0E0F83FF056F83FF055F896F87B
:103E3000C0202149206840F0D6F800251F4920689D
:103E400040F0D1F83FF047F83FF046F81C492068B1
:103E500040F0C9F8284605B0BDE8F08F294611F8B2
:103E6000030BBAF10F0F00F0030002F1010310D1B0
:103E700060F07F0010702278A8786D7804EB020C57
:103E800001328CF801500BF1010B22700D181A460B
:103E9000B6E71070AA781846039142F01BFF03465C
:103EA000AA7803991344E6E70125C7E70225C5E789
:103EB0000C3700207C480508AF6B0508C34805088F
:103EC000DF6B050873B5044650F01AFA05464FF04B
:103ED00035FD0C4E04F580540B49C4F8E000306801
:103EE00040F081F83EF0F7FF3EF0F6FF0095D4F881
:103EF000E03094F8C0200549306840F074F802B012
:103F000070BD00BF0C370020C3480508F16B0508E1
:103F100038B500F580540546002194F86E2094F8D9
:103F2000C00020F0C9FC80B9154D1649286840F042
:103F30005AF83EF0D0FF3EF0CFFF94F8C02012496F
:103F4000286840F050F8042038BD252815D105F523
:103F500087500B4D0C3001F043FD0A49286840F0B2
:103F600042F83EF0B8FF3EF0B7FF94F8C020074992
:103F7000286840F038F80220E6E70920E4E700BFAF
:103F80000C370020C34805082E6C0508746C050822
:103F9000F8B500F58054054694F86E1094F8C0000A
:103FA00020F03EFCD4F8C830254EBBB105F5865054
:103FB000083032F015FD074680B12249306840F0E4
:103FC00012F83EF088FF3EF087FF3B4694F8C02091
:103FD0001D49306840F007F80120F8BD41F2441255
:103FE0000021284642F06BFE184930683FF0FBFF85
:103FF0003EF071FF3EF070FF94F8C0201449306825
:104000003FF0F1FFFF2384F8C0304FF0FF33C4F8D6
:10401000A8301723A4F8BA30B4F8A43040F24A729A
:1040200003F0F00343F48673A4F8A430002405F6EB
:1040300058002146C5F8544842F041FE2046CCE7DE
:104040000C3700207C480508AA6C0508C348050801
:10405000E46C05082DE9F0430F46904606468FB004
:10406000B8B9B84CB84920683FF0BDFF3EF033FF07
:104070003EF032FFFF22B54920683FF0B4FF222214
:1040800035213046FEF7B0FF222528460FB0BDE8A7
:10409000F0830A2900F5805421D1AA4D00F58750FC
:1040A0000C3001F09DFCA84928683FF09CFF3EF0D1
:1040B00012FF3EF011FF94F8C020A54928683FF098
:1040C00092FF092384F826313046D8F8042098F866
:1040D0000010FEF789FF0025C7E017469846092F14
:1040E0004FF0010540F0C180002194F86E2094F853
:1040F000C00020F0E1FB054690B9924D9549286833
:104100003FF071FF3EF0E7FE3EF0E6FE286894F8CF
:10411000C02091493FF067FF082584F8265138E216
:1041200041F20C03984205D041F21203984201D0AB
:1041300025281BD106F587500C3001F051FC304684
:10414000FFF726FF0546002840F00A837D4E81498F
:1041500030683FF048FF3EF0BEFE3EF0BDFE94F8F2
:10416000C0207E4930683FF03EFFD6E7DFF8D481BB
:104170007549D8F800003FF036FF3EF0ACFE3EF047
:10418000ABFE2B4694F8C0207549D8F800003FF0EC
:104190002AFF232384F826718DF82C300C9586E0B5
:1041A000002F7FF472AF674D6A4928683FF01BFF0C
:1041B0003EF091FE3EF090FE94F8C02069492868D8
:1041C0003FF011FF012384F82631E2E1012F7FF453
:1041D0005CAF98F80030002B62D05A4F5D493868C8
:1041E0003FF001FF3EF077FE3EF076FE94F8C020EF
:1041F0005D4938683FF0F7FE022294F8A530A4F834
:104200002621002B3FF469AF40F24A7194F8C000B8
:1042100006F658023EF0A6FB0546A0B14A493868AA
:104220003FF0E1FE3EF057FE3EF056FE94F8C0200F
:104230004E492B4638683FF0D6FE2A460F213046BD
:10424000FEF7D2FE21E7434938683FF0CCFE3EF04E
:1042500042FE3EF041FE94F8C020454938683FF0E8
:10426000C2FE4FF000080227012594F82631082BE2
:104270003FF60BAF01A252F823F000BFA1410008A6
:10428000CD410008B54200087D430008FD46000806
:104290004F450008DD460008F34600084347000884
:1042A000092384F8263136230C978DF82C300A2107
:1042B0000BAAE2E1022F7FF4E8AE94F8C53043B9CF
:1042C000092384F826312C238DF82C3001230C93FC
:1042D000EDE7012194F86E2094F8C00020F0ECFA8C
:1042E00040BB009006F58750334640F6B831214A6E
:1042F0000C3001F093FB0546B8B9124E012194F839
:10430000C00000F0B1FB134930683FF06CFE3EF096
:10431000E2FD3EF0E1FD94F8C020174930683FF01F
:1043200062FE032384F82631AFE6092384F82631A0
:10433000212331E7092384F8263120230C908DF8BE
:104340002C30B4E70C3700207C480508076D0508C1
:104350003F6D0508C34805086B6D05089A6D050893
:10436000CE6D0508096E0508746C0508195305081B
:10437000346E0508212904086D6E0508042F7FF4AA
:1043800084AED8F80030C54F5D88002D60D14FF065
:10439000B7FF81464FF0D2FAD8F80030C4F8DC00FD
:1043A000D3F80720BE49C6F8AC2FDA7A386886F809
:1043B000B02F9A89A6F8B12FDA89A6F8B32F1A8AF6
:1043C000A6F8B52F5B8AA6F8B73F3FF00CFE3EF08B
:1043D00082FD3EF081FD94F8C020B24938683FF07C
:1043E00002FEAF4938683FF0FEFD3EF074FD3EF03E
:1043F00073FDB6F8B73FAC490693B6F8B53F0593E1
:10440000B6F8B33F049396F8B03F0393B6F8B13FC4
:104410000293D6F8AC3FCDE90093D4F8DC3094F8A1
:10442000C02038683FF0DFFD9D4938683FF0DBFD74
:104430003EF051FD3EF050FD9C4994F8C020386894
:104440003FF0D1FD294630463EF02EFA052369E7BC
:10445000974938683FF0C7FD3EF03DFD3EF03CFD1A
:10446000D8F8003094F8C0205B88924938683FF053
:10447000BAFD94F827310133DBB2022B84F82731DF
:104480005BD88B4938683FF0AEFD3EF024FD3EF02E
:1044900023FD94F8C020884938683FF0A4FD94F8C3
:1044A0009630099394F89530089394F86F300793F9
:1044B00094F97130069394F85B30059394F8683062
:1044C0000493D4F87B300393D4F877300293B4F894
:1044D00089300193B4F885300093B4F88330B4F890
:1044E000872094F86E1094F8C00020F0ADF90546CE
:1044F00088B16F4938683FF076FD3EF0ECFC3EF045
:10450000EBFC94F8C0206D492B4638683FF06BFDFA
:104510002A461E2193E6624938683FF064FD3EF06A
:10452000DAFC3EF0D9FC94F8C020654938683FF0C9
:104530005AFD022384F8263193E606F587500C30A5
:1045400001F04EFA092384F826311F23BCE6082F18
:1045500063D198F80B50F5B9B4F8893043B13046BF
:10456000FFF7D6FC092884F8260112D1242313E68C
:104570004A4D4B4928683FF036FD3EF0ACFC3EF01A
:10458000ABFCB8F8083094F8C0204E4928683FF0DA
:104590002AFD002579E598F80A30012B2AD13F4DF4
:1045A000B4F8897028683E4987B13FF01CFD3EF0A1
:1045B00092FC3EF091FC94F8C020434928683FF0FB
:1045C00012FD072384F8263101255EE53FF00BFD3F
:1045D0003EF081FC3EF080FC94F8C0203B49286806
:1045E0003FF001FD05233946304684F826313EF080
:1045F0005BF9CEE7022BE7D1284D294928683FF027
:10460000F2FC3EF068FC3EF067FC94F8C0203049B4
:1046100028683FF0E8FC0623D5E5063F012F3FF66A
:1046200034AD41463046FFF7A5FB054600283FF470
:104630000DAF1A4F012D3868194923D13FF0D3FC33
:104640003EF049FC3EF048FCB6F8A43F94F8C02088
:10465000204938683FF0C7FC012308218DF8373026
:10466000B6F8A43F8DF83650ADF8343006F58473B3
:104670000B93D6F804310BAA0C933046FFF7EAFCF3
:10468000054602E53FF0AFFC3EF025FC3EF024FC81
:10469000B6F8A43F94F8C0200F49DAE70C370020A1
:1046A000C3480508B26E0508F06E0508695B050889
:1046B0007C480508B06F0508FF6F0508E85A050833
:1046C000746C05084670050899700508E0700508C7
:1046D000237105086B7105089F710508082F7FF489
:1046E000D4AC0122414630460FB0BDE8F04300F0A3
:1046F00063B8082F7FF4C9AC0022F3E7042F7FF4DE
:10470000C4ACD8F800301B79002B7FF442AF3046A0
:10471000FFF7D8FBD8F80030224D5B8833BB06F595
:1047200087500C3001F05CF91F4928683FF05BFCB2
:104730003EF0D1FB3EF0D0FB94F8C0201B49286826
:10474000F5E6042F7FF4A1ACD8F800301A79002ADE
:104750007FF41FAF5B8843B93046FFF7B3FBEEE44D
:10476000092384F82631382316E50E4D10492868B0
:104770003FF039FC3EF0AFFB3EF0AEFBD8F8003026
:1047800094F8C0205B880B4928683FF02CFC092373
:1047900084F8263123238DF82C30D8F800305B883C
:1047A00095E500BF0C370020C3480508746C050868
:1047B0007C480508D47105082DE9F043CE7A0446FB
:1047C0000F46914687B000F5805566B3B5F889303D
:1047D000A3B1FFF79DFB092885F8260121D12423E9
:1047E0008DF80C30002304930A21204603AAFFF71A
:1047F00031FC0646304607B0BDE8F0835B4E5C49AD
:1048000030683FF0F0FB3EF066FB3EF065FBB4F82D
:10481000A43F584900933B8995F8C02030683FF089
:10482000E2FB0026E6E70A89B0F8A43F9A421ED0D0
:10483000B5F8893053B1FFF76BFB092885F82601DD
:10484000EFD1242304968DF80C30CDE7474E48492C
:1048500030683FF0C8FB3EF03EFB3EF03DFBB4F855
:10486000A43F454900933B8995F8C020D6E700F561
:1048700087500C3001F0B4F858B1092385F826317F
:10488000222304900A21204603AA8DF80C30FFF75A
:10489000E1FBDFF8D880B5F88930D8F8000034495A
:1048A000A3B33FF0A0FB3EF016FB3EF015FB95F8DE
:1048B000C0203249D8F800003FF095FB02210022C9
:1048C000204685F82611FFF7C5FBBB7A0646022B6A
:1048D0000AD1B9F1000F07D02046FEF77FFE002174
:1048E00020463DF0E1FF85E72149D8F800003FF080
:1048F0007AFB3EF0F0FA3EF0EFFA3B8995F8C020E3
:104900001F49D8F800003FF06EFBE8E73FF06BFB73
:104910003EF0E1FA3EF0E0FA95F8C0201949D8F8E7
:1049200000003FF060FB052385F82631BB7A022B9F
:104930000AD1B9F1000F07D02046FEF74FFE002143
:1049400020463DF0B1FF6CE70949D8F800003FF080
:104950004AFB3EF0C0FA3EF0BFFA3B8995F8C02012
:104960000749D8F800003FF03EFBE8E70C3700208D
:10497000C34805082272050877720508746C05089B
:10498000CB720508695B050808B5074B4FF4467202
:104990000021184642F093F9FF22827680F8222106
:1049A00080F82A2208BD00BFA80D00200B4B9A7E7C
:1049B00082420DD093F8222182420BD093F82A2212
:1049C000824209D102224FF4847101FB0230704708
:1049D0000022F8E70122F6E700207047A80D00202A
:1049E000FF282DE9F04107460E46904632D099B394
:1049F000A2F11703E32B31D84FF6FF730C889C42CA
:104A00002CD08A889A4229D0CA889A4226D00A890C
:104A10009A4223D0FF20FFF7C9FF054600B3214685
:104A2000384619F07FFD044688B94FF48472014678
:104A3000284642F044F90B4BAF761A689B88C5F8BC
:104A400006206B8101236E61A5F818802B7020462B
:104A5000BDE8F0812524FAE72224F8E72124F6E7CF
:104A60001924F4E7F9720508FF2837B50C4625D05C
:104A7000FFF79CFF054618B34CB9983000F0B0FF23
:104A800005F1600000F0ACFF204603B030BD0378B4
:104A9000052B03D0082B0AD00220F6E7002341F2B1
:104AA0008831084A0093983000F0B8FFEDE7002302
:104AB00041F28831044A00936030F5E72520E4E7AD
:104AC0002D20E2E71D2C0408D72B0408174B984231
:104AD00007D003F13802904203D003F170029042F4
:104AE0000AD1002300E001234FF48472104802FB36
:104AF000030070470223F7E703F584729042F2D077
:104B000003F5A0729042EED003F5BC729042EAD059
:104B100003F504729042EDD003F512729042E9D091
:104B200003F520739842E5D000207047080E00205E
:104B3000A80D002013B590F82A00FFF737FF68B1E1
:104B400000F16004204600F04BFF00234FF47A711F
:104B5000009320460123024A00F060FF02B010BD1E
:104B6000D72B040870B5054600F07CFB06462846A6
:104B700000F064F92B68A94A23F47F43064023F030
:104B8000070386F001069342F6B200F0B2800BD81C
:104B900002F17A42934200F0A08002F57D02934236
:104BA00020D086F0010070BD9D4A9342F9D128794A
:104BB000FFF7FCFE04460028F3D0EB790B2B3DD128
:104BC0004269B5F805301188994221D16B89042BCF
:104BD00006D10378012B03D1EA6880F82030C26146
:104BE000012321E0A879FFF7E1FE04460028D8D090
:104BF000D03000F0F5FE04F1600000F0F1FE04F1A9
:104C0000980000F0EDFE00232370FF23A376C8E791
:104C1000D18899420AD1AD89983000F0E1FE294649
:104C2000A07E3DF0D6FF00231E43BAE712899A42C8
:104C3000F9D1A989807E3DF0CDFFF4E71B2B01D08F
:104C40001D2BAED16169B5F8052048899042C7D0C7
:104C500048889042C4D0C888904202D009899142C5
:104C6000E1D11D2B02D1A07E19F04CFC6B89022BE7
:104C7000B6D16269B5F80530D1888B4208D0128967
:104C80009A420ED0AD892946A07E3DF0A3FFA7E74A
:104C9000E8791D2817D1E07B0228A1D112899A4218
:104CA00005D1EA791D2A13D1227C022A98D18B42A0
:104CB000AD89E8D104F1980000F092FE2946A07E6B
:104CC0003DF087FF8CE71B28E8D1E07B0128E4E773
:104CD0001B2AECD1227C012AE8E72879FFF766FE3F
:104CE00000283FF45EAF6B79AA7943EA022303837D
:104CF00057E72879FFF75AFE044600283FF451AFE2
:104D0000B5F80520037862B3092B8CD8012101FA8C
:104D100003F010F4127F0AD110F090001BD18B42E7
:104D200081D12070E169A07EFDF7F2F958E70023F8
:104D300084F82230A384A378052B05D102212370A7
:104D4000A07EFDF785FA4BE7012B7FF449AF0823DE
:104D500003212370F4E70223A07E2370FDF778FA85
:104D600061E7013B082B3FF65EAF01A252F823F04A
:104D7000954D0008274C0008C34D0008FB4D000866
:104D8000274C0008E14D00082B4E0008274C000876
:104D9000B14D000894F82030807EE1692BB10223E8
:104DA00000222370FDF7B4F93DE701222370F9E7F3
:104DB0008378827C03441A7302230022037001214A
:104DC000BEE78378827C03441A7340F20253438027
:104DD00020463DF0BDFD024620BB04232370FFE6C4
:104DE0008378827C03441A7340F2011343803DF0C0
:104DF000AFFD0246B0B90723F0E78378817CC21883
:104E00001173C2789A4205D10022052380F822202E
:104E1000828493E701338370DAE700BFA0000906BC
:104E2000A000090702232370C9E78378827C03442A
:104E30001A73002280F82220828488E7F0B5036884
:104E4000954A23F47F4323F007039342054691B02C
:104E500004D0002080F0010011B0F0BD0079FFF710
:104E6000A5FD04460028F4D0EB791D2BF1D1436950
:104E7000B5F805209B889A42EBD16B89012B04D8A9
:104E8000A07E19F03FFB0120E4E72A7B012A4CD0E9
:104E9000022A00F08F80002AF2D1032BF0D1037890
:104EA000B5F80D50052BEBD190F82230002BE7D050
:104EB00090F82170002FE3D1838CAB42E0D1D03049
:104EC00000F08EFD04F1280604F1600000F088FD7A
:104ED000304600F0A5F9304684F822700AA93DF06A
:104EE00007FF034600B90A9BDDF83920DDF83510CD
:104EF000A07ECDE908129DF8342007929DF833205A
:104F00000692DDF82F2005929DF82E2004929DF840
:104F10002D2003929DF82C20CDE901520122009210
:104F200000220021FDF73EFAAAE7052BA8D103785D
:104F3000052BA5D190F82230002BA1D090F821307C
:104F4000022B9DD1B5F80D20838C9A4298D1D03098
:104F500000F046FD04F1280604F1600000F040FD79
:104F6000304600F05DF90023304684F822300AA96B
:104F70003DF0BEFE034600B90A9BDDF83920DDF89E
:104F80003510A07ECDE908129DF8342007929DF8D7
:104F900033200692DDF82F2005929DF82E200492F2
:104FA0002A7C0392EA7B0292B5F80D20019201223D
:104FB0000092B6E7022B7FF463AF90F822306D7B4E
:104FC000002B3FF45DAFD03000F00AFD94F82330A1
:104FD000BBB1012D06D104F1600000F001FD0023FA
:104FE00084F822300026A07E32462B46032184F826
:104FF00023603DF071FE2A463146A07E3DF06EFEF4
:105000003EE7002394F8211084F82230012901D0D2
:10501000042904D12B460022A07E3DF05DFE94F8C9
:105020002130012B31D013F0FD0F7FF429AF04F1B3
:105030002806304600F0F4F830460AA93DF058FE44
:10504000034600B90A9BDDF83910DDF8356094F8A5
:105050002120A07ECDE908619DF8341007919DF8CC
:1050600033100691DDF82F1005919DF82E10049154
:105070009DF82D1003919DF82C100291A18CCDE983
:105080000051911E4A424A414BE72A460021A07E28
:105090003DF023FEF4E600BFA000090738B5002468
:1050A00005464FF031F8074B1B681BB94FF027F846
:1050B000204638BD93F82A20AA4208BF1C461B6828
:1050C000F3E700BF083700202DE970430446164679
:1050D0000D46037B86B023F0180343F01003816173
:1050E000037301460D483DF0EAFED4E90489217BB3
:1050F000CDE90489227981F00403C1F340010191D3
:105100000292226B2946009220463246C3F3800366
:105110003DF0B2FD06B0BDE8708300BF0837002047
:105120002DE9F0410C4690461E46054686B0002803
:105130006FD000296DD04B68002B6AD0002A68D050
:105140008B7BFF2B67D00A7C4FF6FF73002A52D06F
:10515000B8F802209A425ED02368002B57D0A3896A
:10516000173B9BB2E32B52D84EF0CEFF07462B4B9A
:105170001B68002B42D1A07BFFF790FF00283FD196
:1051800001AB04F1100C1A4620686168083403C2B0
:1051900064451346F7D12068002110603822284664
:1051A00041F08DFD01AC05F11C030DF1140C2246FC
:1051B00003CA624518605960144603F10803F6D12A
:1051C000106818609DF8303085F82460EB842B7BE4
:1051D000C5F8348043F008032B73AE800EB1731E04
:1051E0009EB229460D48EE803DF05AFE38464EF0FC
:1051F00086FF002008E0B8F80A20ABE79D42B7D14F
:1052000038464EF07CFF2E2006B0BDE8F08121200C
:10521000FAE72220F8E72520F6E700BF083700204C
:1052200070B50546C8B14EF06FFF06460C4B1B68C3
:105230002BB92D2430464EF062FF204670BD9D42B2
:10524000F5D12C7B14F0100405D10622012128464B
:10525000FFF73AFFEEE70224ECE72224EDE700BF78
:10526000083700200368764A23F47F4323F00703BE
:1052700093422DE9F04705461BD002F1C06202F5CA
:10528000403293421BD002F1794293420CD1007913
:10529000FFF704FF40B1B5F80520038D9A4203D013
:1052A00013220221FFF710FF002080F00100BDE86B
:1052B000F0878079FFF7F2FE0028F1D1F4E7C37997
:1052C0001D2B01D01B2BEFD12879FFF7E7FE0446F9
:1052D0000028E9D090F82B20EB79F2B91D2BE3D010
:1052E00094F82C00B5F80520616BC0B14988914253
:1052F000DAD11D2B02D1287919F004F96A89D2B2CA
:10530000012A03D9208DC31E93420AD22B220221E7
:105310002046FFF7D9FE0120C7E71B2BDFE74989AD
:10532000E5E7297B94F824C0CF074FEA910301F009
:1053300002061BD5A380237B43F001032373A388BC
:1053400026B1217B238141F0020121739C4564D861
:10535000E18CFF2901D099425FD304385843E169B9
:10536000013A83188B4251D91D22D0E7277BF907D8
:105370001BD4E6464FF0010947F001072773A380CD
:105380005FFA8EF1994203D361890B446381D6E7BA
:1053900009FA0EF8D4E9047147EA080741EAE8710E
:1053A000C4E904710EF1010EEAE7B4F806E0A3EBDC
:1053B0000E0101F03F0101390EF101095FFA81F898
:1053C00059FA81F189B23F2984BF47F00407277356
:1053D000A180217B490705D44FF0010A013BDBB2D4
:1053E0009E4501D34346CFE763450CD3E18C9942F8
:1053F00009D3D4E904710AFA03F947EA090741EA33
:10540000E971C4E90471013BDBB2E9E72363236A74
:1054100005F10D01184441F05DFC2046A188FFF71D
:1054200089FBA288E38CE2809A4205D0002E3FF4EB
:1054300072AFFF2B7FF46FAF0022114668E700BF09
:10544000A0000601092838B504460FD9084D0949BE
:1054500028683EF0C8FD3DF03EFD3DF03DFD224692
:10546000054928683EF0BFFD002038BD0420FCE758
:105470000C3700207C480508FF7205082DE9F34130
:10548000044690F8028008460D4617461E46FFF770
:10549000D9FF4044013080281DD9284E2849306862
:1054A0003EF0A1FD3DF017FD3DF016FD28463668A3
:1054B000A478FFF7C7FF0134031980221C2430466B
:1054C000CDE900241F492A46DBB23EF08CFD204680
:1054D00002B0BDE8F0816378AB4212D92626174F9F
:1054E000174938683EF07FFD3DF0F5FC3DF0F4FCD7
:1054F00000962A466378144938683EF074FD3046B9
:10550000E6E7A3782846F554A37801331E44FFF755
:1055100099FF39460246304641F0DCFB284665706B
:10552000FFF790FFA378013318442378C0B201330A
:10553000A070E07023700020CAE700BF0C37002085
:105540007C4805081A730508837305082DE9F047A0
:105550009946C37804460E46174633BB304D314951
:1055600028683EF040FD3DF0B6FC3DF0B5FC1B2345
:1055700032462D4928683EF036FD4FF01B0863780F
:10558000092B10D9264D274928683EF02CFD3DF007
:10559000A2FC3DF0A1FC26233246244928683EF0B7
:1055A00022FD4FF02608002525E04FF00008E6E731
:1055B00017F805A05046FFF745FF5645024617D19C
:1055C000691C4846394441F085FB2378012B04D9F6
:1055D000013B23704046BDE8F08700213846E27861
:1055E00041F06DFB002323706370A370E370F1E75B
:1055F00001321544EDB2E378AB42D9D8084C0949E1
:1056000020683EF0F0FC3DF066FC3DF065FC324663
:10561000074920683EF0E7FC4FF00108DAE700BFD9
:105620000C3700207C480508DF730508197405084D
:1056300039740508F8B50C460F4D104F8E18B4425A
:1056400001D1002014E0296814F8013B7B540A2B97
:1056500001F10101296001D0F729F0D13846FBF7AB
:10566000FFFB30B12B68834203D0012331202B6034
:10567000F8BD01232B60E2E7B89A0020509E00207D
:105680002DE9F047534E96B0354609AC0FCD0FC407
:105690002B6806F1140523600EAC0FCD0FC495E8FE
:1056A0000F00DFF8488184E80F004B484EF037FDCB
:1056B00040464EF034FD4FF48073484FADF83C3017
:1056C000474B38460B9309A90EAB0D9303F0BAFE76
:1056D00004210225B6F834A00DEB01000122ADF83B
:1056E00004A03DF0CCFCB6F836900022012102A8BF
:1056F000ADF808903DF0C3FC368F0122042103A8C9
:10570000ADF80C603DF0BBFC0122042104A8354C2F
:10571000ADF810503DF0B3FC334B4FF44870C4F873
:10572000C8344FF00213C4F8C43403F58033C4F80E
:10573000CC341C23C4F8B43405F076FE08A8ADF8C8
:10574000205000F06FFB142005F06EFE08A8ADF8A5
:10575000205000F057FB232005F066FE08A8ADF8A6
:10576000205000F05FFBB92138463EF009FB08A845
:10577000ADF8205000F046FB002205A81146ADF818
:1057800014A03DF07CFC002206A81146ADF818904C
:105790003DF075FC0122002107A8ADF81C603DF02A
:1057A0006EFC0122002108A8ADF820503DF067FCF6
:1057B000384603F081FC00234046C4F8B434C4F8F2
:1057C000C834C4F8C434C4F8CC344EF0ABFC16B0C2
:1057D000BDE8F08758740508DC76050800000A501B
:1057E000E070720000C0035002000100E07605087E
:1057F00008B504484EF093FC41F03BF9BDE8084081
:10580000FFF73EBFDC76050801484EF088BC00BFBC
:10581000DC7605080348044A0449121A92103DF048
:105820002BBB00BF8001000840030008E098002067
:1058300008B5154B83F30A8800F030F8FFF7EAFF4C
:10584000124B13498B4212D30020124B12498B4248
:1058500018D3FBF783FA186850F82240586840F8CC
:105860002240013298688242F5D30C33EAE70022E5
:10587000F8E71C6844F8220001325C68A242F8D3C1
:105880000833E4E70022F8E7000000209C16060831
:10589000A8160608A8160608A81606084FF48041A0
:1058A000124B134A70B59A60D3F88820114D42F418
:1058B0007002C3F88820104A05F5005491664FF035
:1058C000FF3222660D4A62660222C3F8D020BFF37F
:1058D0004F8FBFF36F8F4FF44036002004F022FD4E
:1058E0000020E66004F002FD2E6170BD00ED00E0D6
:1058F000000000080080004400900050F7FF3700CF
:10590000014B1860704700BFC09A0020054B18601B
:10591000054B1B6F03F00703032B01D14DF06EB94C
:10592000704700BFC89A00200080005018B1034B98
:105930001860002070472220704700BF0C370020FD
:1059400008B504F009FD014B186008BD0C370020B4
:10595000024B034918683EF046BB00BF0C370020DD
:105960009274050870B50C4C0C49064620683EF050
:105970003AFB04F0F1FC0546206804F0E1FC3046F7
:10598000FFF7E6FF284604F0DBFC20680449BDE889
:1059900070403EF028BB00BF0C370020947405080F
:1059A0009674050838B505464EF0AEFB00230B4A49
:1059B00014685CB1AC4206D1A96A6BB199624EF031
:1059C0009EFB012007E02346A46AF2E7002DF3D0F6
:1059D0004EF095FB204638BD1160F0E710370020EF
:1059E00010B50446B0B14DF0EDFE2046FFF7DAFFEA
:1059F00010B194F82C300BB9002010BD064C236870
:105A0000002BF9D04EF080FB2368013B23604EF061
:105A100076FBF1E72220F0E7143700202DE9F04370
:105A200085B00546914698460E469DF8307009B9F6
:105A3000002F5CD12846FFF7D3FF0446002836D15B
:105A400085F82C00686305F081FC864233D94DF05F
:105A500051FF2146844640F2E7304FF47A7200232A
:105A6000E6FB0C010BF09EFB4FF0FF3200230BF026
:105A700099FB2B46E88611462846CDE900441D4A8D
:105A80004EF019FC044690B9C5E9089885F82D70C8
:105A90002E634EF039FB184A136833B31A469B6ADB
:105AA000002BFBD195620023AB624EF028FB204611
:105AB00005B0BDE8F08347B12B4631462846CDE915
:105AC00000440C4A4DF09AFFDCE7304603A94DF044
:105AD00017FF04460028EAD12B462846CDE9007777
:105AE000044A03994EF0C3FBCCE71560DBE72124A1
