S02B00002F55736572732F6368656E6771692F53696D706C696369747953747564696F2F76365F776F726B7347
S31508000000A80D00204D580008BF2C0408BF2C040872
S31508000010D1480408BF2C0408BF2C0408BF2C0408C8
S31508000020BF2C0408BF2C0408BF2C0408BF2C0408E6
S31508000030BF2C0408BF2C04081D260408BF2C04087E
S31508000040BF2C0408BF2C0408BF2C0408BF2C0408C6
S31508000050BF2C0408BF2C0408BF2C0408BF2C0408B6
S31508000060BF2C0408BF2C0408BF2C0408C9FF0008CD
S3150800007073690408BF2C0408BF2C0408BF2C0408A5
S31508000080BF2C0408BF2C0408BF2C0408BF2C040886
S31508000090BF2C0408B5630008BF2C0408BF2C04084D
S315080000A0BF2C0408C15F0008A15F0008BF2C040824
S315080000B0BF2C040819E10208EDE902088F1A0508A1
S315080000C08B1A050861E10208A51A0508931A05089E
S315080000D0BDE90208971A05082DEA020895EA0208FA
S315080000E0BF2C0408BF2C0408BF2C0408BF2C040826
S315080000F0B33D0408BF2C0408BF2C0408BF2C040811
S31508000100BF2C0408BF2C0408BF2C0408BF2C040805
S31508000110BF2C0408BF2C0408BF2C0408BF2C0408F5
S31508000120BF2C0408BF2C0408BF2C0408BF2C0408E5
S31508000130BF2C0408BF2C0408BF2C0408BF2C0408D5
S31508000140BF2C0408BF2C0408BF2C0408FD3F050873
S315080001502DCB0208BF2C0408791A05087F1A050852
S31508000160BF2C0408BF2C0408BF2C0408BF2C0408A5
S31508000180F0B5114A114C124E00F00105E3695F07FC
S3150800019013D40DB9334213D103EA00078F4207D1AE
S315080001A00B4A1A40002A0CBF00206FF00100F0BD70
S315080001B0013AEBD16FF00200F9E74FF0FF30F6E7AE
S315080001C06FF00100F3E700BF809698000000035027
S315080001D0020001000B4B70B5D96911F480310DD1BD
S315080001E001244FF48072084E084DF46020462C64B2
S315080001F01A61FFF7C5FF3464EC6070BD6FF001004B
S31508000200FBE700BF00000350001003500020035016
S315080002104FF4803238B50E4B0E4C9A66E56941F6B6
S31508000220713315400122E3630B4B0021DA60022388
S31508000230606121202361FFF7A3FF10B92120FFF792
S315080002409FFF0122054BDA600DB10023E36338BD39
S315080002500090005000000350001003500020035087
S3150800026070B5134C6061E3695B071ED40E4656F8F9
S31508000270043B8D18A361AE420BD104230021212033
S315080002802361FFF77DFF58B9BDE870402120FFF7CD
S3150800029077BF08210846FFF773FF10B104232361CF
S315080002A070BD56F8043BA361E5E74FF0FF30F7E76A
S315080002B0000003502DE9F84315464FF48032184BD9
S315080002C089469A6603F51C33DF690646174041F6E8
S315080002D07132DA63012203F58053DFF84C80DA6065
S315080002E055B9284601220F4BDA601FB10022A3F543
S315080002F00053DA63BDE8F88306F5005404EA0804F7
S31508000300A41BAC4228BF2C46494622463046FFF776
S31508000310A7FF0028E6D12644A1442D1BE0E700BF2D
S31508000320009000500020035000E0FFFF000000008E
S3150800033000000000000000000000000000000000AF
S31508000340013800D0FCE770472DE9F04F93B0CDE9AE
S315080003500A32DDE91C530E9353EC102BCDE9080144
S31508000360104619468DED060B1E9E10F0DBFD80B17A
S31508000370DDE906014FF0FF32C54B10F0FBFD40B931
S31508000380DDE906014FF0FF326FF4801310F0D4FD5B
S3150800039070B1DDE908019DED060B0E9B1E96CDE9B1
S315080003A01C53DDE90A3213B0BDE8F04F00F088B9F6
S315080003B00022DDE90601002310F0BEFD002800F04A
S315080003C03381DDE906A303F1004BCBF30A5016F49B
S315080003D08063A0F2FF3008BF06250F9310F0D0FA0D
S315080003E09BA3D3E9002310F035FB9BA3D3E9002395
S315080003F010F07AF9CBF31304894644F07F5180460E
S315080004000022A44B504641F4401110F06BF994A316
S31508000410D3E9002310F01EFB02460B464046494628
S3150800042010F062F910F0B0FD044610F0A9FA8EA398
S31508000430D3E900238046894610F00CFB0022964B30
S3150800044010F052F910F0A0FD89A3D3E9002307465E
S315080004504946404610F0FEFA80463846894610F06E
S315080004608FFA85A3D3E9002310F0F4FA02460B4667
S315080004704046494610F036F902460B46CDE90C23AC
S3150800048010F0E8FADDE90C2380468946104619463D
S3150800049010F02AF90022CDE91001804B4046494662
S315080004A010F002FC00227E4B10F01EF902460B46A5
S315080004B04046494610F0F8FB00227A4B10F014F932
S315080004C002460B464046494610F0EEFBDDE90C2392
S315080004D08046894600204FF0804110F003F9024615
S315080004E00B464046494610F0FFF802460B46DDE942
S315080004F0100110F0D9FB07F2FF3700226A4B10F003
S31508000500F3F800223B0510F0A5FA52465B468046F2
S31508000510894610F02FFD002840F08980CDE90C8926
S3150800052004F16303C72B34BF0427052731051BD500
S3150800053053A3D3E900235046594610F011FD00286D
S315080005407FD051A3D3E900235046594610F0F4FC56
S31508000550002876D00027A542C6BF2C1B04F1FF351C
S3150800056000253C4646F480660E9B9F422CBF4FF002
S315080005700008A3EB070816F0020903D0002F18BFDE
S315080005804FF000083CB1DDE90C235046594610F0FF
S315080005908BFB82468B46DDE906010022002310F01C
S315080005A0CBFC10B10BF100439B46DDE9080126F4AC
S315080005B00063CDE90183DDE90A324BEC10AB009507
S315080005C000F07EF802465FB3DDE9091316F0200F46
S315080005D000F10105089E0CBF65204520B047DDE9FE
S315080005E008010523002205930A23002CCDE90232CF
S315080005F007F1FF374FEAD473B8BF64422A4601931E
S3150800060004970A9B009444F0B5FA0246B9F1000F24
S3150800061006D00B9BC41A0B9B1A190E9BA34245D8EE
S31508000620104613B0BDE8F08FDDE906ABCDE6002233
S31508000630404649461A4B10F037FB013CCDE90C0100
S315080006406EE7002D90D00F9B002B8DD0013D8BE7D8
S31508000650FB799F501344D33FB3C8608B288AC63FA3
S3150800066061436F63A787D23F71A379094F930A4005
S315080006701655B5BBB16B0240EF39FAFE422EE63F7E
S315080006802D431CEBE2361A3F0000000080842E4101
S31508000690FFFFEF7F0000F83F0000E03F00002C401E
S315080006A000002440000018400000F03F2020DDE94B
S315080006B00913089DA8470134ADE700BF00000000F4
S315080006C02DE9F04F5BEC10AB97B0CDE90501DDE9FC
S315080006D02057CDE90723504652465B465946229E87
S315080006E010F020FC70B90323CDE902760193B04BD4
S315080006F00093DDE90501DDE9072344F05BF917B04E
S31508000700BDE8F08F4FF0FF326FF48013504659461C
S3150800071010F012FC28B10423CDE902760193A54B0B
S31508000720E6E74FF0FF3250465946A34B10F022FC3D
S3150800073068B1A24A06F00403002B08BF0322A04BA7
S315080007401CBF13460422CDE902760192D0E7504633
S3150800075093A3D3E90023594610F00CFC38B992A3A9
S31508000760D3E900235046594610F0E6FB68B1DDE9A7
S315080007700723DDE905014BEC10ABCDE92176209581
S3150800078017B0BDE8F04FFFF7DFBD00220023504643
S31508000790594610F0D1FB002800F09A805B46524675
S315080007A0002000210FF09EFF012382468B46099305
S315080007B016F4806400F08E80092D40F28E800024A5
S315080007C030210EABA5F109020134202C03F8011BD8
S315080007D0A5EB040901D09442F6D15946504610F0CB
S315080007E0D3FB784B054603EBC90393ED007B8DEDF0
S315080007F00A7B10F0C5F802460B46504659460FF0DC
S3150800080071FFDDE90A2310F025F902460B46CDE90A
S315080008100C2310F0E1FB804610F0A2F802460B46C6
S31508000820DDE90C010FF05EFF02460B46CDE90C230D
S315080008300022654B10F09EFB002851D008F10108F4
S31508000840404610F08DF802460B46DDE90A0110F025
S315080008507DFB10B14FF000080135B9F1000F50D1FA
S31508000860284610F08DF802460B46504659460FF0BA
S3150800087039FF0022544B8046894610F05DFB30B1A3
S31508000880002240464946504B10F074FB10B1E80769
S3150800089000D501350A210EAB1A19202C0AD095FB72
S315080008A0F1F001FB1055303502F8015B01340546BD
S315080008B00028F2D106F00302012A57D1002F55D09D
S315080008C0099A12B916F00C0F00D0013F302245E004
S315080008D009906DE74FF006097FE7A94600247CE7F3
S315080008E00022DDE90C01384B10F026FB0028B4D1B4
S315080008F0B8F1000F02D018F0010FAED008F10108C8
S31508000900ABE70A210EAB2344202C0ED0B8FBF1F03E
S3150800091001FB1082B8F1090F02F1300209F1FF3923
S3150800092004F1010403F8012B11D83021A1440EAAC1
S31508000930202CAFD0A14504F101030AD11C4609F1C8
S3150800094058030DEB03092E2309F8203CA2E780463D
S31508000950DAE7A1541C46EBE71A550134A74205D934
S31508000960202CF9D1CDE902760194C1E6202CF9D0E4
S31508000970099A3AB12D2104F158026A4402F8201C5A
S315080009800134EFE7710704D504F158022B216A44B4
S31508000990F4E73207E6D504F1580220216A44EDE768
S315080009A00000000065CDCD410000000065CDCDC139
S315080009B0C8730508CC730508FFFFEF7FBF730508EA
S315080009C0C4730508D87305080000E03F000000005E
S315080009D02DE9F04F2DED028B002597B01D7003937E
S315080009E0229B074607911D60002800F03C8143784A
S315080009F0047844EA0324837844EA0344C37844EA3F
S31508000A00036463783F2B00F22E81AA4214BF0623A3
S31508000A1008238DF8243009230C958DF82630427961
S31508000A20037908469FEDA48B43EA02234A790434E6
S31508000A30023292008DF825200AAA0092043B9BB246
S31508000A402146007909AA8DED0A8B39F0D7F80A9B59
S31508000A500646049360B1049B23B10C991846C91A3B
S31508000A6043F069FE304617B0BDEC028BBDE8F08F47
S31508000A700B98039DC01A40102870C0B200EB4000C6
S31508000A808F49800051F030F88346002800F0108125
S31508000A902B788DED0E8B1096002B00F0FA803346DE
S31508000AA002960299E279591A8A42B246B04600F28B
S31508000AB0AC8004D202991144994218BF0F91002ABA
S31508000AC040F0AD807A783B7894F802E043EA022356
S31508000AD0BA7894F803C043EA0243FA7808EB480167
S31508000AE043EA026300220BEB810514925A781878C0
S31508000AF085F802E085F803C002F00F03E2798DED70
S31508000B00128B6A7194F906202A710BF821000EAA35
S31508000B106B70204612AB09A937F062F881460028A7
S31508000B203BD01298149910B1091A43F004FE039B9E
S31508000B301B78F3B100252C462E4604EB44040BEB38
S31508000B408404627A207A40EA0220A27A40EA0240C5
S31508000B50E27A50EA026000F0968043F0EAFD039BD1
S31508000B6001351B7826726672A672E672ECB29C4252
S31508000B70E3D3584643F0DDFD0023029A1099891AFB
S31508000B80039A1370029B13B1184643F0D4FD049BD5
S31508000B904E46002B7FF461AF64E7DDE91232D21AC4
S31508000BA0104647490693059250F09EFFC0F3072C5E
S31508000BB085F809C0C0F3074C85F80AC04FEA106CDF
S31508000BC0069B287285F80BC0002865D0059A002A6E
S31508000BD035D185F8069085F80790002B40D1049BFF
S31508000BE00AF1010A33F81820E3795FFA8AF83344E0
S31508000BF0DEB2039B14441B7843453BD90F9B0299ED
S31508000C00E279591A8A427FF654AF511A0EA836F07D
S31508000C1089FF0E9BE2790293002A3FF453AF0798A7
S31508000C204378017841EA0321837841EA0341C3788E
S31508000C30029841EA0361314445F04BFF42E7194601
S31508000C400692059345F045FF069A1499059BAA71E5
S31508000C50C2F30722EA71C91A184643F06CFDBEE7CB
S31508000C601499C91AF8E70B26304617B0BDEC028B63
S31508000C70BDE8F08F229B1099C3F800B0029BC91AF1
S31508000C80002B81D183E70135ECB29C42FFF455AFC6
S31508000C906FE7229B1860DEE63BB114991846C91A1D
S31508000CA043F049FD4FF0020941E74FF002093EE7DC
S31508000CB00226D0E6AFF30080000000000000000026
S31508000CC0CC0706080348044B834202D0034B03B102
S31508000CD01847704704B3002004B300200000000042
S31508000CE0064B0749C91A891048BF0131491003D074
S31508000CF0044B0BB101481847704700BF04B30020E6
S31508000D0004B300200000000010B5064C237843B950
S31508000D10FFF7D8FF044B13B10448AFF30080012353
S31508000D20237010BD4A98002000000000C41206086F
S31508000D3008B5054B1BB105490548AFF30080BDE86A
S31508000D400840FFF7CDBF00BF00000000C813002011
S31508000D50C4120608A3F5803A704700BF174B002B4C
S31508000D6008BF134B9D46FFF7F5FF00218B460F463C
S31508000D701348144A121A45F0C6FE0E4B002B00D033
S31508000D8098470D4B002B00D09847002000210400FF
S31508000D900D000D48002802D00C48AFF3008010F073
S31508000DA0DDFC2000290045F0E6FD10F015FB00BF2C
S31508000DB0000008000000000000000000A80D002048
S31508000DC0A80D002020AA0020000000000000000056
S31508000DD013B5094C237863B9022304200093074A04
S31508000DE04FF4805306490DF0CDF90028A4BF01231E
S31508000DF0237002B010BD00BF4CA800204B980020FD
S31508000E004843050830B5154B87B01B780546144688
S31508000E10019103B341F0E6FB4FF41B630D22CDF8B5
S31508000E200D00CDF81110042002A902938DF80C507C
S31508000E300DF07CF904220DEB020110460DF076F94F
S31508000E40019B21461A0202F4E062C3F30723042039
S31508000E501A430DF06BF907B030BD00BF4BA8002050
S31508000E6030B5144B05461B7885B003F0FF04F3B183
S31508000E70FF2928BFFF210C4641F0B4FB04F1090203
S31508000E8013029BB243EA122343F0807343F0B00384
S31508000E900D22CDE900300291042069468DF80C40F8
S31508000EA00DF044F92246294604200DF03FF9204664
S31508000EB005B030BD4BA800200122014B1A707047BF
S31508000EC04BA800201FB541F08DFB084B0391CDE9D7
S31508000ED001300C22042001A90DF028F904200DF098
S31508000EE083F90028FAD105B05DF804FBB0080002C2
S31508000EF037B5044619F026F8054600284AD1A368EE
S31508000F0043F40033A36046F01EFEA368244A43F464
S31508000F10A013A360A261257743F03AFDA368A080D9
S31508000F201B030CD4B0F5FA7F09D952F01EFF012134
S31508000F300546084651F0BAFE284652F011FF2046EB
S31508000F4019F028F838BBE06838B31BF07FF817F0BB
S31508000F5095F817F0A7FE49F066FE48F0D6F94FF463
S31508000F604173ADF80430FF2301A88DF8063012F05E
S31508000F70D5FB00220320114649F0BEF803210420C0
S31508000F801AF0D0F90A2012F02DF818F0BBFF204607
S31508000F9041F03FFB002003B030BD0248D5E700BF53
S31508000FA0050403007EAF002008B50449044823F071
S31508000FB0C3FEBDE8084023F0F1BE00BF584305084C
S31508000FC01C4405084FF08052014B5A60704700BF19
S31508000FD000ED00E0F8B50E460546D0B1C9B10E4B96
S31508000FE00E4F1968386806F0D3F9044678B906230F
S31508000FF032460B49386806F099FA044638B901238F
S315080010002A460849386806F091FA00B12C7020463D
S31508001010F8BD2124FBE700BF0CAC00202CAC002057
S315080010202C0004003C00040007B5084B1878FF287C
S3150800103002D023F0B9F930B14FF6047301A8ADF820
S31508001040043045F028FC03B05DF804FB8FAF0020A0
S3150800105010B50D4C0D4804F0D1FC23780BB123F0E4
S31508001060FDF9FF220A4B01211A700022094B227052
S315080010709A70152219705970DA701A7100F050FBBF
S31508001080BDE8104000F02CB94DA80020E013002060
S315080010908FAF00204EA8002038B500F077F9044637
S315080010A000F0CEF9C0B10E4D2B789BB90D4B1B78CD
S315080010B0FF2B11D1022C11D80B4C2279E178A0789C
S315080010C023F0A2F938B90121207823F0B3F910B931
S315080010D001232B70002038BD0220FCE71D20FAE70B
S315080010E04DA800208FAF00204EA80020F0B5054679
S315080010F085B00E4600F04AF95DB3194F3B78FF2BD1
S3150800110029D1022829D8002342F21071154A164817
S31508001110009304F091FC0446A0B901460DF10F03B3
S3150800112000936A792B79286843EA022363F30F014F
S315080011300E4B32461B7823F0A9F8044628B10A4814
S3150800114004F05CFC204605B0F0BD9DF80F303B70FE
S31508001150F8E72224F6E70224F4E71D24F2E700BFA5
S315080011608FAF002029100008E01300204EA80020A9
S31508001170036837B523F47F43504A23F007039342A5
S31508001180044621D009D8A2F5A022934217D002F529
S315080011908022934273D003B030BD494A93424AD065
S315080011A002F57F029342F6D1464B1B78002BF2D00C
S315080011B0454B1B78FF2BEED100F11E0369E003B007
S315080011C0BDE83040FFF744BF3F4B017B1A78914298
S315080011D0E1D1C27A012ADED1FF223A4D3B481A7084
S315080011E004F00CFC2B784BB123F038F908B34FF612
S315080011F0047301A8ADF8043045F04DFB607A227AF5
S31508001200012342EA00226168207B00F077F830B1BA
S315080012104FF6047301A8ADF8043045F03CFB0023F3
S315080012208DF80430237B8DF8053001A845F033FB93
S31508001230B1E72870E2E7244D80792B78834205D1FF
S31508001240224804F0DBFBFF232B70A4E700F0BCF870
S315080012500028A0D0A07900F0E1F800289BD0A0795A
S3150800126000F076F830B14FF6047301A8ADF80430F3
S3150800127045F011FB02238DF80430A379D3E7114B0F
S315080012801B78002B87D0104B1B78FF2B83D100F1DE
S31508001290160394F90D20E17A601D41F0C6F900287D
S315080012A03FF479AF11283FF476AF2D3801287FF641
S315080012B072AF4FF60473ADF80430B6E7A000060027
S315080012C0A00006014DA800208FAF0020E0130020E3
S315080012D0024B187880F00100704700BF4DA8002027
S315080012E0FF22044B1A701A721A740022024B1A70E3
S315080012F0704700BF53A800206BA8002013B56C46A2
S3150800130084E80600104A1178FF2917D0117AFF29B8
S3150800131016D0117CFF2915D1022102F83100009858
S3150800132002EBC102C2F8020000205370A388D380E2
S31508001330064A13780133137002B010BD0021ECE79A
S315080013400121EAE71A20F7E753A800206BA8002036
S315080013500C4B1A7882420FD01A7A82420ED01A7C27
S3150800136082420DD10222FF2103F83210064A0020DC
S315080013701378013B137070470022F4E70122F2E765
S315080013802D20704753A800206BA80020014B187821
S31508001390704700BF6BA800200A4B1A7882420AD011
S315080013A01A7A824209D01A7C824208D1022203EBB9
S315080013B0C200023070470022F9E70122F7E7002051
S315080013C0704700BF53A80020064B1A78824207D000
S315080013D01A7A824204D01B7C1B1A5842584170471D
S315080013E00120704753A8002070B5044680B1002636
S315080013F0094D15F8023CFF2B05D006222146284642
S3150800140045F057FB30B10136032E05F10805F0D13A
S31508001410002070BD0120FCE755A8002001460022E7
S31508001420064B1878884202D15878012805D001322F
S31508001430032A03F10803F4D10020704753A80020BB
S31508001440024B1888003818BF01207047181400206E
S315080014502DE9F04F8E4D90462E7893B03207894687
S315080014609A464FF00004009035D4F30647D4F707A0
S315080014704CD44FF0000B9AF800305F46013B0D93B1
S3150800148006F0040308932B7ACDE901BB00936B6839
S3150800149009936B7803F001030B9395F86430049372
S315080014A095F865300693069A049B13440C9395F8B1
S315080014B05C30039395F85D300593059A039B1344B6
S315080014C00A9306F002030F9306F02003079306F02B
S315080014D0400310937BE04FF00804002705F1090B41
S315080014E0062200990BEB070045F0E3FA0028BCD06A
S315080014F006373C2FF4D1002013B0BDE8F08F95F8DD
S31508001500453044F010044B45F5D1B0E795F9023063
S3150800151044F001044345ACDBEDE70AEB07035D78CD
S3150800152093F802900F9B002B36D0A9F10803012BE4
S3150800153032D8089A234644F002041ABB009BAB42F1
S3150800154030D2F81C009A0999504445F0B2FA00289E
S3150800155008BF4FF0010B079B002B00F08580B9F1FF
S31508001560210F40F081800A9B44F020049D42C2DD91
S31508001570039B059AD91903314648514445F099FA0F
S3150800158010B3B8E743F00604009BAB42E3D2009AD7
S315080015906B1E9342DFD1D4E7109B1BB1A9F102035E
S315080015A0012B2ED93006D6D5A9F10603012BD2D8A0
S315080015B04FF00008BA1C44F080046B1E0E92984542
S315080015C03DDB079B002B4FD101353D44EFB20D9B08
S315080015D09F42A2DB16F0060F02D0BBF1000F8AD09D
S315080015E0710602D5019B002B85D0320602D5029BD7
S315080015F0002B80D0264BA4B21888031B58425841AA
S315080016007AE74FF000086B1E0E9344F04004BB1CAB
S315080016100E9A90459FDA03EB0801013102221E4813
S315080016205144119345F045FA0028019B08BF012350
S3150800163008F1020801935FFA88F8119BE8E711930D
S315080016400E9B102203EB080101311448514445F062
S3150800165030FA0028029B08BF012308F110080293FC
S315080016605FFA88F8119BAAE70B9B002BACD0B9F15F
S31508001670FF0FA9D10C9B44F480749D427FF73BAFC2
S31508001680049B069AD91903310548514476E700BFE9
S3150800169018140020701400205E1400206014002026
S315080016A078140020F8B506460D461746FFF710FED3
S315080016B0B8B1C6B1284642F002FF0D4C6060A0B131
S315080016C02A46314645F02AFA2378257243F0020362
S315080016D023700FB90020F8BD237843F00403237064
S315080016E0F8E70220F7E72120F5E71920F3E700BF1E
S315080016F01814002010B50446FFF7EAFD50B15CB196
S3150800170000202288054BA3F846201A7842F04002AA
S315080017101A7010BD0220FCE72120FAE718140020F1
S3150800172010B5FFF7D5FDF0B1104C606818B142F05E
S31508001730C8FF00236360A06D18B142F0C2FF002302
S31508001740A365206E18B142F0BCFF00232366002073
S31508001750FE23A070207284F84530A4F85C00A4F833
S315080017606400208010BD0220FCE700BF181400208A
S3150800177000234FF0FF320449C818CA5006333C2BE1
S315080017808280F9D1FFF7CCBF21140020034A04490F
S31508001790002808BF1146042022F0C6BFD444050815
S315080017A0CC44050838B5174B044693F8C020824246
S315080017B0A3F580501BD003F5805292F80422A2426A
S315080017C01BD003F5005393F84833A34217D00E4DA8
S315080017D00E49286842F02BFB41F0A1FA41F0A0FA25
S315080017E022460B49286842F022FB002038BD002318
S315080017F041F2441202FB0300F8E70123F8E702234B
S31508001800F6E700BF8024002050480020DC44050885
S31508001810E14405082DE9F04FFF288FB00D46CDE9C4
S315080018200A32099000F01E84002900F01D840A9BE4
S31508001830002B00F01984199B002B00F01584189BC7
S31508001840002B00F01184AF4EAF49306842F0EFFA32
S3150800185041F065FA41F064FA099AAC49306842F0F9
S31508001860E6FAAB4B93F8C020A3F58054FF2A2BD099
S3150800187003F5805292F80422FF2A00F09F8003F5B0
S31508001880005393F84833FF2B00F09B80A14930683A
S3150800189042F0CDFA41F043FA41F042FA9E493068E7
S315080018A042F0C5FA9B49306842F0C1FA41F037FA6E
S315080018B041F036FA099A9949306842F0B8FA1C2478
S315080018C020460FB0BDE8F08F4FF0000941F24412F0
S315080018D002FB09F3E71800213846079345F013F988
S315080018E00021384640F004FF41F2A8034FF0FF32CA
S315080018F0FA5041F2BA0317224FF0000BFA5207F5D5
S315080019008052B2F8A430594603F0F00343F48673C4
S31508001910A2F8A430079B40F24A7203F65800204406
S31508001920C7F854B845F0EFF841F2BC0307F803B01E
S31508001930099B07F586563370079B492203F58250A3
S315080019401A302946204445F0E9F841F26603FB5C63
S3150800195041F2C40A089341F268036A4D17F80380F6
S315080019606949286842F063FA41F0D9F941F0D8F993
S31508001970CDF80080089B32786949286842F057FA02
S31508001980079B5A4603EB0A0121445B46307822F04E
S31508001990E5FC0446C0B15F49286842F048FA41F0C0
S315080019A0BEF941F0BDF95F493278286842F03FFA3E
S315080019B02D212246384601F025FB81E74FF0010923
S315080019C084E74FF0020981E717F80A309BB93078A7
S315080019D022F076FD044670B14E49286842F027FA8F
S315080019E041F09DF941F09CF94F493278286842F058
S315080019F01EFA2E21DDE70B9B28681B884B4CA7F89F
S31508001A00B93F13F0FF0344D13F4942F010FA41F0C1
S31508001A1086F941F085F941F2441303FB094303F5BE
S31508001A2086531A784249286842F001FA41F244146A
S31508001A3041F2D003DFF8F4A00A9A04FB09A4E250A5
S31508001A4041F2D403189A94F8B91FE25041F2D80328
S31508001A50199AE250079B03F5845641F25D0319363D
S31508001A6056443246E05C37F013FD834600286BD0B7
S31508001A702849286842F0DBF941F051F941F050F95C
S31508001A802C495B46099A286842F0D1F9212430216D
S31508001A908FE7012B0FD11C4942F0C9F941F03FF9F4
S31508001AA041F03EF941F2441303FB094303F586531B
S31508001AB01A782149B7E7022B0FD1134942F0B7F933
S31508001AC041F02DF941F02CF941F2441303FB094387
S31508001AD003F586531A781949A5E7194942F0A7F973
S31508001AE041F01DF941F01CF941F2441303FB094486
S31508001AF004F5865294F8B93F12781249286842F0DC
S31508001B0096F993E750480020234505082845050817
S31508001B1080240020DC4405085D450508784505084D
S31508001B20A84505080446050834460508801400201B
S31508001B3063460508DC470508B8460508164705083C
S31508001B40664705086B4705080A21304601F02AFD55
S31508001B500646C44904F58654286842F068F941F0F7
S31508001B60DEF841F0DDF833462278BF49286842F0AE
S31508001B705EF92078FFF716FE00F5805B9BF85D306E
S31508001B800446022BB94E4DD19BF86730072B00F25D
S31508001B905181DFE813F0080018004F014F01E800F3
S31508001BA04F014F01FB000123AE4980F8D33F286857
S31508001BB042F03DF941F0B3F841F0B2F89BF8C02085
S31508001BC0AB4928682CE0089B3068012B1AD8A9492C
S31508001BD004F5805842F02BF941F0A1F841F0A0F83D
S31508001BE098F8C020A449306842F021F90122292139
S31508001BF0204601F007FA002388F86730012384F8A5
S31508001C00D33F0FE0022384F8D33F964942F00FF9F9
S31508001C1041F085F841F084F89BF8C0209749306870
S31508001C2042F005F904F5805898F8673088F8683066
S31508001C3098F85D30012B20D198F86BB03068BBF16D
S31508001C40020F00F02B81BBF1FE0F00F04C81BBF1B7
S31508001C50010F40F05881874942F0E9F841F05FF8F2
S31508001C6041F05EF898F8C0208549306842F0DFF800
S31508001C7088F86CB0002384F8D33F41F2441606FB7B
S31508001C8009A606F5845BBBF80930002B35D10DF1A2
S31508001C90360304930DAB039341F29703F35C41F2C9
S31508001CA05A02029341F26803F35C41F25E01019322
S31508001CB096F8B93F41F25D00009341F29803B25C91
S31508001CC0F35C715C305C01F02BF906F58658044626
S31508001CD0002800F04781654E0F2C306840F02581BA
S31508001CE0644942F0A4F841F01AF841F019F898F856
S31508001CF000206449306842F09AF841F2441606FB1F
S31508001D0009A606F584531A461032B2F8032006F5DA
S31508001D1083510292B3F8112006F586580192B3F85A
S31508001D200D20183100920833B1F80920B3F80330B2
S31508001D30B1F8071098F8000022F0D4FA04460028F3
S31508001D4000F032815049286842F071F840F0E7FF08
S31508001D5040F0E6FF4D49234698F80020286842F0EF
S31508001D6066F8312125E6B8F1010F30687FF62FAF06
S31508001D7002233C4984F8D33F42F059F840F0CFFF9C
S31508001D8040F0CEFF9BF8C020414948E7B8F1010F63
S31508001D9011D9089B012B20D90423324980F8D33F57
S31508001DA0286842F044F840F0BAFF40F0B9FF9BF8C3
S31508001DB0C020384905E70122292101F023F9B8F1A5
S31508001DC0010F11D1089B3068022B0DD104F5805BF9
S31508001DD084F8D33F8BF8678017E70122292101F0A1
S31508001DE011F9B8F1020F10D02249286804F5805875
S31508001DF042F01DF840F093FF40F092FF98F8C0209B
S31508001E001D49286842F013F8F5E6089B3068012B4F
S31508001E10EAD1042384F8D38F04F58058114988F849
S31508001E20673042F004F840F07AFF40F079FF98F8FE
S31508001E30C020A9E70F4904F58058286841F0F7FF44
S31508001E4040F06DFF40F06CFF98F8C02012492868F2
S31508001E5041F0EDFF012384F8D33F002388F867306B
S31508001E60E0E600BF2345050813480508504800204A
S31508001E7049480508664705087C480508BD48050819
S31508001E80B14905082B4B0508DC440508754C0508BF
S31508001E90F04805082349050856490508089A012AFD
S31508001EA00AD9724941F0C3FF40F039FF40F038FFC4
S31508001EB098F8C0206E49D8E66C49089341F0B7FFF8
S31508001EC040F02DFF40F02CFF98F8C0206949306893
S31508001ED041F0ADFF089B2A211A46204688F86C3047
S31508001EE001F090F8C6E6644941F0A1FF40F017FFFB
S31508001EF040F016FF98F8663098F8C0205F493068B9
S31508001F0041F095FFB4E65949089341F090FF40F037
S31508001F1006FF40F005FF98F8C0205949306841F09F
S31508001F2086FF089B88F86B30A4E60A2C0AD14F492D
S31508001F3041F07DFF40F0F3FE40F0F2FE98F80020F5
S31508001F405049D7E6504941F072FF40F0E8FE40F0AC
S31508001F50E7FE4E49234698F80020306841F067FFAF
S31508001F60322126E5BDF8343006F58356A6F81F302B
S31508001F70A6F82130BDF836303F492868ABF803305B
S31508001F80ABF8053041F053FF40F0C9FE40F0C8FEFB
S31508001F90BBF805303E490093B6F8213098F8002082
S31508001FA0286841F044FFA8E641F25B03FF22F15C92
S31508001FB0099822F0BFF9044680B13349286841F0F0
S31508001FC036FF40F0ACFE40F0ABFE3249234698F8A7
S31508001FD00020286841F02BFF3321EAE441F2CC09BE
S31508001FE00799079B079A01F586514B4402F6B97281
S31508001FF0083153445244514498F8000001F0F2F96C
S315080020008246A8B12049286841F011FF40F087FEB2
S3150800201040F086FE534698F800201F49286841F08C
S3150800202006FF52462F21384600F0ECFF012447E40C
S315080020301149286841F0FBFE40F071FE40F070FE41
S3150800204098F800201549286841F0F1FE1A9B1BB143
S3150800205016F809301A9A137000223846114602F00B
S3150800206007F82DE425242BE4222429E466470508ED
S31508002070F84905083F4A0508234505088A4A050818
S31508002080CF4A0508874B0508DC440508CD4B0508EB
S31508002090244C0508BF4C0508024D05083D4D0508AA
S315080020A02DE9F047002541F244172E461E4CA4F6AA
S315080020B05809A4F6580841F244120021404644F053
S315080020C022FDFF2384F8683884F8D1384FF0FF33AF
S315080020D04FF0010AC4F85038172307FB059284F815
S315080020E0CE6884F84DA8A4F8623802F5805292F8B2
S315080020F0A430002123F00F0343F00C0382F8A43028
S31508002100204640F24A7244F8046C44F0FCFC5544FC
S3150800211084F864685146404640F0EAFA032D3C4488
S31508002120C7D1BDE8F08700BFD81C00202DE9F041D3
S31508002130064688461746FFF735FB434C054698B9C9
S315080021404249206841F073FE40F0E9FD40F0E8FDA1
S3150800215032463F49206841F06AFE22222721284656
S31508002160BDE8F04100F04EBF05F5805696F8A4305C
S315080021702068DB0712D518F0010F0FD1334941F05B
S3150800218056FE40F0CCFD40F0CBFD96F8C020314914
S31508002190206841F04CFE3A460B21E0E787B12B490F
S315080021A041F045FE40F0BBFD40F0BAFD96F8C02070
S315080021B029493B46206841F03AFE3A460C21CEE7CB
S315080021C0264941F034FE40F0AAFD40F0A9FD4346F9
S315080021D096F8C0202249206841F029FE96F8A410F6
S315080021E096F8C00040F022FB074688B117492068D8
S315080021F041F01DFE40F093FD40F092FD96F8C02098
S3150800220018493B46206841F012FE3A460D21A6E7DA
S31508002210032196F8C00040F04DFB074688B10B49EC
S31508002220206841F004FE40F07AFD40F079FD96F80A
S31508002230C0200D493B46206841F0F9FD3A460E217B
S315080022408DE7BDE8F08100BF50480020DC44050852
S315080022506B4D05089A4D0508004E050823450508E7
S31508002260414E0508804E0508C04E05082DE9F04187
S3150800227086B007460E461546FFF794FA0446A8B9EF
S31508002280494D4A49286841F0D2FD40F048FD40F0E2
S3150800229047FD3A464649286841F0C9FD22220E21E3
S315080022A0204606B0BDE8F04100F0ACBEA5B1DFF8A7
S315080022B0F8803E49D8F8000041F0B9FD40F02FFDFE
S315080022C040F02EFD009533463A463A49D8F80000C4
S315080022D041F0ADFD2A46E2E7022E57D0032E22D062
S315080022E0012E2FD100F5805696F8B830052B29D146
S315080022F00C23032196F8C00086F8B83040F0DAFAC5
S315080023000546F8B1284F2949386841F090FD40F054
S3150800231006FD40F005FD2B4696F8C020264938688C
S3150800232041F085FDD6E700F5805696F8B8300C2BB7
S315080023300BD0012103AA8DF80C1001F099FE052394
S3150800234086F8B83006B0BDE8F08100F6580240F2CB
S315080023504A7196F8C00040F029FA05460028EED0E2
S31508002360114F1249386841F062FD40F0D8FC40F040
S31508002370D7FC96F8C0202B461049386841F057FD1F
S315080023802A460F21204600F03DFED8E70723012103
S3150800239000F5805484F8B83084F8BC5003AA8DF848
S315080023A00C1001F065FECDE750480020DC44050816
S315080023B0FB4E0508384F0508C04E0508794F050835
S315080023C02DE9F04F87B00646DDE918BA89461D465D
S315080023D0DDF85480FFF7E6F9044680B9504D5149B7
S315080023E0286841F024FD40F09AFC40F099FC3246FA
S315080023F04D49286841F01BFD2222112120E000F5F5
S31508002400805696F8A5300BB300F6580240F24A718A
S3150800241096F8C00040F0CAF90746B8B1404D4149A0
S31508002420286841F004FD40F07AFC40F079FC96F803
S31508002430C0203E493B46286841F0F9FC3A460F2140
S31508002440204607B0BDE8F04F00F0DCBDB5B1344F0B
S315080024503449386841F0EBFC40F061FC40F060FC20
S315080024602B4696F8C0203249386841F0E0FC5BEA12
S315080024700A0A51D0062D4FD02A46BEE7B9F1000FF9
S315080024804AD0274F2B49C4F85488386841F0CFFC06
S3150800249040F045FC40F044FC94F8593894F8581834
S315080024A096F8C02003F00F03CDF8008041EA032315
S315080024B03868214941F0BBFC94F8592894F85838F3
S315080024C002F00F0204F6580943EA0223D4F8541816
S315080024D02A46ADF81430484696F82831CDE90398CF
S315080024E08DF8175040F019F908218DF8160003AA3F
S315080024F0204601F0BDFD044670B10A49386841F02E
S3150800250096FC40F00CFC40F00BFC234696F8C020E5
S315080025100A49386841F08BFC07B0BDE8F08F00BF68
S3150800252050480020DC440508BF4F0508794F0508C8
S315080025300350050823450508455005088950050830
S315080025402DE9F0410368B04A23F47F4323F00703DB
S315080025509342044692B000F021832ED802F17F42BE
S31508002560934200F03B830FD802F17F42934200F07A
S31508002570018202F53002934200F0CC82002080F0FE
S31508002580010012B0BDE8F081A04A934248D002F596
S3150800259040329342F2D10079FFF704F9002840F05F
S315080025A0A1829B4D9B49286841F041FC40F0B7FB4E
S315080025B040F0B6FB2279984942E0984A934200F0E7
S315080025C0458413D802F17E42934200F0CE8302F589
S315080025D02D029342D2D10079FFF7E4F80028CDD036
S315080025E0637900F5805080F85B30C7E78C4A9342E0
S315080025F000F0CD8102F1FC729342BFD1844D85492A
S31508002600286841F014FC40F08AFB40F089FBA37966
S315080026108449009363792279286841F008FCADE77C
S315080026200079FFF7BFF8074670B9794D79492868E8
S3150800263041F0FDFB40F073FB40F072FB22797A49CA
S31508002640286841F0F4FB99E7B4F8052000F58055B1
S3150800265093B2A5F8C220B5F881209A4203D3B5F8FB
S315080026607F209A4277D96A4E7049306841F0DFFB7D
S3150800267040F055FB40F054FBB4F80510B5F87F3030
S3150800268095F8C0200191B5F8811000913068684925
S3150800269041F0CDFB95F8C630A3BB5D4E6349306863
S315080026A041F0C5FB40F03BFB40F03AFB95F8C020F3
S315080026B06049306841F0BBFBB5F893C0B5F88B307C
S315080026C0B5F88120B5F87F1095F8C000CDF808C098
S315080026D0B5F891C0CDF804C0B5F88DC0CDF800C0E6
S315080026E021F000FE002869D05049306841F09FFB70
S315080026F040F015FB40F014FB95F8C0204E493068B1
S3150800270041F095FB012385F8C630E37A002B59D0B2
S3150800271095F8B830002B40F0388195F8C0001BF0CA
S3150800272041FE3B4E0446002850D005284ED0394974
S31508002730306841F07CFB40F0F2FA40F0F1FA95F887
S31508002740C0203E49306841F072FB224605213846D2
S3150800275000F058FC12E7B5F88B20B4F807309A4217
S3150800276014D02B4E3149306841F061FB40F0D7FA5E
S3150800277040F0D6FAB4F80710B5F88B3095F8C020B3
S3150800278000912F49306841F052FB83E7B5F88D2058
S31508002790B4F809309A42B5D01D4E2449306841F044
S315080027A046FB40F0BCFA40F0BBFAB4F80910B5F89D
S315080027B08D3095F8C02000912249E3E795F8C63098
S315080027C0002BA2D1012385F8C630D7E6012795F854
S315080027D0C04085F8B8702046FEF7E4FF0546A8BB5A
S315080027E00C49306841F023FB40F099FA40F098FA1A
S315080027F022461549306841F01AFB2222272128462D
S3150800280000F000FCC1E000BFA0005902A0000602CB
S3150800281050480020DC440508BF550508A0005905A6
S31508002820A0000906B1580508D050050866470508EE
S31508002830345105084752050891520508F252050811
S31508002840B3510508F75105082B53050800F58054C0
S3150800285094F97220394694F86C3094F8C0000092C6
S31508002860002221F09BFE074680B1BC49306841F042
S31508002870DEFA40F054FA40F053FA94F8C020B8490A
S31508002880306841F0D4FA3A462821B8E794F8C000EF
S3150800289021F074FE074688B1B049306841F0C7FA9E
S315080028A040F03DFA40F03CFA94F8C020AD493B466A
S315080028B0306841F0BCFA3A462C21A0E794F86DC07E
S315080028C094F85D3094F8702094F86E1094F8C0006F
S315080028D0CDF834C094F864C0CDF830C094F865C01B
S315080028E0CDF82CC094F86AC0CDF828C094F863C017
S315080028F0CDF824C005F5845C0CF1190CCDF820C080
S3150800290094F85CC0CDF81CC094F869C0CDE9057C84
S3150800291094F86270049794F86170039794F85F705E
S31508002920029794F86070019794F85E70009721F00A
S3150800293051FE074688B18949306841F078FA40F077
S31508002940EEF940F0EDF994F8C02087493B46306827
S3150800295041F06DFA3A462B2151E78449306841F037
S3150800296066FA40F0DCF940F0DBF994F8C0208049BB
S31508002970306868E20079FEF715FF00283FF4FEADDF
S31508002980012300F5805080F8C5300120F7E500796D
S31508002990FEF708FF064658B9764D7049286841F093
S315080029A046FA40F0BCF940F0BBF92279724947E68D
S315080029B000F5805595F8C000237983427FF4DEAD93
S315080029C0B4F80540BCB16B4F6449386841F02FFA3A
S315080029D040F0A5F940F0A4F995F8C0206749386891
S315080029E041F025FA95F8B830032B3FF4C7AD2246D7
S315080029F007213046ACE695F8B830012B1FD0022BDC
S31508002A007FF4BCAD304600F07DFB95F8A530002B71
S31508002A1046D0B5F8AE30002B42D1564C4F49206807
S31508002A2041F005FA40F07BF940F07AF995F8C020B4
S31508002A305349206841F0FBF90122092114E0D5F831
S31508002A40A8104B1C12D14B4C4449206841F0EFF9B1
S31508002A5040F065F940F064F995F8C02049492068C6
S31508002A6041F0E5F9012206213046C9E6022385F838
S31508002A70B8301BF0A7FC0446002886D03D4F3749DE
S31508002A80386841F0D4F940F04AF940F049F995F828
S31508002A90C0203D49386841F0CAF922460821E3E7D3
S31508002AA006F58551B5F88F2095F8C0000C3101F070
S31508002AB0A5FF044690B12F4F2849386841F0B7F969
S31508002AC040F02DF940F02CF995F8C0202F492346FF
S31508002AD0386841F0ACF922460A21C5E7032385F890
S31508002AE0B83052E700F5855600F58555284F0C365F
S31508002AF0183504F1090802224146384643F0D9FF41
S31508002B0010B9B4F8053033800236AE4207F1020731
S31508002B10F1D133E50079FEF745FE054658B9154D5E
S31508002B200E49286841F083F940F0F9F840F0F8F8C2
S31508002B302279184984E50222174804F10A0143F06C
S31508002B40B8FF00287FF41AADD4F8052005F58053A0
S31508002B502846C3F8A82000F093FA0FE5DC440508D8
S31508002B605453050885530508C05305082345050829
S31508002B7000540508504800202F54050896540508A7
S31508002B8030550508C3540508EE540508855505084B
S31508002B9008AF00202156050814AF00200079FEF77B
S31508002BA001FE58B9C04DC149286841F040F940F0C6
S31508002BB0B6F840F0B5F82279BD4941E50421231D50
S31508002BC00F9300F5805393F85D20022A04BF627ABA
S31508002BD083F829210FAA01F04BFAD6E60079FEF709
S31508002BE0E1FDB14F054658B9B049386841F01FF9BB
S31508002BF040F095F840F094F82279AE49386820E517
S31508002C0000F080FAA37B05F5805685F8C83F94F84E
S31508002C10243005F5865185F8CF3F94F8213005F61E
S31508002C20B97285F8D03F94F82230083185F8D13F3B
S31508002C3094F8233085F8D23FB6F8C230A5F8D43FC9
S31508002C40E37F85F8CE3FA37F85F8CD3F237F85F8C0
S31508002C50CB3F637F85F8CC3F637C85F8CA3F237CEE
S31508002C6085F8C93F637B85F8C73F237B85F8C63F50
S31508002C70E37A85F8C53FD4F81230C5F8BB3FD4F8D7
S31508002C801630C5F8BF3F638BA5F8C33F96F85E308C
S31508002C9096F8C000019396F85D30009305F6BB736D
S31508002CA000F00CFC044698B18049386841F0BFF83A
S31508002CB040F035F840F034F896F8C0207E492346AF
S31508002CC0386841F0B4F822462F21284600F09AF9D0
S31508002CD07A49386841F0ABF840F021F840F020F81E
S31508002CE096F8C0207649386841F0A1F896F89640DB
S31508002CF0B6F88330B6F8872096F86E1096F8C000B6
S31508002D00099496F89540089496F86F40079496F9B2
S31508002D107140069496F85B40059496F868400494CA
S31508002D20D6F87B400394D6F877400294B6F88940E3
S31508002D300194B6F88540009421F0AAFC04460028C0
S31508002D403FF423AE5949386841F071F83FF0E7FF80
S31508002D503FF0E6FF96F8C0205A492346386841F006
S31508002D6066F822461E212846F2E40079FEF71AFD87
S31508002D70064600283FF402AC4B4F5049386841F0EC
S31508002D8056F83FF0CCFF3FF0CBFF22794E49386822
S31508002D9041F04DF84FF6FF73B6F8A42F06F58055A7
S31508002DA09A4215D195F82631063B012B38D80523CA
S31508002DB0424985F82631386841F039F83FF0AFFFC7
S31508002DC03FF0AEFF95F8C0204049386841F02FF82B
S31508002DD095F82631063B012B22D895F8E8300133C1
S31508002DE0DBB20A2B85F8E83022D900214FF6FF73AB
S31508002DF085F8E8103046A6F8A43F3FF079FC05238D
S31508002E002E4985F82631386841F011F83FF087FFDA
S31508002E103FF086FF95F8C0202C49386841F007F83E
S31508002E200123062130460F948DF843300FAAD2E6C7
S31508002E302249386840F0FBFF3FF071FF3FF070FF12
S31508002E4022792349386840F0F2FF9EE50079FEF7BB
S31508002E50A9FC054600283FF491AB05F5805393F885
S31508002E602631114E063B012B3068144912D940F021
S31508002E70DEFF3FF054FF3FF053FF227915493068D3
S31508002E8040F0D5FF0023072128460F948DF84330DC
S31508002E900FAAA0E640F0CBFF3FF041FF3FF040FF0E
S31508002EA022790D4964E500BF50480020DC44050836
S31508002EB07C560508E7560508024D0508234505080A
S31508002EC03D4D0508485705088F570508C957050891
S31508002ED0FC570508385805086C5805081FB50B46F1
S31508002EE0032810D8DFE800F002111313094C2068F4
S31508002EF0616801AA03C2218901AC1180128803CC3A
S31508002F001A811860596004B010BD034CEFE7034CF2
S31508002F10EDE700BF8B5A0508315905083C590508E5
S31508002F202DE9F7439DF82C400F46DDE90D969DF8EF
S31508002F3028108DF803409DF830408DF800208DF854
S31508002F4001308DF802108DF80440B9F1000F50D009
S31508002F50002E4ED0022A4ED0032B4ED001284CD03C
S31508002F60012905D10623A9F80030262333801FE05E
S31508002F70012A04D1022904BF00238DF80230DFF8A4
S31508002F8080800024454605226946404643F091FD67
S31508002F9038BB04EBC4042B195A799979B3F807306E
S31508002FA042EA0122FF2FA9F800209AB2338003D102
S31508002FB0002003B0BDE8F083B9F80030B7EE047A14
S31508002FC007EE903AF8EEE77A67EE877AFCEEE77A4C
S31508002FD017EE903A9BB203F11301B1FBF3F31344D6
S31508002FE0C4E70134B4F5A27F08F10908CBD12D2036
S31508002FF0DFE72120DDE70A20DBE70F20D9E700BF5E
S31508003000475905082DE9F0410446194F0E4615465D
S3150800301038686CB9174940F00AFF3FF080FE3FF068
S315080030207FFE2A4638681449BDE8F04140F0FFBEE5
S3150800303004F580540F49D4F8D88040F0F8FE3FF0E4
S315080030406EFE3FF06DFE2B4694F8C0200B4938689B
S3150800305040F0EDFEB8F1000F07D02A463146434648
S3150800306094F8C000BDE8F0411847BDE8F08100BFFC
S3150800307050480020DC440508955A0508C55A050835
S31508003080F7B500F5805595F82571044687BB95F880
S31508003090243100F587560C3623B1304602F0AEFCD3
S315080030A085F8247100233046009340F6B83123464C
S315080030B0104A02F0C1FC0646B8B10F4F0F493868EE
S315080030C040F0B5FE3FF02BFE3FF02AFE95F8C020F3
S315080030D033460B49386840F0AAFE3246022120469C
S315080030E003B0BDE8F040FFF78DBF012385F8243112
S315080030F003B0F0BDCD26040850480020DC4405087E
S31508003100F25A0508F8B5054600F587500C3002F066
S3150800311075FC05F580560446B0B10D4F0D49386863
S3150800312040F085FE3FF0FBFD3FF0FAFD96F8C02023
S3150800313023460949386840F07AFE22462846BDE803
S31508003140F8400421FFF75EBFA6F82401F8BD00BFCA
S3150800315050480020DC4405082D5B050870B5044678
S315080031600D460F2900F20681DFE811F0150110005F
S315080031702400340044005400640074008400940061
S31508003180A400B400C400D400E400F400824D8349CE
S31508003190286840F04CFE3FF0C2FD3FF0C1FD012318
S315080031A004F5805494F8C0207D492868BDE870402D
S315080031B040F03DBE784D7949286804F5805440F0C2
S315080031C036FE3FF0ACFD3FF0ABFD022394F8C0207D
S315080031D07449EAE7704D7449286804F5805440F04C
S315080031E026FE3FF09CFD3FF09BFD032394F8C0208C
S315080031F06E49DAE7684D6949286804F5805440F055
S3150800320016FE3FF08CFD3FF08BFD042394F8C0209A
S315080032106749CAE7604D6149286804F5805440F05B
S3150800322006FE3FF07CFD3FF07BFD052394F8C020A9
S315080032306049BAE7584D5949286804F5805440F062
S31508003240F6FD3FF06CFD3FF06BFD062394F8C020B9
S315080032505949AAE7504D5149286804F5805440F069
S31508003260E6FD3FF05CFD3FF05BFD072394F8C020C8
S3150800327052499AE7484D4949286804F5805440F070
S31508003280D6FD3FF04CFD3FF04BFD082394F8C020D7
S315080032904B498AE7404D4149286804F5805440F077
S315080032A0C6FD3FF03CFD3FF03BFD092394F8C020E6
S315080032B044497AE7384D3949286804F5805440F07E
S315080032C0B6FD3FF02CFD3FF02BFD0A2394F8C020F5
S315080032D03D496AE7304D3149286804F5805440F085
S315080032E0A6FD3FF01CFD3FF01BFD0B2394F8C02004
S315080032F036495AE7284D2949286804F5805440F08C
S3150800330096FD3FF00CFD3FF00BFD0C2394F8C02012
S315080033102F494AE7204D2149286804F5805440F092
S3150800332086FD3FF0FCFC3FF0FBFC0D2394F8C02023
S3150800333028493AE7184D1949286804F5805440F099
S3150800334076FD3FF0ECFC3FF0EBFC0E2394F8C02032
S3150800335021492AE7104D1149286804F5805440F0A0
S3150800336066FD3FF0DCFC3FF0DBFC0F2394F8C02041
S315080033701A491AE7084E0949306804F5805440F09E
S3150800338056FD3FF0CCFC3FF0CBFC2B4694F8C02012
S31508003390134930680AE770BD50480020DC44050828
S315080033A06B5B05089F5B050823450508DA5B05087E
S315080033B0195C05086E5C0508A75C0508E45C050849
S315080033C0245D0508565D05089B5D0508D45D05085E
S315080033D03A5E0508935E0508E35E05083F5F050843
S315080033E07D5F05082DE9F0410646174698460D46C5
S315080033F0C9B10B68BBB1084633F016FA044688B162
S31508003400284D2949286840F012FD3FF088FC3FF016
S3150800341087FC234632462549286840F008FD2046A1
S31508003420BDE8F081286028462DF06EFD044660B19F
S315080034301C4D1D49286840F0FAFC3FF070FC3FF02F
S315080034406FFC234632461A49E6E7414628462DF0E0
S31508003450A7FE044660B1134D1349286840F0E7FCFF
S315080034603FF05DFC3FF05CFC234632461149D3E74A
S315080034707B78002BD3D0284633F010FA054600286F
S31508003480CDD0084C0849206840F0D1FC3FF047FCF5
S315080034903FF046FC20682B463246074940F0C7FCF9
S315080034A02C46BCE750480020DC440508AE5F0508FA
S315080034B0E65F05081C600508596005082DE9F8430C
S315080034C00E4605461178304699469DF820709DF8B7
S315080034D024802DF067FD044688B12C4E2C493068AF
S315080034E040F0A5FC3FF01BFC3FF01AFC23462A4699
S315080034F02849306840F09BFC2046BDE8F883012F38
S3150800350002D0022F18BFFF27B8F1010F04D0B8F177
S31508003510020F18BF4FF0FF084246394630462DF0D5
S3150800352051FD044660B1194E1949306840F07FFCD8
S315080035303FF0F5FB3FF0F4FB23462A461649D8E749
S31508003540494630462DF060FD044660B10F4E1049DD
S31508003550306840F06CFC3FF0E2FB3FF0E1FB2346AD
S315080035602A460E49C5E7304635F07CFF0446002852
S31508003570C2D0064E0649306840F059FC3FF0CFFBF2
S315080035803FF0CEFB23462A460549B2E750480020BD
S31508003590DC44050891600508C96005080F6105083F
S315080035A05061050838B5044688B103460144002031
S315080035B08B421AD0002213F8014B44FA02F5ED07A4
S315080035C002F1010248BF0130082AF6D1F0E7074D9B
S315080035D00749286840F02BFC3FF0A1FB3FF0A0FB11
S315080035E00449286840F023FC204638BD504800208E
S315080035F0DC4405088E6105082DE9F04F04460027CE
S3150800360097B000F5847303930893D0F8043100F556
S315080036108055ADF8243000F6580304930A93D0F881
S31508003620543812AEADF82C3008AB0E930AAB0F9394
S31508003630431C059310930378ADF846708DF8443013
S3150800364095F828318DF8453000F6AC730FCB07C6D0
S31508003650337004F586560836012130460EAA36F030
S315080036608DFC804601462046FFF778FDB8F1000F2D
S3150800367022D0B8F1030FDFF83C9000F021830B4904
S31508003680D9F8000040F0D3FB3FF049FB3FF048FB78
S3150800369095F8C02043460649D9F8000040F0C7FB14
S315080036A042463A212046FFF7ADFC6EE2DC440508A7
S315080036B0D267050850480020002304F6D677384616
S315080036C0069307933FF0F3FA95F85E904146B9F1F1
S315080036D0FF0918BF4FF0010930464A4607AB2DF0DF
S315080036E02FFF804601462046FFF738FDB8F1000F48
S315080036F040F09B814146384604F6DA7307AA01F082
S31508003700CBFE8346002800F0A281DFF87C83D949E6
S31508003710D8F8000040F08BFB3FF001FB3FF000FBC0
S315080037205B4695F8C020D449D8F8000040F07FFBE6
S315080037304FF0000895F85E30FF2B2CD000210222AE
S31508003740304607AB2DF0FCFE824601462046FFF7C1
S3150800375005FDBAF1000F40F07D810121384604F6D7
S31508003760DA7307AA01F098FE8246002800F09C81C9
S31508003770DFF814B3BF49DBF8000040F058FB3FF010
S31508003780CEFA3FF0CDFA534695F8C020BB49DBF890
S31508003790000040F04CFB4A46022106AB30462DF0AD
S315080037A0CFFE824601462046FFF7D8FC04F5805531
S315080037B0BAF1000F40F07B810221384604F6DA732D
S315080037C006AA01F069FE8246002800F08081DFF82B
S315080037D0B8B2A849DBF8000040F029FB3FF09FFA91
S315080037E03FF09EFA534695F8C020A549DBF800003D
S315080037F040F01DFB95F85E30FF2B2CD00222304698
S31508003800114606AB2DF09CFE824601462046FFF780
S31508003810A5FCBAF1000F40F05D810321384604F695
S31508003820DA7306AA01F038FE8246002800F06281A3
S31508003830DFF854B28F49DBF8000040F0F8FA3FF0A1
S315080038406EFA3FF06DFA534695F8C0208D49DBF8BD
S31508003850000040F0ECFA4A46002106AB30462DF04F
S3150800386017FC824601462046FFF778FC04F5805B84
S31508003870BAF1000F40F041810421384604F6DA73A4
S3150800388006AA01F009FE8246002800F044817E4D12
S315080038907849286840F0CBFA3FF041FA3FF040FA01
S315080038A053469BF8C0207949286840F0C0FA9BF82F
S315080038B05E30FF2B29D000210222304606AB2DF0C0
S315080038C0E7FB824601462046FFF748FCBAF1000F9F
S315080038D040F024810521384604F6DA7306AA01F079
S315080038E0DBFD8246002800F02781674D614928687C
S315080038F040F09DFA3FF013FA3FF012FA53469BF850
S31508003900C0206349286840F092FA03238DF83030C6
S31508003910DBF8733030460CA9CDF831302DF098FB22
S31508003920824678B1584D5349286840F080FA3FF0EE
S31508003930F6F93FF0F5F953469BF8C0205549286833
S3150800394040F075FA4A46012106AB30462DF0F8FDDF
S31508003950824601462046FFF701FC04F58055BAF178
S31508003960000F40F059810621384604F6DA7306AA94
S3150800397001F092FD8246002800F0E180DFF808B1E8
S315080039803C49DBF8000040F052FA3FF0C8F93FF036
S31508003990C7F9534695F8C0203F49DBF8000040F0C8
S315080039A046FA94F8B92F95F85D30022A33D1022BDE
S315080039B031D195F89830013B012B2CD803214A4682
S315080039C0304606AB2DF0BCFD824601462046FFF781
S315080039D0C5FBBAF1000F40F032810721384604F6DC
S315080039E0DA7306AA01F058FD8246002800F0C58061
S315080039F0DFF894B01F49DBF8000040F018FA3FF0F2
S31508003A008EF93FF08DF9534695F8C0202349DBF827
S31508003A10000040F00CFA95F85D30012B00F0BA80F2
S31508003A20B8F1000F00F0B180ABE0DFF85CB01149E7
S31508003A30DBF8000040F0FBF93FF071F93FF070F950
S31508003A40434695F8C0201649DBF800006EE64FF0AD
S31508003A5001086FE6DFF830B00649DBF8000040F0F1
S31508003A60E6F93FF05CF93FF05BF9534695F8C0205C
S31508003A700C498CE6DC440508D7610508556205083B
S31508003A80E56205086B6305085048002003640508CD
S31508003A9092640508336505087C65050844660508CB
S31508003AA0166205089D6205084FF0010873E6DFF8FF
S31508003AB0B0B2A849DBF8000040F0B9F93FF02FF999
S31508003AC03FF02EF9534695F8C020A3498EE64FF0ED
S31508003AD001088FE6DFF888B29E49DBF8000040F05F
S31508003AE0A6F93FF01CF93FF01BF9534695F8C0209C
S31508003AF09A49ACE64FF00108ADE6994D9549286814
S31508003B0040F095F93FF00BF93FF00AF953469BF858
S31508003B10C0209449C8E64FF00108C8E6904D8D4983
S31508003B20286840F084F93FF0FAF83FF0F9F8534670
S31508003B309BF8C0208C49E5E64FF00108E5E6079BAF
S31508003B408DF830000CA93046CDF831302DF080FACA
S31508003B50824601462046FFF701FBBAF1000F42D123
S31508003B6094F8B92F95F85D30022A08D1022B06D1B0
S31508003B7095F89830013B012B5ED995F85D30012BFD
S31508003B8006D0D5F8D060002E77D117B0BDE8F08FF3
S31508003B904FF001084A460121304606AB2DF078FA67
S31508003BA0814601462046FFF7D9FAB9F1000F56D1EA
S31508003BB00921384604F6DA7306AA01F06DFC814637
S31508003BC00028DED0664E6349306840F030F93FF091
S31508003BD0A6F83FF0A5F84B4695F8C020634930682B
S31508003BE040F025F91CE7DFF878815A49D8F8000033
S31508003BF040F01DF93FF093F83FF092F853469BF8D2
S31508003C00C0205B49D8F8000040F011F994F8B93F94
S31508003C10022B9BF85D30A8E7DFF844B14D49DBF885
S31508003C20000040F004F93FF07AF83FF079F853467F
S31508003C3095F8C0204F49B0E64FF00108BEE6DFF818
S31508003C4020B14449DBF8000040F0F1F83FF067F88E
S31508003C503FF066F8534695F8C0204749D7E6404EE8
S31508003C603C49306840F0E3F83FF059F83FF058F81F
S31508003C704B4695F8C0204149B1E7237804F6DA7235
S31508003C8085F82C31631CC5F83031D4F80431C5F8F1
S31508003C903431039BC5F83831D4F85438C5F83C316B
S31508003CA0049BC5F840310023019304F589530C336E
S31508003CB00093B4F8A41F3B4695F8C000B04764E7E4
S31508003CC095F8C030394630460DAACDE90C778DF8FF
S31508003CD030302DF041FA064601462046FFF73EFAF7
S31508003CE036BB2749D9F8000040F0A1F83FF017F88D
S31508003CF03FF016F895F8C0202249D9F8000040F0A0
S31508003D0096F8D5F8D43013B131460CA898471C4913
S31508003D10D9F8000040F08BF83FF001F83FF000F8C2
S31508003D2095F8C0201849D9F8000040F080F82CE72B
S31508003D300849D9F8000040F07AF83EF0F0FF3EF066
S31508003D40EFFF334695F8C0201049D9F8000040F037
S31508003D506EF8DCE7DC44050828630508B763050840
S31508003D60504800204D640508E5640508BD66050849
S31508003D70C06505080566050883660508F76605082B
S31508003D80234505082C670508A3670508596705082C
S31508003D902DE9F04F0446CB790A68D0F8A80F85B00C
S31508003DA004F5847804F58056EBB1118902F1130500
S31508003DB0C1F30B01A4F8A41F117C86F82811577BC0
S31508003DC092F80EA092F8119010B90421C4F80411C3
S31508003DD0D4F8041101F5847020440831C4F8A80FFA
S31508003DE0C4F8041109E0517A02F10C0586F8281185
S31508003DF0977992F807A092F80A904FF0000B83F093
S31508003E0001030093414696F82931D4F8A80F3EF0ED
S31508003E10B9FED4F8042102F5847222445FFA8BF3C2
S31508003E204B4529D3A2EB0802012FC4F80421274CDD
S31508003E3011D00F2F46D0002F46D0254920683FF0D5
S31508003E40F6FF3EF06CFF3EF06BFF96F8C020214966
S31508003E5020683FF0ECFF00251F4920683FF0E7FF88
S31508003E603EF05DFF3EF05CFF1C4920683FF0DFFF37
S31508003E70284605B0BDE8F08F294611F8030BBAF1BC
S31508003E800F0F00F0030002F1010310D160F07F006C
S31508003E9010702278A8786D7804EB020C01328CF841
S31508003EA001500BF1010B22700D181A46B6E7107077
S31508003EB0AA781846039142F031FE0346AA78039978
S31508003EC01344E6E70125C7E70225C5E75048002061
S31508003ED0DC4405080F680508234505083F680508FA
S31508003EE073B5044650F046F805464FF061FB0C4E94
S31508003EF004F580540B49C4F8E00030683FF097FF9A
S31508003F003EF00DFF3EF00CFF0095D4F8E03094F833
S31508003F10C020054930683FF08AFF02B070BD00BF77
S31508003F2050480020234505085168050838B500F5AE
S31508003F3080540546002194F86E2094F8C00020F0BD
S31508003F40DFFB80B9154D164928683FF070FF3EF033
S31508003F50E6FE3EF0E5FE94F8C020124928683FF0D8
S31508003F6066FF042038BD252815D105F587500B4D69
S31508003F700C3001F043FD0A4928683FF058FF3EF02F
S31508003F80CEFE3EF0CDFE94F8C020074928683FF0E3
S31508003F904EFF0220E6E70920E4E700BF504800206C
S31508003FA0234505088E680508D4680508F8B500F5A0
S31508003FB08054054694F86E1094F8C00020F054FB1F
S31508003FC0D4F8C830254EBBB105F58650083032F016
S31508003FD02BFC074680B1224930683FF028FF3EF0A7
S31508003FE09EFE3EF09DFE3B4694F8C0201D49306873
S31508003FF03FF01DFF0120F8BD41F24412002128467A
S3150800400042F081FD184930683FF011FF3EF087FE07
S315080040103EF086FE94F8C020144930683FF007FF4A
S31508004020FF2384F8C0304FF0FF33C4F8A8301723B5
S31508004030A4F8BA30B4F8A43040F24A7203F0F00398
S3150800404043F48673A4F8A430002405F658002146E4
S31508004050C5F8544842F057FD2046CCE750480020A2
S31508004060DC4405080A690508234505084469050866
S315080040702DE9F0430F46904606468FB0B8B9B84CBE
S31508004080B84920683FF0D3FE3EF049FE3EF048FEB0
S31508004090FF22B54920683FF0CAFE22223521304664
S315080040A0FEF7B0FF222528460FB0BDE8F0830A299F
S315080040B000F5805421D1AA4D00F587500C3001F047
S315080040C09DFCA84928683FF0B2FE3EF028FE3EF067
S315080040D027FE94F8C020A54928683FF0A8FE0923C2
S315080040E084F826313046D8F8042098F80010FEF7F0
S315080040F089FF0025C7E017469846092F4FF00105A6
S3150800410040F0C180002194F86E2094F8C00020F099
S31508004110F7FA054690B9924D954928683FF087FE0B
S315080041203EF0FDFD3EF0FCFD286894F8C02091495C
S315080041303FF07DFE082584F8265138E241F20C034B
S31508004140984205D041F21203984201D025281BD186
S3150800415006F587500C3001F051FC3046FFF726FF74
S315080041600546002840F00A837D4E814930683FF0B5
S315080041705EFE3EF0D4FD3EF0D3FD94F8C0207E49A5
S3150800418030683FF054FED6E7DFF8D4817549D8F891
S3150800419000003FF04CFE3EF0C2FD3EF0C1FD2B464E
S315080041A094F8C0207549D8F800003FF040FE232354
S315080041B084F826718DF82C300C9586E0002F7FF454
S315080041C072AF674D6A4928683FF031FE3EF0A7FD99
S315080041D03EF0A6FD94F8C020694928683FF027FEFE
S315080041E0012384F82631E2E1012F7FF45CAF98F8C9
S315080041F00030002B62D05A4F5D4938683FF017FEF1
S315080042003EF08DFD3EF08CFD94F8C0205D4938687F
S315080042103FF00DFE022294F8A530A4F82621002BC3
S315080042203FF469AF40F24A7194F8C00006F65802A6
S315080042303EF0BCFA0546A0B14A4938683FF0F7FD9A
S315080042403EF06DFD3EF06CFD94F8C0204E492B46BD
S3150800425038683FF0ECFD2A460F213046FEF7D2FEBD
S3150800426021E7434938683FF0E2FD3EF058FD3EF04D
S3150800427057FD94F8C020454938683FF0D8FD4FF0FF
S3150800428000080227012594F82631082B3FF60BAFC4
S3150800429001A252F823F000BFBD410008E941000819
S315080042A0D142000899430008194700086B450008E1
S315080042B0F94600080F4700085F470008092384F8F5
S315080042C0263136230C978DF82C300A210BAAE2E109
S315080042D0022F7FF4E8AE94F8C53043B9092384F871
S315080042E026312C238DF82C3001230C93EDE7012180
S315080042F094F86E2094F8C00020F002FA40BB0090B3
S3150800430006F58750334640F6B831214A0C3001F09D
S3150800431093FB0546B8B9124E012194F8C00000F087
S31508004320B1FB134930683FF082FD3EF0F8FC3EF0E1
S31508004330F7FC94F8C020174930683FF078FD03234E
S3150800434084F82631AFE6092384F82631212331E79C
S31508004350092384F8263120230C908DF82C30B4E7F5
S3150800436050480020DC440508676905089F69050868
S3150800437023450508CB690508FA6905082E6A050864
S31508004380696A0508D4680508794F0508946A050816
S3150800439069270408CD6A0508042F7FF484AED8F887
S315080043A00030C54F5D88002D60D14FF0E3FD814692
S315080043B04FF0FEF8D8F80030C4F8DC00D3F8072030
S315080043C0BE49C6F8AC2FDA7A386886F8B02F9A89CB
S315080043D0A6F8B12FDA89A6F8B32F1A8AA6F8B52F48
S315080043E05B8AA6F8B73F3FF022FD3EF098FC3EF008
S315080043F097FC94F8C020B24938683FF018FDAF49D9
S3150800440038683FF014FD3EF08AFC3EF089FCB6F8A9
S31508004410B73FAC490693B6F8B53F0593B6F8B33F30
S31508004420049396F8B03F0393B6F8B13F0293D6F8D3
S31508004430AC3FCDE90093D4F8DC3094F8C020386856
S315080044403FF0F5FC9D4938683FF0F1FC3EF067FC0B
S315080044503EF066FC9C4994F8C02038683FF0E7FCBB
S31508004460294630463EF044F9052369E797493868F6
S315080044703FF0DDFC3EF053FC3EF052FCD8F800302D
S3150800448094F8C0205B88924938683FF0D0FC94F8CD
S3150800449027310133DBB2022B84F827315BD88B49ED
S315080044A038683FF0C4FC3EF03AFC3EF039FC94F81C
S315080044B0C020884938683FF0BAFC94F896300993CA
S315080044C094F89530089394F86F30079394F97130FF
S315080044D0069394F85B30059394F868300493D4F8FF
S315080044E07B300393D4F877300293B4F8893001937C
S315080044F0B4F885300093B4F88330B4F8872094F87C
S315080045006E1094F8C00020F0C3F8054688B16F49CC
S3150800451038683FF08CFC3EF002FC3EF001FC94F853
S31508004520C0206D492B4638683FF081FC2A461E217B
S3150800453093E6624938683FF07AFC3EF0F0FB3EF0BD
S31508004540EFFB94F8C020654938683FF070FC0223F9
S3150800455084F8263193E606F587500C3001F04EFABA
S31508004560092384F826311F23BCE6082F63D198F85F
S315080045700B50F5B9B4F8893043B13046FFF7D6FC8D
S31508004580092884F8260112D1242313E64A4D4B49FB
S3150800459028683FF04CFC3EF0C2FB3EF0C1FBB8F881
S315080045A0083094F8C0204E4928683FF040FC0025A2
S315080045B079E598F80A30012B2AD13F4DB4F889706D
S315080045C028683E4987B13FF032FC3EF0A8FB3EF032
S315080045D0A7FB94F8C020434928683FF028FC072326
S315080045E084F8263101255EE53FF021FC3EF097FB75
S315080045F03EF096FB94F8C0203B4928683FF017FC2C
S3150800460005233946304684F826313EF071F8CEE760
S31508004610022BE7D1284D294928683FF008FC3EF0CF
S315080046207EFB3EF07DFB94F8C020304928683FF0B9
S31508004630FEFB0623D5E5063F012F3FF634AD41467E
S315080046403046FFF7A5FB054600283FF40DAF1A4F85
S31508004650012D3868194923D13FF0E9FB3EF05FFB8D
S315080046603EF05EFBB6F8A43F94F8C02020493868AF
S315080046703FF0DDFB012308218DF83730B6F8A43F5B
S315080046808DF83650ADF8343006F584730B93D6F8AA
S3150800469004310BAA0C933046FFF7EAFC054602E5FF
S315080046A03FF0C5FB3EF03BFB3EF03AFBB6F8A43FB5
S315080046B094F8C0200F49DAE750480020234505083A
S315080046C0126B0508506B0508C9570508DC44050830
S315080046D0106C05085F6C050848570508D468050876
S315080046E0A66C0508F96C0508406D0508836D050874
S315080046F0CB6D0508FF6D0508082F7FF4D4AC0122A1
S31508004700414630460FB0BDE8F04300F063B8082FC5
S315080047107FF4C9AC0022F3E7042F7FF4C4ACD8F8C1
S3150800472000301B79002B7FF442AF3046FFF7D8FBE9
S31508004730D8F80030224D5B8833BB06F587500C301D
S3150800474001F05CF91F4928683FF071FB3EF0E7FA73
S315080047503EF0E6FA94F8C0201B492868F5E6042FCF
S315080047607FF4A1ACD8F800301A79002A7FF41FAF7D
S315080047705B8843B93046FFF7B3FBEEE4092384F8B8
S315080047802631382316E50E4D104928683FF04FFBB1
S315080047903EF0C5FA3EF0C4FAD8F8003094F8C020C6
S315080047A05B880B4928683FF042FB092384F82631C9
S315080047B023238DF82C30D8F800305B8895E500BFA8
S315080047C05048002023450508D4680508DC44050838
S315080047D0346E05082DE9F043CE7A04460F46914615
S315080047E087B000F5805566B3B5F88930A3B1FFF7F1
S315080047F09DFB092885F8260121D124238DF80C3044
S31508004800002304930A21204603AAFFF731FC064633
S31508004810304607B0BDE8F0835B4E5C4930683FF030
S3150800482006FB3EF07CFA3EF07BFAB4F8A43F584902
S3150800483000933B8995F8C02030683FF0F8FA0026C7
S31508004840E6E70A89B0F8A43F9A421ED0B5F889303F
S3150800485053B1FFF76BFB092885F82601EFD124230E
S3150800486004968DF80C30CDE7474E484930683FF03E
S31508004870DEFA3EF054FA3EF053FAB4F8A43F45493E
S3150800488000933B8995F8C020D6E700F587500C3091
S3150800489001F0B4F858B1092385F82631222304908B
S315080048A00A21204603AA8DF80C30FFF7E1FBDFF852
S315080048B0D880B5F88930D8F800003449A3B33FF05A
S315080048C0B6FA3EF02CFA3EF02BFA95F8C02032499B
S315080048D0D8F800003FF0ABFA02210022204685F8FE
S315080048E02611FFF7C5FBBB7A0646022B0AD1B9F19A
S315080048F0000F07D02046FEF77FFE002120463DF038
S31508004900F7FE85E72149D8F800003FF090FA3EF017
S3150800491006FA3EF005FA3B8995F8C0201F49D8F8F3
S3150800492000003FF084FAE8E73FF081FA3EF0F7F935
S315080049303EF0F6F995F8C0201949D8F800003FF07E
S3150800494076FA052385F82631BB7A022B0AD1B9F106
S31508004950000F07D02046FEF74FFE002120463DF007
S31508004960C7FE6CE70949D8F800003FF060FA3EF048
S31508004970D6F93EF0D5F93B8995F8C0200749D8F80D
S3150800498000003FF054FAE8E75048002023450508A0
S31508004990826E0508D76E0508D46805082B6F0508CA
S315080049A0C957050808B5074B4FF446720021184643
S315080049B042F0A9F8FF22827680F8222180F82A227E
S315080049C008BD00BFA80D00200B4B9A7E82420DD071
S315080049D093F8222182420BD093F82A22824209D1E7
S315080049E002224FF4847101FB023070470022F8E777
S315080049F00122F6E700207047A80D0020FF282DE9C0
S31508004A00F04107460E46904632D099B3A2F11703F5
S31508004A10E32B31D84FF6FF730C889C422CD08A883A
S31508004A209A4229D0CA889A4226D00A899A4223D01D
S31508004A30FF20FFF7C9FF054600B32146384619F09F
S31508004A40FBFC044688B94FF484720146284642F0B6
S31508004A505AF80B4BAF761A689B88C5F806206B8107
S31508004A6001236E61A5F818802B702046BDE8F081F9
S31508004A702524FAE72224F8E72124F6E71924F4E79F
S31508004A80596F0508FF2837B50C4625D0FFF79CFF58
S31508004A90054618B34CB9983000F0B0FF05F1600030
S31508004AA000F0ACFF204603B030BD0378052B03D0D9
S31508004AB0082B0AD00220F6E7002341F28831084A7B
S31508004AC00093983000F0B8FFEDE7002341F28831F3
S31508004AD0044A00936030F5E72520E4E72D20E2E755
S31508004AE0652A04081F2A0408174B984207D003F1C1
S31508004AF03802904203D003F1700290420AD1002393
S31508004B0000E001234FF48472104802FB030070474B
S31508004B100223F7E703F584729042F2D003F5A072F8
S31508004B209042EED003F5BC729042EAD003F50472C7
S31508004B309042EDD003F512729042E9D003F5207346
S31508004B409842E5D000207047080E0020A80D0020E6
S31508004B5013B590F82A00FFF737FF68B100F1600433
S31508004B60204600F04BFF00234FF47A71009320464D
S31508004B700123024A00F060FF02B010BD1F2A040894
S31508004B8070B5054600F07CFB0646284600F064F939
S31508004B902B68A94A23F47F43064023F0070386F0CF
S31508004BA001069342F6B200F0B2800BD802F17A42BF
S31508004BB0934200F0A08002F57D02934220D086F051
S31508004BC0010070BD9D4A9342F9D12879FFF7FCFE92
S31508004BD004460028F3D0EB790B2B3DD14269B5F892
S31508004BE005301188994221D16B89042B06D10378A7
S31508004BF0012B03D1EA6880F82030C261012321E045
S31508004C00A879FFF7E1FE04460028D8D0D03000F096
S31508004C10F5FE04F1600000F0F1FE04F1980000F0E2
S31508004C20EDFE00232370FF23A376C8E7D1889942B7
S31508004C300AD1AD89983000F0E1FE2946A07E3DF004
S31508004C40ECFE00231E43BAE712899A42F9D1A989D4
S31508004C50807E3DF0E3FEF4E71B2B01D01D2BAED181
S31508004C606169B5F8052048899042C7D048889042BE
S31508004C70C4D0C888904202D009899142E1D11D2B3F
S31508004C8002D1A07E19F0C8FB6B89022BB6D16269E6
S31508004C90B5F80530D1888B4208D012899A420ED0D1
S31508004CA0AD892946A07E3DF0B9FEA7E7E8791D281B
S31508004CB017D1E07B0228A1D112899A4205D1EA7957
S31508004CC01D2A13D1227C022A98D18B42AD89E8D1BC
S31508004CD004F1980000F092FE2946A07E3DF09DFE64
S31508004CE08CE71B28E8D1E07B0128E4E71B2AECD1F6
S31508004CF0227C012AE8E72879FFF766FE00283FF4B8
S31508004D005EAF6B79AA7943EA0223038357E72879CA
S31508004D10FFF75AFE044600283FF451AFB5F80520C0
S31508004D20037862B3092B8CD8012101FA03F010F439
S31508004D30127F0AD110F090001BD18B4281D12070CE
S31508004D40E169A07EFDF7F2F958E7002384F82230DE
S31508004D50A384A378052B05D102212370A07EFDF735
S31508004D6085FA4BE7012B7FF449AF0823032123700B
S31508004D70F4E70223A07E2370FDF778FA61E7013B8A
S31508004D80082B3FF65EAF01A252F823F0B14D00089A
S31508004D90434C0008DF4D0008174E0008434C000836
S31508004DA0FD4D0008474E0008434C0008CD4D00084D
S31508004DB094F82030807EE1692BB10223002223700B
S31508004DC0FDF7B4F93DE701222370F9E78378827C81
S31508004DD003441A730223002203700121BEE7837875
S31508004DE0827C03441A7340F20253438020463DF006
S31508004DF0D3FC024620BB04232370FFE68378827C1B
S31508004E0003441A7340F2011343803DF0C5FC024681
S31508004E10B0B90723F0E78378817CC2181173C2788A
S31508004E209A4205D10022052380F82220828493E73E
S31508004E3001338370DAE700BFA0000906A00009075E
S31508004E4002232370C9E78378827C03441A730022FD
S31508004E5080F82220828488E7F0B50368954A23F40F
S31508004E607F4323F007039342054691B004D0002000
S31508004E7080F0010011B0F0BD0079FFF7A5FD0446EA
S31508004E800028F4D0EB791D2BF1D14369B5F805203C
S31508004E909B889A42EBD16B89012B04D8A07E19F026
S31508004EA0BBFA0120E4E72A7B012A4CD0022A00F04B
S31508004EB08F80002AF2D1032BF0D10378B5F80D5074
S31508004EC0052BEBD190F82230002BE7D090F8217013
S31508004ED0002FE3D1838CAB42E0D1D03000F08EFDB9
S31508004EE004F1280604F1600000F088FD304600F061
S31508004EF0A5F9304684F822700AA93DF01DFE03463E
S31508004F0000B90A9BDDF83920DDF83510A07ECDE919
S31508004F1008129DF8342007929DF833200692DDF892
S31508004F202F2005929DF82E2004929DF82D2003929D
S31508004F309DF82C20CDE90152012200920022002181
S31508004F40FDF73EFAAAE7052BA8D10378052BA5D1CC
S31508004F5090F82230002BA1D090F82130022B9DD159
S31508004F60B5F80D20838C9A4298D1D03000F046FDD2
S31508004F7004F1280604F1600000F040FD304600F018
S31508004F805DF90023304684F822300AA93DF0D4FDA5
S31508004F90034600B90A9BDDF83920DDF83510A07EF6
S31508004FA0CDE908129DF8342007929DF83320069221
S31508004FB0DDF82F2005929DF82E2004922A7C039274
S31508004FC0EA7B0292B5F80D20019201220092B6E71B
S31508004FD0022B7FF463AF90F822306D7B002B3FF4F1
S31508004FE05DAFD03000F00AFD94F82330BBB1012D37
S31508004FF006D104F1600000F001FD002384F8223098
S315080050000026A07E32462B46032184F823603DF015
S3150800501087FD2A463146A07E3DF084FD3EE7002303
S3150800502094F8211084F82230012901D0042904D1EA
S315080050302B460022A07E3DF073FD94F82130012B0B
S3150800504031D013F0FD0F7FF429AF04F1280630465E
S3150800505000F0F4F830460AA93DF06EFD034600B9A3
S315080050600A9BDDF83910DDF8356094F82120A07E1A
S31508005070CDE908619DF8341007919DF83310069123
S31508005080DDF82F1005919DF82E1004919DF82D102E
S3150800509003919DF82C100291A18CCDE90051911E27
S315080050A04A424A414BE72A460021A07E3DF039FD97
S315080050B0F4E600BFA000090738B5002405464EF0FF
S315080050C05DFE074B1B681BB94EF053FE204638BDE4
S315080050D093F82A20AA4208BF1C461B68F3E700BFBC
S315080050E04C4800202DE97043044616460D46037BBE
S315080050F086B023F0180343F0100381610373014659
S315080051000D483DF000FED4E90489217BCDE90489E8
S31508005110227981F00403C1F3400101910292226BC6
S315080051202946009220463246C3F380033DF0C8FC68
S3150800513006B0BDE8708300BF4C4800202DE9F04159
S315080051400C4690461E46054686B000286FD00029B4
S315080051506DD04B68002B6AD0002A68D08B7BFF2B5A
S3150800516067D00A7C4FF6FF73002A52D0B8F802209F
S315080051709A425ED02368002B57D0A389173B9BB26F
S31508005180E32B52D84EF0FAFD07462B4B1B68002B33
S3150800519042D1A07BFFF790FF00283FD101AB04F175
S315080051A0100C1A4620686168083403C26445134621
S315080051B0F7D12068002110603822284641F0A3FC68
S315080051C001AC05F11C030DF1140C224603CA624515
S315080051D018605960144603F10803F6D11068186080
S315080051E09DF8303085F82460EB842B7BC5F8348035
S315080051F043F008032B73AE800EB1731E9EB2294688
S315080052000D48EE803DF070FD38464EF0B2FD0020A8
S3150800521008E0B8F80A20ABE79D42B7D138464EF009
S31508005220A8FD2E2006B0BDE8F0812120FAE722204D
S31508005230F8E72520F6E700BF4C48002070B505467C
S31508005240C8B14EF09BFD06460C4B1B682BB92D24A6
S3150800525030464EF08EFD204670BD9D42F5D12C7B22
S3150800526014F0100405D1062201212846FFF73AFF5B
S31508005270EEE70224ECE72224EDE700BF4C480020C5
S315080052800368764A23F47F4323F0070393422DE904
S31508005290F04705461BD002F1C06202F54032934240
S315080052A01BD002F1794293420CD10079FFF704FF33
S315080052B040B1B5F80520038D9A4203D01322022186
S315080052C0FFF710FF002080F00100BDE8F087807925
S315080052D0FFF7F2FE0028F1D1F4E7C3791D2B01D0C0
S315080052E01B2BEFD12879FFF7E7FE04460028E9D003
S315080052F090F82B20EB79F2B91D2BE3D094F82C000B
S31508005300B5F80520616BC0B149889142DAD11D2BE9
S3150800531002D1287919F080F86A89D2B2012A03D90C
S31508005320208DC31E93420AD22B2202212046FFF764
S31508005330D9FE0120C7E71B2BDFE74989E5E7297B6B
S3150800534094F824C0CF074FEA910301F002061BD553
S31508005350A380237B43F001032373A38826B1217B13
S31508005360238141F0020121739C4564D8E18CFF2911
S3150800537001D099425FD304385843E169013A83184A
S315080053808B4251D91D22D0E7277BF9071BD4E64665
S315080053904FF0010947F001072773A3805FFA8EF1E2
S315080053A0994203D361890B446381D6E709FA0EF85B
S315080053B0D4E9047147EA080741EAE871C4E90471C7
S315080053C00EF1010EEAE7B4F806E0A3EB0E0101F0D0
S315080053D03F0101390EF101095FFA81F859FA81F1A5
S315080053E089B23F2984BF47F004072773A180217B30
S315080053F0490705D44FF0010A013BDBB29E4501D3AC
S315080054004346CFE763450CD3E18C994209D3D4E9E7
S3150800541004710AFA03F947EA090741EAE971C4E996
S315080054200471013BDBB2E9E72363236A05F10D0149
S31508005430184441F073FB2046A188FFF789FBA28830
S31508005440E38CE2809A4205D0002E3FF472AFFF2B20
S315080054507FF46FAF0022114668E700BFA00006017F
S31508005460092838B504460FD9084D094928683EF079
S31508005470DEFC3DF054FC3DF053FC22460549286805
S315080054803EF0D5FC002038BD0420FCE7504800203B
S31508005490DC4405085F6F05082DE9F341044690F8DA
S315080054A0028008460D4617461E46FFF7D9FF4044B8
S315080054B0013080281DD9284E284930683EF0B7FCAF
S315080054C03DF02DFC3DF02CFC28463668A478FFF705
S315080054D0C7FF0134031980221C243046CDE9002475
S315080054E01F492A46DBB23EF0A2FC204602B0BDE8C0
S315080054F0F0816378AB4212D92626174F17493868C8
